
FBH.elf:     file format elf32-avr

Sections:
Idx Name          Size      VMA       LMA       File off  Algn
  0 .data         0000007c  00800100  00001122  000011b6  2**0
                  CONTENTS, ALLOC, LOAD, DATA
  1 .text         00001122  00000000  00000000  00000094  2**1
                  CONTENTS, ALLOC, LOAD, READONLY, CODE
  2 .bss          00000053  0080017c  0080017c  00001232  2**0
                  ALLOC
  3 .comment      00000030  00000000  00000000  00001232  2**0
                  CONTENTS, READONLY
  4 .note.gnu.avr.deviceinfo 00000040  00000000  00000000  00001264  2**2
                  CONTENTS, READONLY
  5 .debug_info   000005f4  00000000  00000000  000012a4  2**0
                  CONTENTS, READONLY, DEBUGGING
  6 .debug_abbrev 000005a2  00000000  00000000  00001898  2**0
                  CONTENTS, READONLY, DEBUGGING
  7 .debug_line   0000001a  00000000  00000000  00001e3a  2**0
                  CONTENTS, READONLY, DEBUGGING
  8 .debug_str    00000208  00000000  00000000  00001e54  2**0
                  CONTENTS, READONLY, DEBUGGING

Disassembly of section .text:

00000000 <__vectors>:
       0:	0c 94 34 00 	jmp	0x68	; 0x68 <__ctors_end>
       4:	0c 94 51 00 	jmp	0xa2	; 0xa2 <__bad_interrupt>
       8:	0c 94 51 00 	jmp	0xa2	; 0xa2 <__bad_interrupt>
       c:	0c 94 51 00 	jmp	0xa2	; 0xa2 <__bad_interrupt>
      10:	0c 94 51 00 	jmp	0xa2	; 0xa2 <__bad_interrupt>
      14:	0c 94 51 00 	jmp	0xa2	; 0xa2 <__bad_interrupt>
      18:	0c 94 51 00 	jmp	0xa2	; 0xa2 <__bad_interrupt>
      1c:	0c 94 51 00 	jmp	0xa2	; 0xa2 <__bad_interrupt>
      20:	0c 94 51 00 	jmp	0xa2	; 0xa2 <__bad_interrupt>
      24:	0c 94 51 00 	jmp	0xa2	; 0xa2 <__bad_interrupt>
      28:	0c 94 51 00 	jmp	0xa2	; 0xa2 <__bad_interrupt>
      2c:	0c 94 51 00 	jmp	0xa2	; 0xa2 <__bad_interrupt>
      30:	0c 94 51 00 	jmp	0xa2	; 0xa2 <__bad_interrupt>
      34:	0c 94 51 00 	jmp	0xa2	; 0xa2 <__bad_interrupt>
      38:	0c 94 3b 07 	jmp	0xe76	; 0xe76 <__vector_14>
      3c:	0c 94 51 00 	jmp	0xa2	; 0xa2 <__bad_interrupt>
      40:	0c 94 51 00 	jmp	0xa2	; 0xa2 <__bad_interrupt>
      44:	0c 94 51 00 	jmp	0xa2	; 0xa2 <__bad_interrupt>
      48:	0c 94 51 00 	jmp	0xa2	; 0xa2 <__bad_interrupt>
      4c:	0c 94 51 00 	jmp	0xa2	; 0xa2 <__bad_interrupt>
      50:	0c 94 51 00 	jmp	0xa2	; 0xa2 <__bad_interrupt>
      54:	0c 94 51 00 	jmp	0xa2	; 0xa2 <__bad_interrupt>
      58:	0c 94 51 00 	jmp	0xa2	; 0xa2 <__bad_interrupt>
      5c:	0c 94 51 00 	jmp	0xa2	; 0xa2 <__bad_interrupt>
      60:	0c 94 51 00 	jmp	0xa2	; 0xa2 <__bad_interrupt>
      64:	0c 94 51 00 	jmp	0xa2	; 0xa2 <__bad_interrupt>

00000068 <__ctors_end>:
      68:	11 24       	eor	r1, r1
      6a:	1f be       	out	0x3f, r1	; 63
      6c:	cf ef       	ldi	r28, 0xFF	; 255
      6e:	d8 e0       	ldi	r29, 0x08	; 8
      70:	de bf       	out	0x3e, r29	; 62
      72:	cd bf       	out	0x3d, r28	; 61

00000074 <__do_copy_data>:
      74:	11 e0       	ldi	r17, 0x01	; 1
      76:	a0 e0       	ldi	r26, 0x00	; 0
      78:	b1 e0       	ldi	r27, 0x01	; 1
      7a:	e2 e2       	ldi	r30, 0x22	; 34
      7c:	f1 e1       	ldi	r31, 0x11	; 17
      7e:	02 c0       	rjmp	.+4      	; 0x84 <__do_copy_data+0x10>
      80:	05 90       	lpm	r0, Z+
      82:	0d 92       	st	X+, r0
      84:	ac 37       	cpi	r26, 0x7C	; 124
      86:	b1 07       	cpc	r27, r17
      88:	d9 f7       	brne	.-10     	; 0x80 <__do_copy_data+0xc>

0000008a <__do_clear_bss>:
      8a:	21 e0       	ldi	r18, 0x01	; 1
      8c:	ac e7       	ldi	r26, 0x7C	; 124
      8e:	b1 e0       	ldi	r27, 0x01	; 1
      90:	01 c0       	rjmp	.+2      	; 0x94 <.do_clear_bss_start>

00000092 <.do_clear_bss_loop>:
      92:	1d 92       	st	X+, r1

00000094 <.do_clear_bss_start>:
      94:	af 3c       	cpi	r26, 0xCF	; 207
      96:	b2 07       	cpc	r27, r18
      98:	e1 f7       	brne	.-8      	; 0x92 <.do_clear_bss_loop>
      9a:	0e 94 d9 02 	call	0x5b2	; 0x5b2 <main>
      9e:	0c 94 8f 08 	jmp	0x111e	; 0x111e <_exit>

000000a2 <__bad_interrupt>:
      a2:	0c 94 00 00 	jmp	0	; 0x0 <__vectors>

000000a6 <wait_reset>:
      a6:	87 ee       	ldi	r24, 0xE7	; 231
      a8:	93 e0       	ldi	r25, 0x03	; 3
      aa:	01 97       	sbiw	r24, 0x01	; 1
      ac:	f1 f7       	brne	.-4      	; 0xaa <wait_reset+0x4>
      ae:	00 c0       	rjmp	.+0      	; 0xb0 <wait_reset+0xa>
      b0:	00 00       	nop
      b2:	08 95       	ret

000000b4 <wait_recovery>:
      b4:	8d e0       	ldi	r24, 0x0D	; 13
      b6:	8a 95       	dec	r24
      b8:	f1 f7       	brne	.-4      	; 0xb6 <wait_recovery+0x2>
      ba:	00 00       	nop
      bc:	08 95       	ret

000000be <wait_write_1>:
      be:	8d e0       	ldi	r24, 0x0D	; 13
      c0:	8a 95       	dec	r24
      c2:	f1 f7       	brne	.-4      	; 0xc0 <wait_write_1+0x2>
      c4:	00 00       	nop
      c6:	08 95       	ret

000000c8 <wait_write_0>:
      c8:	85 ed       	ldi	r24, 0xD5	; 213
      ca:	8a 95       	dec	r24
      cc:	f1 f7       	brne	.-4      	; 0xca <wait_write_0+0x2>
      ce:	00 00       	nop
      d0:	08 95       	ret

000000d2 <ow_rel>:
      d2:	3b 98       	cbi	0x07, 3	; 7
      d4:	43 9a       	sbi	0x08, 3	; 8
      d6:	08 95       	ret

000000d8 <ow_lo>:
      d8:	43 98       	cbi	0x08, 3	; 8
      da:	3b 9a       	sbi	0x07, 3	; 7
      dc:	08 95       	ret

000000de <crc8>:
      de:	fc 01       	movw	r30, r24
      e0:	ac 01       	movw	r20, r24
      e2:	48 5f       	subi	r20, 0xF8	; 248
      e4:	5f 4f       	sbci	r21, 0xFF	; 255
      e6:	80 e0       	ldi	r24, 0x00	; 0
      e8:	68 e1       	ldi	r22, 0x18	; 24
      ea:	21 91       	ld	r18, Z+
      ec:	98 e0       	ldi	r25, 0x08	; 8
      ee:	38 2f       	mov	r19, r24
      f0:	32 27       	eor	r19, r18
      f2:	73 2f       	mov	r23, r19
      f4:	71 70       	andi	r23, 0x01	; 1
      f6:	30 fd       	sbrc	r19, 0
      f8:	86 27       	eor	r24, r22
      fa:	86 95       	lsr	r24
      fc:	71 30       	cpi	r23, 0x01	; 1
      fe:	09 f4       	brne	.+2      	; 0x102 <crc8+0x24>
     100:	80 68       	ori	r24, 0x80	; 128
     102:	26 95       	lsr	r18
     104:	91 50       	subi	r25, 0x01	; 1
     106:	99 f7       	brne	.-26     	; 0xee <crc8+0x10>
     108:	e4 17       	cp	r30, r20
     10a:	f5 07       	cpc	r31, r21
     10c:	71 f7       	brne	.-36     	; 0xea <crc8+0xc>
     10e:	08 95       	ret

00000110 <ow_init>:
     110:	0c 94 69 00 	jmp	0xd2	; 0xd2 <ow_rel>

00000114 <ow_reset>:
     114:	0e 94 6c 00 	call	0xd8	; 0xd8 <ow_lo>
     118:	87 ee       	ldi	r24, 0xE7	; 231
     11a:	93 e0       	ldi	r25, 0x03	; 3
     11c:	01 97       	sbiw	r24, 0x01	; 1
     11e:	f1 f7       	brne	.-4      	; 0x11c <ow_reset+0x8>
     120:	00 c0       	rjmp	.+0      	; 0x122 <ow_reset+0xe>
     122:	00 00       	nop
     124:	0e 94 69 00 	call	0xd2	; 0xd2 <ow_rel>
     128:	87 ee       	ldi	r24, 0xE7	; 231
     12a:	93 e0       	ldi	r25, 0x03	; 3
     12c:	01 97       	sbiw	r24, 0x01	; 1
     12e:	f1 f7       	brne	.-4      	; 0x12c <ow_reset+0x18>
     130:	00 c0       	rjmp	.+0      	; 0x132 <ow_reset+0x1e>
     132:	00 00       	nop
     134:	08 95       	ret

00000136 <ow_send>:
     136:	ef 92       	push	r14
     138:	ff 92       	push	r15
     13a:	0f 93       	push	r16
     13c:	1f 93       	push	r17
     13e:	cf 93       	push	r28
     140:	df 93       	push	r29
     142:	7c 01       	movw	r14, r24
     144:	00 e0       	ldi	r16, 0x00	; 0
     146:	10 e0       	ldi	r17, 0x00	; 0
     148:	c6 2f       	mov	r28, r22
     14a:	d0 e0       	ldi	r29, 0x00	; 0
     14c:	0c 17       	cp	r16, r28
     14e:	1d 07       	cpc	r17, r29
     150:	04 f5       	brge	.+64     	; 0x192 <ow_send+0x5c>
     152:	e0 fe       	sbrs	r14, 0
     154:	0d c0       	rjmp	.+26     	; 0x170 <ow_send+0x3a>
     156:	0e 94 6c 00 	call	0xd8	; 0xd8 <ow_lo>
     15a:	8d e0       	ldi	r24, 0x0D	; 13
     15c:	8a 95       	dec	r24
     15e:	f1 f7       	brne	.-4      	; 0x15c <ow_send+0x26>
     160:	00 00       	nop
     162:	0e 94 69 00 	call	0xd2	; 0xd2 <ow_rel>
     166:	85 ed       	ldi	r24, 0xD5	; 213
     168:	8a 95       	dec	r24
     16a:	f1 f7       	brne	.-4      	; 0x168 <ow_send+0x32>
     16c:	00 00       	nop
     16e:	08 c0       	rjmp	.+16     	; 0x180 <ow_send+0x4a>
     170:	0e 94 6c 00 	call	0xd8	; 0xd8 <ow_lo>
     174:	85 ed       	ldi	r24, 0xD5	; 213
     176:	8a 95       	dec	r24
     178:	f1 f7       	brne	.-4      	; 0x176 <ow_send+0x40>
     17a:	00 00       	nop
     17c:	0e 94 69 00 	call	0xd2	; 0xd2 <ow_rel>
     180:	f5 94       	asr	r15
     182:	e7 94       	ror	r14
     184:	8d e0       	ldi	r24, 0x0D	; 13
     186:	8a 95       	dec	r24
     188:	f1 f7       	brne	.-4      	; 0x186 <ow_send+0x50>
     18a:	00 00       	nop
     18c:	0f 5f       	subi	r16, 0xFF	; 255
     18e:	1f 4f       	sbci	r17, 0xFF	; 255
     190:	dd cf       	rjmp	.-70     	; 0x14c <ow_send+0x16>
     192:	df 91       	pop	r29
     194:	cf 91       	pop	r28
     196:	1f 91       	pop	r17
     198:	0f 91       	pop	r16
     19a:	ff 90       	pop	r15
     19c:	ef 90       	pop	r14
     19e:	08 95       	ret

000001a0 <ow_write>:
     1a0:	68 e0       	ldi	r22, 0x08	; 8
     1a2:	90 e0       	ldi	r25, 0x00	; 0
     1a4:	0c 94 9b 00 	jmp	0x136	; 0x136 <ow_send>

000001a8 <ow_read>:
     1a8:	2f 92       	push	r2
     1aa:	3f 92       	push	r3
     1ac:	4f 92       	push	r4
     1ae:	5f 92       	push	r5
     1b0:	6f 92       	push	r6
     1b2:	7f 92       	push	r7
     1b4:	8f 92       	push	r8
     1b6:	9f 92       	push	r9
     1b8:	af 92       	push	r10
     1ba:	bf 92       	push	r11
     1bc:	cf 92       	push	r12
     1be:	df 92       	push	r13
     1c0:	ef 92       	push	r14
     1c2:	ff 92       	push	r15
     1c4:	0f 93       	push	r16
     1c6:	1f 93       	push	r17
     1c8:	cf 93       	push	r28
     1ca:	df 93       	push	r29
     1cc:	00 d0       	rcall	.+0      	; 0x1ce <ow_read+0x26>
     1ce:	00 d0       	rcall	.+0      	; 0x1d0 <ow_read+0x28>
     1d0:	cd b7       	in	r28, 0x3d	; 61
     1d2:	de b7       	in	r29, 0x3e	; 62
     1d4:	a1 2c       	mov	r10, r1
     1d6:	b1 2c       	mov	r11, r1
     1d8:	41 2c       	mov	r4, r1
     1da:	51 2c       	mov	r5, r1
     1dc:	61 2c       	mov	r6, r1
     1de:	71 2c       	mov	r7, r1
     1e0:	81 2c       	mov	r8, r1
     1e2:	91 2c       	mov	r9, r1
     1e4:	c1 2c       	mov	r12, r1
     1e6:	d1 2c       	mov	r13, r1
     1e8:	21 e0       	ldi	r18, 0x01	; 1
     1ea:	2b 83       	std	Y+3, r18	; 0x03
     1ec:	1c 82       	std	Y+4, r1	; 0x04
     1ee:	10 e0       	ldi	r17, 0x00	; 0
     1f0:	00 e0       	ldi	r16, 0x00	; 0
     1f2:	f1 2c       	mov	r15, r1
     1f4:	e1 2c       	mov	r14, r1
     1f6:	31 2c       	mov	r3, r1
     1f8:	21 2c       	mov	r2, r1
     1fa:	28 2f       	mov	r18, r24
     1fc:	30 e0       	ldi	r19, 0x00	; 0
     1fe:	3a 83       	std	Y+2, r19	; 0x02
     200:	29 83       	std	Y+1, r18	; 0x01
     202:	29 81       	ldd	r18, Y+1	; 0x01
     204:	3a 81       	ldd	r19, Y+2	; 0x02
     206:	a2 16       	cp	r10, r18
     208:	b3 06       	cpc	r11, r19
     20a:	9c f5       	brge	.+102    	; 0x272 <ow_read+0xca>
     20c:	0e 94 6c 00 	call	0xd8	; 0xd8 <ow_lo>
     210:	3d e0       	ldi	r19, 0x0D	; 13
     212:	3a 95       	dec	r19
     214:	f1 f7       	brne	.-4      	; 0x212 <ow_read+0x6a>
     216:	00 00       	nop
     218:	0e 94 69 00 	call	0xd2	; 0xd2 <ow_rel>
     21c:	85 e1       	ldi	r24, 0x15	; 21
     21e:	8a 95       	dec	r24
     220:	f1 f7       	brne	.-4      	; 0x21e <ow_read+0x76>
     222:	00 00       	nop
     224:	33 9b       	sbis	0x06, 3	; 6
     226:	0a c0       	rjmp	.+20     	; 0x23c <ow_read+0x94>
     228:	9b 81       	ldd	r25, Y+3	; 0x03
     22a:	49 2a       	or	r4, r25
     22c:	2c 81       	ldd	r18, Y+4	; 0x04
     22e:	52 2a       	or	r5, r18
     230:	61 2a       	or	r6, r17
     232:	70 2a       	or	r7, r16
     234:	8f 28       	or	r8, r15
     236:	9e 28       	or	r9, r14
     238:	c3 28       	or	r12, r3
     23a:	d2 28       	or	r13, r2
     23c:	2b 81       	ldd	r18, Y+3	; 0x03
     23e:	3c 81       	ldd	r19, Y+4	; 0x04
     240:	41 2f       	mov	r20, r17
     242:	50 2f       	mov	r21, r16
     244:	6f 2d       	mov	r22, r15
     246:	7e 2d       	mov	r23, r14
     248:	83 2d       	mov	r24, r3
     24a:	92 2d       	mov	r25, r2
     24c:	01 e0       	ldi	r16, 0x01	; 1
     24e:	0e 94 f1 07 	call	0xfe2	; 0xfe2 <__ashldi3>
     252:	2b 83       	std	Y+3, r18	; 0x03
     254:	3c 83       	std	Y+4, r19	; 0x04
     256:	14 2f       	mov	r17, r20
     258:	05 2f       	mov	r16, r21
     25a:	f6 2e       	mov	r15, r22
     25c:	e7 2e       	mov	r14, r23
     25e:	38 2e       	mov	r3, r24
     260:	29 2e       	mov	r2, r25
     262:	35 ed       	ldi	r19, 0xD5	; 213
     264:	3a 95       	dec	r19
     266:	f1 f7       	brne	.-4      	; 0x264 <ow_read+0xbc>
     268:	00 00       	nop
     26a:	8f ef       	ldi	r24, 0xFF	; 255
     26c:	a8 1a       	sub	r10, r24
     26e:	b8 0a       	sbc	r11, r24
     270:	c8 cf       	rjmp	.-112    	; 0x202 <ow_read+0x5a>
     272:	92 01       	movw	r18, r4
     274:	a3 01       	movw	r20, r6
     276:	b4 01       	movw	r22, r8
     278:	c6 01       	movw	r24, r12
     27a:	0f 90       	pop	r0
     27c:	0f 90       	pop	r0
     27e:	0f 90       	pop	r0
     280:	0f 90       	pop	r0
     282:	df 91       	pop	r29
     284:	cf 91       	pop	r28
     286:	1f 91       	pop	r17
     288:	0f 91       	pop	r16
     28a:	ff 90       	pop	r15
     28c:	ef 90       	pop	r14
     28e:	df 90       	pop	r13
     290:	cf 90       	pop	r12
     292:	bf 90       	pop	r11
     294:	af 90       	pop	r10
     296:	9f 90       	pop	r9
     298:	8f 90       	pop	r8
     29a:	7f 90       	pop	r7
     29c:	6f 90       	pop	r6
     29e:	5f 90       	pop	r5
     2a0:	4f 90       	pop	r4
     2a2:	3f 90       	pop	r3
     2a4:	2f 90       	pop	r2
     2a6:	08 95       	ret

000002a8 <ow_read_byte>:
     2a8:	0f 93       	push	r16
     2aa:	1f 93       	push	r17
     2ac:	cf 93       	push	r28
     2ae:	df 93       	push	r29
     2b0:	08 e0       	ldi	r16, 0x08	; 8
     2b2:	10 e0       	ldi	r17, 0x00	; 0
     2b4:	c0 e0       	ldi	r28, 0x00	; 0
     2b6:	d1 e0       	ldi	r29, 0x01	; 1
     2b8:	0e 94 6c 00 	call	0xd8	; 0xd8 <ow_lo>
     2bc:	8d e0       	ldi	r24, 0x0D	; 13
     2be:	8a 95       	dec	r24
     2c0:	f1 f7       	brne	.-4      	; 0x2be <ow_read_byte+0x16>
     2c2:	00 00       	nop
     2c4:	0e 94 69 00 	call	0xd2	; 0xd2 <ow_rel>
     2c8:	85 e1       	ldi	r24, 0x15	; 21
     2ca:	8a 95       	dec	r24
     2cc:	f1 f7       	brne	.-4      	; 0x2ca <ow_read_byte+0x22>
     2ce:	00 00       	nop
     2d0:	33 99       	sbic	0x06, 3	; 6
     2d2:	cd 2b       	or	r28, r29
     2d4:	dd 0f       	add	r29, r29
     2d6:	85 ed       	ldi	r24, 0xD5	; 213
     2d8:	8a 95       	dec	r24
     2da:	f1 f7       	brne	.-4      	; 0x2d8 <ow_read_byte+0x30>
     2dc:	00 00       	nop
     2de:	01 50       	subi	r16, 0x01	; 1
     2e0:	11 09       	sbc	r17, r1
     2e2:	51 f7       	brne	.-44     	; 0x2b8 <ow_read_byte+0x10>
     2e4:	8c 2f       	mov	r24, r28
     2e6:	df 91       	pop	r29
     2e8:	cf 91       	pop	r28
     2ea:	1f 91       	pop	r17
     2ec:	0f 91       	pop	r16
     2ee:	08 95       	ret

000002f0 <ow_start>:
     2f0:	0e 94 8a 00 	call	0x114	; 0x114 <ow_reset>
     2f4:	8c ec       	ldi	r24, 0xCC	; 204
     2f6:	0e 94 d0 00 	call	0x1a0	; 0x1a0 <ow_write>
     2fa:	84 e4       	ldi	r24, 0x44	; 68
     2fc:	0c 94 d0 00 	jmp	0x1a0	; 0x1a0 <ow_write>

00000300 <ow_temp_id>:
     300:	0f 93       	push	r16
     302:	1f 93       	push	r17
     304:	cf 93       	push	r28
     306:	df 93       	push	r29
     308:	8c 01       	movw	r16, r24
     30a:	0e 94 8a 00 	call	0x114	; 0x114 <ow_reset>
     30e:	85 e5       	ldi	r24, 0x55	; 85
     310:	0e 94 d0 00 	call	0x1a0	; 0x1a0 <ow_write>
     314:	e8 01       	movw	r28, r16
     316:	08 5f       	subi	r16, 0xF8	; 248
     318:	1f 4f       	sbci	r17, 0xFF	; 255
     31a:	89 91       	ld	r24, Y+
     31c:	0e 94 d0 00 	call	0x1a0	; 0x1a0 <ow_write>
     320:	0c 17       	cp	r16, r28
     322:	1d 07       	cpc	r17, r29
     324:	d1 f7       	brne	.-12     	; 0x31a <ow_temp_id+0x1a>
     326:	8e eb       	ldi	r24, 0xBE	; 190
     328:	0e 94 d0 00 	call	0x1a0	; 0x1a0 <ow_write>
     32c:	cc e7       	ldi	r28, 0x7C	; 124
     32e:	d1 e0       	ldi	r29, 0x01	; 1
     330:	05 e8       	ldi	r16, 0x85	; 133
     332:	11 e0       	ldi	r17, 0x01	; 1
     334:	0e 94 54 01 	call	0x2a8	; 0x2a8 <ow_read_byte>
     338:	89 93       	st	Y+, r24
     33a:	0c 17       	cp	r16, r28
     33c:	1d 07       	cpc	r17, r29
     33e:	d1 f7       	brne	.-12     	; 0x334 <ow_temp_id+0x34>
     340:	0e 94 8a 00 	call	0x114	; 0x114 <ow_reset>
     344:	80 91 7c 01 	lds	r24, 0x017C	; 0x80017c <__data_end>
     348:	90 91 7d 01 	lds	r25, 0x017D	; 0x80017d <__data_end+0x1>
     34c:	df 91       	pop	r29
     34e:	cf 91       	pop	r28
     350:	1f 91       	pop	r17
     352:	0f 91       	pop	r16
     354:	08 95       	ret

00000356 <get_temp_millis>:
     356:	20 91 7c 01 	lds	r18, 0x017C	; 0x80017c <__data_end>
     35a:	23 ff       	sbrs	r18, 3
     35c:	03 c0       	rjmp	.+6      	; 0x364 <get_temp_millis+0xe>
     35e:	88 e8       	ldi	r24, 0x88	; 136
     360:	93 e1       	ldi	r25, 0x13	; 19
     362:	02 c0       	rjmp	.+4      	; 0x368 <get_temp_millis+0x12>
     364:	80 e0       	ldi	r24, 0x00	; 0
     366:	90 e0       	ldi	r25, 0x00	; 0
     368:	22 ff       	sbrs	r18, 2
     36a:	02 c0       	rjmp	.+4      	; 0x370 <get_temp_millis+0x1a>
     36c:	8c 53       	subi	r24, 0x3C	; 60
     36e:	96 4f       	sbci	r25, 0xF6	; 246
     370:	21 ff       	sbrs	r18, 1
     372:	02 c0       	rjmp	.+4      	; 0x378 <get_temp_millis+0x22>
     374:	8e 51       	subi	r24, 0x1E	; 30
     376:	9b 4f       	sbci	r25, 0xFB	; 251
     378:	20 ff       	sbrs	r18, 0
     37a:	02 c0       	rjmp	.+4      	; 0x380 <get_temp_millis+0x2a>
     37c:	8f 58       	subi	r24, 0x8F	; 143
     37e:	9d 4f       	sbci	r25, 0xFD	; 253
     380:	08 95       	ret

00000382 <temp_to_millis>:
     382:	28 2f       	mov	r18, r24
     384:	83 ff       	sbrs	r24, 3
     386:	03 c0       	rjmp	.+6      	; 0x38e <temp_to_millis+0xc>
     388:	88 e8       	ldi	r24, 0x88	; 136
     38a:	93 e1       	ldi	r25, 0x13	; 19
     38c:	02 c0       	rjmp	.+4      	; 0x392 <temp_to_millis+0x10>
     38e:	80 e0       	ldi	r24, 0x00	; 0
     390:	90 e0       	ldi	r25, 0x00	; 0
     392:	22 ff       	sbrs	r18, 2
     394:	02 c0       	rjmp	.+4      	; 0x39a <temp_to_millis+0x18>
     396:	8c 53       	subi	r24, 0x3C	; 60
     398:	96 4f       	sbci	r25, 0xF6	; 246
     39a:	21 ff       	sbrs	r18, 1
     39c:	02 c0       	rjmp	.+4      	; 0x3a2 <temp_to_millis+0x20>
     39e:	8e 51       	subi	r24, 0x1E	; 30
     3a0:	9b 4f       	sbci	r25, 0xFB	; 251
     3a2:	20 ff       	sbrs	r18, 0
     3a4:	02 c0       	rjmp	.+4      	; 0x3aa <temp_to_millis+0x28>
     3a6:	8f 58       	subi	r24, 0x8F	; 143
     3a8:	9d 4f       	sbci	r25, 0xFD	; 253
     3aa:	08 95       	ret

000003ac <ow_read_single_id>:
     3ac:	0f 93       	push	r16
     3ae:	1f 93       	push	r17
     3b0:	cf 93       	push	r28
     3b2:	df 93       	push	r29
     3b4:	8c 01       	movw	r16, r24
     3b6:	0e 94 8a 00 	call	0x114	; 0x114 <ow_reset>
     3ba:	83 e3       	ldi	r24, 0x33	; 51
     3bc:	0e 94 d0 00 	call	0x1a0	; 0x1a0 <ow_write>
     3c0:	e8 01       	movw	r28, r16
     3c2:	08 5f       	subi	r16, 0xF8	; 248
     3c4:	1f 4f       	sbci	r17, 0xFF	; 255
     3c6:	0e 94 54 01 	call	0x2a8	; 0x2a8 <ow_read_byte>
     3ca:	89 93       	st	Y+, r24
     3cc:	c0 17       	cp	r28, r16
     3ce:	d1 07       	cpc	r29, r17
     3d0:	d1 f7       	brne	.-12     	; 0x3c6 <ow_read_single_id+0x1a>
     3d2:	df 91       	pop	r29
     3d4:	cf 91       	pop	r28
     3d6:	1f 91       	pop	r17
     3d8:	0f 91       	pop	r16
     3da:	0c 94 8a 00 	jmp	0x114	; 0x114 <ow_reset>

000003de <max31855initSW>:
     3de:	56 9a       	sbi	0x0a, 6	; 10
     3e0:	5e 98       	cbi	0x0b, 6	; 11
     3e2:	55 98       	cbi	0x0a, 5	; 10
     3e4:	5d 98       	cbi	0x0b, 5	; 11
     3e6:	57 9a       	sbi	0x0a, 7	; 10
     3e8:	5f 9a       	sbi	0x0b, 7	; 11
     3ea:	8f ec       	ldi	r24, 0xCF	; 207
     3ec:	97 e0       	ldi	r25, 0x07	; 7
     3ee:	01 97       	sbiw	r24, 0x01	; 1
     3f0:	f1 f7       	brne	.-4      	; 0x3ee <max31855initSW+0x10>
     3f2:	00 c0       	rjmp	.+0      	; 0x3f4 <max31855initSW+0x16>
     3f4:	00 00       	nop
     3f6:	08 95       	ret

000003f8 <max31855initHW>:
     3f8:	84 b1       	in	r24, 0x04	; 4
     3fa:	8c 62       	ori	r24, 0x2C	; 44
     3fc:	84 b9       	out	0x04, r24	; 4
     3fe:	24 98       	cbi	0x04, 4	; 4
     400:	57 9a       	sbi	0x0a, 7	; 10
     402:	5f 9a       	sbi	0x0b, 7	; 11
     404:	80 e5       	ldi	r24, 0x50	; 80
     406:	8c bd       	out	0x2c, r24	; 44
     408:	1d bc       	out	0x2d, r1	; 45
     40a:	8f ec       	ldi	r24, 0xCF	; 207
     40c:	97 e0       	ldi	r25, 0x07	; 7
     40e:	01 97       	sbiw	r24, 0x01	; 1
     410:	f1 f7       	brne	.-4      	; 0x40e <__LOCK_REGION_LENGTH__+0xe>
     412:	00 c0       	rjmp	.+0      	; 0x414 <__LOCK_REGION_LENGTH__+0x14>
     414:	00 00       	nop
     416:	08 95       	ret

00000418 <SPItransferByte>:
     418:	8e bd       	out	0x2e, r24	; 46
     41a:	0d b4       	in	r0, 0x2d	; 45
     41c:	07 fe       	sbrs	r0, 7
     41e:	fd cf       	rjmp	.-6      	; 0x41a <SPItransferByte+0x2>
     420:	8e b5       	in	r24, 0x2e	; 46
     422:	08 95       	ret

00000424 <readTempHW>:
     424:	5f 98       	cbi	0x0b, 7	; 11
     426:	8f ec       	ldi	r24, 0xCF	; 207
     428:	97 e0       	ldi	r25, 0x07	; 7
     42a:	01 97       	sbiw	r24, 0x01	; 1
     42c:	f1 f7       	brne	.-4      	; 0x42a <readTempHW+0x6>
     42e:	00 c0       	rjmp	.+0      	; 0x430 <readTempHW+0xc>
     430:	00 00       	nop
     432:	80 e0       	ldi	r24, 0x00	; 0
     434:	0e 94 0c 02 	call	0x418	; 0x418 <SPItransferByte>
     438:	80 93 97 01 	sts	0x0197, r24	; 0x800197 <max31855+0x8>
     43c:	80 e0       	ldi	r24, 0x00	; 0
     43e:	0e 94 0c 02 	call	0x418	; 0x418 <SPItransferByte>
     442:	80 93 96 01 	sts	0x0196, r24	; 0x800196 <max31855+0x7>
     446:	80 e0       	ldi	r24, 0x00	; 0
     448:	0e 94 0c 02 	call	0x418	; 0x418 <SPItransferByte>
     44c:	80 93 95 01 	sts	0x0195, r24	; 0x800195 <max31855+0x6>
     450:	80 e0       	ldi	r24, 0x00	; 0
     452:	0e 94 0c 02 	call	0x418	; 0x418 <SPItransferByte>
     456:	80 93 94 01 	sts	0x0194, r24	; 0x800194 <max31855+0x5>
     45a:	5f 9a       	sbi	0x0b, 7	; 11
     45c:	10 92 8f 01 	sts	0x018F, r1	; 0x80018f <max31855>
     460:	80 ff       	sbrs	r24, 0
     462:	03 c0       	rjmp	.+6      	; 0x46a <readTempHW+0x46>
     464:	91 e0       	ldi	r25, 0x01	; 1
     466:	90 93 8f 01 	sts	0x018F, r25	; 0x80018f <max31855>
     46a:	81 ff       	sbrs	r24, 1
     46c:	03 c0       	rjmp	.+6      	; 0x474 <readTempHW+0x50>
     46e:	92 e0       	ldi	r25, 0x02	; 2
     470:	90 93 8f 01 	sts	0x018F, r25	; 0x80018f <max31855>
     474:	82 ff       	sbrs	r24, 2
     476:	03 c0       	rjmp	.+6      	; 0x47e <readTempHW+0x5a>
     478:	83 e0       	ldi	r24, 0x03	; 3
     47a:	80 93 8f 01 	sts	0x018F, r24	; 0x80018f <max31855>
     47e:	20 91 96 01 	lds	r18, 0x0196	; 0x800196 <max31855+0x7>
     482:	20 fd       	sbrc	r18, 0
     484:	12 c0       	rjmp	.+36     	; 0x4aa <readTempHW+0x86>
     486:	80 91 95 01 	lds	r24, 0x0195	; 0x800195 <max31855+0x6>
     48a:	80 93 91 01 	sts	0x0191, r24	; 0x800191 <max31855+0x2>
     48e:	80 91 97 01 	lds	r24, 0x0197	; 0x800197 <max31855+0x8>
     492:	30 e1       	ldi	r19, 0x10	; 16
     494:	83 9f       	mul	r24, r19
     496:	c0 01       	movw	r24, r0
     498:	11 24       	eor	r1, r1
     49a:	22 95       	swap	r18
     49c:	2f 70       	andi	r18, 0x0F	; 15
     49e:	82 2b       	or	r24, r18
     4a0:	90 93 93 01 	sts	0x0193, r25	; 0x800193 <max31855+0x4>
     4a4:	80 93 92 01 	sts	0x0192, r24	; 0x800192 <max31855+0x3>
     4a8:	08 95       	ret
     4aa:	10 92 91 01 	sts	0x0191, r1	; 0x800191 <max31855+0x2>
     4ae:	10 92 93 01 	sts	0x0193, r1	; 0x800193 <max31855+0x4>
     4b2:	10 92 92 01 	sts	0x0192, r1	; 0x800192 <max31855+0x3>
     4b6:	81 e0       	ldi	r24, 0x01	; 1
     4b8:	80 93 90 01 	sts	0x0190, r24	; 0x800190 <max31855+0x1>
     4bc:	08 95       	ret

000004be <readTempSW>:
     4be:	5f 98       	cbi	0x0b, 7	; 11
     4c0:	8f ec       	ldi	r24, 0xCF	; 207
     4c2:	97 e0       	ldi	r25, 0x07	; 7
     4c4:	01 97       	sbiw	r24, 0x01	; 1
     4c6:	f1 f7       	brne	.-4      	; 0x4c4 <readTempSW+0x6>
     4c8:	00 c0       	rjmp	.+0      	; 0x4ca <readTempSW+0xc>
     4ca:	00 00       	nop
     4cc:	2f e0       	ldi	r18, 0x0F	; 15
     4ce:	80 e0       	ldi	r24, 0x00	; 0
     4d0:	90 e0       	ldi	r25, 0x00	; 0
     4d2:	41 e0       	ldi	r20, 0x01	; 1
     4d4:	50 e0       	ldi	r21, 0x00	; 0
     4d6:	5e 9a       	sbi	0x0b, 6	; 11
     4d8:	e2 e0       	ldi	r30, 0x02	; 2
     4da:	ea 95       	dec	r30
     4dc:	f1 f7       	brne	.-4      	; 0x4da <readTempSW+0x1c>
     4de:	00 c0       	rjmp	.+0      	; 0x4e0 <readTempSW+0x22>
     4e0:	4d 9b       	sbis	0x09, 5	; 9
     4e2:	09 c0       	rjmp	.+18     	; 0x4f6 <readTempSW+0x38>
     4e4:	ba 01       	movw	r22, r20
     4e6:	02 2e       	mov	r0, r18
     4e8:	02 c0       	rjmp	.+4      	; 0x4ee <readTempSW+0x30>
     4ea:	66 0f       	add	r22, r22
     4ec:	77 1f       	adc	r23, r23
     4ee:	0a 94       	dec	r0
     4f0:	e2 f7       	brpl	.-8      	; 0x4ea <readTempSW+0x2c>
     4f2:	86 2b       	or	r24, r22
     4f4:	97 2b       	or	r25, r23
     4f6:	ef ec       	ldi	r30, 0xCF	; 207
     4f8:	f7 e0       	ldi	r31, 0x07	; 7
     4fa:	31 97       	sbiw	r30, 0x01	; 1
     4fc:	f1 f7       	brne	.-4      	; 0x4fa <readTempSW+0x3c>
     4fe:	00 c0       	rjmp	.+0      	; 0x500 <readTempSW+0x42>
     500:	00 00       	nop
     502:	5e 98       	cbi	0x0b, 6	; 11
     504:	ef ec       	ldi	r30, 0xCF	; 207
     506:	f7 e0       	ldi	r31, 0x07	; 7
     508:	31 97       	sbiw	r30, 0x01	; 1
     50a:	f1 f7       	brne	.-4      	; 0x508 <readTempSW+0x4a>
     50c:	00 c0       	rjmp	.+0      	; 0x50e <readTempSW+0x50>
     50e:	00 00       	nop
     510:	21 50       	subi	r18, 0x01	; 1
     512:	08 f7       	brcc	.-62     	; 0x4d6 <readTempSW+0x18>
     514:	4f e0       	ldi	r20, 0x0F	; 15
     516:	20 e0       	ldi	r18, 0x00	; 0
     518:	30 e0       	ldi	r19, 0x00	; 0
     51a:	61 e0       	ldi	r22, 0x01	; 1
     51c:	70 e0       	ldi	r23, 0x00	; 0
     51e:	5e 9a       	sbi	0x0b, 6	; 11
     520:	f2 e0       	ldi	r31, 0x02	; 2
     522:	fa 95       	dec	r31
     524:	f1 f7       	brne	.-4      	; 0x522 <readTempSW+0x64>
     526:	00 c0       	rjmp	.+0      	; 0x528 <readTempSW+0x6a>
     528:	4d 9b       	sbis	0x09, 5	; 9
     52a:	09 c0       	rjmp	.+18     	; 0x53e <readTempSW+0x80>
     52c:	fb 01       	movw	r30, r22
     52e:	04 2e       	mov	r0, r20
     530:	02 c0       	rjmp	.+4      	; 0x536 <readTempSW+0x78>
     532:	ee 0f       	add	r30, r30
     534:	ff 1f       	adc	r31, r31
     536:	0a 94       	dec	r0
     538:	e2 f7       	brpl	.-8      	; 0x532 <readTempSW+0x74>
     53a:	2e 2b       	or	r18, r30
     53c:	3f 2b       	or	r19, r31
     53e:	ef ec       	ldi	r30, 0xCF	; 207
     540:	f7 e0       	ldi	r31, 0x07	; 7
     542:	31 97       	sbiw	r30, 0x01	; 1
     544:	f1 f7       	brne	.-4      	; 0x542 <readTempSW+0x84>
     546:	00 c0       	rjmp	.+0      	; 0x548 <readTempSW+0x8a>
     548:	00 00       	nop
     54a:	5e 98       	cbi	0x0b, 6	; 11
     54c:	ef ec       	ldi	r30, 0xCF	; 207
     54e:	f7 e0       	ldi	r31, 0x07	; 7
     550:	31 97       	sbiw	r30, 0x01	; 1
     552:	f1 f7       	brne	.-4      	; 0x550 <readTempSW+0x92>
     554:	00 c0       	rjmp	.+0      	; 0x556 <readTempSW+0x98>
     556:	00 00       	nop
     558:	41 50       	subi	r20, 0x01	; 1
     55a:	08 f7       	brcc	.-62     	; 0x51e <readTempSW+0x60>
     55c:	5f 9a       	sbi	0x0b, 7	; 11
     55e:	20 fd       	sbrc	r18, 0
     560:	03 c0       	rjmp	.+6      	; 0x568 <readTempSW+0xaa>
     562:	10 92 8f 01 	sts	0x018F, r1	; 0x80018f <max31855>
     566:	03 c0       	rjmp	.+6      	; 0x56e <readTempSW+0xb0>
     568:	41 e0       	ldi	r20, 0x01	; 1
     56a:	40 93 8f 01 	sts	0x018F, r20	; 0x80018f <max31855>
     56e:	21 ff       	sbrs	r18, 1
     570:	03 c0       	rjmp	.+6      	; 0x578 <readTempSW+0xba>
     572:	42 e0       	ldi	r20, 0x02	; 2
     574:	40 93 8f 01 	sts	0x018F, r20	; 0x80018f <max31855>
     578:	22 ff       	sbrs	r18, 2
     57a:	03 c0       	rjmp	.+6      	; 0x582 <readTempSW+0xc4>
     57c:	43 e0       	ldi	r20, 0x03	; 3
     57e:	40 93 8f 01 	sts	0x018F, r20	; 0x80018f <max31855>
     582:	80 fd       	sbrc	r24, 0
     584:	0c c0       	rjmp	.+24     	; 0x59e <readTempSW+0xe0>
     586:	30 93 91 01 	sts	0x0191, r19	; 0x800191 <max31855+0x2>
     58a:	24 e0       	ldi	r18, 0x04	; 4
     58c:	96 95       	lsr	r25
     58e:	87 95       	ror	r24
     590:	2a 95       	dec	r18
     592:	e1 f7       	brne	.-8      	; 0x58c <readTempSW+0xce>
     594:	90 93 93 01 	sts	0x0193, r25	; 0x800193 <max31855+0x4>
     598:	80 93 92 01 	sts	0x0192, r24	; 0x800192 <max31855+0x3>
     59c:	08 95       	ret
     59e:	10 92 91 01 	sts	0x0191, r1	; 0x800191 <max31855+0x2>
     5a2:	10 92 93 01 	sts	0x0193, r1	; 0x800193 <max31855+0x4>
     5a6:	10 92 92 01 	sts	0x0192, r1	; 0x800192 <max31855+0x3>
     5aa:	81 e0       	ldi	r24, 0x01	; 1
     5ac:	80 93 90 01 	sts	0x0190, r24	; 0x800190 <max31855+0x1>
     5b0:	08 95       	ret

000005b2 <main>:
     5b2:	4f 92       	push	r4
     5b4:	5f 92       	push	r5
     5b6:	6f 92       	push	r6
     5b8:	7f 92       	push	r7
     5ba:	8f 92       	push	r8
     5bc:	9f 92       	push	r9
     5be:	af 92       	push	r10
     5c0:	bf 92       	push	r11
     5c2:	cf 92       	push	r12
     5c4:	df 92       	push	r13
     5c6:	ef 92       	push	r14
     5c8:	ff 92       	push	r15
     5ca:	0f 93       	push	r16
     5cc:	1f 93       	push	r17
     5ce:	cf 93       	push	r28
     5d0:	df 93       	push	r29
     5d2:	cd b7       	in	r28, 0x3d	; 61
     5d4:	de b7       	in	r29, 0x3e	; 62
     5d6:	28 97       	sbiw	r28, 0x08	; 8
     5d8:	0f b6       	in	r0, 0x3f	; 63
     5da:	f8 94       	cli
     5dc:	de bf       	out	0x3e, r29	; 62
     5de:	0f be       	out	0x3f, r0	; 63
     5e0:	cd bf       	out	0x3d, r28	; 61
     5e2:	0e 94 2f 07 	call	0xe5e	; 0xe5e <timer0_init>
     5e6:	78 94       	sei
     5e8:	0e 94 98 07 	call	0xf30	; 0xf30 <uart_init>
     5ec:	0e 94 88 00 	call	0x110	; 0x110 <ow_init>
     5f0:	0e 94 78 01 	call	0x2f0	; 0x2f0 <ow_start>
     5f4:	2f ef       	ldi	r18, 0xFF	; 255
     5f6:	89 e6       	ldi	r24, 0x69	; 105
     5f8:	98 e1       	ldi	r25, 0x18	; 24
     5fa:	21 50       	subi	r18, 0x01	; 1
     5fc:	80 40       	sbci	r24, 0x00	; 0
     5fe:	90 40       	sbci	r25, 0x00	; 0
     600:	e1 f7       	brne	.-8      	; 0x5fa <main+0x48>
     602:	00 c0       	rjmp	.+0      	; 0x604 <main+0x52>
     604:	00 00       	nop
     606:	80 e0       	ldi	r24, 0x00	; 0
     608:	91 e0       	ldi	r25, 0x01	; 1
     60a:	0e 94 80 01 	call	0x300	; 0x300 <ow_temp_id>
     60e:	9c 01       	movw	r18, r24
     610:	20 7f       	andi	r18, 0xF0	; 240
     612:	37 70       	andi	r19, 0x07	; 7
     614:	f4 e0       	ldi	r31, 0x04	; 4
     616:	36 95       	lsr	r19
     618:	27 95       	ror	r18
     61a:	fa 95       	dec	r31
     61c:	e1 f7       	brne	.-8      	; 0x616 <main+0x64>
     61e:	20 93 98 01 	sts	0x0198, r18	; 0x800198 <out>
     622:	8f 70       	andi	r24, 0x0F	; 15
     624:	99 27       	eor	r25, r25
     626:	90 93 9a 01 	sts	0x019A, r25	; 0x80019a <out+0x2>
     62a:	80 93 99 01 	sts	0x0199, r24	; 0x800199 <out+0x1>
     62e:	1d 82       	std	Y+5, r1	; 0x05
     630:	1e 82       	std	Y+6, r1	; 0x06
     632:	1f 82       	std	Y+7, r1	; 0x07
     634:	18 86       	std	Y+8, r1	; 0x08
     636:	87 e8       	ldi	r24, 0x87	; 135
     638:	91 e0       	ldi	r25, 0x01	; 1
     63a:	0e 94 60 07 	call	0xec0	; 0xec0 <stoptimer_init>
     63e:	88 b1       	in	r24, 0x08	; 8
     640:	88 7f       	andi	r24, 0xF8	; 248
     642:	88 b9       	out	0x08, r24	; 8
     644:	87 b1       	in	r24, 0x07	; 7
     646:	87 60       	ori	r24, 0x07	; 7
     648:	87 b9       	out	0x07, r24	; 7
     64a:	42 98       	cbi	0x08, 2	; 8
     64c:	22 9a       	sbi	0x04, 2	; 4
     64e:	0e 94 14 05 	call	0xa28	; 0xa28 <mcp2515_init>
     652:	88 23       	and	r24, r24
     654:	09 f4       	brne	.+2      	; 0x658 <main+0xa6>
     656:	84 c1       	rjmp	.+776    	; 0x960 <__stack+0x61>
     658:	88 e1       	ldi	r24, 0x18	; 24
     65a:	91 e0       	ldi	r25, 0x01	; 1
     65c:	0e 94 aa 07 	call	0xf54	; 0xf54 <uart_puts>
     660:	19 82       	std	Y+1, r1	; 0x01
     662:	1a 82       	std	Y+2, r1	; 0x02
     664:	1b 82       	std	Y+3, r1	; 0x03
     666:	1c 82       	std	Y+4, r1	; 0x04
     668:	ce 01       	movw	r24, r28
     66a:	01 96       	adiw	r24, 0x01	; 1
     66c:	0e 94 60 07 	call	0xec0	; 0xec0 <stoptimer_init>
     670:	10 e0       	ldi	r17, 0x00	; 0
     672:	e1 2c       	mov	r14, r1
     674:	f1 2c       	mov	r15, r1
     676:	0a e1       	ldi	r16, 0x1A	; 26
     678:	71 2c       	mov	r7, r1
     67a:	61 2c       	mov	r6, r1
     67c:	55 24       	eor	r5, r5
     67e:	53 94       	inc	r5
     680:	52 e0       	ldi	r21, 0x02	; 2
     682:	45 2e       	mov	r4, r21
     684:	cc 24       	eor	r12, r12
     686:	ca 94       	dec	r12
     688:	d1 2c       	mov	r13, r1
     68a:	78 ee       	ldi	r23, 0xE8	; 232
     68c:	a7 2e       	mov	r10, r23
     68e:	73 e0       	ldi	r23, 0x03	; 3
     690:	b7 2e       	mov	r11, r23
     692:	88 24       	eor	r8, r8
     694:	8a 94       	dec	r8
     696:	e7 e0       	ldi	r30, 0x07	; 7
     698:	9e 2e       	mov	r9, r30
     69a:	21 e0       	ldi	r18, 0x01	; 1
     69c:	62 16       	cp	r6, r18
     69e:	49 f0       	breq	.+18     	; 0x6b2 <main+0x100>
     6a0:	ce 01       	movw	r24, r28
     6a2:	05 96       	adiw	r24, 0x05	; 5
     6a4:	0e 94 60 07 	call	0xec0	; 0xec0 <stoptimer_init>
     6a8:	0e 94 78 01 	call	0x2f0	; 0x2f0 <ow_start>
     6ac:	66 24       	eor	r6, r6
     6ae:	63 94       	inc	r6
     6b0:	1d c0       	rjmp	.+58     	; 0x6ec <main+0x13a>
     6b2:	6e ee       	ldi	r22, 0xEE	; 238
     6b4:	72 e0       	ldi	r23, 0x02	; 2
     6b6:	ce 01       	movw	r24, r28
     6b8:	05 96       	adiw	r24, 0x05	; 5
     6ba:	0e 94 70 07 	call	0xee0	; 0xee0 <stoptimer_expired>
     6be:	88 23       	and	r24, r24
     6c0:	a9 f0       	breq	.+42     	; 0x6ec <main+0x13a>
     6c2:	80 e0       	ldi	r24, 0x00	; 0
     6c4:	91 e0       	ldi	r25, 0x01	; 1
     6c6:	0e 94 80 01 	call	0x300	; 0x300 <ow_temp_id>
     6ca:	9c 01       	movw	r18, r24
     6cc:	20 7f       	andi	r18, 0xF0	; 240
     6ce:	37 70       	andi	r19, 0x07	; 7
     6d0:	44 e0       	ldi	r20, 0x04	; 4
     6d2:	36 95       	lsr	r19
     6d4:	27 95       	ror	r18
     6d6:	4a 95       	dec	r20
     6d8:	e1 f7       	brne	.-8      	; 0x6d2 <main+0x120>
     6da:	20 93 98 01 	sts	0x0198, r18	; 0x800198 <out>
     6de:	8f 70       	andi	r24, 0x0F	; 15
     6e0:	99 27       	eor	r25, r25
     6e2:	90 93 9a 01 	sts	0x019A, r25	; 0x80019a <out+0x2>
     6e6:	80 93 99 01 	sts	0x0199, r24	; 0x800199 <out+0x1>
     6ea:	61 2c       	mov	r6, r1
     6ec:	11 30       	cpi	r17, 0x01	; 1
     6ee:	61 f0       	breq	.+24     	; 0x708 <main+0x156>
     6f0:	30 f0       	brcs	.+12     	; 0x6fe <main+0x14c>
     6f2:	12 30       	cpi	r17, 0x02	; 2
     6f4:	89 f0       	breq	.+34     	; 0x718 <main+0x166>
     6f6:	13 30       	cpi	r17, 0x03	; 3
     6f8:	09 f4       	brne	.+2      	; 0x6fc <main+0x14a>
     6fa:	c2 c0       	rjmp	.+388    	; 0x880 <main+0x2ce>
     6fc:	d0 c0       	rjmp	.+416    	; 0x89e <main+0x2ec>
     6fe:	77 20       	and	r7, r7
     700:	09 f4       	brne	.+2      	; 0x704 <main+0x152>
     702:	cd c0       	rjmp	.+410    	; 0x89e <main+0x2ec>
     704:	42 9a       	sbi	0x08, 2	; 8
     706:	ca c0       	rjmp	.+404    	; 0x89c <main+0x2ea>
     708:	77 20       	and	r7, r7
     70a:	41 f0       	breq	.+16     	; 0x71c <main+0x16a>
     70c:	87 e8       	ldi	r24, 0x87	; 135
     70e:	91 e0       	ldi	r25, 0x01	; 1
     710:	0e 94 60 07 	call	0xec0	; 0xec0 <stoptimer_init>
     714:	12 e0       	ldi	r17, 0x02	; 2
     716:	c3 c0       	rjmp	.+390    	; 0x89e <main+0x2ec>
     718:	71 10       	cpse	r7, r1
     71a:	03 c0       	rjmp	.+6      	; 0x722 <main+0x170>
     71c:	42 98       	cbi	0x08, 2	; 8
     71e:	10 e0       	ldi	r17, 0x00	; 0
     720:	be c0       	rjmp	.+380    	; 0x89e <main+0x2ec>
     722:	68 e9       	ldi	r22, 0x98	; 152
     724:	7a e3       	ldi	r23, 0x3A	; 58
     726:	87 e8       	ldi	r24, 0x87	; 135
     728:	91 e0       	ldi	r25, 0x01	; 1
     72a:	0e 94 70 07 	call	0xee0	; 0xee0 <stoptimer_expired>
     72e:	88 23       	and	r24, r24
     730:	09 f4       	brne	.+2      	; 0x734 <main+0x182>
     732:	b5 c0       	rjmp	.+362    	; 0x89e <main+0x2ec>
     734:	85 e2       	ldi	r24, 0x25	; 37
     736:	91 e0       	ldi	r25, 0x01	; 1
     738:	0e 94 aa 07 	call	0xf54	; 0xf54 <uart_puts>
     73c:	80 91 98 01 	lds	r24, 0x0198	; 0x800198 <out>
     740:	4a e0       	ldi	r20, 0x0A	; 10
     742:	61 eb       	ldi	r22, 0xB1	; 177
     744:	71 e0       	ldi	r23, 0x01	; 1
     746:	90 e0       	ldi	r25, 0x00	; 0
     748:	0e 94 5a 08 	call	0x10b4	; 0x10b4 <__itoa_ncheck>
     74c:	0e 94 aa 07 	call	0xf54	; 0xf54 <uart_puts>
     750:	8b e2       	ldi	r24, 0x2B	; 43
     752:	91 e0       	ldi	r25, 0x01	; 1
     754:	0e 94 aa 07 	call	0xf54	; 0xf54 <uart_puts>
     758:	4a e0       	ldi	r20, 0x0A	; 10
     75a:	61 eb       	ldi	r22, 0xB1	; 177
     75c:	71 e0       	ldi	r23, 0x01	; 1
     75e:	80 2f       	mov	r24, r16
     760:	90 e0       	ldi	r25, 0x00	; 0
     762:	0e 94 5a 08 	call	0x10b4	; 0x10b4 <__itoa_ncheck>
     766:	0e 94 aa 07 	call	0xf54	; 0xf54 <uart_puts>
     76a:	8a e4       	ldi	r24, 0x4A	; 74
     76c:	91 e0       	ldi	r25, 0x01	; 1
     76e:	0e 94 aa 07 	call	0xf54	; 0xf54 <uart_puts>
     772:	87 e8       	ldi	r24, 0x87	; 135
     774:	91 e0       	ldi	r25, 0x01	; 1
     776:	0e 94 60 07 	call	0xec0	; 0xec0 <stoptimer_init>
     77a:	80 91 98 01 	lds	r24, 0x0198	; 0x800198 <out>
     77e:	08 13       	cpse	r16, r24
     780:	07 c0       	rjmp	.+14     	; 0x790 <main+0x1de>
     782:	88 b1       	in	r24, 0x08	; 8
     784:	8c 7f       	andi	r24, 0xFC	; 252
     786:	88 b9       	out	0x08, r24	; 8
     788:	11 e0       	ldi	r17, 0x01	; 1
     78a:	e1 2c       	mov	r14, r1
     78c:	f1 2c       	mov	r15, r1
     78e:	87 c0       	rjmp	.+270    	; 0x89e <main+0x2ec>
     790:	80 17       	cp	r24, r16
     792:	38 f5       	brcc	.+78     	; 0x7e2 <main+0x230>
     794:	90 91 85 01 	lds	r25, 0x0185	; 0x800185 <lastdir>
     798:	91 30       	cpi	r25, 0x01	; 1
     79a:	11 f4       	brne	.+4      	; 0x7a0 <main+0x1ee>
     79c:	10 92 86 01 	sts	0x0186, r1	; 0x800186 <turned>
     7a0:	90 2f       	mov	r25, r16
     7a2:	98 1b       	sub	r25, r24
     7a4:	29 2f       	mov	r18, r25
     7a6:	30 e0       	ldi	r19, 0x00	; 0
     7a8:	80 91 86 01 	lds	r24, 0x0186	; 0x800186 <turned>
     7ac:	a6 01       	movw	r20, r12
     7ae:	48 1b       	sub	r20, r24
     7b0:	51 09       	sbc	r21, r1
     7b2:	24 17       	cp	r18, r20
     7b4:	35 07       	cpc	r19, r21
     7b6:	14 f4       	brge	.+4      	; 0x7bc <main+0x20a>
     7b8:	89 0f       	add	r24, r25
     7ba:	01 c0       	rjmp	.+2      	; 0x7be <main+0x20c>
     7bc:	8f ef       	ldi	r24, 0xFF	; 255
     7be:	80 93 86 01 	sts	0x0186, r24	; 0x800186 <turned>
     7c2:	40 92 85 01 	sts	0x0185, r4	; 0x800185 <lastdir>
     7c6:	86 39       	cpi	r24, 0x96	; 150
     7c8:	58 f4       	brcc	.+22     	; 0x7e0 <main+0x22e>
     7ca:	2a 9d       	mul	r18, r10
     7cc:	70 01       	movw	r14, r0
     7ce:	2b 9d       	mul	r18, r11
     7d0:	f0 0c       	add	r15, r0
     7d2:	3a 9d       	mul	r19, r10
     7d4:	f0 0c       	add	r15, r0
     7d6:	11 24       	eor	r1, r1
     7d8:	41 98       	cbi	0x08, 1	; 8
     7da:	40 9a       	sbi	0x08, 0	; 8
     7dc:	13 e0       	ldi	r17, 0x03	; 3
     7de:	03 c0       	rjmp	.+6      	; 0x7e6 <main+0x234>
     7e0:	11 e0       	ldi	r17, 0x01	; 1
     7e2:	e1 2c       	mov	r14, r1
     7e4:	f1 2c       	mov	r15, r1
     7e6:	80 91 98 01 	lds	r24, 0x0198	; 0x800198 <out>
     7ea:	08 17       	cp	r16, r24
     7ec:	30 f5       	brcc	.+76     	; 0x83a <main+0x288>
     7ee:	90 91 85 01 	lds	r25, 0x0185	; 0x800185 <lastdir>
     7f2:	92 30       	cpi	r25, 0x02	; 2
     7f4:	11 f4       	brne	.+4      	; 0x7fa <main+0x248>
     7f6:	10 92 86 01 	sts	0x0186, r1	; 0x800186 <turned>
     7fa:	80 1b       	sub	r24, r16
     7fc:	28 2f       	mov	r18, r24
     7fe:	30 e0       	ldi	r19, 0x00	; 0
     800:	90 91 86 01 	lds	r25, 0x0186	; 0x800186 <turned>
     804:	a6 01       	movw	r20, r12
     806:	49 1b       	sub	r20, r25
     808:	51 09       	sbc	r21, r1
     80a:	24 17       	cp	r18, r20
     80c:	35 07       	cpc	r19, r21
     80e:	14 f4       	brge	.+4      	; 0x814 <main+0x262>
     810:	89 0f       	add	r24, r25
     812:	01 c0       	rjmp	.+2      	; 0x816 <main+0x264>
     814:	8f ef       	ldi	r24, 0xFF	; 255
     816:	80 93 86 01 	sts	0x0186, r24	; 0x800186 <turned>
     81a:	50 92 85 01 	sts	0x0185, r5	; 0x800185 <lastdir>
     81e:	86 39       	cpi	r24, 0x96	; 150
     820:	58 f4       	brcc	.+22     	; 0x838 <main+0x286>
     822:	2a 9d       	mul	r18, r10
     824:	70 01       	movw	r14, r0
     826:	2b 9d       	mul	r18, r11
     828:	f0 0c       	add	r15, r0
     82a:	3a 9d       	mul	r19, r10
     82c:	f0 0c       	add	r15, r0
     82e:	11 24       	eor	r1, r1
     830:	40 98       	cbi	0x08, 0	; 8
     832:	41 9a       	sbi	0x08, 1	; 8
     834:	13 e0       	ldi	r17, 0x03	; 3
     836:	01 c0       	rjmp	.+2      	; 0x83a <main+0x288>
     838:	11 e0       	ldi	r17, 0x01	; 1
     83a:	85 e3       	ldi	r24, 0x35	; 53
     83c:	91 e0       	ldi	r25, 0x01	; 1
     83e:	0e 94 aa 07 	call	0xf54	; 0xf54 <uart_puts>
     842:	4a e0       	ldi	r20, 0x0A	; 10
     844:	61 eb       	ldi	r22, 0xB1	; 177
     846:	71 e0       	ldi	r23, 0x01	; 1
     848:	c7 01       	movw	r24, r14
     84a:	0e 94 5a 08 	call	0x10b4	; 0x10b4 <__itoa_ncheck>
     84e:	0e 94 aa 07 	call	0xf54	; 0xf54 <uart_puts>
     852:	8a e4       	ldi	r24, 0x4A	; 74
     854:	91 e0       	ldi	r25, 0x01	; 1
     856:	0e 94 aa 07 	call	0xf54	; 0xf54 <uart_puts>
     85a:	80 e4       	ldi	r24, 0x40	; 64
     85c:	91 e0       	ldi	r25, 0x01	; 1
     85e:	0e 94 aa 07 	call	0xf54	; 0xf54 <uart_puts>
     862:	80 91 86 01 	lds	r24, 0x0186	; 0x800186 <turned>
     866:	4a e0       	ldi	r20, 0x0A	; 10
     868:	61 eb       	ldi	r22, 0xB1	; 177
     86a:	71 e0       	ldi	r23, 0x01	; 1
     86c:	90 e0       	ldi	r25, 0x00	; 0
     86e:	0e 94 5a 08 	call	0x10b4	; 0x10b4 <__itoa_ncheck>
     872:	0e 94 aa 07 	call	0xf54	; 0xf54 <uart_puts>
     876:	89 e4       	ldi	r24, 0x49	; 73
     878:	91 e0       	ldi	r25, 0x01	; 1
     87a:	0e 94 aa 07 	call	0xf54	; 0xf54 <uart_puts>
     87e:	0f c0       	rjmp	.+30     	; 0x89e <main+0x2ec>
     880:	b7 01       	movw	r22, r14
     882:	87 e8       	ldi	r24, 0x87	; 135
     884:	91 e0       	ldi	r25, 0x01	; 1
     886:	0e 94 70 07 	call	0xee0	; 0xee0 <stoptimer_expired>
     88a:	88 23       	and	r24, r24
     88c:	41 f0       	breq	.+16     	; 0x89e <main+0x2ec>
     88e:	88 b1       	in	r24, 0x08	; 8
     890:	8c 7f       	andi	r24, 0xFC	; 252
     892:	88 b9       	out	0x08, r24	; 8
     894:	87 e8       	ldi	r24, 0x87	; 135
     896:	91 e0       	ldi	r25, 0x01	; 1
     898:	0e 94 60 07 	call	0xec0	; 0xec0 <stoptimer_init>
     89c:	11 e0       	ldi	r17, 0x01	; 1
     89e:	68 e8       	ldi	r22, 0x88	; 136
     8a0:	73 e1       	ldi	r23, 0x13	; 19
     8a2:	ce 01       	movw	r24, r28
     8a4:	01 96       	adiw	r24, 0x01	; 1
     8a6:	0e 94 70 07 	call	0xee0	; 0xee0 <stoptimer_expired>
     8aa:	88 23       	and	r24, r24
     8ac:	b1 f1       	breq	.+108    	; 0x91a <__stack+0x1b>
     8ae:	80 91 08 01 	lds	r24, 0x0108	; 0x800108 <broadcast>
     8b2:	88 23       	and	r24, r24
     8b4:	71 f1       	breq	.+92     	; 0x912 <__stack+0x13>
     8b6:	90 92 a7 01 	sts	0x01A7, r9	; 0x8001a7 <message+0x1>
     8ba:	80 92 a6 01 	sts	0x01A6, r8	; 0x8001a6 <message>
     8be:	80 91 a8 01 	lds	r24, 0x01A8	; 0x8001a8 <message+0x2>
     8c2:	80 7e       	andi	r24, 0xE0	; 224
     8c4:	80 61       	ori	r24, 0x10	; 16
     8c6:	80 93 a8 01 	sts	0x01A8, r24	; 0x8001a8 <message+0x2>
     8ca:	80 91 98 01 	lds	r24, 0x0198	; 0x800198 <out>
     8ce:	80 93 a9 01 	sts	0x01A9, r24	; 0x8001a9 <message+0x3>
     8d2:	20 91 99 01 	lds	r18, 0x0199	; 0x800199 <out+0x1>
     8d6:	30 91 9a 01 	lds	r19, 0x019A	; 0x80019a <out+0x2>
     8da:	30 93 aa 01 	sts	0x01AA, r19	; 0x8001aa <message+0x4>
     8de:	81 e0       	ldi	r24, 0x01	; 1
     8e0:	23 2b       	or	r18, r19
     8e2:	09 f4       	brne	.+2      	; 0x8e6 <main+0x334>
     8e4:	80 e0       	ldi	r24, 0x00	; 0
     8e6:	80 93 ab 01 	sts	0x01AB, r24	; 0x8001ab <message+0x5>
     8ea:	00 93 ac 01 	sts	0x01AC, r16	; 0x8001ac <message+0x6>
     8ee:	10 92 ad 01 	sts	0x01AD, r1	; 0x8001ad <message+0x7>
     8f2:	10 92 ae 01 	sts	0x01AE, r1	; 0x8001ae <message+0x8>
     8f6:	10 92 af 01 	sts	0x01AF, r1	; 0x8001af <message+0x9>
     8fa:	10 92 b0 01 	sts	0x01B0, r1	; 0x8001b0 <message+0xa>
     8fe:	86 ea       	ldi	r24, 0xA6	; 166
     900:	91 e0       	ldi	r25, 0x01	; 1
     902:	0e 94 e2 05 	call	0xbc4	; 0xbc4 <mcp2515_send_message>
     906:	81 11       	cpse	r24, r1
     908:	04 c0       	rjmp	.+8      	; 0x912 <__stack+0x13>
     90a:	8d e4       	ldi	r24, 0x4D	; 77
     90c:	91 e0       	ldi	r25, 0x01	; 1
     90e:	0e 94 aa 07 	call	0xf54	; 0xf54 <uart_puts>
     912:	ce 01       	movw	r24, r28
     914:	01 96       	adiw	r24, 0x01	; 1
     916:	0e 94 60 07 	call	0xec0	; 0xec0 <stoptimer_init>
     91a:	0e 94 5d 05 	call	0xaba	; 0xaba <mcp2515_check_message>
     91e:	88 23       	and	r24, r24
     920:	09 f4       	brne	.+2      	; 0x924 <__stack+0x25>
     922:	bb ce       	rjmp	.-650    	; 0x69a <main+0xe8>
     924:	8b e9       	ldi	r24, 0x9B	; 155
     926:	91 e0       	ldi	r25, 0x01	; 1
     928:	0e 94 75 05 	call	0xaea	; 0xaea <mcp2515_get_message>
     92c:	88 23       	and	r24, r24
     92e:	99 f0       	breq	.+38     	; 0x956 <__stack+0x57>
     930:	80 91 9b 01 	lds	r24, 0x019B	; 0x80019b <rMessage>
     934:	90 91 9c 01 	lds	r25, 0x019C	; 0x80019c <rMessage+0x1>
     938:	8f 3f       	cpi	r24, 0xFF	; 255
     93a:	97 40       	sbci	r25, 0x07	; 7
     93c:	09 f0       	breq	.+2      	; 0x940 <__stack+0x41>
     93e:	ad ce       	rjmp	.-678    	; 0x69a <main+0xe8>
     940:	80 91 9d 01 	lds	r24, 0x019D	; 0x80019d <rMessage+0x2>
     944:	8e 71       	andi	r24, 0x1E	; 30
     946:	80 31       	cpi	r24, 0x10	; 16
     948:	09 f0       	breq	.+2      	; 0x94c <__stack+0x4d>
     94a:	a7 ce       	rjmp	.-690    	; 0x69a <main+0xe8>
     94c:	70 90 9e 01 	lds	r7, 0x019E	; 0x80019e <rMessage+0x3>
     950:	00 91 9f 01 	lds	r16, 0x019F	; 0x80019f <rMessage+0x4>
     954:	a2 ce       	rjmp	.-700    	; 0x69a <main+0xe8>
     956:	81 e1       	ldi	r24, 0x11	; 17
     958:	91 e0       	ldi	r25, 0x01	; 1
     95a:	0e 94 aa 07 	call	0xf54	; 0xf54 <uart_puts>
     95e:	9d ce       	rjmp	.-710    	; 0x69a <main+0xe8>
     960:	89 e0       	ldi	r24, 0x09	; 9
     962:	91 e0       	ldi	r25, 0x01	; 1
     964:	0e 94 aa 07 	call	0xf54	; 0xf54 <uart_puts>
     968:	80 e0       	ldi	r24, 0x00	; 0
     96a:	90 e0       	ldi	r25, 0x00	; 0
     96c:	28 96       	adiw	r28, 0x08	; 8
     96e:	0f b6       	in	r0, 0x3f	; 63
     970:	f8 94       	cli
     972:	de bf       	out	0x3e, r29	; 62
     974:	0f be       	out	0x3f, r0	; 63
     976:	cd bf       	out	0x3d, r28	; 61
     978:	df 91       	pop	r29
     97a:	cf 91       	pop	r28
     97c:	1f 91       	pop	r17
     97e:	0f 91       	pop	r16
     980:	ff 90       	pop	r15
     982:	ef 90       	pop	r14
     984:	df 90       	pop	r13
     986:	cf 90       	pop	r12
     988:	bf 90       	pop	r11
     98a:	af 90       	pop	r10
     98c:	9f 90       	pop	r9
     98e:	8f 90       	pop	r8
     990:	7f 90       	pop	r7
     992:	6f 90       	pop	r6
     994:	5f 90       	pop	r5
     996:	4f 90       	pop	r4
     998:	08 95       	ret

0000099a <spi_putc>:
     99a:	8e bd       	out	0x2e, r24	; 46
     99c:	0d b4       	in	r0, 0x2d	; 45
     99e:	07 fe       	sbrs	r0, 7
     9a0:	fd cf       	rjmp	.-6      	; 0x99c <spi_putc+0x2>
     9a2:	8e b5       	in	r24, 0x2e	; 46
     9a4:	08 95       	ret

000009a6 <mcp2515_write_register>:
     9a6:	cf 93       	push	r28
     9a8:	df 93       	push	r29
     9aa:	d8 2f       	mov	r29, r24
     9ac:	c6 2f       	mov	r28, r22
     9ae:	2a 98       	cbi	0x05, 2	; 5
     9b0:	82 e0       	ldi	r24, 0x02	; 2
     9b2:	0e 94 cd 04 	call	0x99a	; 0x99a <spi_putc>
     9b6:	8d 2f       	mov	r24, r29
     9b8:	0e 94 cd 04 	call	0x99a	; 0x99a <spi_putc>
     9bc:	8c 2f       	mov	r24, r28
     9be:	0e 94 cd 04 	call	0x99a	; 0x99a <spi_putc>
     9c2:	2a 9a       	sbi	0x05, 2	; 5
     9c4:	df 91       	pop	r29
     9c6:	cf 91       	pop	r28
     9c8:	08 95       	ret

000009ca <mcp2515_read_register>:
     9ca:	cf 93       	push	r28
     9cc:	c8 2f       	mov	r28, r24
     9ce:	2a 98       	cbi	0x05, 2	; 5
     9d0:	83 e0       	ldi	r24, 0x03	; 3
     9d2:	0e 94 cd 04 	call	0x99a	; 0x99a <spi_putc>
     9d6:	8c 2f       	mov	r24, r28
     9d8:	0e 94 cd 04 	call	0x99a	; 0x99a <spi_putc>
     9dc:	8f ef       	ldi	r24, 0xFF	; 255
     9de:	0e 94 cd 04 	call	0x99a	; 0x99a <spi_putc>
     9e2:	2a 9a       	sbi	0x05, 2	; 5
     9e4:	cf 91       	pop	r28
     9e6:	08 95       	ret

000009e8 <mcp2515_bit_modify>:
     9e8:	1f 93       	push	r17
     9ea:	cf 93       	push	r28
     9ec:	df 93       	push	r29
     9ee:	18 2f       	mov	r17, r24
     9f0:	d6 2f       	mov	r29, r22
     9f2:	c4 2f       	mov	r28, r20
     9f4:	2a 98       	cbi	0x05, 2	; 5
     9f6:	85 e0       	ldi	r24, 0x05	; 5
     9f8:	0e 94 cd 04 	call	0x99a	; 0x99a <spi_putc>
     9fc:	81 2f       	mov	r24, r17
     9fe:	0e 94 cd 04 	call	0x99a	; 0x99a <spi_putc>
     a02:	8d 2f       	mov	r24, r29
     a04:	0e 94 cd 04 	call	0x99a	; 0x99a <spi_putc>
     a08:	8c 2f       	mov	r24, r28
     a0a:	0e 94 cd 04 	call	0x99a	; 0x99a <spi_putc>
     a0e:	2a 9a       	sbi	0x05, 2	; 5
     a10:	df 91       	pop	r29
     a12:	cf 91       	pop	r28
     a14:	1f 91       	pop	r17
     a16:	08 95       	ret

00000a18 <mcp2515_read_status>:
     a18:	2a 98       	cbi	0x05, 2	; 5
     a1a:	0e 94 cd 04 	call	0x99a	; 0x99a <spi_putc>
     a1e:	8f ef       	ldi	r24, 0xFF	; 255
     a20:	0e 94 cd 04 	call	0x99a	; 0x99a <spi_putc>
     a24:	2a 9a       	sbi	0x05, 2	; 5
     a26:	08 95       	ret

00000a28 <mcp2515_init>:
     a28:	2a 9a       	sbi	0x05, 2	; 5
     a2a:	22 9a       	sbi	0x04, 2	; 4
     a2c:	2d 98       	cbi	0x05, 5	; 5
     a2e:	2b 98       	cbi	0x05, 3	; 5
     a30:	2c 98       	cbi	0x05, 4	; 5
     a32:	25 9a       	sbi	0x04, 5	; 4
     a34:	23 9a       	sbi	0x04, 3	; 4
     a36:	24 98       	cbi	0x04, 4	; 4
     a38:	52 98       	cbi	0x0a, 2	; 10
     a3a:	5a 9a       	sbi	0x0b, 2	; 11
     a3c:	83 e5       	ldi	r24, 0x53	; 83
     a3e:	8c bd       	out	0x2c, r24	; 44
     a40:	1d bc       	out	0x2d, r1	; 45
     a42:	2a 98       	cbi	0x05, 2	; 5
     a44:	80 ec       	ldi	r24, 0xC0	; 192
     a46:	0e 94 cd 04 	call	0x99a	; 0x99a <spi_putc>
     a4a:	2a 9a       	sbi	0x05, 2	; 5
     a4c:	87 ec       	ldi	r24, 0xC7	; 199
     a4e:	90 e0       	ldi	r25, 0x00	; 0
     a50:	01 97       	sbiw	r24, 0x01	; 1
     a52:	f1 f7       	brne	.-4      	; 0xa50 <mcp2515_init+0x28>
     a54:	00 c0       	rjmp	.+0      	; 0xa56 <mcp2515_init+0x2e>
     a56:	00 00       	nop
     a58:	2a 98       	cbi	0x05, 2	; 5
     a5a:	82 e0       	ldi	r24, 0x02	; 2
     a5c:	0e 94 cd 04 	call	0x99a	; 0x99a <spi_putc>
     a60:	88 e2       	ldi	r24, 0x28	; 40
     a62:	0e 94 cd 04 	call	0x99a	; 0x99a <spi_putc>
     a66:	85 e0       	ldi	r24, 0x05	; 5
     a68:	0e 94 cd 04 	call	0x99a	; 0x99a <spi_putc>
     a6c:	81 eb       	ldi	r24, 0xB1	; 177
     a6e:	0e 94 cd 04 	call	0x99a	; 0x99a <spi_putc>
     a72:	81 e0       	ldi	r24, 0x01	; 1
     a74:	0e 94 cd 04 	call	0x99a	; 0x99a <spi_putc>
     a78:	83 e0       	ldi	r24, 0x03	; 3
     a7a:	0e 94 cd 04 	call	0x99a	; 0x99a <spi_putc>
     a7e:	2a 9a       	sbi	0x05, 2	; 5
     a80:	8a e2       	ldi	r24, 0x2A	; 42
     a82:	0e 94 e5 04 	call	0x9ca	; 0x9ca <mcp2515_read_register>
     a86:	81 30       	cpi	r24, 0x01	; 1
     a88:	b1 f4       	brne	.+44     	; 0xab6 <mcp2515_init+0x8e>
     a8a:	60 e0       	ldi	r22, 0x00	; 0
     a8c:	8c e0       	ldi	r24, 0x0C	; 12
     a8e:	0e 94 d3 04 	call	0x9a6	; 0x9a6 <mcp2515_write_register>
     a92:	60 e0       	ldi	r22, 0x00	; 0
     a94:	8d e0       	ldi	r24, 0x0D	; 13
     a96:	0e 94 d3 04 	call	0x9a6	; 0x9a6 <mcp2515_write_register>
     a9a:	60 e6       	ldi	r22, 0x60	; 96
     a9c:	80 e6       	ldi	r24, 0x60	; 96
     a9e:	0e 94 d3 04 	call	0x9a6	; 0x9a6 <mcp2515_write_register>
     aa2:	60 e6       	ldi	r22, 0x60	; 96
     aa4:	80 e7       	ldi	r24, 0x70	; 112
     aa6:	0e 94 d3 04 	call	0x9a6	; 0x9a6 <mcp2515_write_register>
     aaa:	60 e0       	ldi	r22, 0x00	; 0
     aac:	8f e0       	ldi	r24, 0x0F	; 15
     aae:	0e 94 d3 04 	call	0x9a6	; 0x9a6 <mcp2515_write_register>
     ab2:	81 e0       	ldi	r24, 0x01	; 1
     ab4:	08 95       	ret
     ab6:	80 e0       	ldi	r24, 0x00	; 0
     ab8:	08 95       	ret

00000aba <mcp2515_check_message>:
     aba:	80 eb       	ldi	r24, 0xB0	; 176
     abc:	0e 94 0c 05 	call	0xa18	; 0xa18 <mcp2515_read_status>
     ac0:	98 2f       	mov	r25, r24
     ac2:	80 74       	andi	r24, 0x40	; 64
     ac4:	96 fd       	sbrc	r25, 6
     ac6:	04 c0       	rjmp	.+8      	; 0xad0 <mcp2515_check_message+0x16>
     ac8:	97 ff       	sbrs	r25, 7
     aca:	04 c0       	rjmp	.+8      	; 0xad4 <mcp2515_check_message+0x1a>
     acc:	82 e0       	ldi	r24, 0x02	; 2
     ace:	02 c0       	rjmp	.+4      	; 0xad4 <mcp2515_check_message+0x1a>
     ad0:	81 e0       	ldi	r24, 0x01	; 1
     ad2:	08 95       	ret
     ad4:	08 95       	ret

00000ad6 <mcp2515_check_free_buffer>:
     ad6:	80 ea       	ldi	r24, 0xA0	; 160
     ad8:	0e 94 0c 05 	call	0xa18	; 0xa18 <mcp2515_read_status>
     adc:	98 2f       	mov	r25, r24
     ade:	94 75       	andi	r25, 0x54	; 84
     ae0:	81 e0       	ldi	r24, 0x01	; 1
     ae2:	94 35       	cpi	r25, 0x54	; 84
     ae4:	09 f4       	brne	.+2      	; 0xae8 <mcp2515_check_free_buffer+0x12>
     ae6:	80 e0       	ldi	r24, 0x00	; 0
     ae8:	08 95       	ret

00000aea <mcp2515_get_message>:
     aea:	ef 92       	push	r14
     aec:	ff 92       	push	r15
     aee:	0f 93       	push	r16
     af0:	1f 93       	push	r17
     af2:	cf 93       	push	r28
     af4:	df 93       	push	r29
     af6:	1f 92       	push	r1
     af8:	cd b7       	in	r28, 0x3d	; 61
     afa:	de b7       	in	r29, 0x3e	; 62
     afc:	8c 01       	movw	r16, r24
     afe:	80 eb       	ldi	r24, 0xB0	; 176
     b00:	0e 94 0c 05 	call	0xa18	; 0xa18 <mcp2515_read_status>
     b04:	98 2f       	mov	r25, r24
     b06:	89 83       	std	Y+1, r24	; 0x01
     b08:	80 74       	andi	r24, 0x40	; 64
     b0a:	96 fd       	sbrc	r25, 6
     b0c:	04 c0       	rjmp	.+8      	; 0xb16 <mcp2515_get_message+0x2c>
     b0e:	97 ff       	sbrs	r25, 7
     b10:	51 c0       	rjmp	.+162    	; 0xbb4 <mcp2515_get_message+0xca>
     b12:	84 e9       	ldi	r24, 0x94	; 148
     b14:	01 c0       	rjmp	.+2      	; 0xb18 <mcp2515_get_message+0x2e>
     b16:	80 e9       	ldi	r24, 0x90	; 144
     b18:	2a 98       	cbi	0x05, 2	; 5
     b1a:	0e 94 cd 04 	call	0x99a	; 0x99a <spi_putc>
     b1e:	8f ef       	ldi	r24, 0xFF	; 255
     b20:	0e 94 cd 04 	call	0x99a	; 0x99a <spi_putc>
     b24:	28 e0       	ldi	r18, 0x08	; 8
     b26:	82 9f       	mul	r24, r18
     b28:	c0 01       	movw	r24, r0
     b2a:	11 24       	eor	r1, r1
     b2c:	f8 01       	movw	r30, r16
     b2e:	91 83       	std	Z+1, r25	; 0x01
     b30:	80 83       	st	Z, r24
     b32:	8f ef       	ldi	r24, 0xFF	; 255
     b34:	0e 94 cd 04 	call	0x99a	; 0x99a <spi_putc>
     b38:	28 2f       	mov	r18, r24
     b3a:	22 95       	swap	r18
     b3c:	26 95       	lsr	r18
     b3e:	27 70       	andi	r18, 0x07	; 7
     b40:	f8 01       	movw	r30, r16
     b42:	80 81       	ld	r24, Z
     b44:	91 81       	ldd	r25, Z+1	; 0x01
     b46:	82 2b       	or	r24, r18
     b48:	91 83       	std	Z+1, r25	; 0x01
     b4a:	80 83       	st	Z, r24
     b4c:	8f ef       	ldi	r24, 0xFF	; 255
     b4e:	0e 94 cd 04 	call	0x99a	; 0x99a <spi_putc>
     b52:	8f ef       	ldi	r24, 0xFF	; 255
     b54:	0e 94 cd 04 	call	0x99a	; 0x99a <spi_putc>
     b58:	8f ef       	ldi	r24, 0xFF	; 255
     b5a:	0e 94 cd 04 	call	0x99a	; 0x99a <spi_putc>
     b5e:	8f 70       	andi	r24, 0x0F	; 15
     b60:	e8 2e       	mov	r14, r24
     b62:	98 2f       	mov	r25, r24
     b64:	99 0f       	add	r25, r25
     b66:	f8 01       	movw	r30, r16
     b68:	82 81       	ldd	r24, Z+2	; 0x02
     b6a:	81 7e       	andi	r24, 0xE1	; 225
     b6c:	89 2b       	or	r24, r25
     b6e:	82 83       	std	Z+2, r24	; 0x02
     b70:	99 81       	ldd	r25, Y+1	; 0x01
     b72:	93 fb       	bst	r25, 3
     b74:	99 27       	eor	r25, r25
     b76:	90 f9       	bld	r25, 0
     b78:	90 fb       	bst	r25, 0
     b7a:	80 f9       	bld	r24, 0
     b7c:	82 83       	std	Z+2, r24	; 0x02
     b7e:	0d 5f       	subi	r16, 0xFD	; 253
     b80:	1f 4f       	sbci	r17, 0xFF	; 255
     b82:	f1 2c       	mov	r15, r1
     b84:	fe 14       	cp	r15, r14
     b86:	41 f0       	breq	.+16     	; 0xb98 <mcp2515_get_message+0xae>
     b88:	8f ef       	ldi	r24, 0xFF	; 255
     b8a:	0e 94 cd 04 	call	0x99a	; 0x99a <spi_putc>
     b8e:	f8 01       	movw	r30, r16
     b90:	81 93       	st	Z+, r24
     b92:	8f 01       	movw	r16, r30
     b94:	f3 94       	inc	r15
     b96:	f6 cf       	rjmp	.-20     	; 0xb84 <mcp2515_get_message+0x9a>
     b98:	2a 9a       	sbi	0x05, 2	; 5
     b9a:	89 81       	ldd	r24, Y+1	; 0x01
     b9c:	40 e0       	ldi	r20, 0x00	; 0
     b9e:	86 ff       	sbrs	r24, 6
     ba0:	02 c0       	rjmp	.+4      	; 0xba6 <mcp2515_get_message+0xbc>
     ba2:	61 e0       	ldi	r22, 0x01	; 1
     ba4:	01 c0       	rjmp	.+2      	; 0xba8 <mcp2515_get_message+0xbe>
     ba6:	62 e0       	ldi	r22, 0x02	; 2
     ba8:	8c e2       	ldi	r24, 0x2C	; 44
     baa:	0e 94 f4 04 	call	0x9e8	; 0x9e8 <mcp2515_bit_modify>
     bae:	89 81       	ldd	r24, Y+1	; 0x01
     bb0:	87 70       	andi	r24, 0x07	; 7
     bb2:	8f 5f       	subi	r24, 0xFF	; 255
     bb4:	0f 90       	pop	r0
     bb6:	df 91       	pop	r29
     bb8:	cf 91       	pop	r28
     bba:	1f 91       	pop	r17
     bbc:	0f 91       	pop	r16
     bbe:	ff 90       	pop	r15
     bc0:	ef 90       	pop	r14
     bc2:	08 95       	ret

00000bc4 <mcp2515_send_message>:
     bc4:	df 92       	push	r13
     bc6:	ef 92       	push	r14
     bc8:	ff 92       	push	r15
     bca:	0f 93       	push	r16
     bcc:	1f 93       	push	r17
     bce:	cf 93       	push	r28
     bd0:	df 93       	push	r29
     bd2:	1f 92       	push	r1
     bd4:	cd b7       	in	r28, 0x3d	; 61
     bd6:	de b7       	in	r29, 0x3e	; 62
     bd8:	7c 01       	movw	r14, r24
     bda:	80 ea       	ldi	r24, 0xA0	; 160
     bdc:	0e 94 0c 05 	call	0xa18	; 0xa18 <mcp2515_read_status>
     be0:	89 83       	std	Y+1, r24	; 0x01
     be2:	89 81       	ldd	r24, Y+1	; 0x01
     be4:	82 ff       	sbrs	r24, 2
     be6:	08 c0       	rjmp	.+16     	; 0xbf8 <mcp2515_send_message+0x34>
     be8:	89 81       	ldd	r24, Y+1	; 0x01
     bea:	84 ff       	sbrs	r24, 4
     bec:	07 c0       	rjmp	.+14     	; 0xbfc <mcp2515_send_message+0x38>
     bee:	89 81       	ldd	r24, Y+1	; 0x01
     bf0:	86 fd       	sbrc	r24, 6
     bf2:	4d c0       	rjmp	.+154    	; 0xc8e <mcp2515_send_message+0xca>
     bf4:	14 e0       	ldi	r17, 0x04	; 4
     bf6:	03 c0       	rjmp	.+6      	; 0xbfe <mcp2515_send_message+0x3a>
     bf8:	10 e0       	ldi	r17, 0x00	; 0
     bfa:	01 c0       	rjmp	.+2      	; 0xbfe <mcp2515_send_message+0x3a>
     bfc:	12 e0       	ldi	r17, 0x02	; 2
     bfe:	2a 98       	cbi	0x05, 2	; 5
     c00:	81 2f       	mov	r24, r17
     c02:	80 64       	ori	r24, 0x40	; 64
     c04:	0e 94 cd 04 	call	0x99a	; 0x99a <spi_putc>
     c08:	f7 01       	movw	r30, r14
     c0a:	80 81       	ld	r24, Z
     c0c:	91 81       	ldd	r25, Z+1	; 0x01
     c0e:	23 e0       	ldi	r18, 0x03	; 3
     c10:	96 95       	lsr	r25
     c12:	87 95       	ror	r24
     c14:	2a 95       	dec	r18
     c16:	e1 f7       	brne	.-8      	; 0xc10 <mcp2515_send_message+0x4c>
     c18:	0e 94 cd 04 	call	0x99a	; 0x99a <spi_putc>
     c1c:	f7 01       	movw	r30, r14
     c1e:	80 81       	ld	r24, Z
     c20:	82 95       	swap	r24
     c22:	88 0f       	add	r24, r24
     c24:	80 7e       	andi	r24, 0xE0	; 224
     c26:	0e 94 cd 04 	call	0x99a	; 0x99a <spi_putc>
     c2a:	80 e0       	ldi	r24, 0x00	; 0
     c2c:	0e 94 cd 04 	call	0x99a	; 0x99a <spi_putc>
     c30:	80 e0       	ldi	r24, 0x00	; 0
     c32:	0e 94 cd 04 	call	0x99a	; 0x99a <spi_putc>
     c36:	f7 01       	movw	r30, r14
     c38:	82 81       	ldd	r24, Z+2	; 0x02
     c3a:	08 2f       	mov	r16, r24
     c3c:	06 95       	lsr	r16
     c3e:	0f 70       	andi	r16, 0x0F	; 15
     c40:	80 ff       	sbrs	r24, 0
     c42:	05 c0       	rjmp	.+10     	; 0xc4e <mcp2515_send_message+0x8a>
     c44:	80 2f       	mov	r24, r16
     c46:	80 64       	ori	r24, 0x40	; 64
     c48:	0e 94 cd 04 	call	0x99a	; 0x99a <spi_putc>
     c4c:	10 c0       	rjmp	.+32     	; 0xc6e <mcp2515_send_message+0xaa>
     c4e:	80 2f       	mov	r24, r16
     c50:	0e 94 cd 04 	call	0x99a	; 0x99a <spi_putc>
     c54:	f3 e0       	ldi	r31, 0x03	; 3
     c56:	ef 0e       	add	r14, r31
     c58:	f1 1c       	adc	r15, r1
     c5a:	d1 2c       	mov	r13, r1
     c5c:	d0 16       	cp	r13, r16
     c5e:	39 f0       	breq	.+14     	; 0xc6e <mcp2515_send_message+0xaa>
     c60:	f7 01       	movw	r30, r14
     c62:	81 91       	ld	r24, Z+
     c64:	7f 01       	movw	r14, r30
     c66:	0e 94 cd 04 	call	0x99a	; 0x99a <spi_putc>
     c6a:	d3 94       	inc	r13
     c6c:	f7 cf       	rjmp	.-18     	; 0xc5c <mcp2515_send_message+0x98>
     c6e:	2a 9a       	sbi	0x05, 2	; 5
     c70:	f2 e0       	ldi	r31, 0x02	; 2
     c72:	fa 95       	dec	r31
     c74:	f1 f7       	brne	.-4      	; 0xc72 <mcp2515_send_message+0xae>
     c76:	00 c0       	rjmp	.+0      	; 0xc78 <mcp2515_send_message+0xb4>
     c78:	2a 98       	cbi	0x05, 2	; 5
     c7a:	11 11       	cpse	r17, r1
     c7c:	01 c0       	rjmp	.+2      	; 0xc80 <mcp2515_send_message+0xbc>
     c7e:	11 e0       	ldi	r17, 0x01	; 1
     c80:	81 2f       	mov	r24, r17
     c82:	80 68       	ori	r24, 0x80	; 128
     c84:	0e 94 cd 04 	call	0x99a	; 0x99a <spi_putc>
     c88:	2a 9a       	sbi	0x05, 2	; 5
     c8a:	81 2f       	mov	r24, r17
     c8c:	01 c0       	rjmp	.+2      	; 0xc90 <mcp2515_send_message+0xcc>
     c8e:	80 e0       	ldi	r24, 0x00	; 0
     c90:	0f 90       	pop	r0
     c92:	df 91       	pop	r29
     c94:	cf 91       	pop	r28
     c96:	1f 91       	pop	r17
     c98:	0f 91       	pop	r16
     c9a:	ff 90       	pop	r15
     c9c:	ef 90       	pop	r14
     c9e:	df 90       	pop	r13
     ca0:	08 95       	ret

00000ca2 <pid_Init>:
     ca2:	cf 93       	push	r28
     ca4:	df 93       	push	r29
     ca6:	fb 01       	movw	r30, r22
     ca8:	e9 01       	movw	r28, r18
     caa:	1a 82       	std	Y+2, r1	; 0x02
     cac:	1b 82       	std	Y+3, r1	; 0x03
     cae:	1c 82       	std	Y+4, r1	; 0x04
     cb0:	1d 82       	std	Y+5, r1	; 0x05
     cb2:	19 82       	std	Y+1, r1	; 0x01
     cb4:	18 82       	st	Y, r1
     cb6:	9f 83       	std	Y+7, r25	; 0x07
     cb8:	8e 83       	std	Y+6, r24	; 0x06
     cba:	79 87       	std	Y+9, r23	; 0x09
     cbc:	68 87       	std	Y+8, r22	; 0x08
     cbe:	5b 87       	std	Y+11, r21	; 0x0b
     cc0:	4a 87       	std	Y+10, r20	; 0x0a
     cc2:	bc 01       	movw	r22, r24
     cc4:	6f 5f       	subi	r22, 0xFF	; 255
     cc6:	7f 4f       	sbci	r23, 0xFF	; 255
     cc8:	8f ef       	ldi	r24, 0xFF	; 255
     cca:	9f e7       	ldi	r25, 0x7F	; 127
     ccc:	0e 94 b6 07 	call	0xf6c	; 0xf6c <__divmodhi4>
     cd0:	7d 87       	std	Y+13, r23	; 0x0d
     cd2:	6c 87       	std	Y+12, r22	; 0x0c
     cd4:	9f 01       	movw	r18, r30
     cd6:	2f 5f       	subi	r18, 0xFF	; 255
     cd8:	3f 4f       	sbci	r19, 0xFF	; 255
     cda:	03 2e       	mov	r0, r19
     cdc:	00 0c       	add	r0, r0
     cde:	44 0b       	sbc	r20, r20
     ce0:	55 0b       	sbc	r21, r21
     ce2:	6f ef       	ldi	r22, 0xFF	; 255
     ce4:	7f ef       	ldi	r23, 0xFF	; 255
     ce6:	8f ef       	ldi	r24, 0xFF	; 255
     ce8:	9f e3       	ldi	r25, 0x3F	; 63
     cea:	0e 94 ca 07 	call	0xf94	; 0xf94 <__divmodsi4>
     cee:	2e 87       	std	Y+14, r18	; 0x0e
     cf0:	3f 87       	std	Y+15, r19	; 0x0f
     cf2:	48 8b       	std	Y+16, r20	; 0x10
     cf4:	59 8b       	std	Y+17, r21	; 0x11
     cf6:	df 91       	pop	r29
     cf8:	cf 91       	pop	r28
     cfa:	08 95       	ret

00000cfc <pid_Controller>:
     cfc:	ef 92       	push	r14
     cfe:	ff 92       	push	r15
     d00:	0f 93       	push	r16
     d02:	1f 93       	push	r17
     d04:	cf 93       	push	r28
     d06:	df 93       	push	r29
     d08:	8b 01       	movw	r16, r22
     d0a:	fa 01       	movw	r30, r20
     d0c:	9c 01       	movw	r18, r24
     d0e:	26 1b       	sub	r18, r22
     d10:	37 0b       	sbc	r19, r23
     d12:	84 85       	ldd	r24, Z+12	; 0x0c
     d14:	95 85       	ldd	r25, Z+13	; 0x0d
     d16:	82 17       	cp	r24, r18
     d18:	93 07       	cpc	r25, r19
     d1a:	84 f0       	brlt	.+32     	; 0xd3c <pid_Controller+0x40>
     d1c:	91 95       	neg	r25
     d1e:	81 95       	neg	r24
     d20:	91 09       	sbc	r25, r1
     d22:	28 17       	cp	r18, r24
     d24:	39 07       	cpc	r19, r25
     d26:	6c f0       	brlt	.+26     	; 0xd42 <pid_Controller+0x46>
     d28:	86 81       	ldd	r24, Z+6	; 0x06
     d2a:	97 81       	ldd	r25, Z+7	; 0x07
     d2c:	28 9f       	mul	r18, r24
     d2e:	e0 01       	movw	r28, r0
     d30:	29 9f       	mul	r18, r25
     d32:	d0 0d       	add	r29, r0
     d34:	38 9f       	mul	r19, r24
     d36:	d0 0d       	add	r29, r0
     d38:	11 24       	eor	r1, r1
     d3a:	05 c0       	rjmp	.+10     	; 0xd46 <pid_Controller+0x4a>
     d3c:	cf ef       	ldi	r28, 0xFF	; 255
     d3e:	df e7       	ldi	r29, 0x7F	; 127
     d40:	02 c0       	rjmp	.+4      	; 0xd46 <pid_Controller+0x4a>
     d42:	c1 e0       	ldi	r28, 0x01	; 1
     d44:	d0 e8       	ldi	r29, 0x80	; 128
     d46:	c9 01       	movw	r24, r18
     d48:	33 0f       	add	r19, r19
     d4a:	aa 0b       	sbc	r26, r26
     d4c:	bb 0b       	sbc	r27, r27
     d4e:	42 81       	ldd	r20, Z+2	; 0x02
     d50:	53 81       	ldd	r21, Z+3	; 0x03
     d52:	64 81       	ldd	r22, Z+4	; 0x04
     d54:	75 81       	ldd	r23, Z+5	; 0x05
     d56:	9a 01       	movw	r18, r20
     d58:	ab 01       	movw	r20, r22
     d5a:	28 0f       	add	r18, r24
     d5c:	39 1f       	adc	r19, r25
     d5e:	4a 1f       	adc	r20, r26
     d60:	5b 1f       	adc	r21, r27
     d62:	86 85       	ldd	r24, Z+14	; 0x0e
     d64:	97 85       	ldd	r25, Z+15	; 0x0f
     d66:	a0 89       	ldd	r26, Z+16	; 0x10
     d68:	b1 89       	ldd	r27, Z+17	; 0x11
     d6a:	82 17       	cp	r24, r18
     d6c:	93 07       	cpc	r25, r19
     d6e:	a4 07       	cpc	r26, r20
     d70:	b5 07       	cpc	r27, r21
     d72:	4c f4       	brge	.+18     	; 0xd86 <pid_Controller+0x8a>
     d74:	82 83       	std	Z+2, r24	; 0x02
     d76:	93 83       	std	Z+3, r25	; 0x03
     d78:	a4 83       	std	Z+4, r26	; 0x04
     d7a:	b5 83       	std	Z+5, r27	; 0x05
     d7c:	6f ef       	ldi	r22, 0xFF	; 255
     d7e:	7f ef       	ldi	r23, 0xFF	; 255
     d80:	8f ef       	ldi	r24, 0xFF	; 255
     d82:	9f e3       	ldi	r25, 0x3F	; 63
     d84:	1d c0       	rjmp	.+58     	; 0xdc0 <pid_Controller+0xc4>
     d86:	b0 95       	com	r27
     d88:	a0 95       	com	r26
     d8a:	90 95       	com	r25
     d8c:	81 95       	neg	r24
     d8e:	9f 4f       	sbci	r25, 0xFF	; 255
     d90:	af 4f       	sbci	r26, 0xFF	; 255
     d92:	bf 4f       	sbci	r27, 0xFF	; 255
     d94:	28 17       	cp	r18, r24
     d96:	39 07       	cpc	r19, r25
     d98:	4a 07       	cpc	r20, r26
     d9a:	5b 07       	cpc	r21, r27
     d9c:	4c f4       	brge	.+18     	; 0xdb0 <pid_Controller+0xb4>
     d9e:	82 83       	std	Z+2, r24	; 0x02
     da0:	93 83       	std	Z+3, r25	; 0x03
     da2:	a4 83       	std	Z+4, r26	; 0x04
     da4:	b5 83       	std	Z+5, r27	; 0x05
     da6:	61 e0       	ldi	r22, 0x01	; 1
     da8:	70 e0       	ldi	r23, 0x00	; 0
     daa:	80 e0       	ldi	r24, 0x00	; 0
     dac:	90 ec       	ldi	r25, 0xC0	; 192
     dae:	08 c0       	rjmp	.+16     	; 0xdc0 <pid_Controller+0xc4>
     db0:	22 83       	std	Z+2, r18	; 0x02
     db2:	33 83       	std	Z+3, r19	; 0x03
     db4:	44 83       	std	Z+4, r20	; 0x04
     db6:	55 83       	std	Z+5, r21	; 0x05
     db8:	a0 85       	ldd	r26, Z+8	; 0x08
     dba:	b1 85       	ldd	r27, Z+9	; 0x09
     dbc:	0e 94 e9 07 	call	0xfd2	; 0xfd2 <__mulshisi3>
     dc0:	20 81       	ld	r18, Z
     dc2:	31 81       	ldd	r19, Z+1	; 0x01
     dc4:	20 1b       	sub	r18, r16
     dc6:	31 0b       	sbc	r19, r17
     dc8:	a2 85       	ldd	r26, Z+10	; 0x0a
     dca:	b3 85       	ldd	r27, Z+11	; 0x0b
     dcc:	2a 9f       	mul	r18, r26
     dce:	70 01       	movw	r14, r0
     dd0:	2b 9f       	mul	r18, r27
     dd2:	f0 0c       	add	r15, r0
     dd4:	3a 9f       	mul	r19, r26
     dd6:	f0 0c       	add	r15, r0
     dd8:	11 24       	eor	r1, r1
     dda:	11 83       	std	Z+1, r17	; 0x01
     ddc:	00 83       	st	Z, r16
     dde:	8e 01       	movw	r16, r28
     de0:	dd 0f       	add	r29, r29
     de2:	22 0b       	sbc	r18, r18
     de4:	33 0b       	sbc	r19, r19
     de6:	ab 01       	movw	r20, r22
     de8:	bc 01       	movw	r22, r24
     dea:	40 0f       	add	r20, r16
     dec:	51 1f       	adc	r21, r17
     dee:	62 1f       	adc	r22, r18
     df0:	73 1f       	adc	r23, r19
     df2:	c7 01       	movw	r24, r14
     df4:	ff 0c       	add	r15, r15
     df6:	aa 0b       	sbc	r26, r26
     df8:	bb 0b       	sbc	r27, r27
     dfa:	8a 01       	movw	r16, r20
     dfc:	9b 01       	movw	r18, r22
     dfe:	08 0f       	add	r16, r24
     e00:	19 1f       	adc	r17, r25
     e02:	2a 1f       	adc	r18, r26
     e04:	3b 1f       	adc	r19, r27
     e06:	c9 01       	movw	r24, r18
     e08:	b8 01       	movw	r22, r16
     e0a:	20 e8       	ldi	r18, 0x80	; 128
     e0c:	30 e0       	ldi	r19, 0x00	; 0
     e0e:	40 e0       	ldi	r20, 0x00	; 0
     e10:	50 e0       	ldi	r21, 0x00	; 0
     e12:	0e 94 ca 07 	call	0xf94	; 0xf94 <__divmodsi4>
     e16:	21 30       	cpi	r18, 0x01	; 1
     e18:	10 e8       	ldi	r17, 0x80	; 128
     e1a:	31 07       	cpc	r19, r17
     e1c:	1f ef       	ldi	r17, 0xFF	; 255
     e1e:	41 07       	cpc	r20, r17
     e20:	51 07       	cpc	r21, r17
     e22:	24 f4       	brge	.+8      	; 0xe2c <pid_Controller+0x130>
     e24:	21 e0       	ldi	r18, 0x01	; 1
     e26:	30 e8       	ldi	r19, 0x80	; 128
     e28:	4f ef       	ldi	r20, 0xFF	; 255
     e2a:	5f ef       	ldi	r21, 0xFF	; 255
     e2c:	da 01       	movw	r26, r20
     e2e:	c9 01       	movw	r24, r18
     e30:	81 15       	cp	r24, r1
     e32:	20 e8       	ldi	r18, 0x80	; 128
     e34:	92 07       	cpc	r25, r18
     e36:	a1 05       	cpc	r26, r1
     e38:	b1 05       	cpc	r27, r1
     e3a:	24 f0       	brlt	.+8      	; 0xe44 <pid_Controller+0x148>
     e3c:	8f ef       	ldi	r24, 0xFF	; 255
     e3e:	9f e7       	ldi	r25, 0x7F	; 127
     e40:	a0 e0       	ldi	r26, 0x00	; 0
     e42:	b0 e0       	ldi	r27, 0x00	; 0
     e44:	df 91       	pop	r29
     e46:	cf 91       	pop	r28
     e48:	1f 91       	pop	r17
     e4a:	0f 91       	pop	r16
     e4c:	ff 90       	pop	r15
     e4e:	ef 90       	pop	r14
     e50:	08 95       	ret

00000e52 <pid_Reset_Integrator>:
     e52:	fc 01       	movw	r30, r24
     e54:	12 82       	std	Z+2, r1	; 0x02
     e56:	13 82       	std	Z+3, r1	; 0x03
     e58:	14 82       	std	Z+4, r1	; 0x04
     e5a:	15 82       	std	Z+5, r1	; 0x05
     e5c:	08 95       	ret

00000e5e <timer0_init>:
     e5e:	82 e0       	ldi	r24, 0x02	; 2
     e60:	84 bd       	out	0x24, r24	; 36
     e62:	84 e0       	ldi	r24, 0x04	; 4
     e64:	85 bd       	out	0x25, r24	; 37
     e66:	8d e7       	ldi	r24, 0x7D	; 125
     e68:	87 bd       	out	0x27, r24	; 39
     e6a:	ee e6       	ldi	r30, 0x6E	; 110
     e6c:	f0 e0       	ldi	r31, 0x00	; 0
     e6e:	80 81       	ld	r24, Z
     e70:	82 60       	ori	r24, 0x02	; 2
     e72:	80 83       	st	Z, r24
     e74:	08 95       	ret

00000e76 <__vector_14>:
     e76:	1f 92       	push	r1
     e78:	0f 92       	push	r0
     e7a:	0f b6       	in	r0, 0x3f	; 63
     e7c:	0f 92       	push	r0
     e7e:	11 24       	eor	r1, r1
     e80:	8f 93       	push	r24
     e82:	9f 93       	push	r25
     e84:	af 93       	push	r26
     e86:	bf 93       	push	r27
     e88:	80 91 8b 01 	lds	r24, 0x018B	; 0x80018b <ticks>
     e8c:	90 91 8c 01 	lds	r25, 0x018C	; 0x80018c <ticks+0x1>
     e90:	a0 91 8d 01 	lds	r26, 0x018D	; 0x80018d <ticks+0x2>
     e94:	b0 91 8e 01 	lds	r27, 0x018E	; 0x80018e <ticks+0x3>
     e98:	01 96       	adiw	r24, 0x01	; 1
     e9a:	a1 1d       	adc	r26, r1
     e9c:	b1 1d       	adc	r27, r1
     e9e:	80 93 8b 01 	sts	0x018B, r24	; 0x80018b <ticks>
     ea2:	90 93 8c 01 	sts	0x018C, r25	; 0x80018c <ticks+0x1>
     ea6:	a0 93 8d 01 	sts	0x018D, r26	; 0x80018d <ticks+0x2>
     eaa:	b0 93 8e 01 	sts	0x018E, r27	; 0x80018e <ticks+0x3>
     eae:	bf 91       	pop	r27
     eb0:	af 91       	pop	r26
     eb2:	9f 91       	pop	r25
     eb4:	8f 91       	pop	r24
     eb6:	0f 90       	pop	r0
     eb8:	0f be       	out	0x3f, r0	; 63
     eba:	0f 90       	pop	r0
     ebc:	1f 90       	pop	r1
     ebe:	18 95       	reti

00000ec0 <stoptimer_init>:
     ec0:	f8 94       	cli
     ec2:	40 91 8b 01 	lds	r20, 0x018B	; 0x80018b <ticks>
     ec6:	50 91 8c 01 	lds	r21, 0x018C	; 0x80018c <ticks+0x1>
     eca:	60 91 8d 01 	lds	r22, 0x018D	; 0x80018d <ticks+0x2>
     ece:	70 91 8e 01 	lds	r23, 0x018E	; 0x80018e <ticks+0x3>
     ed2:	fc 01       	movw	r30, r24
     ed4:	40 83       	st	Z, r20
     ed6:	51 83       	std	Z+1, r21	; 0x01
     ed8:	62 83       	std	Z+2, r22	; 0x02
     eda:	73 83       	std	Z+3, r23	; 0x03
     edc:	78 94       	sei
     ede:	08 95       	ret

00000ee0 <stoptimer_expired>:
     ee0:	cf 92       	push	r12
     ee2:	df 92       	push	r13
     ee4:	ef 92       	push	r14
     ee6:	ff 92       	push	r15
     ee8:	f8 94       	cli
     eea:	c0 90 8b 01 	lds	r12, 0x018B	; 0x80018b <ticks>
     eee:	d0 90 8c 01 	lds	r13, 0x018C	; 0x80018c <ticks+0x1>
     ef2:	e0 90 8d 01 	lds	r14, 0x018D	; 0x80018d <ticks+0x2>
     ef6:	f0 90 8e 01 	lds	r15, 0x018E	; 0x80018e <ticks+0x3>
     efa:	9b 01       	movw	r18, r22
     efc:	36 95       	lsr	r19
     efe:	27 95       	ror	r18
     f00:	36 95       	lsr	r19
     f02:	27 95       	ror	r18
     f04:	fc 01       	movw	r30, r24
     f06:	40 81       	ld	r20, Z
     f08:	51 81       	ldd	r21, Z+1	; 0x01
     f0a:	62 81       	ldd	r22, Z+2	; 0x02
     f0c:	73 81       	ldd	r23, Z+3	; 0x03
     f0e:	42 0f       	add	r20, r18
     f10:	53 1f       	adc	r21, r19
     f12:	61 1d       	adc	r22, r1
     f14:	71 1d       	adc	r23, r1
     f16:	81 e0       	ldi	r24, 0x01	; 1
     f18:	4c 15       	cp	r20, r12
     f1a:	5d 05       	cpc	r21, r13
     f1c:	6e 05       	cpc	r22, r14
     f1e:	7f 05       	cpc	r23, r15
     f20:	08 f0       	brcs	.+2      	; 0xf24 <stoptimer_expired+0x44>
     f22:	80 e0       	ldi	r24, 0x00	; 0
     f24:	78 94       	sei
     f26:	ff 90       	pop	r15
     f28:	ef 90       	pop	r14
     f2a:	df 90       	pop	r13
     f2c:	cf 90       	pop	r12
     f2e:	08 95       	ret

00000f30 <uart_init>:
     f30:	10 92 c5 00 	sts	0x00C5, r1	; 0x8000c5 <__TEXT_REGION_LENGTH__+0x7e00c5>
     f34:	83 e3       	ldi	r24, 0x33	; 51
     f36:	80 93 c4 00 	sts	0x00C4, r24	; 0x8000c4 <__TEXT_REGION_LENGTH__+0x7e00c4>
     f3a:	e1 ec       	ldi	r30, 0xC1	; 193
     f3c:	f0 e0       	ldi	r31, 0x00	; 0
     f3e:	80 81       	ld	r24, Z
     f40:	88 60       	ori	r24, 0x08	; 8
     f42:	80 83       	st	Z, r24
     f44:	08 95       	ret

00000f46 <uart_putc>:
     f46:	90 91 c0 00 	lds	r25, 0x00C0	; 0x8000c0 <__TEXT_REGION_LENGTH__+0x7e00c0>
     f4a:	95 ff       	sbrs	r25, 5
     f4c:	fc cf       	rjmp	.-8      	; 0xf46 <uart_putc>
     f4e:	80 93 c6 00 	sts	0x00C6, r24	; 0x8000c6 <__TEXT_REGION_LENGTH__+0x7e00c6>
     f52:	08 95       	ret

00000f54 <uart_puts>:
     f54:	cf 93       	push	r28
     f56:	df 93       	push	r29
     f58:	ec 01       	movw	r28, r24
     f5a:	89 91       	ld	r24, Y+
     f5c:	88 23       	and	r24, r24
     f5e:	19 f0       	breq	.+6      	; 0xf66 <uart_puts+0x12>
     f60:	0e 94 a3 07 	call	0xf46	; 0xf46 <uart_putc>
     f64:	fa cf       	rjmp	.-12     	; 0xf5a <uart_puts+0x6>
     f66:	df 91       	pop	r29
     f68:	cf 91       	pop	r28
     f6a:	08 95       	ret

00000f6c <__divmodhi4>:
     f6c:	97 fb       	bst	r25, 7
     f6e:	07 2e       	mov	r0, r23
     f70:	16 f4       	brtc	.+4      	; 0xf76 <__divmodhi4+0xa>
     f72:	00 94       	com	r0
     f74:	07 d0       	rcall	.+14     	; 0xf84 <__divmodhi4_neg1>
     f76:	77 fd       	sbrc	r23, 7
     f78:	09 d0       	rcall	.+18     	; 0xf8c <__divmodhi4_neg2>
     f7a:	0e 94 0a 08 	call	0x1014	; 0x1014 <__udivmodhi4>
     f7e:	07 fc       	sbrc	r0, 7
     f80:	05 d0       	rcall	.+10     	; 0xf8c <__divmodhi4_neg2>
     f82:	3e f4       	brtc	.+14     	; 0xf92 <__divmodhi4_exit>

00000f84 <__divmodhi4_neg1>:
     f84:	90 95       	com	r25
     f86:	81 95       	neg	r24
     f88:	9f 4f       	sbci	r25, 0xFF	; 255
     f8a:	08 95       	ret

00000f8c <__divmodhi4_neg2>:
     f8c:	70 95       	com	r23
     f8e:	61 95       	neg	r22
     f90:	7f 4f       	sbci	r23, 0xFF	; 255

00000f92 <__divmodhi4_exit>:
     f92:	08 95       	ret

00000f94 <__divmodsi4>:
     f94:	05 2e       	mov	r0, r21
     f96:	97 fb       	bst	r25, 7
     f98:	1e f4       	brtc	.+6      	; 0xfa0 <__divmodsi4+0xc>
     f9a:	00 94       	com	r0
     f9c:	0e 94 e1 07 	call	0xfc2	; 0xfc2 <__negsi2>
     fa0:	57 fd       	sbrc	r21, 7
     fa2:	07 d0       	rcall	.+14     	; 0xfb2 <__divmodsi4_neg2>
     fa4:	0e 94 1e 08 	call	0x103c	; 0x103c <__udivmodsi4>
     fa8:	07 fc       	sbrc	r0, 7
     faa:	03 d0       	rcall	.+6      	; 0xfb2 <__divmodsi4_neg2>
     fac:	4e f4       	brtc	.+18     	; 0xfc0 <__divmodsi4_exit>
     fae:	0c 94 e1 07 	jmp	0xfc2	; 0xfc2 <__negsi2>

00000fb2 <__divmodsi4_neg2>:
     fb2:	50 95       	com	r21
     fb4:	40 95       	com	r20
     fb6:	30 95       	com	r19
     fb8:	21 95       	neg	r18
     fba:	3f 4f       	sbci	r19, 0xFF	; 255
     fbc:	4f 4f       	sbci	r20, 0xFF	; 255
     fbe:	5f 4f       	sbci	r21, 0xFF	; 255

00000fc0 <__divmodsi4_exit>:
     fc0:	08 95       	ret

00000fc2 <__negsi2>:
     fc2:	90 95       	com	r25
     fc4:	80 95       	com	r24
     fc6:	70 95       	com	r23
     fc8:	61 95       	neg	r22
     fca:	7f 4f       	sbci	r23, 0xFF	; 255
     fcc:	8f 4f       	sbci	r24, 0xFF	; 255
     fce:	9f 4f       	sbci	r25, 0xFF	; 255
     fd0:	08 95       	ret

00000fd2 <__mulshisi3>:
     fd2:	b7 ff       	sbrs	r27, 7
     fd4:	0c 94 40 08 	jmp	0x1080	; 0x1080 <__muluhisi3>

00000fd8 <__mulohisi3>:
     fd8:	0e 94 40 08 	call	0x1080	; 0x1080 <__muluhisi3>
     fdc:	82 1b       	sub	r24, r18
     fde:	93 0b       	sbc	r25, r19
     fe0:	08 95       	ret

00000fe2 <__ashldi3>:
     fe2:	0f 93       	push	r16
     fe4:	08 30       	cpi	r16, 0x08	; 8
     fe6:	90 f0       	brcs	.+36     	; 0x100c <__ashldi3+0x2a>
     fe8:	98 2f       	mov	r25, r24
     fea:	87 2f       	mov	r24, r23
     fec:	76 2f       	mov	r23, r22
     fee:	65 2f       	mov	r22, r21
     ff0:	54 2f       	mov	r21, r20
     ff2:	43 2f       	mov	r20, r19
     ff4:	32 2f       	mov	r19, r18
     ff6:	22 27       	eor	r18, r18
     ff8:	08 50       	subi	r16, 0x08	; 8
     ffa:	f4 cf       	rjmp	.-24     	; 0xfe4 <__ashldi3+0x2>
     ffc:	22 0f       	add	r18, r18
     ffe:	33 1f       	adc	r19, r19
    1000:	44 1f       	adc	r20, r20
    1002:	55 1f       	adc	r21, r21
    1004:	66 1f       	adc	r22, r22
    1006:	77 1f       	adc	r23, r23
    1008:	88 1f       	adc	r24, r24
    100a:	99 1f       	adc	r25, r25
    100c:	0a 95       	dec	r16
    100e:	b2 f7       	brpl	.-20     	; 0xffc <__ashldi3+0x1a>
    1010:	0f 91       	pop	r16
    1012:	08 95       	ret

00001014 <__udivmodhi4>:
    1014:	aa 1b       	sub	r26, r26
    1016:	bb 1b       	sub	r27, r27
    1018:	51 e1       	ldi	r21, 0x11	; 17
    101a:	07 c0       	rjmp	.+14     	; 0x102a <__udivmodhi4_ep>

0000101c <__udivmodhi4_loop>:
    101c:	aa 1f       	adc	r26, r26
    101e:	bb 1f       	adc	r27, r27
    1020:	a6 17       	cp	r26, r22
    1022:	b7 07       	cpc	r27, r23
    1024:	10 f0       	brcs	.+4      	; 0x102a <__udivmodhi4_ep>
    1026:	a6 1b       	sub	r26, r22
    1028:	b7 0b       	sbc	r27, r23

0000102a <__udivmodhi4_ep>:
    102a:	88 1f       	adc	r24, r24
    102c:	99 1f       	adc	r25, r25
    102e:	5a 95       	dec	r21
    1030:	a9 f7       	brne	.-22     	; 0x101c <__udivmodhi4_loop>
    1032:	80 95       	com	r24
    1034:	90 95       	com	r25
    1036:	bc 01       	movw	r22, r24
    1038:	cd 01       	movw	r24, r26
    103a:	08 95       	ret

0000103c <__udivmodsi4>:
    103c:	a1 e2       	ldi	r26, 0x21	; 33
    103e:	1a 2e       	mov	r1, r26
    1040:	aa 1b       	sub	r26, r26
    1042:	bb 1b       	sub	r27, r27
    1044:	fd 01       	movw	r30, r26
    1046:	0d c0       	rjmp	.+26     	; 0x1062 <__udivmodsi4_ep>

00001048 <__udivmodsi4_loop>:
    1048:	aa 1f       	adc	r26, r26
    104a:	bb 1f       	adc	r27, r27
    104c:	ee 1f       	adc	r30, r30
    104e:	ff 1f       	adc	r31, r31
    1050:	a2 17       	cp	r26, r18
    1052:	b3 07       	cpc	r27, r19
    1054:	e4 07       	cpc	r30, r20
    1056:	f5 07       	cpc	r31, r21
    1058:	20 f0       	brcs	.+8      	; 0x1062 <__udivmodsi4_ep>
    105a:	a2 1b       	sub	r26, r18
    105c:	b3 0b       	sbc	r27, r19
    105e:	e4 0b       	sbc	r30, r20
    1060:	f5 0b       	sbc	r31, r21

00001062 <__udivmodsi4_ep>:
    1062:	66 1f       	adc	r22, r22
    1064:	77 1f       	adc	r23, r23
    1066:	88 1f       	adc	r24, r24
    1068:	99 1f       	adc	r25, r25
    106a:	1a 94       	dec	r1
    106c:	69 f7       	brne	.-38     	; 0x1048 <__udivmodsi4_loop>
    106e:	60 95       	com	r22
    1070:	70 95       	com	r23
    1072:	80 95       	com	r24
    1074:	90 95       	com	r25
    1076:	9b 01       	movw	r18, r22
    1078:	ac 01       	movw	r20, r24
    107a:	bd 01       	movw	r22, r26
    107c:	cf 01       	movw	r24, r30
    107e:	08 95       	ret

00001080 <__muluhisi3>:
    1080:	0e 94 4b 08 	call	0x1096	; 0x1096 <__umulhisi3>
    1084:	a5 9f       	mul	r26, r21
    1086:	90 0d       	add	r25, r0
    1088:	b4 9f       	mul	r27, r20
    108a:	90 0d       	add	r25, r0
    108c:	a4 9f       	mul	r26, r20
    108e:	80 0d       	add	r24, r0
    1090:	91 1d       	adc	r25, r1
    1092:	11 24       	eor	r1, r1
    1094:	08 95       	ret

00001096 <__umulhisi3>:
    1096:	a2 9f       	mul	r26, r18
    1098:	b0 01       	movw	r22, r0
    109a:	b3 9f       	mul	r27, r19
    109c:	c0 01       	movw	r24, r0
    109e:	a3 9f       	mul	r26, r19
    10a0:	70 0d       	add	r23, r0
    10a2:	81 1d       	adc	r24, r1
    10a4:	11 24       	eor	r1, r1
    10a6:	91 1d       	adc	r25, r1
    10a8:	b2 9f       	mul	r27, r18
    10aa:	70 0d       	add	r23, r0
    10ac:	81 1d       	adc	r24, r1
    10ae:	11 24       	eor	r1, r1
    10b0:	91 1d       	adc	r25, r1
    10b2:	08 95       	ret

000010b4 <__itoa_ncheck>:
    10b4:	bb 27       	eor	r27, r27
    10b6:	4a 30       	cpi	r20, 0x0A	; 10
    10b8:	31 f4       	brne	.+12     	; 0x10c6 <__itoa_ncheck+0x12>
    10ba:	99 23       	and	r25, r25
    10bc:	22 f4       	brpl	.+8      	; 0x10c6 <__itoa_ncheck+0x12>
    10be:	bd e2       	ldi	r27, 0x2D	; 45
    10c0:	90 95       	com	r25
    10c2:	81 95       	neg	r24
    10c4:	9f 4f       	sbci	r25, 0xFF	; 255
    10c6:	0c 94 66 08 	jmp	0x10cc	; 0x10cc <__utoa_common>

000010ca <__utoa_ncheck>:
    10ca:	bb 27       	eor	r27, r27

000010cc <__utoa_common>:
    10cc:	fb 01       	movw	r30, r22
    10ce:	55 27       	eor	r21, r21
    10d0:	aa 27       	eor	r26, r26
    10d2:	88 0f       	add	r24, r24
    10d4:	99 1f       	adc	r25, r25
    10d6:	aa 1f       	adc	r26, r26
    10d8:	a4 17       	cp	r26, r20
    10da:	10 f0       	brcs	.+4      	; 0x10e0 <__utoa_common+0x14>
    10dc:	a4 1b       	sub	r26, r20
    10de:	83 95       	inc	r24
    10e0:	50 51       	subi	r21, 0x10	; 16
    10e2:	b9 f7       	brne	.-18     	; 0x10d2 <__utoa_common+0x6>
    10e4:	a0 5d       	subi	r26, 0xD0	; 208
    10e6:	aa 33       	cpi	r26, 0x3A	; 58
    10e8:	08 f0       	brcs	.+2      	; 0x10ec <__utoa_common+0x20>
    10ea:	a9 5d       	subi	r26, 0xD9	; 217
    10ec:	a1 93       	st	Z+, r26
    10ee:	00 97       	sbiw	r24, 0x00	; 0
    10f0:	79 f7       	brne	.-34     	; 0x10d0 <__utoa_common+0x4>
    10f2:	b1 11       	cpse	r27, r1
    10f4:	b1 93       	st	Z+, r27
    10f6:	11 92       	st	Z+, r1
    10f8:	cb 01       	movw	r24, r22
    10fa:	0c 94 7f 08 	jmp	0x10fe	; 0x10fe <strrev>

000010fe <strrev>:
    10fe:	dc 01       	movw	r26, r24
    1100:	fc 01       	movw	r30, r24
    1102:	67 2f       	mov	r22, r23
    1104:	71 91       	ld	r23, Z+
    1106:	77 23       	and	r23, r23
    1108:	e1 f7       	brne	.-8      	; 0x1102 <strrev+0x4>
    110a:	32 97       	sbiw	r30, 0x02	; 2
    110c:	04 c0       	rjmp	.+8      	; 0x1116 <strrev+0x18>
    110e:	7c 91       	ld	r23, X
    1110:	6d 93       	st	X+, r22
    1112:	70 83       	st	Z, r23
    1114:	62 91       	ld	r22, -Z
    1116:	ae 17       	cp	r26, r30
    1118:	bf 07       	cpc	r27, r31
    111a:	c8 f3       	brcs	.-14     	; 0x110e <strrev+0x10>
    111c:	08 95       	ret

0000111e <_exit>:
    111e:	f8 94       	cli

00001120 <__stop_program>:
    1120:	ff cf       	rjmp	.-2      	; 0x1120 <__stop_program>
