
Webasto.elf:     file format elf32-avr

Sections:
Idx Name          Size      VMA       LMA       File off  Algn
  0 .data         0000003e  00800100  00000c8e  00000d22  2**0
                  CONTENTS, ALLOC, LOAD, DATA
  1 .text         00000c8e  00000000  00000000  00000094  2**1
                  CONTENTS, ALLOC, LOAD, READONLY, CODE
  2 .bss          000000b0  0080013e  0080013e  00000d60  2**0
                  ALLOC
  3 .comment      00000030  00000000  00000000  00000d60  2**0
                  CONTENTS, READONLY
  4 .note.gnu.avr.deviceinfo 00000040  00000000  00000000  00000d90  2**2
                  CONTENTS, READONLY
  5 .debug_info   000005f4  00000000  00000000  00000dd0  2**0
                  CONTENTS, READONLY, DEBUGGING
  6 .debug_abbrev 000005a2  00000000  00000000  000013c4  2**0
                  CONTENTS, READONLY, DEBUGGING
  7 .debug_line   0000001a  00000000  00000000  00001966  2**0
                  CONTENTS, READONLY, DEBUGGING
  8 .debug_str    00000208  00000000  00000000  00001980  2**0
                  CONTENTS, READONLY, DEBUGGING

Disassembly of section .text:

00000000 <__vectors>:
   0:	0c 94 65 01 	jmp	0x2ca	; 0x2ca <__ctors_end>
   4:	0c 94 82 01 	jmp	0x304	; 0x304 <__bad_interrupt>
   8:	0c 94 82 01 	jmp	0x304	; 0x304 <__bad_interrupt>
   c:	0c 94 82 01 	jmp	0x304	; 0x304 <__bad_interrupt>
  10:	0c 94 82 01 	jmp	0x304	; 0x304 <__bad_interrupt>
  14:	0c 94 82 01 	jmp	0x304	; 0x304 <__bad_interrupt>
  18:	0c 94 82 01 	jmp	0x304	; 0x304 <__bad_interrupt>
  1c:	0c 94 82 01 	jmp	0x304	; 0x304 <__bad_interrupt>
  20:	0c 94 82 01 	jmp	0x304	; 0x304 <__bad_interrupt>
  24:	0c 94 84 01 	jmp	0x308	; 0x308 <__vector_9>
  28:	0c 94 82 01 	jmp	0x304	; 0x304 <__bad_interrupt>
  2c:	0c 94 82 01 	jmp	0x304	; 0x304 <__bad_interrupt>
  30:	0c 94 82 01 	jmp	0x304	; 0x304 <__bad_interrupt>
  34:	0c 94 82 01 	jmp	0x304	; 0x304 <__bad_interrupt>
  38:	0c 94 82 01 	jmp	0x304	; 0x304 <__bad_interrupt>
  3c:	0c 94 82 01 	jmp	0x304	; 0x304 <__bad_interrupt>
  40:	0c 94 82 01 	jmp	0x304	; 0x304 <__bad_interrupt>
  44:	0c 94 82 01 	jmp	0x304	; 0x304 <__bad_interrupt>
  48:	0c 94 82 01 	jmp	0x304	; 0x304 <__bad_interrupt>
  4c:	0c 94 82 01 	jmp	0x304	; 0x304 <__bad_interrupt>
  50:	0c 94 82 01 	jmp	0x304	; 0x304 <__bad_interrupt>
  54:	0c 94 82 01 	jmp	0x304	; 0x304 <__bad_interrupt>
  58:	0c 94 82 01 	jmp	0x304	; 0x304 <__bad_interrupt>
  5c:	0c 94 82 01 	jmp	0x304	; 0x304 <__bad_interrupt>
  60:	0c 94 82 01 	jmp	0x304	; 0x304 <__bad_interrupt>
  64:	0c 94 82 01 	jmp	0x304	; 0x304 <__bad_interrupt>

00000068 <__trampolines_end>:
  68:	7f 3e       	cpi	r23, 0xEF	; 239
  6a:	1c 1c       	adc	r1, r12
  6c:	08 08       	sbc	r0, r8
  6e:	1c 1c       	adc	r1, r12
  70:	3e 7f       	andi	r19, 0xFE	; 254
  72:	14 22       	and	r1, r20
  74:	7f 22       	and	r7, r31
  76:	14 08       	sbc	r1, r4
  78:	04 7e       	andi	r16, 0xE4	; 228
  7a:	04 08       	sbc	r0, r4
  7c:	10 20       	and	r1, r0
  7e:	7e 20       	and	r7, r14
  80:	10 08       	sbc	r1, r0
  82:	08 2a       	or	r0, r24
  84:	1c 08       	sbc	r1, r12
  86:	08 1c       	adc	r0, r8
  88:	2a 08       	sbc	r2, r10
  8a:	08 00       	.word	0x0008	; ????
  8c:	00 00       	nop
  8e:	00 00       	nop
  90:	00 00       	nop
  92:	5f 00       	.word	0x005f	; ????
  94:	00 00       	nop
  96:	07 00       	.word	0x0007	; ????
  98:	07 00       	.word	0x0007	; ????
  9a:	14 7f       	andi	r17, 0xF4	; 244
  9c:	14 7f       	andi	r17, 0xF4	; 244
  9e:	14 00       	.word	0x0014	; ????
  a0:	00 00       	nop
  a2:	00 00       	nop
  a4:	23 13       	cpse	r18, r19
  a6:	08 64       	ori	r16, 0x48	; 72
  a8:	62 36       	cpi	r22, 0x62	; 98
  aa:	49 56       	subi	r20, 0x69	; 105
  ac:	20 50       	subi	r18, 0x00	; 0
  ae:	00 08       	sbc	r0, r0
  b0:	07 03       	mulsu	r16, r23
  b2:	00 00       	nop
  b4:	1c 22       	and	r1, r28
  b6:	41 00       	.word	0x0041	; ????
  b8:	00 41       	sbci	r16, 0x10	; 16
  ba:	22 1c       	adc	r2, r2
  bc:	00 2a       	or	r0, r16
  be:	1c 7f       	andi	r17, 0xFC	; 252
  c0:	1c 2a       	or	r1, r28
  c2:	08 08       	sbc	r0, r8
  c4:	3e 08       	sbc	r3, r14
  c6:	08 00       	.word	0x0008	; ????
  c8:	80 70       	andi	r24, 0x00	; 0
  ca:	30 00       	.word	0x0030	; ????
  cc:	08 08       	sbc	r0, r8
  ce:	08 08       	sbc	r0, r8
  d0:	08 00       	.word	0x0008	; ????
  d2:	00 60       	ori	r16, 0x00	; 0
  d4:	60 00       	.word	0x0060	; ????
  d6:	20 10       	cpse	r2, r0
  d8:	08 04       	cpc	r0, r8
  da:	02 3e       	cpi	r16, 0xE2	; 226
  dc:	51 49       	sbci	r21, 0x91	; 145
  de:	45 3e       	cpi	r20, 0xE5	; 229
  e0:	00 42       	sbci	r16, 0x20	; 32
  e2:	7f 40       	sbci	r23, 0x0F	; 15
  e4:	00 72       	andi	r16, 0x20	; 32
  e6:	49 49       	sbci	r20, 0x99	; 153
  e8:	49 46       	sbci	r20, 0x69	; 105
  ea:	21 41       	sbci	r18, 0x11	; 17
  ec:	49 4d       	sbci	r20, 0xD9	; 217
  ee:	33 18       	sub	r3, r3
  f0:	14 12       	cpse	r1, r20
  f2:	7f 10       	cpse	r7, r15
  f4:	27 45       	sbci	r18, 0x57	; 87
  f6:	45 45       	sbci	r20, 0x55	; 85
  f8:	39 3c       	cpi	r19, 0xC9	; 201
  fa:	4a 49       	sbci	r20, 0x9A	; 154
  fc:	49 31       	cpi	r20, 0x19	; 25
  fe:	41 21       	and	r20, r1
 100:	11 09       	sbc	r17, r1
 102:	07 36       	cpi	r16, 0x67	; 103
 104:	49 49       	sbci	r20, 0x99	; 153
 106:	49 36       	cpi	r20, 0x69	; 105
 108:	46 49       	sbci	r20, 0x96	; 150
 10a:	49 29       	or	r20, r9
 10c:	1e 00       	.word	0x001e	; ????
 10e:	00 14       	cp	r0, r0
 110:	00 00       	nop
 112:	00 40       	sbci	r16, 0x00	; 0
 114:	34 00       	.word	0x0034	; ????
 116:	00 00       	nop
 118:	08 14       	cp	r0, r8
 11a:	22 41       	sbci	r18, 0x12	; 18
 11c:	14 14       	cp	r1, r4
 11e:	14 14       	cp	r1, r4
 120:	14 00       	.word	0x0014	; ????
 122:	41 22       	and	r4, r17
 124:	14 08       	sbc	r1, r4
 126:	02 01       	movw	r0, r4
 128:	59 09       	sbc	r21, r9
 12a:	06 3e       	cpi	r16, 0xE6	; 230
 12c:	41 5d       	subi	r20, 0xD1	; 209
 12e:	59 4e       	sbci	r21, 0xE9	; 233
 130:	7c 12       	cpse	r7, r28
 132:	11 12       	cpse	r1, r17
 134:	7c 7f       	andi	r23, 0xFC	; 252
 136:	49 49       	sbci	r20, 0x99	; 153
 138:	49 36       	cpi	r20, 0x69	; 105
 13a:	3e 41       	sbci	r19, 0x1E	; 30
 13c:	41 41       	sbci	r20, 0x11	; 17
 13e:	22 7f       	andi	r18, 0xF2	; 242
 140:	41 41       	sbci	r20, 0x11	; 17
 142:	41 3e       	cpi	r20, 0xE1	; 225
 144:	7f 49       	sbci	r23, 0x9F	; 159
 146:	49 49       	sbci	r20, 0x99	; 153
 148:	41 7f       	andi	r20, 0xF1	; 241
 14a:	09 09       	sbc	r16, r9
 14c:	09 01       	movw	r0, r18
 14e:	3e 41       	sbci	r19, 0x1E	; 30
 150:	41 51       	subi	r20, 0x11	; 17
 152:	73 7f       	andi	r23, 0xF3	; 243
 154:	08 08       	sbc	r0, r8
 156:	08 7f       	andi	r16, 0xF8	; 248
 158:	00 41       	sbci	r16, 0x10	; 16
 15a:	7f 41       	sbci	r23, 0x1F	; 31
 15c:	00 20       	and	r0, r0
 15e:	40 41       	sbci	r20, 0x10	; 16
 160:	3f 01       	movw	r6, r30
 162:	7f 08       	sbc	r7, r15
 164:	14 22       	and	r1, r20
 166:	41 7f       	andi	r20, 0xF1	; 241
 168:	40 40       	sbci	r20, 0x00	; 0
 16a:	40 40       	sbci	r20, 0x00	; 0
 16c:	7f 02       	muls	r23, r31
 16e:	1c 02       	muls	r17, r28
 170:	7f 7f       	andi	r23, 0xFF	; 255
 172:	04 08       	sbc	r0, r4
 174:	10 7f       	andi	r17, 0xF0	; 240
 176:	3e 41       	sbci	r19, 0x1E	; 30
 178:	41 41       	sbci	r20, 0x11	; 17
 17a:	3e 7f       	andi	r19, 0xFE	; 254
 17c:	09 09       	sbc	r16, r9
 17e:	09 06       	cpc	r0, r25
 180:	3e 41       	sbci	r19, 0x1E	; 30
 182:	51 21       	and	r21, r1
 184:	5e 7f       	andi	r21, 0xFE	; 254
 186:	09 19       	sub	r16, r9
 188:	29 46       	sbci	r18, 0x69	; 105
 18a:	26 49       	sbci	r18, 0x96	; 150
 18c:	49 49       	sbci	r20, 0x99	; 153
 18e:	32 03       	mulsu	r19, r18
 190:	01 7f       	andi	r16, 0xF1	; 241
 192:	01 03       	mulsu	r16, r17
 194:	3f 40       	sbci	r19, 0x0F	; 15
 196:	40 40       	sbci	r20, 0x00	; 0
 198:	3f 1f       	adc	r19, r31
 19a:	20 40       	sbci	r18, 0x00	; 0
 19c:	20 1f       	adc	r18, r16
 19e:	3f 40       	sbci	r19, 0x0F	; 15
 1a0:	38 40       	sbci	r19, 0x08	; 8
 1a2:	3f 63       	ori	r19, 0x3F	; 63
 1a4:	14 08       	sbc	r1, r4
 1a6:	14 63       	ori	r17, 0x34	; 52
 1a8:	03 04       	cpc	r0, r3
 1aa:	78 04       	cpc	r7, r8
 1ac:	03 61       	ori	r16, 0x13	; 19
 1ae:	59 49       	sbci	r21, 0x99	; 153
 1b0:	4d 43       	sbci	r20, 0x3D	; 61
 1b2:	00 7f       	andi	r16, 0xF0	; 240
 1b4:	41 41       	sbci	r20, 0x11	; 17
 1b6:	41 02       	muls	r20, r17
 1b8:	04 08       	sbc	r0, r4
 1ba:	10 20       	and	r1, r0
 1bc:	00 41       	sbci	r16, 0x10	; 16
 1be:	41 41       	sbci	r20, 0x11	; 17
 1c0:	7f 04       	cpc	r7, r15
 1c2:	02 01       	movw	r0, r4
 1c4:	02 04       	cpc	r0, r2
 1c6:	40 40       	sbci	r20, 0x00	; 0
 1c8:	40 40       	sbci	r20, 0x00	; 0
 1ca:	40 00       	.word	0x0040	; ????
 1cc:	03 07       	cpc	r16, r19
 1ce:	08 00       	.word	0x0008	; ????
 1d0:	20 54       	subi	r18, 0x40	; 64
 1d2:	54 78       	andi	r21, 0x84	; 132
 1d4:	40 7f       	andi	r20, 0xF0	; 240
 1d6:	28 44       	sbci	r18, 0x48	; 72
 1d8:	44 38       	cpi	r20, 0x84	; 132
 1da:	38 44       	sbci	r19, 0x48	; 72
 1dc:	44 44       	sbci	r20, 0x44	; 68
 1de:	28 38       	cpi	r18, 0x88	; 136
 1e0:	44 44       	sbci	r20, 0x44	; 68
 1e2:	28 7f       	andi	r18, 0xF8	; 248
 1e4:	38 54       	subi	r19, 0x48	; 72
 1e6:	54 54       	subi	r21, 0x44	; 68
 1e8:	18 00       	.word	0x0018	; ????
 1ea:	08 7e       	andi	r16, 0xE8	; 232
 1ec:	09 02       	muls	r16, r25
 1ee:	18 a4       	ldd	r1, Y+40	; 0x28
 1f0:	a4 9c       	mul	r10, r4
 1f2:	78 7f       	andi	r23, 0xF8	; 248
 1f4:	08 04       	cpc	r0, r8
 1f6:	04 78       	andi	r16, 0x84	; 132
 1f8:	00 44       	sbci	r16, 0x40	; 64
 1fa:	7d 40       	sbci	r23, 0x0D	; 13
 1fc:	00 20       	and	r0, r0
 1fe:	40 40       	sbci	r20, 0x00	; 0
 200:	3d 00       	.word	0x003d	; ????
 202:	7f 10       	cpse	r7, r15
 204:	28 44       	sbci	r18, 0x48	; 72
 206:	00 00       	nop
 208:	41 7f       	andi	r20, 0xF1	; 241
 20a:	40 00       	.word	0x0040	; ????
 20c:	7c 04       	cpc	r7, r12
 20e:	78 04       	cpc	r7, r8
 210:	78 7c       	andi	r23, 0xC8	; 200
 212:	08 04       	cpc	r0, r8
 214:	04 78       	andi	r16, 0x84	; 132
 216:	38 44       	sbci	r19, 0x48	; 72
 218:	44 44       	sbci	r20, 0x44	; 68
 21a:	38 fc       	.word	0xfc38	; ????
 21c:	18 24       	eor	r1, r8
 21e:	24 18       	sub	r2, r4
 220:	18 24       	eor	r1, r8
 222:	24 18       	sub	r2, r4
 224:	fc 7c       	andi	r31, 0xCC	; 204
 226:	08 04       	cpc	r0, r8
 228:	04 08       	sbc	r0, r4
 22a:	48 54       	subi	r20, 0x48	; 72
 22c:	54 54       	subi	r21, 0x44	; 68
 22e:	24 04       	cpc	r2, r4
 230:	04 3f       	cpi	r16, 0xF4	; 244
 232:	44 24       	eor	r4, r4
 234:	3c 40       	sbci	r19, 0x0C	; 12
 236:	40 20       	and	r4, r0
 238:	7c 1c       	adc	r7, r12
 23a:	20 40       	sbci	r18, 0x00	; 0
 23c:	20 1c       	adc	r2, r0
 23e:	3c 40       	sbci	r19, 0x0C	; 12
 240:	30 40       	sbci	r19, 0x00	; 0
 242:	3c 44       	sbci	r19, 0x4C	; 76
 244:	28 10       	cpse	r2, r8
 246:	28 44       	sbci	r18, 0x48	; 72
 248:	4c 90       	ld	r4, X
 24a:	90 90 7c 44 	lds	r9, 0x447C	; 0x80447c <__bss_end+0x428e>
 24e:	64 54       	subi	r22, 0x44	; 68
 250:	4c 44       	sbci	r20, 0x4C	; 76
 252:	00 08       	sbc	r0, r0
 254:	36 41       	sbci	r19, 0x16	; 22
 256:	00 00       	nop
 258:	00 77       	andi	r16, 0x70	; 112
 25a:	00 00       	nop
 25c:	00 41       	sbci	r16, 0x10	; 16
 25e:	36 08       	sbc	r3, r6
 260:	00 02       	muls	r16, r16
 262:	01 02       	muls	r16, r17
 264:	04 02       	muls	r16, r20
 266:	3a 40       	sbci	r19, 0x0A	; 10
 268:	40 20       	and	r4, r0
 26a:	7a 22       	and	r7, r26
 26c:	54 54       	subi	r21, 0x44	; 68
 26e:	78 42       	sbci	r23, 0x28	; 40
 270:	7d 12       	cpse	r7, r29
 272:	11 12       	cpse	r1, r17
 274:	7d 3a       	cpi	r23, 0xAD	; 173
 276:	44 44       	sbci	r20, 0x44	; 68
 278:	44 3a       	cpi	r20, 0xA4	; 164
 27a:	3d 42       	sbci	r19, 0x2D	; 45
 27c:	42 42       	sbci	r20, 0x22	; 34
 27e:	3d 3d       	cpi	r19, 0xDD	; 221
 280:	40 40       	sbci	r20, 0x00	; 0
 282:	40 3d       	cpi	r20, 0xD0	; 208
 284:	38 44       	sbci	r19, 0x48	; 72
 286:	44 38       	cpi	r20, 0x84	; 132
 288:	44 fc       	sbrc	r4, 4
 28a:	4a 4a       	sbci	r20, 0xAA	; 170
 28c:	4a 34       	cpi	r20, 0x4A	; 74
 28e:	7e 02       	muls	r23, r30
 290:	02 06       	cpc	r0, r18
 292:	06 02       	muls	r16, r22
 294:	7e 02       	muls	r23, r30
 296:	7e 02       	muls	r23, r30
 298:	63 55       	subi	r22, 0x53	; 83
 29a:	49 41       	sbci	r20, 0x19	; 25
 29c:	63 38       	cpi	r22, 0x83	; 131
 29e:	44 44       	sbci	r20, 0x44	; 68
 2a0:	3c 04       	cpc	r3, r12
 2a2:	40 7e       	andi	r20, 0xE0	; 224
 2a4:	20 1e       	adc	r2, r16
 2a6:	20 4c       	sbci	r18, 0xC0	; 192
 2a8:	72 01       	movw	r14, r4
 2aa:	72 4c       	sbci	r23, 0xC2	; 194
 2ac:	bc 62       	ori	r27, 0x2C	; 44
 2ae:	5a 46       	sbci	r21, 0x6A	; 106
 2b0:	3d 44       	sbci	r19, 0x4D	; 77
 2b2:	44 5f       	subi	r20, 0xF4	; 244
 2b4:	44 44       	sbci	r20, 0x44	; 68
 2b6:	40 51       	subi	r20, 0x10	; 16
 2b8:	4a 44       	sbci	r20, 0x4A	; 74
 2ba:	40 40       	sbci	r20, 0x00	; 0
 2bc:	44 4a       	sbci	r20, 0xA4	; 164
 2be:	51 40       	sbci	r21, 0x01	; 1
 2c0:	36 12       	cpse	r3, r22
 2c2:	36 24       	eor	r3, r6
 2c4:	36 06       	cpc	r3, r22
 2c6:	0f 09       	sbc	r16, r15
 2c8:	0f 06       	cpc	r0, r31

000002ca <__ctors_end>:
 2ca:	11 24       	eor	r1, r1
 2cc:	1f be       	out	0x3f, r1	; 63
 2ce:	cf ef       	ldi	r28, 0xFF	; 255
 2d0:	d8 e0       	ldi	r29, 0x08	; 8
 2d2:	de bf       	out	0x3e, r29	; 62
 2d4:	cd bf       	out	0x3d, r28	; 61

000002d6 <__do_copy_data>:
 2d6:	11 e0       	ldi	r17, 0x01	; 1
 2d8:	a0 e0       	ldi	r26, 0x00	; 0
 2da:	b1 e0       	ldi	r27, 0x01	; 1
 2dc:	ee e8       	ldi	r30, 0x8E	; 142
 2de:	fc e0       	ldi	r31, 0x0C	; 12
 2e0:	02 c0       	rjmp	.+4      	; 0x2e6 <__do_copy_data+0x10>
 2e2:	05 90       	lpm	r0, Z+
 2e4:	0d 92       	st	X+, r0
 2e6:	ae 33       	cpi	r26, 0x3E	; 62
 2e8:	b1 07       	cpc	r27, r17
 2ea:	d9 f7       	brne	.-10     	; 0x2e2 <__do_copy_data+0xc>

000002ec <__do_clear_bss>:
 2ec:	21 e0       	ldi	r18, 0x01	; 1
 2ee:	ae e3       	ldi	r26, 0x3E	; 62
 2f0:	b1 e0       	ldi	r27, 0x01	; 1
 2f2:	01 c0       	rjmp	.+2      	; 0x2f6 <.do_clear_bss_start>

000002f4 <.do_clear_bss_loop>:
 2f4:	1d 92       	st	X+, r1

000002f6 <.do_clear_bss_start>:
 2f6:	ae 3e       	cpi	r26, 0xEE	; 238
 2f8:	b2 07       	cpc	r27, r18
 2fa:	e1 f7       	brne	.-8      	; 0x2f4 <.do_clear_bss_loop>
 2fc:	0e 94 3c 02 	call	0x478	; 0x478 <main>
 300:	0c 94 45 06 	jmp	0xc8a	; 0xc8a <_exit>

00000304 <__bad_interrupt>:
 304:	0c 94 00 00 	jmp	0	; 0x0 <__vectors>

00000308 <__vector_9>:
 308:	1f 92       	push	r1
 30a:	0f 92       	push	r0
 30c:	0f b6       	in	r0, 0x3f	; 63
 30e:	0f 92       	push	r0
 310:	11 24       	eor	r1, r1
 312:	8f 93       	push	r24
 314:	80 91 40 01 	lds	r24, 0x0140	; 0x800140 <time>
 318:	8f 5f       	subi	r24, 0xFF	; 255
 31a:	80 93 40 01 	sts	0x0140, r24	; 0x800140 <time>
 31e:	2d 9a       	sbi	0x05, 5	; 5
 320:	8f 91       	pop	r24
 322:	0f 90       	pop	r0
 324:	0f be       	out	0x3f, r0	; 63
 326:	0f 90       	pop	r0
 328:	1f 90       	pop	r1
 32a:	18 95       	reti

0000032c <init_tick_timer>:
 32c:	10 92 b0 00 	sts	0x00B0, r1	; 0x8000b0 <__TEXT_REGION_LENGTH__+0x7e00b0>
 330:	87 e0       	ldi	r24, 0x07	; 7
 332:	80 93 b1 00 	sts	0x00B1, r24	; 0x8000b1 <__TEXT_REGION_LENGTH__+0x7e00b1>
 336:	81 e0       	ldi	r24, 0x01	; 1
 338:	80 93 70 00 	sts	0x0070, r24	; 0x800070 <__TEXT_REGION_LENGTH__+0x7e0070>
 33c:	08 95       	ret

0000033e <checksum>:
 33e:	fc 01       	movw	r30, r24
 340:	80 e0       	ldi	r24, 0x00	; 0
 342:	66 23       	and	r22, r22
 344:	21 f0       	breq	.+8      	; 0x34e <checksum+0x10>
 346:	91 91       	ld	r25, Z+
 348:	89 27       	eor	r24, r25
 34a:	61 50       	subi	r22, 0x01	; 1
 34c:	fa cf       	rjmp	.-12     	; 0x342 <checksum+0x4>
 34e:	08 95       	ret

00000350 <msg_send>:
 350:	08 95       	ret

00000352 <msg_recv>:
 352:	80 e0       	ldi	r24, 0x00	; 0
 354:	08 95       	ret

00000356 <wb_io>:
 356:	08 95       	ret

00000358 <SendBreak>:
 358:	51 9a       	sbi	0x0a, 1	; 10
 35a:	59 98       	cbi	0x0b, 1	; 11
 35c:	2f ef       	ldi	r18, 0xFF	; 255
 35e:	80 e7       	ldi	r24, 0x70	; 112
 360:	92 e0       	ldi	r25, 0x02	; 2
 362:	21 50       	subi	r18, 0x01	; 1
 364:	80 40       	sbci	r24, 0x00	; 0
 366:	90 40       	sbci	r25, 0x00	; 0
 368:	e1 f7       	brne	.-8      	; 0x362 <SendBreak+0xa>
 36a:	00 c0       	rjmp	.+0      	; 0x36c <SendBreak+0x14>
 36c:	00 00       	nop
 36e:	59 9a       	sbi	0x0b, 1	; 11
 370:	2f ef       	ldi	r18, 0xFF	; 255
 372:	80 e7       	ldi	r24, 0x70	; 112
 374:	92 e0       	ldi	r25, 0x02	; 2
 376:	21 50       	subi	r18, 0x01	; 1
 378:	80 40       	sbci	r24, 0x00	; 0
 37a:	90 40       	sbci	r25, 0x00	; 0
 37c:	e1 f7       	brne	.-8      	; 0x376 <SendBreak+0x1e>
 37e:	00 c0       	rjmp	.+0      	; 0x380 <SendBreak+0x28>
 380:	00 00       	nop
 382:	08 95       	ret

00000384 <turnOn>:
 384:	08 95       	ret

00000386 <turnOff>:
 386:	08 95       	ret

00000388 <keepAlive>:
 388:	08 95       	ret

0000038a <get_status2>:
 38a:	08 95       	ret

0000038c <get_status>:
 38c:	85 e0       	ldi	r24, 0x05	; 5
 38e:	80 93 c6 01 	sts	0x01C6, r24	; 0x8001c6 <message_data>
 392:	08 95       	ret

00000394 <rcv>:
 394:	1f 93       	push	r17
 396:	cf 93       	push	r28
 398:	df 93       	push	r29
 39a:	d0 e0       	ldi	r29, 0x00	; 0
 39c:	c0 e0       	ldi	r28, 0x00	; 0
 39e:	0e 94 f5 05 	call	0xbea	; 0xbea <uart_receive>
 3a2:	c1 30       	cpi	r28, 0x01	; 1
 3a4:	41 f0       	breq	.+16     	; 0x3b6 <rcv+0x22>
 3a6:	18 f0       	brcs	.+6      	; 0x3ae <rcv+0x1a>
 3a8:	c2 30       	cpi	r28, 0x02	; 2
 3aa:	51 f0       	breq	.+20     	; 0x3c0 <rcv+0x2c>
 3ac:	f8 cf       	rjmp	.-16     	; 0x39e <rcv+0xa>
 3ae:	c1 e0       	ldi	r28, 0x01	; 1
 3b0:	8f 34       	cpi	r24, 0x4F	; 79
 3b2:	a1 f7       	brne	.-24     	; 0x39c <rcv+0x8>
 3b4:	f4 cf       	rjmp	.-24     	; 0x39e <rcv+0xa>
 3b6:	80 93 45 01 	sts	0x0145, r24	; 0x800145 <message>
 3ba:	d1 e0       	ldi	r29, 0x01	; 1
 3bc:	c2 e0       	ldi	r28, 0x02	; 2
 3be:	ef cf       	rjmp	.-34     	; 0x39e <rcv+0xa>
 3c0:	ed 2f       	mov	r30, r29
 3c2:	f0 e0       	ldi	r31, 0x00	; 0
 3c4:	eb 5b       	subi	r30, 0xBB	; 187
 3c6:	fe 4f       	sbci	r31, 0xFE	; 254
 3c8:	80 83       	st	Z, r24
 3ca:	df 5f       	subi	r29, 0xFF	; 255
 3cc:	80 91 45 01 	lds	r24, 0x0145	; 0x800145 <message>
 3d0:	8d 17       	cp	r24, r29
 3d2:	28 f7       	brcc	.-54     	; 0x39e <rcv+0xa>
 3d4:	80 91 46 01 	lds	r24, 0x0146	; 0x800146 <message+0x1>
 3d8:	80 3d       	cpi	r24, 0xD0	; 208
 3da:	41 f5       	brne	.+80     	; 0x42c <__LOCK_REGION_LENGTH__+0x2c>
 3dc:	10 91 53 01 	lds	r17, 0x0153	; 0x800153 <message+0xe>
 3e0:	12 53       	subi	r17, 0x32	; 50
 3e2:	c0 91 55 01 	lds	r28, 0x0155	; 0x800155 <message+0x10>
 3e6:	d0 91 56 01 	lds	r29, 0x0156	; 0x800156 <message+0x11>
 3ea:	dc 27       	eor	r29, r28
 3ec:	cd 27       	eor	r28, r29
 3ee:	dc 27       	eor	r29, r28
 3f0:	0e 94 90 04 	call	0x920	; 0x920 <clear>
 3f4:	4a e0       	ldi	r20, 0x0A	; 10
 3f6:	63 ee       	ldi	r22, 0xE3	; 227
 3f8:	71 e0       	ldi	r23, 0x01	; 1
 3fa:	81 2f       	mov	r24, r17
 3fc:	90 e0       	ldi	r25, 0x00	; 0
 3fe:	0e 94 10 06 	call	0xc20	; 0xc20 <__itoa_ncheck>
 402:	83 ee       	ldi	r24, 0xE3	; 227
 404:	91 e0       	ldi	r25, 0x01	; 1
 406:	0e 94 11 05 	call	0xa22	; 0xa22 <oled_print>
 40a:	87 e0       	ldi	r24, 0x07	; 7
 40c:	91 e0       	ldi	r25, 0x01	; 1
 40e:	0e 94 11 05 	call	0xa22	; 0xa22 <oled_print>
 412:	4a e0       	ldi	r20, 0x0A	; 10
 414:	63 ee       	ldi	r22, 0xE3	; 227
 416:	71 e0       	ldi	r23, 0x01	; 1
 418:	ce 01       	movw	r24, r28
 41a:	0e 94 10 06 	call	0xc20	; 0xc20 <__itoa_ncheck>
 41e:	83 ee       	ldi	r24, 0xE3	; 227
 420:	91 e0       	ldi	r25, 0x01	; 1
 422:	df 91       	pop	r29
 424:	cf 91       	pop	r28
 426:	1f 91       	pop	r17
 428:	0c 94 11 05 	jmp	0xa22	; 0xa22 <oled_print>
 42c:	df 91       	pop	r29
 42e:	cf 91       	pop	r28
 430:	1f 91       	pop	r17
 432:	08 95       	ret

00000434 <init_webasto>:
 434:	10 92 c1 00 	sts	0x00C1, r1	; 0x8000c1 <__TEXT_REGION_LENGTH__+0x7e00c1>
 438:	0e 94 ac 01 	call	0x358	; 0x358 <SendBreak>
 43c:	0e 94 bf 05 	call	0xb7e	; 0xb7e <uart_init>
 440:	8a e0       	ldi	r24, 0x0A	; 10
 442:	91 e0       	ldi	r25, 0x01	; 1
 444:	0e 94 d5 05 	call	0xbaa	; 0xbaa <uart_puts>
 448:	80 91 c0 00 	lds	r24, 0x00C0	; 0x8000c0 <__TEXT_REGION_LENGTH__+0x7e00c0>
 44c:	85 ff       	sbrs	r24, 5
 44e:	fc cf       	rjmp	.-8      	; 0x448 <init_webasto+0x14>
 450:	8f e1       	ldi	r24, 0x1F	; 31
 452:	9e e4       	ldi	r25, 0x4E	; 78
 454:	01 97       	sbiw	r24, 0x01	; 1
 456:	f1 f7       	brne	.-4      	; 0x454 <init_webasto+0x20>
 458:	00 c0       	rjmp	.+0      	; 0x45a <init_webasto+0x26>
 45a:	00 00       	nop
 45c:	0e 94 fc 05 	call	0xbf8	; 0xbf8 <uart_flush>
 460:	0e 94 ca 01 	call	0x394	; 0x394 <rcv>
 464:	9f ef       	ldi	r25, 0xFF	; 255
 466:	24 e6       	ldi	r18, 0x64	; 100
 468:	84 e0       	ldi	r24, 0x04	; 4
 46a:	91 50       	subi	r25, 0x01	; 1
 46c:	20 40       	sbci	r18, 0x00	; 0
 46e:	80 40       	sbci	r24, 0x00	; 0
 470:	e1 f7       	brne	.-8      	; 0x46a <init_webasto+0x36>
 472:	00 c0       	rjmp	.+0      	; 0x474 <init_webasto+0x40>
 474:	00 00       	nop
 476:	08 95       	ret

00000478 <main>:
 478:	0e 94 96 01 	call	0x32c	; 0x32c <init_tick_timer>
 47c:	78 94       	sei
 47e:	0e 94 3b 04 	call	0x876	; 0x876 <init_ssd1306>
 482:	0e 94 90 04 	call	0x920	; 0x920 <clear>
 486:	60 e0       	ldi	r22, 0x00	; 0
 488:	80 e0       	ldi	r24, 0x00	; 0
 48a:	0e 94 cd 04 	call	0x99a	; 0x99a <setCursor>
 48e:	0e 94 1a 02 	call	0x434	; 0x434 <init_webasto>
 492:	80 e1       	ldi	r24, 0x10	; 16
 494:	91 e0       	ldi	r25, 0x01	; 1
 496:	0e 94 d5 05 	call	0xbaa	; 0xbaa <uart_puts>
 49a:	80 91 c0 00 	lds	r24, 0x00C0	; 0x8000c0 <__TEXT_REGION_LENGTH__+0x7e00c0>
 49e:	85 ff       	sbrs	r24, 5
 4a0:	fc cf       	rjmp	.-8      	; 0x49a <main+0x22>
 4a2:	8f e1       	ldi	r24, 0x1F	; 31
 4a4:	9e e4       	ldi	r25, 0x4E	; 78
 4a6:	01 97       	sbiw	r24, 0x01	; 1
 4a8:	f1 f7       	brne	.-4      	; 0x4a6 <main+0x2e>
 4aa:	00 c0       	rjmp	.+0      	; 0x4ac <main+0x34>
 4ac:	00 00       	nop
 4ae:	0e 94 fc 05 	call	0xbf8	; 0xbf8 <uart_flush>
 4b2:	0e 94 ca 01 	call	0x394	; 0x394 <rcv>
 4b6:	9f ef       	ldi	r25, 0xFF	; 255
 4b8:	24 e6       	ldi	r18, 0x64	; 100
 4ba:	84 e0       	ldi	r24, 0x04	; 4
 4bc:	91 50       	subi	r25, 0x01	; 1
 4be:	20 40       	sbci	r18, 0x00	; 0
 4c0:	80 40       	sbci	r24, 0x00	; 0
 4c2:	e1 f7       	brne	.-8      	; 0x4bc <main+0x44>
 4c4:	00 c0       	rjmp	.+0      	; 0x4c6 <main+0x4e>
 4c6:	00 00       	nop
 4c8:	9f ef       	ldi	r25, 0xFF	; 255
 4ca:	21 ee       	ldi	r18, 0xE1	; 225
 4cc:	84 e0       	ldi	r24, 0x04	; 4
 4ce:	91 50       	subi	r25, 0x01	; 1
 4d0:	20 40       	sbci	r18, 0x00	; 0
 4d2:	80 40       	sbci	r24, 0x00	; 0
 4d4:	e1 f7       	brne	.-8      	; 0x4ce <main+0x56>
 4d6:	00 c0       	rjmp	.+0      	; 0x4d8 <main+0x60>
 4d8:	00 00       	nop
 4da:	86 e1       	ldi	r24, 0x16	; 22
 4dc:	91 e0       	ldi	r25, 0x01	; 1
 4de:	0e 94 d5 05 	call	0xbaa	; 0xbaa <uart_puts>
 4e2:	80 91 c0 00 	lds	r24, 0x00C0	; 0x8000c0 <__TEXT_REGION_LENGTH__+0x7e00c0>
 4e6:	85 ff       	sbrs	r24, 5
 4e8:	fc cf       	rjmp	.-8      	; 0x4e2 <main+0x6a>
 4ea:	8f e1       	ldi	r24, 0x1F	; 31
 4ec:	9e e4       	ldi	r25, 0x4E	; 78
 4ee:	01 97       	sbiw	r24, 0x01	; 1
 4f0:	f1 f7       	brne	.-4      	; 0x4ee <main+0x76>
 4f2:	00 c0       	rjmp	.+0      	; 0x4f4 <main+0x7c>
 4f4:	00 00       	nop
 4f6:	0e 94 fc 05 	call	0xbf8	; 0xbf8 <uart_flush>
 4fa:	0e 94 ca 01 	call	0x394	; 0x394 <rcv>
 4fe:	c7 e0       	ldi	r28, 0x07	; 7
 500:	9f ef       	ldi	r25, 0xFF	; 255
 502:	27 e9       	ldi	r18, 0x97	; 151
 504:	8a e3       	ldi	r24, 0x3A	; 58
 506:	91 50       	subi	r25, 0x01	; 1
 508:	20 40       	sbci	r18, 0x00	; 0
 50a:	80 40       	sbci	r24, 0x00	; 0
 50c:	e1 f7       	brne	.-8      	; 0x506 <main+0x8e>
 50e:	00 c0       	rjmp	.+0      	; 0x510 <main+0x98>
 510:	00 00       	nop
 512:	8c e1       	ldi	r24, 0x1C	; 28
 514:	91 e0       	ldi	r25, 0x01	; 1
 516:	0e 94 d5 05 	call	0xbaa	; 0xbaa <uart_puts>
 51a:	80 91 c0 00 	lds	r24, 0x00C0	; 0x8000c0 <__TEXT_REGION_LENGTH__+0x7e00c0>
 51e:	85 ff       	sbrs	r24, 5
 520:	fc cf       	rjmp	.-8      	; 0x51a <main+0xa2>
 522:	8f e1       	ldi	r24, 0x1F	; 31
 524:	9e e4       	ldi	r25, 0x4E	; 78
 526:	01 97       	sbiw	r24, 0x01	; 1
 528:	f1 f7       	brne	.-4      	; 0x526 <main+0xae>
 52a:	00 c0       	rjmp	.+0      	; 0x52c <main+0xb4>
 52c:	00 00       	nop
 52e:	0e 94 fc 05 	call	0xbf8	; 0xbf8 <uart_flush>
 532:	0e 94 ca 01 	call	0x394	; 0x394 <rcv>
 536:	c1 50       	subi	r28, 0x01	; 1
 538:	19 f7       	brne	.-58     	; 0x500 <main+0x88>
 53a:	9f ef       	ldi	r25, 0xFF	; 255
 53c:	25 ea       	ldi	r18, 0xA5	; 165
 53e:	8e e0       	ldi	r24, 0x0E	; 14
 540:	91 50       	subi	r25, 0x01	; 1
 542:	20 40       	sbci	r18, 0x00	; 0
 544:	80 40       	sbci	r24, 0x00	; 0
 546:	e1 f7       	brne	.-8      	; 0x540 <main+0xc8>
 548:	00 c0       	rjmp	.+0      	; 0x54a <main+0xd2>
 54a:	00 00       	nop
 54c:	66 e0       	ldi	r22, 0x06	; 6
 54e:	80 e0       	ldi	r24, 0x00	; 0
 550:	91 e0       	ldi	r25, 0x01	; 1
 552:	0e 94 e1 05 	call	0xbc2	; 0xbc2 <uart_putb>
 556:	80 91 c0 00 	lds	r24, 0x00C0	; 0x8000c0 <__TEXT_REGION_LENGTH__+0x7e00c0>
 55a:	85 ff       	sbrs	r24, 5
 55c:	fc cf       	rjmp	.-8      	; 0x556 <main+0xde>
 55e:	c5 cf       	rjmp	.-118    	; 0x4ea <main+0x72>

00000560 <spi_putc>:
 560:	8e bd       	out	0x2e, r24	; 46
 562:	0d b4       	in	r0, 0x2d	; 45
 564:	07 fe       	sbrs	r0, 7
 566:	fd cf       	rjmp	.-6      	; 0x562 <spi_putc+0x2>
 568:	8e b5       	in	r24, 0x2e	; 46
 56a:	08 95       	ret

0000056c <mcp2515_write_register>:
 56c:	cf 93       	push	r28
 56e:	df 93       	push	r29
 570:	d8 2f       	mov	r29, r24
 572:	c6 2f       	mov	r28, r22
 574:	2a 98       	cbi	0x05, 2	; 5
 576:	82 e0       	ldi	r24, 0x02	; 2
 578:	0e 94 b0 02 	call	0x560	; 0x560 <spi_putc>
 57c:	8d 2f       	mov	r24, r29
 57e:	0e 94 b0 02 	call	0x560	; 0x560 <spi_putc>
 582:	8c 2f       	mov	r24, r28
 584:	0e 94 b0 02 	call	0x560	; 0x560 <spi_putc>
 588:	2a 9a       	sbi	0x05, 2	; 5
 58a:	df 91       	pop	r29
 58c:	cf 91       	pop	r28
 58e:	08 95       	ret

00000590 <mcp2515_read_register>:
 590:	cf 93       	push	r28
 592:	c8 2f       	mov	r28, r24
 594:	2a 98       	cbi	0x05, 2	; 5
 596:	83 e0       	ldi	r24, 0x03	; 3
 598:	0e 94 b0 02 	call	0x560	; 0x560 <spi_putc>
 59c:	8c 2f       	mov	r24, r28
 59e:	0e 94 b0 02 	call	0x560	; 0x560 <spi_putc>
 5a2:	8f ef       	ldi	r24, 0xFF	; 255
 5a4:	0e 94 b0 02 	call	0x560	; 0x560 <spi_putc>
 5a8:	2a 9a       	sbi	0x05, 2	; 5
 5aa:	cf 91       	pop	r28
 5ac:	08 95       	ret

000005ae <mcp2515_bit_modify>:
 5ae:	1f 93       	push	r17
 5b0:	cf 93       	push	r28
 5b2:	df 93       	push	r29
 5b4:	18 2f       	mov	r17, r24
 5b6:	d6 2f       	mov	r29, r22
 5b8:	c4 2f       	mov	r28, r20
 5ba:	2a 98       	cbi	0x05, 2	; 5
 5bc:	85 e0       	ldi	r24, 0x05	; 5
 5be:	0e 94 b0 02 	call	0x560	; 0x560 <spi_putc>
 5c2:	81 2f       	mov	r24, r17
 5c4:	0e 94 b0 02 	call	0x560	; 0x560 <spi_putc>
 5c8:	8d 2f       	mov	r24, r29
 5ca:	0e 94 b0 02 	call	0x560	; 0x560 <spi_putc>
 5ce:	8c 2f       	mov	r24, r28
 5d0:	0e 94 b0 02 	call	0x560	; 0x560 <spi_putc>
 5d4:	2a 9a       	sbi	0x05, 2	; 5
 5d6:	df 91       	pop	r29
 5d8:	cf 91       	pop	r28
 5da:	1f 91       	pop	r17
 5dc:	08 95       	ret

000005de <mcp2515_read_status>:
 5de:	2a 98       	cbi	0x05, 2	; 5
 5e0:	0e 94 b0 02 	call	0x560	; 0x560 <spi_putc>
 5e4:	8f ef       	ldi	r24, 0xFF	; 255
 5e6:	0e 94 b0 02 	call	0x560	; 0x560 <spi_putc>
 5ea:	2a 9a       	sbi	0x05, 2	; 5
 5ec:	08 95       	ret

000005ee <mcp2515_init>:
 5ee:	2a 9a       	sbi	0x05, 2	; 5
 5f0:	22 9a       	sbi	0x04, 2	; 4
 5f2:	2d 98       	cbi	0x05, 5	; 5
 5f4:	2b 98       	cbi	0x05, 3	; 5
 5f6:	2c 98       	cbi	0x05, 4	; 5
 5f8:	25 9a       	sbi	0x04, 5	; 4
 5fa:	23 9a       	sbi	0x04, 3	; 4
 5fc:	24 98       	cbi	0x04, 4	; 4
 5fe:	52 98       	cbi	0x0a, 2	; 10
 600:	5a 9a       	sbi	0x0b, 2	; 11
 602:	83 e5       	ldi	r24, 0x53	; 83
 604:	8c bd       	out	0x2c, r24	; 44
 606:	1d bc       	out	0x2d, r1	; 45
 608:	2a 98       	cbi	0x05, 2	; 5
 60a:	80 ec       	ldi	r24, 0xC0	; 192
 60c:	0e 94 b0 02 	call	0x560	; 0x560 <spi_putc>
 610:	2a 9a       	sbi	0x05, 2	; 5
 612:	8f e8       	ldi	r24, 0x8F	; 143
 614:	91 e0       	ldi	r25, 0x01	; 1
 616:	01 97       	sbiw	r24, 0x01	; 1
 618:	f1 f7       	brne	.-4      	; 0x616 <mcp2515_init+0x28>
 61a:	00 c0       	rjmp	.+0      	; 0x61c <mcp2515_init+0x2e>
 61c:	00 00       	nop
 61e:	2a 98       	cbi	0x05, 2	; 5
 620:	82 e0       	ldi	r24, 0x02	; 2
 622:	0e 94 b0 02 	call	0x560	; 0x560 <spi_putc>
 626:	88 e2       	ldi	r24, 0x28	; 40
 628:	0e 94 b0 02 	call	0x560	; 0x560 <spi_putc>
 62c:	81 e0       	ldi	r24, 0x01	; 1
 62e:	0e 94 b0 02 	call	0x560	; 0x560 <spi_putc>
 632:	88 ea       	ldi	r24, 0xA8	; 168
 634:	0e 94 b0 02 	call	0x560	; 0x560 <spi_putc>
 638:	83 e1       	ldi	r24, 0x13	; 19
 63a:	0e 94 b0 02 	call	0x560	; 0x560 <spi_putc>
 63e:	83 e0       	ldi	r24, 0x03	; 3
 640:	0e 94 b0 02 	call	0x560	; 0x560 <spi_putc>
 644:	2a 9a       	sbi	0x05, 2	; 5
 646:	8a e2       	ldi	r24, 0x2A	; 42
 648:	0e 94 c8 02 	call	0x590	; 0x590 <mcp2515_read_register>
 64c:	83 31       	cpi	r24, 0x13	; 19
 64e:	b1 f4       	brne	.+44     	; 0x67c <mcp2515_init+0x8e>
 650:	60 e0       	ldi	r22, 0x00	; 0
 652:	8c e0       	ldi	r24, 0x0C	; 12
 654:	0e 94 b6 02 	call	0x56c	; 0x56c <mcp2515_write_register>
 658:	60 e0       	ldi	r22, 0x00	; 0
 65a:	8d e0       	ldi	r24, 0x0D	; 13
 65c:	0e 94 b6 02 	call	0x56c	; 0x56c <mcp2515_write_register>
 660:	60 e6       	ldi	r22, 0x60	; 96
 662:	80 e6       	ldi	r24, 0x60	; 96
 664:	0e 94 b6 02 	call	0x56c	; 0x56c <mcp2515_write_register>
 668:	60 e6       	ldi	r22, 0x60	; 96
 66a:	80 e7       	ldi	r24, 0x70	; 112
 66c:	0e 94 b6 02 	call	0x56c	; 0x56c <mcp2515_write_register>
 670:	60 e0       	ldi	r22, 0x00	; 0
 672:	8f e0       	ldi	r24, 0x0F	; 15
 674:	0e 94 b6 02 	call	0x56c	; 0x56c <mcp2515_write_register>
 678:	81 e0       	ldi	r24, 0x01	; 1
 67a:	08 95       	ret
 67c:	80 e0       	ldi	r24, 0x00	; 0
 67e:	08 95       	ret

00000680 <mcp2515_check_message>:
 680:	89 b1       	in	r24, 0x09	; 9
 682:	82 fb       	bst	r24, 2
 684:	88 27       	eor	r24, r24
 686:	80 f9       	bld	r24, 0
 688:	91 e0       	ldi	r25, 0x01	; 1
 68a:	89 27       	eor	r24, r25
 68c:	08 95       	ret

0000068e <mcp2515_check_free_buffer>:
 68e:	80 ea       	ldi	r24, 0xA0	; 160
 690:	0e 94 ef 02 	call	0x5de	; 0x5de <mcp2515_read_status>
 694:	98 2f       	mov	r25, r24
 696:	94 75       	andi	r25, 0x54	; 84
 698:	81 e0       	ldi	r24, 0x01	; 1
 69a:	94 35       	cpi	r25, 0x54	; 84
 69c:	09 f4       	brne	.+2      	; 0x6a0 <mcp2515_check_free_buffer+0x12>
 69e:	80 e0       	ldi	r24, 0x00	; 0
 6a0:	08 95       	ret

000006a2 <mcp2515_get_message>:
 6a2:	ef 92       	push	r14
 6a4:	ff 92       	push	r15
 6a6:	0f 93       	push	r16
 6a8:	1f 93       	push	r17
 6aa:	cf 93       	push	r28
 6ac:	df 93       	push	r29
 6ae:	1f 92       	push	r1
 6b0:	cd b7       	in	r28, 0x3d	; 61
 6b2:	de b7       	in	r29, 0x3e	; 62
 6b4:	8c 01       	movw	r16, r24
 6b6:	80 eb       	ldi	r24, 0xB0	; 176
 6b8:	0e 94 ef 02 	call	0x5de	; 0x5de <mcp2515_read_status>
 6bc:	98 2f       	mov	r25, r24
 6be:	89 83       	std	Y+1, r24	; 0x01
 6c0:	80 74       	andi	r24, 0x40	; 64
 6c2:	96 fd       	sbrc	r25, 6
 6c4:	04 c0       	rjmp	.+8      	; 0x6ce <mcp2515_get_message+0x2c>
 6c6:	97 ff       	sbrs	r25, 7
 6c8:	51 c0       	rjmp	.+162    	; 0x76c <mcp2515_get_message+0xca>
 6ca:	84 e9       	ldi	r24, 0x94	; 148
 6cc:	01 c0       	rjmp	.+2      	; 0x6d0 <mcp2515_get_message+0x2e>
 6ce:	80 e9       	ldi	r24, 0x90	; 144
 6d0:	2a 98       	cbi	0x05, 2	; 5
 6d2:	0e 94 b0 02 	call	0x560	; 0x560 <spi_putc>
 6d6:	8f ef       	ldi	r24, 0xFF	; 255
 6d8:	0e 94 b0 02 	call	0x560	; 0x560 <spi_putc>
 6dc:	28 e0       	ldi	r18, 0x08	; 8
 6de:	82 9f       	mul	r24, r18
 6e0:	c0 01       	movw	r24, r0
 6e2:	11 24       	eor	r1, r1
 6e4:	f8 01       	movw	r30, r16
 6e6:	91 83       	std	Z+1, r25	; 0x01
 6e8:	80 83       	st	Z, r24
 6ea:	8f ef       	ldi	r24, 0xFF	; 255
 6ec:	0e 94 b0 02 	call	0x560	; 0x560 <spi_putc>
 6f0:	28 2f       	mov	r18, r24
 6f2:	22 95       	swap	r18
 6f4:	26 95       	lsr	r18
 6f6:	27 70       	andi	r18, 0x07	; 7
 6f8:	f8 01       	movw	r30, r16
 6fa:	80 81       	ld	r24, Z
 6fc:	91 81       	ldd	r25, Z+1	; 0x01
 6fe:	82 2b       	or	r24, r18
 700:	91 83       	std	Z+1, r25	; 0x01
 702:	80 83       	st	Z, r24
 704:	8f ef       	ldi	r24, 0xFF	; 255
 706:	0e 94 b0 02 	call	0x560	; 0x560 <spi_putc>
 70a:	8f ef       	ldi	r24, 0xFF	; 255
 70c:	0e 94 b0 02 	call	0x560	; 0x560 <spi_putc>
 710:	8f ef       	ldi	r24, 0xFF	; 255
 712:	0e 94 b0 02 	call	0x560	; 0x560 <spi_putc>
 716:	8f 70       	andi	r24, 0x0F	; 15
 718:	e8 2e       	mov	r14, r24
 71a:	98 2f       	mov	r25, r24
 71c:	99 0f       	add	r25, r25
 71e:	f8 01       	movw	r30, r16
 720:	82 81       	ldd	r24, Z+2	; 0x02
 722:	81 7e       	andi	r24, 0xE1	; 225
 724:	89 2b       	or	r24, r25
 726:	82 83       	std	Z+2, r24	; 0x02
 728:	99 81       	ldd	r25, Y+1	; 0x01
 72a:	93 fb       	bst	r25, 3
 72c:	99 27       	eor	r25, r25
 72e:	90 f9       	bld	r25, 0
 730:	90 fb       	bst	r25, 0
 732:	80 f9       	bld	r24, 0
 734:	82 83       	std	Z+2, r24	; 0x02
 736:	0d 5f       	subi	r16, 0xFD	; 253
 738:	1f 4f       	sbci	r17, 0xFF	; 255
 73a:	f1 2c       	mov	r15, r1
 73c:	fe 14       	cp	r15, r14
 73e:	41 f0       	breq	.+16     	; 0x750 <mcp2515_get_message+0xae>
 740:	8f ef       	ldi	r24, 0xFF	; 255
 742:	0e 94 b0 02 	call	0x560	; 0x560 <spi_putc>
 746:	f8 01       	movw	r30, r16
 748:	81 93       	st	Z+, r24
 74a:	8f 01       	movw	r16, r30
 74c:	f3 94       	inc	r15
 74e:	f6 cf       	rjmp	.-20     	; 0x73c <mcp2515_get_message+0x9a>
 750:	2a 9a       	sbi	0x05, 2	; 5
 752:	89 81       	ldd	r24, Y+1	; 0x01
 754:	40 e0       	ldi	r20, 0x00	; 0
 756:	86 ff       	sbrs	r24, 6
 758:	02 c0       	rjmp	.+4      	; 0x75e <mcp2515_get_message+0xbc>
 75a:	61 e0       	ldi	r22, 0x01	; 1
 75c:	01 c0       	rjmp	.+2      	; 0x760 <mcp2515_get_message+0xbe>
 75e:	62 e0       	ldi	r22, 0x02	; 2
 760:	8c e2       	ldi	r24, 0x2C	; 44
 762:	0e 94 d7 02 	call	0x5ae	; 0x5ae <mcp2515_bit_modify>
 766:	89 81       	ldd	r24, Y+1	; 0x01
 768:	87 70       	andi	r24, 0x07	; 7
 76a:	8f 5f       	subi	r24, 0xFF	; 255
 76c:	0f 90       	pop	r0
 76e:	df 91       	pop	r29
 770:	cf 91       	pop	r28
 772:	1f 91       	pop	r17
 774:	0f 91       	pop	r16
 776:	ff 90       	pop	r15
 778:	ef 90       	pop	r14
 77a:	08 95       	ret

0000077c <mcp2515_send_message>:
 77c:	df 92       	push	r13
 77e:	ef 92       	push	r14
 780:	ff 92       	push	r15
 782:	0f 93       	push	r16
 784:	1f 93       	push	r17
 786:	cf 93       	push	r28
 788:	df 93       	push	r29
 78a:	1f 92       	push	r1
 78c:	cd b7       	in	r28, 0x3d	; 61
 78e:	de b7       	in	r29, 0x3e	; 62
 790:	7c 01       	movw	r14, r24
 792:	80 ea       	ldi	r24, 0xA0	; 160
 794:	0e 94 ef 02 	call	0x5de	; 0x5de <mcp2515_read_status>
 798:	89 83       	std	Y+1, r24	; 0x01
 79a:	89 81       	ldd	r24, Y+1	; 0x01
 79c:	82 ff       	sbrs	r24, 2
 79e:	08 c0       	rjmp	.+16     	; 0x7b0 <mcp2515_send_message+0x34>
 7a0:	89 81       	ldd	r24, Y+1	; 0x01
 7a2:	84 ff       	sbrs	r24, 4
 7a4:	07 c0       	rjmp	.+14     	; 0x7b4 <mcp2515_send_message+0x38>
 7a6:	89 81       	ldd	r24, Y+1	; 0x01
 7a8:	86 fd       	sbrc	r24, 6
 7aa:	4d c0       	rjmp	.+154    	; 0x846 <mcp2515_send_message+0xca>
 7ac:	14 e0       	ldi	r17, 0x04	; 4
 7ae:	03 c0       	rjmp	.+6      	; 0x7b6 <mcp2515_send_message+0x3a>
 7b0:	10 e0       	ldi	r17, 0x00	; 0
 7b2:	01 c0       	rjmp	.+2      	; 0x7b6 <mcp2515_send_message+0x3a>
 7b4:	12 e0       	ldi	r17, 0x02	; 2
 7b6:	2a 98       	cbi	0x05, 2	; 5
 7b8:	81 2f       	mov	r24, r17
 7ba:	80 64       	ori	r24, 0x40	; 64
 7bc:	0e 94 b0 02 	call	0x560	; 0x560 <spi_putc>
 7c0:	f7 01       	movw	r30, r14
 7c2:	80 81       	ld	r24, Z
 7c4:	91 81       	ldd	r25, Z+1	; 0x01
 7c6:	23 e0       	ldi	r18, 0x03	; 3
 7c8:	96 95       	lsr	r25
 7ca:	87 95       	ror	r24
 7cc:	2a 95       	dec	r18
 7ce:	e1 f7       	brne	.-8      	; 0x7c8 <mcp2515_send_message+0x4c>
 7d0:	0e 94 b0 02 	call	0x560	; 0x560 <spi_putc>
 7d4:	f7 01       	movw	r30, r14
 7d6:	80 81       	ld	r24, Z
 7d8:	82 95       	swap	r24
 7da:	88 0f       	add	r24, r24
 7dc:	80 7e       	andi	r24, 0xE0	; 224
 7de:	0e 94 b0 02 	call	0x560	; 0x560 <spi_putc>
 7e2:	80 e0       	ldi	r24, 0x00	; 0
 7e4:	0e 94 b0 02 	call	0x560	; 0x560 <spi_putc>
 7e8:	80 e0       	ldi	r24, 0x00	; 0
 7ea:	0e 94 b0 02 	call	0x560	; 0x560 <spi_putc>
 7ee:	f7 01       	movw	r30, r14
 7f0:	82 81       	ldd	r24, Z+2	; 0x02
 7f2:	08 2f       	mov	r16, r24
 7f4:	06 95       	lsr	r16
 7f6:	0f 70       	andi	r16, 0x0F	; 15
 7f8:	80 ff       	sbrs	r24, 0
 7fa:	05 c0       	rjmp	.+10     	; 0x806 <mcp2515_send_message+0x8a>
 7fc:	80 2f       	mov	r24, r16
 7fe:	80 64       	ori	r24, 0x40	; 64
 800:	0e 94 b0 02 	call	0x560	; 0x560 <spi_putc>
 804:	10 c0       	rjmp	.+32     	; 0x826 <mcp2515_send_message+0xaa>
 806:	80 2f       	mov	r24, r16
 808:	0e 94 b0 02 	call	0x560	; 0x560 <spi_putc>
 80c:	f3 e0       	ldi	r31, 0x03	; 3
 80e:	ef 0e       	add	r14, r31
 810:	f1 1c       	adc	r15, r1
 812:	d1 2c       	mov	r13, r1
 814:	d0 16       	cp	r13, r16
 816:	39 f0       	breq	.+14     	; 0x826 <mcp2515_send_message+0xaa>
 818:	f7 01       	movw	r30, r14
 81a:	81 91       	ld	r24, Z+
 81c:	7f 01       	movw	r14, r30
 81e:	0e 94 b0 02 	call	0x560	; 0x560 <spi_putc>
 822:	d3 94       	inc	r13
 824:	f7 cf       	rjmp	.-18     	; 0x814 <mcp2515_send_message+0x98>
 826:	2a 9a       	sbi	0x05, 2	; 5
 828:	f5 e0       	ldi	r31, 0x05	; 5
 82a:	fa 95       	dec	r31
 82c:	f1 f7       	brne	.-4      	; 0x82a <mcp2515_send_message+0xae>
 82e:	00 00       	nop
 830:	2a 98       	cbi	0x05, 2	; 5
 832:	11 11       	cpse	r17, r1
 834:	01 c0       	rjmp	.+2      	; 0x838 <mcp2515_send_message+0xbc>
 836:	11 e0       	ldi	r17, 0x01	; 1
 838:	81 2f       	mov	r24, r17
 83a:	80 68       	ori	r24, 0x80	; 128
 83c:	0e 94 b0 02 	call	0x560	; 0x560 <spi_putc>
 840:	2a 9a       	sbi	0x05, 2	; 5
 842:	81 2f       	mov	r24, r17
 844:	01 c0       	rjmp	.+2      	; 0x848 <mcp2515_send_message+0xcc>
 846:	80 e0       	ldi	r24, 0x00	; 0
 848:	0f 90       	pop	r0
 84a:	df 91       	pop	r29
 84c:	cf 91       	pop	r28
 84e:	1f 91       	pop	r17
 850:	0f 91       	pop	r16
 852:	ff 90       	pop	r15
 854:	ef 90       	pop	r14
 856:	df 90       	pop	r13
 858:	08 95       	ret

0000085a <sendCommand>:
 85a:	cf 93       	push	r28
 85c:	c8 2f       	mov	r28, r24
 85e:	88 e7       	ldi	r24, 0x78	; 120
 860:	0e 94 4b 05 	call	0xa96	; 0xa96 <i2c_start>
 864:	80 e0       	ldi	r24, 0x00	; 0
 866:	0e 94 9a 05 	call	0xb34	; 0xb34 <i2c_write>
 86a:	8c 2f       	mov	r24, r28
 86c:	0e 94 9a 05 	call	0xb34	; 0xb34 <i2c_write>
 870:	cf 91       	pop	r28
 872:	0c 94 96 05 	jmp	0xb2c	; 0xb2c <i2c_stop>

00000876 <init_ssd1306>:
 876:	0e 94 45 05 	call	0xa8a	; 0xa8a <i2c_init>
 87a:	88 e7       	ldi	r24, 0x78	; 120
 87c:	0e 94 4b 05 	call	0xa96	; 0xa96 <i2c_start>
 880:	8e ea       	ldi	r24, 0xAE	; 174
 882:	0e 94 2d 04 	call	0x85a	; 0x85a <sendCommand>
 886:	85 ed       	ldi	r24, 0xD5	; 213
 888:	0e 94 2d 04 	call	0x85a	; 0x85a <sendCommand>
 88c:	80 e8       	ldi	r24, 0x80	; 128
 88e:	0e 94 2d 04 	call	0x85a	; 0x85a <sendCommand>
 892:	88 ea       	ldi	r24, 0xA8	; 168
 894:	0e 94 2d 04 	call	0x85a	; 0x85a <sendCommand>
 898:	8f e1       	ldi	r24, 0x1F	; 31
 89a:	0e 94 2d 04 	call	0x85a	; 0x85a <sendCommand>
 89e:	83 ed       	ldi	r24, 0xD3	; 211
 8a0:	0e 94 2d 04 	call	0x85a	; 0x85a <sendCommand>
 8a4:	80 e0       	ldi	r24, 0x00	; 0
 8a6:	0e 94 2d 04 	call	0x85a	; 0x85a <sendCommand>
 8aa:	80 e4       	ldi	r24, 0x40	; 64
 8ac:	0e 94 2d 04 	call	0x85a	; 0x85a <sendCommand>
 8b0:	8d e8       	ldi	r24, 0x8D	; 141
 8b2:	0e 94 2d 04 	call	0x85a	; 0x85a <sendCommand>
 8b6:	84 e1       	ldi	r24, 0x14	; 20
 8b8:	0e 94 2d 04 	call	0x85a	; 0x85a <sendCommand>
 8bc:	80 e2       	ldi	r24, 0x20	; 32
 8be:	0e 94 2d 04 	call	0x85a	; 0x85a <sendCommand>
 8c2:	80 e0       	ldi	r24, 0x00	; 0
 8c4:	0e 94 2d 04 	call	0x85a	; 0x85a <sendCommand>
 8c8:	81 ea       	ldi	r24, 0xA1	; 161
 8ca:	0e 94 2d 04 	call	0x85a	; 0x85a <sendCommand>
 8ce:	88 ec       	ldi	r24, 0xC8	; 200
 8d0:	0e 94 2d 04 	call	0x85a	; 0x85a <sendCommand>
 8d4:	8a ed       	ldi	r24, 0xDA	; 218
 8d6:	0e 94 2d 04 	call	0x85a	; 0x85a <sendCommand>
 8da:	82 e0       	ldi	r24, 0x02	; 2
 8dc:	0e 94 2d 04 	call	0x85a	; 0x85a <sendCommand>
 8e0:	81 e8       	ldi	r24, 0x81	; 129
 8e2:	0e 94 2d 04 	call	0x85a	; 0x85a <sendCommand>
 8e6:	8f e8       	ldi	r24, 0x8F	; 143
 8e8:	0e 94 2d 04 	call	0x85a	; 0x85a <sendCommand>
 8ec:	89 ed       	ldi	r24, 0xD9	; 217
 8ee:	0e 94 2d 04 	call	0x85a	; 0x85a <sendCommand>
 8f2:	81 ef       	ldi	r24, 0xF1	; 241
 8f4:	0e 94 2d 04 	call	0x85a	; 0x85a <sendCommand>
 8f8:	8b ed       	ldi	r24, 0xDB	; 219
 8fa:	0e 94 2d 04 	call	0x85a	; 0x85a <sendCommand>
 8fe:	80 e4       	ldi	r24, 0x40	; 64
 900:	0e 94 2d 04 	call	0x85a	; 0x85a <sendCommand>
 904:	84 ea       	ldi	r24, 0xA4	; 164
 906:	0e 94 2d 04 	call	0x85a	; 0x85a <sendCommand>
 90a:	86 ea       	ldi	r24, 0xA6	; 166
 90c:	0e 94 2d 04 	call	0x85a	; 0x85a <sendCommand>
 910:	8e e2       	ldi	r24, 0x2E	; 46
 912:	0e 94 2d 04 	call	0x85a	; 0x85a <sendCommand>
 916:	8f ea       	ldi	r24, 0xAF	; 175
 918:	0e 94 2d 04 	call	0x85a	; 0x85a <sendCommand>
 91c:	0c 94 96 05 	jmp	0xb2c	; 0xb2c <i2c_stop>

00000920 <clear>:
 920:	0f 93       	push	r16
 922:	1f 93       	push	r17
 924:	cf 93       	push	r28
 926:	df 93       	push	r29
 928:	81 e2       	ldi	r24, 0x21	; 33
 92a:	0e 94 2d 04 	call	0x85a	; 0x85a <sendCommand>
 92e:	80 e0       	ldi	r24, 0x00	; 0
 930:	0e 94 2d 04 	call	0x85a	; 0x85a <sendCommand>
 934:	8f e7       	ldi	r24, 0x7F	; 127
 936:	0e 94 2d 04 	call	0x85a	; 0x85a <sendCommand>
 93a:	82 e2       	ldi	r24, 0x22	; 34
 93c:	0e 94 2d 04 	call	0x85a	; 0x85a <sendCommand>
 940:	80 e0       	ldi	r24, 0x00	; 0
 942:	0e 94 2d 04 	call	0x85a	; 0x85a <sendCommand>
 946:	83 e0       	ldi	r24, 0x03	; 3
 948:	0e 94 2d 04 	call	0x85a	; 0x85a <sendCommand>
 94c:	00 91 b8 00 	lds	r16, 0x00B8	; 0x8000b8 <__TEXT_REGION_LENGTH__+0x7e00b8>
 950:	8c e0       	ldi	r24, 0x0C	; 12
 952:	80 93 b8 00 	sts	0x00B8, r24	; 0x8000b8 <__TEXT_REGION_LENGTH__+0x7e00b8>
 956:	c0 e0       	ldi	r28, 0x00	; 0
 958:	d0 e0       	ldi	r29, 0x00	; 0
 95a:	88 e7       	ldi	r24, 0x78	; 120
 95c:	0e 94 4b 05 	call	0xa96	; 0xa96 <i2c_start>
 960:	88 23       	and	r24, r24
 962:	19 f0       	breq	.+6      	; 0x96a <clear+0x4a>
 964:	0e 94 96 05 	call	0xb2c	; 0xb2c <i2c_stop>
 968:	0e c0       	rjmp	.+28     	; 0x986 <clear+0x66>
 96a:	80 e4       	ldi	r24, 0x40	; 64
 96c:	0e 94 9a 05 	call	0xb34	; 0xb34 <i2c_write>
 970:	10 e1       	ldi	r17, 0x10	; 16
 972:	80 e0       	ldi	r24, 0x00	; 0
 974:	0e 94 9a 05 	call	0xb34	; 0xb34 <i2c_write>
 978:	11 50       	subi	r17, 0x01	; 1
 97a:	d9 f7       	brne	.-10     	; 0x972 <clear+0x52>
 97c:	2f 96       	adiw	r28, 0x0f	; 15
 97e:	0e 94 96 05 	call	0xb2c	; 0xb2c <i2c_stop>
 982:	00 93 b8 00 	sts	0x00B8, r16	; 0x8000b8 <__TEXT_REGION_LENGTH__+0x7e00b8>
 986:	21 96       	adiw	r28, 0x01	; 1
 988:	c1 15       	cp	r28, r1
 98a:	82 e0       	ldi	r24, 0x02	; 2
 98c:	d8 07       	cpc	r29, r24
 98e:	28 f3       	brcs	.-54     	; 0x95a <clear+0x3a>
 990:	df 91       	pop	r29
 992:	cf 91       	pop	r28
 994:	1f 91       	pop	r17
 996:	0f 91       	pop	r16
 998:	08 95       	ret

0000099a <setCursor>:
 99a:	cf 93       	push	r28
 99c:	df 93       	push	r29
 99e:	c8 2f       	mov	r28, r24
 9a0:	d6 2f       	mov	r29, r22
 9a2:	81 e2       	ldi	r24, 0x21	; 33
 9a4:	0e 94 2d 04 	call	0x85a	; 0x85a <sendCommand>
 9a8:	8d 2f       	mov	r24, r29
 9aa:	0e 94 2d 04 	call	0x85a	; 0x85a <sendCommand>
 9ae:	8f e7       	ldi	r24, 0x7F	; 127
 9b0:	0e 94 2d 04 	call	0x85a	; 0x85a <sendCommand>
 9b4:	82 e2       	ldi	r24, 0x22	; 34
 9b6:	0e 94 2d 04 	call	0x85a	; 0x85a <sendCommand>
 9ba:	8c 2f       	mov	r24, r28
 9bc:	0e 94 2d 04 	call	0x85a	; 0x85a <sendCommand>
 9c0:	83 e0       	ldi	r24, 0x03	; 3
 9c2:	df 91       	pop	r29
 9c4:	cf 91       	pop	r28
 9c6:	0c 94 2d 04 	jmp	0x85a	; 0x85a <sendCommand>

000009ca <write_bytes>:
 9ca:	ff 92       	push	r15
 9cc:	0f 93       	push	r16
 9ce:	1f 93       	push	r17
 9d0:	cf 93       	push	r28
 9d2:	df 93       	push	r29
 9d4:	06 2f       	mov	r16, r22
 9d6:	88 e7       	ldi	r24, 0x78	; 120
 9d8:	0e 94 4b 05 	call	0xa96	; 0xa96 <i2c_start>
 9dc:	80 e4       	ldi	r24, 0x40	; 64
 9de:	0e 94 9a 05 	call	0xb34	; 0xb34 <i2c_write>
 9e2:	10 e0       	ldi	r17, 0x00	; 0
 9e4:	c0 e0       	ldi	r28, 0x00	; 0
 9e6:	d0 e0       	ldi	r29, 0x00	; 0
 9e8:	85 e0       	ldi	r24, 0x05	; 5
 9ea:	f8 2e       	mov	r15, r24
 9ec:	8c 2f       	mov	r24, r28
 9ee:	c0 17       	cp	r28, r16
 9f0:	d1 07       	cpc	r29, r17
 9f2:	81 f0       	breq	.+32     	; 0xa14 <write_bytes+0x4a>
 9f4:	6f 2d       	mov	r22, r15
 9f6:	0e 94 04 06 	call	0xc08	; 0xc08 <__udivmodqi4>
 9fa:	91 11       	cpse	r25, r1
 9fc:	03 c0       	rjmp	.+6      	; 0xa04 <write_bytes+0x3a>
 9fe:	80 e0       	ldi	r24, 0x00	; 0
 a00:	0e 94 9a 05 	call	0xb34	; 0xb34 <i2c_write>
 a04:	fe 01       	movw	r30, r28
 a06:	e9 5a       	subi	r30, 0xA9	; 169
 a08:	fd 4f       	sbci	r31, 0xFD	; 253
 a0a:	84 91       	lpm	r24, Z
 a0c:	0e 94 9a 05 	call	0xb34	; 0xb34 <i2c_write>
 a10:	21 96       	adiw	r28, 0x01	; 1
 a12:	ec cf       	rjmp	.-40     	; 0x9ec <write_bytes+0x22>
 a14:	df 91       	pop	r29
 a16:	cf 91       	pop	r28
 a18:	1f 91       	pop	r17
 a1a:	0f 91       	pop	r16
 a1c:	ff 90       	pop	r15
 a1e:	0c 94 96 05 	jmp	0xb2c	; 0xb2c <i2c_stop>

00000a22 <oled_print>:
 a22:	ff 92       	push	r15
 a24:	0f 93       	push	r16
 a26:	1f 93       	push	r17
 a28:	cf 93       	push	r28
 a2a:	df 93       	push	r29
 a2c:	ec 01       	movw	r28, r24
 a2e:	85 e0       	ldi	r24, 0x05	; 5
 a30:	f8 2e       	mov	r15, r24
 a32:	88 81       	ld	r24, Y
 a34:	88 23       	and	r24, r24
 a36:	19 f1       	breq	.+70     	; 0xa7e <oled_print+0x5c>
 a38:	88 e7       	ldi	r24, 0x78	; 120
 a3a:	0e 94 4b 05 	call	0xa96	; 0xa96 <i2c_start>
 a3e:	80 e4       	ldi	r24, 0x40	; 64
 a40:	0e 94 9a 05 	call	0xb34	; 0xb34 <i2c_write>
 a44:	00 e0       	ldi	r16, 0x00	; 0
 a46:	10 e0       	ldi	r17, 0x00	; 0
 a48:	88 81       	ld	r24, Y
 a4a:	90 e0       	ldi	r25, 0x00	; 0
 a4c:	49 97       	sbiw	r24, 0x19	; 25
 a4e:	f8 9e       	mul	r15, r24
 a50:	f0 01       	movw	r30, r0
 a52:	f9 9e       	mul	r15, r25
 a54:	f0 0d       	add	r31, r0
 a56:	11 24       	eor	r1, r1
 a58:	e0 0f       	add	r30, r16
 a5a:	f1 1f       	adc	r31, r17
 a5c:	e8 59       	subi	r30, 0x98	; 152
 a5e:	ff 4f       	sbci	r31, 0xFF	; 255
 a60:	84 91       	lpm	r24, Z
 a62:	0e 94 9a 05 	call	0xb34	; 0xb34 <i2c_write>
 a66:	0f 5f       	subi	r16, 0xFF	; 255
 a68:	1f 4f       	sbci	r17, 0xFF	; 255
 a6a:	05 30       	cpi	r16, 0x05	; 5
 a6c:	11 05       	cpc	r17, r1
 a6e:	61 f7       	brne	.-40     	; 0xa48 <oled_print+0x26>
 a70:	80 e0       	ldi	r24, 0x00	; 0
 a72:	0e 94 9a 05 	call	0xb34	; 0xb34 <i2c_write>
 a76:	21 96       	adiw	r28, 0x01	; 1
 a78:	0e 94 96 05 	call	0xb2c	; 0xb2c <i2c_stop>
 a7c:	da cf       	rjmp	.-76     	; 0xa32 <oled_print+0x10>
 a7e:	df 91       	pop	r29
 a80:	cf 91       	pop	r28
 a82:	1f 91       	pop	r17
 a84:	0f 91       	pop	r16
 a86:	ff 90       	pop	r15
 a88:	08 95       	ret

00000a8a <i2c_init>:
 a8a:	10 92 b9 00 	sts	0x00B9, r1	; 0x8000b9 <__TEXT_REGION_LENGTH__+0x7e00b9>
 a8e:	88 e4       	ldi	r24, 0x48	; 72
 a90:	80 93 b8 00 	sts	0x00B8, r24	; 0x8000b8 <__TEXT_REGION_LENGTH__+0x7e00b8>
 a94:	08 95       	ret

00000a96 <i2c_start>:
 a96:	94 ea       	ldi	r25, 0xA4	; 164
 a98:	90 93 bc 00 	sts	0x00BC, r25	; 0x8000bc <__TEXT_REGION_LENGTH__+0x7e00bc>
 a9c:	90 91 bc 00 	lds	r25, 0x00BC	; 0x8000bc <__TEXT_REGION_LENGTH__+0x7e00bc>
 aa0:	97 ff       	sbrs	r25, 7
 aa2:	fc cf       	rjmp	.-8      	; 0xa9c <i2c_start+0x6>
 aa4:	90 91 b9 00 	lds	r25, 0x00B9	; 0x8000b9 <__TEXT_REGION_LENGTH__+0x7e00b9>
 aa8:	98 7f       	andi	r25, 0xF8	; 248
 aaa:	98 30       	cpi	r25, 0x08	; 8
 aac:	21 f0       	breq	.+8      	; 0xab6 <i2c_start+0x20>
 aae:	90 31       	cpi	r25, 0x10	; 16
 ab0:	11 f0       	breq	.+4      	; 0xab6 <i2c_start+0x20>
 ab2:	81 e0       	ldi	r24, 0x01	; 1
 ab4:	08 95       	ret
 ab6:	80 93 bb 00 	sts	0x00BB, r24	; 0x8000bb <__TEXT_REGION_LENGTH__+0x7e00bb>
 aba:	84 e8       	ldi	r24, 0x84	; 132
 abc:	80 93 bc 00 	sts	0x00BC, r24	; 0x8000bc <__TEXT_REGION_LENGTH__+0x7e00bc>
 ac0:	80 91 bc 00 	lds	r24, 0x00BC	; 0x8000bc <__TEXT_REGION_LENGTH__+0x7e00bc>
 ac4:	87 ff       	sbrs	r24, 7
 ac6:	fc cf       	rjmp	.-8      	; 0xac0 <i2c_start+0x2a>
 ac8:	80 91 b9 00 	lds	r24, 0x00B9	; 0x8000b9 <__TEXT_REGION_LENGTH__+0x7e00b9>
 acc:	88 7f       	andi	r24, 0xF8	; 248
 ace:	88 31       	cpi	r24, 0x18	; 24
 ad0:	11 f0       	breq	.+4      	; 0xad6 <i2c_start+0x40>
 ad2:	80 34       	cpi	r24, 0x40	; 64
 ad4:	71 f7       	brne	.-36     	; 0xab2 <i2c_start+0x1c>
 ad6:	80 e0       	ldi	r24, 0x00	; 0
 ad8:	08 95       	ret

00000ada <i2c_start_wait>:
 ada:	24 ea       	ldi	r18, 0xA4	; 164
 adc:	34 e8       	ldi	r19, 0x84	; 132
 ade:	44 e9       	ldi	r20, 0x94	; 148
 ae0:	20 93 bc 00 	sts	0x00BC, r18	; 0x8000bc <__TEXT_REGION_LENGTH__+0x7e00bc>
 ae4:	90 91 bc 00 	lds	r25, 0x00BC	; 0x8000bc <__TEXT_REGION_LENGTH__+0x7e00bc>
 ae8:	97 ff       	sbrs	r25, 7
 aea:	fc cf       	rjmp	.-8      	; 0xae4 <i2c_start_wait+0xa>
 aec:	90 91 b9 00 	lds	r25, 0x00B9	; 0x8000b9 <__TEXT_REGION_LENGTH__+0x7e00b9>
 af0:	98 7f       	andi	r25, 0xF8	; 248
 af2:	98 30       	cpi	r25, 0x08	; 8
 af4:	11 f0       	breq	.+4      	; 0xafa <i2c_start_wait+0x20>
 af6:	90 31       	cpi	r25, 0x10	; 16
 af8:	99 f7       	brne	.-26     	; 0xae0 <i2c_start_wait+0x6>
 afa:	80 93 bb 00 	sts	0x00BB, r24	; 0x8000bb <__TEXT_REGION_LENGTH__+0x7e00bb>
 afe:	30 93 bc 00 	sts	0x00BC, r19	; 0x8000bc <__TEXT_REGION_LENGTH__+0x7e00bc>
 b02:	90 91 bc 00 	lds	r25, 0x00BC	; 0x8000bc <__TEXT_REGION_LENGTH__+0x7e00bc>
 b06:	97 ff       	sbrs	r25, 7
 b08:	fc cf       	rjmp	.-8      	; 0xb02 <i2c_start_wait+0x28>
 b0a:	90 91 b9 00 	lds	r25, 0x00B9	; 0x8000b9 <__TEXT_REGION_LENGTH__+0x7e00b9>
 b0e:	98 7f       	andi	r25, 0xF8	; 248
 b10:	90 32       	cpi	r25, 0x20	; 32
 b12:	11 f0       	breq	.+4      	; 0xb18 <i2c_start_wait+0x3e>
 b14:	98 35       	cpi	r25, 0x58	; 88
 b16:	39 f4       	brne	.+14     	; 0xb26 <i2c_start_wait+0x4c>
 b18:	40 93 bc 00 	sts	0x00BC, r20	; 0x8000bc <__TEXT_REGION_LENGTH__+0x7e00bc>
 b1c:	90 91 bc 00 	lds	r25, 0x00BC	; 0x8000bc <__TEXT_REGION_LENGTH__+0x7e00bc>
 b20:	94 fd       	sbrc	r25, 4
 b22:	fc cf       	rjmp	.-8      	; 0xb1c <i2c_start_wait+0x42>
 b24:	dd cf       	rjmp	.-70     	; 0xae0 <i2c_start_wait+0x6>
 b26:	08 95       	ret

00000b28 <i2c_rep_start>:
 b28:	0c 94 4b 05 	jmp	0xa96	; 0xa96 <i2c_start>

00000b2c <i2c_stop>:
 b2c:	84 e9       	ldi	r24, 0x94	; 148
 b2e:	80 93 bc 00 	sts	0x00BC, r24	; 0x8000bc <__TEXT_REGION_LENGTH__+0x7e00bc>
 b32:	08 95       	ret

00000b34 <i2c_write>:
 b34:	80 93 bb 00 	sts	0x00BB, r24	; 0x8000bb <__TEXT_REGION_LENGTH__+0x7e00bb>
 b38:	84 e8       	ldi	r24, 0x84	; 132
 b3a:	80 93 bc 00 	sts	0x00BC, r24	; 0x8000bc <__TEXT_REGION_LENGTH__+0x7e00bc>
 b3e:	80 91 bc 00 	lds	r24, 0x00BC	; 0x8000bc <__TEXT_REGION_LENGTH__+0x7e00bc>
 b42:	87 ff       	sbrs	r24, 7
 b44:	fc cf       	rjmp	.-8      	; 0xb3e <i2c_write+0xa>
 b46:	90 91 b9 00 	lds	r25, 0x00B9	; 0x8000b9 <__TEXT_REGION_LENGTH__+0x7e00b9>
 b4a:	98 7f       	andi	r25, 0xF8	; 248
 b4c:	81 e0       	ldi	r24, 0x01	; 1
 b4e:	98 32       	cpi	r25, 0x28	; 40
 b50:	09 f4       	brne	.+2      	; 0xb54 <i2c_write+0x20>
 b52:	80 e0       	ldi	r24, 0x00	; 0
 b54:	08 95       	ret

00000b56 <i2c_readAck>:
 b56:	84 ec       	ldi	r24, 0xC4	; 196
 b58:	80 93 bc 00 	sts	0x00BC, r24	; 0x8000bc <__TEXT_REGION_LENGTH__+0x7e00bc>
 b5c:	80 91 bc 00 	lds	r24, 0x00BC	; 0x8000bc <__TEXT_REGION_LENGTH__+0x7e00bc>
 b60:	87 ff       	sbrs	r24, 7
 b62:	fc cf       	rjmp	.-8      	; 0xb5c <i2c_readAck+0x6>
 b64:	80 91 bb 00 	lds	r24, 0x00BB	; 0x8000bb <__TEXT_REGION_LENGTH__+0x7e00bb>
 b68:	08 95       	ret

00000b6a <i2c_readNak>:
 b6a:	84 e8       	ldi	r24, 0x84	; 132
 b6c:	80 93 bc 00 	sts	0x00BC, r24	; 0x8000bc <__TEXT_REGION_LENGTH__+0x7e00bc>
 b70:	80 91 bc 00 	lds	r24, 0x00BC	; 0x8000bc <__TEXT_REGION_LENGTH__+0x7e00bc>
 b74:	87 ff       	sbrs	r24, 7
 b76:	fc cf       	rjmp	.-8      	; 0xb70 <i2c_readNak+0x6>
 b78:	80 91 bb 00 	lds	r24, 0x00BB	; 0x8000bb <__TEXT_REGION_LENGTH__+0x7e00bb>
 b7c:	08 95       	ret

00000b7e <uart_init>:
 b7e:	81 e0       	ldi	r24, 0x01	; 1
 b80:	80 93 c5 00 	sts	0x00C5, r24	; 0x8000c5 <__TEXT_REGION_LENGTH__+0x7e00c5>
 b84:	80 ea       	ldi	r24, 0xA0	; 160
 b86:	80 93 c4 00 	sts	0x00C4, r24	; 0x8000c4 <__TEXT_REGION_LENGTH__+0x7e00c4>
 b8a:	e1 ec       	ldi	r30, 0xC1	; 193
 b8c:	f0 e0       	ldi	r31, 0x00	; 0
 b8e:	80 81       	ld	r24, Z
 b90:	88 61       	ori	r24, 0x18	; 24
 b92:	80 83       	st	Z, r24
 b94:	86 e2       	ldi	r24, 0x26	; 38
 b96:	80 93 c2 00 	sts	0x00C2, r24	; 0x8000c2 <__TEXT_REGION_LENGTH__+0x7e00c2>
 b9a:	08 95       	ret

00000b9c <uart_putc>:
 b9c:	90 91 c0 00 	lds	r25, 0x00C0	; 0x8000c0 <__TEXT_REGION_LENGTH__+0x7e00c0>
 ba0:	95 ff       	sbrs	r25, 5
 ba2:	fc cf       	rjmp	.-8      	; 0xb9c <uart_putc>
 ba4:	80 93 c6 00 	sts	0x00C6, r24	; 0x8000c6 <__TEXT_REGION_LENGTH__+0x7e00c6>
 ba8:	08 95       	ret

00000baa <uart_puts>:
 baa:	cf 93       	push	r28
 bac:	df 93       	push	r29
 bae:	ec 01       	movw	r28, r24
 bb0:	89 91       	ld	r24, Y+
 bb2:	88 23       	and	r24, r24
 bb4:	19 f0       	breq	.+6      	; 0xbbc <uart_puts+0x12>
 bb6:	0e 94 ce 05 	call	0xb9c	; 0xb9c <uart_putc>
 bba:	fa cf       	rjmp	.-12     	; 0xbb0 <uart_puts+0x6>
 bbc:	df 91       	pop	r29
 bbe:	cf 91       	pop	r28
 bc0:	08 95       	ret

00000bc2 <uart_putb>:
 bc2:	0f 93       	push	r16
 bc4:	1f 93       	push	r17
 bc6:	cf 93       	push	r28
 bc8:	df 93       	push	r29
 bca:	ec 01       	movw	r28, r24
 bcc:	8c 01       	movw	r16, r24
 bce:	06 0f       	add	r16, r22
 bd0:	11 1d       	adc	r17, r1
 bd2:	c0 17       	cp	r28, r16
 bd4:	d1 07       	cpc	r29, r17
 bd6:	21 f0       	breq	.+8      	; 0xbe0 <uart_putb+0x1e>
 bd8:	89 91       	ld	r24, Y+
 bda:	0e 94 ce 05 	call	0xb9c	; 0xb9c <uart_putc>
 bde:	f9 cf       	rjmp	.-14     	; 0xbd2 <uart_putb+0x10>
 be0:	df 91       	pop	r29
 be2:	cf 91       	pop	r28
 be4:	1f 91       	pop	r17
 be6:	0f 91       	pop	r16
 be8:	08 95       	ret

00000bea <uart_receive>:
 bea:	80 91 c0 00 	lds	r24, 0x00C0	; 0x8000c0 <__TEXT_REGION_LENGTH__+0x7e00c0>
 bee:	87 ff       	sbrs	r24, 7
 bf0:	fc cf       	rjmp	.-8      	; 0xbea <uart_receive>
 bf2:	80 91 c6 00 	lds	r24, 0x00C6	; 0x8000c6 <__TEXT_REGION_LENGTH__+0x7e00c6>
 bf6:	08 95       	ret

00000bf8 <uart_flush>:
 bf8:	80 91 c0 00 	lds	r24, 0x00C0	; 0x8000c0 <__TEXT_REGION_LENGTH__+0x7e00c0>
 bfc:	87 ff       	sbrs	r24, 7
 bfe:	03 c0       	rjmp	.+6      	; 0xc06 <uart_flush+0xe>
 c00:	80 91 c6 00 	lds	r24, 0x00C6	; 0x8000c6 <__TEXT_REGION_LENGTH__+0x7e00c6>
 c04:	f9 cf       	rjmp	.-14     	; 0xbf8 <uart_flush>
 c06:	08 95       	ret

00000c08 <__udivmodqi4>:
 c08:	99 1b       	sub	r25, r25
 c0a:	79 e0       	ldi	r23, 0x09	; 9
 c0c:	04 c0       	rjmp	.+8      	; 0xc16 <__udivmodqi4_ep>

00000c0e <__udivmodqi4_loop>:
 c0e:	99 1f       	adc	r25, r25
 c10:	96 17       	cp	r25, r22
 c12:	08 f0       	brcs	.+2      	; 0xc16 <__udivmodqi4_ep>
 c14:	96 1b       	sub	r25, r22

00000c16 <__udivmodqi4_ep>:
 c16:	88 1f       	adc	r24, r24
 c18:	7a 95       	dec	r23
 c1a:	c9 f7       	brne	.-14     	; 0xc0e <__udivmodqi4_loop>
 c1c:	80 95       	com	r24
 c1e:	08 95       	ret

00000c20 <__itoa_ncheck>:
 c20:	bb 27       	eor	r27, r27
 c22:	4a 30       	cpi	r20, 0x0A	; 10
 c24:	31 f4       	brne	.+12     	; 0xc32 <__itoa_ncheck+0x12>
 c26:	99 23       	and	r25, r25
 c28:	22 f4       	brpl	.+8      	; 0xc32 <__itoa_ncheck+0x12>
 c2a:	bd e2       	ldi	r27, 0x2D	; 45
 c2c:	90 95       	com	r25
 c2e:	81 95       	neg	r24
 c30:	9f 4f       	sbci	r25, 0xFF	; 255
 c32:	0c 94 1c 06 	jmp	0xc38	; 0xc38 <__utoa_common>

00000c36 <__utoa_ncheck>:
 c36:	bb 27       	eor	r27, r27

00000c38 <__utoa_common>:
 c38:	fb 01       	movw	r30, r22
 c3a:	55 27       	eor	r21, r21
 c3c:	aa 27       	eor	r26, r26
 c3e:	88 0f       	add	r24, r24
 c40:	99 1f       	adc	r25, r25
 c42:	aa 1f       	adc	r26, r26
 c44:	a4 17       	cp	r26, r20
 c46:	10 f0       	brcs	.+4      	; 0xc4c <__utoa_common+0x14>
 c48:	a4 1b       	sub	r26, r20
 c4a:	83 95       	inc	r24
 c4c:	50 51       	subi	r21, 0x10	; 16
 c4e:	b9 f7       	brne	.-18     	; 0xc3e <__utoa_common+0x6>
 c50:	a0 5d       	subi	r26, 0xD0	; 208
 c52:	aa 33       	cpi	r26, 0x3A	; 58
 c54:	08 f0       	brcs	.+2      	; 0xc58 <__utoa_common+0x20>
 c56:	a9 5d       	subi	r26, 0xD9	; 217
 c58:	a1 93       	st	Z+, r26
 c5a:	00 97       	sbiw	r24, 0x00	; 0
 c5c:	79 f7       	brne	.-34     	; 0xc3c <__utoa_common+0x4>
 c5e:	b1 11       	cpse	r27, r1
 c60:	b1 93       	st	Z+, r27
 c62:	11 92       	st	Z+, r1
 c64:	cb 01       	movw	r24, r22
 c66:	0c 94 35 06 	jmp	0xc6a	; 0xc6a <strrev>

00000c6a <strrev>:
 c6a:	dc 01       	movw	r26, r24
 c6c:	fc 01       	movw	r30, r24
 c6e:	67 2f       	mov	r22, r23
 c70:	71 91       	ld	r23, Z+
 c72:	77 23       	and	r23, r23
 c74:	e1 f7       	brne	.-8      	; 0xc6e <strrev+0x4>
 c76:	32 97       	sbiw	r30, 0x02	; 2
 c78:	04 c0       	rjmp	.+8      	; 0xc82 <strrev+0x18>
 c7a:	7c 91       	ld	r23, X
 c7c:	6d 93       	st	X+, r22
 c7e:	70 83       	st	Z, r23
 c80:	62 91       	ld	r22, -Z
 c82:	ae 17       	cp	r26, r30
 c84:	bf 07       	cpc	r27, r31
 c86:	c8 f3       	brcs	.-14     	; 0xc7a <strrev+0x10>
 c88:	08 95       	ret

00000c8a <_exit>:
 c8a:	f8 94       	cli

00000c8c <__stop_program>:
 c8c:	ff cf       	rjmp	.-2      	; 0xc8c <__stop_program>
