:100000000C9465010C9482010C9482010C94820181
:100010000C9482010C9482010C9482010C94820154
:100020000C9482010C9482010C9482010C94820144
:100030000C9482010C9482010C9482010C94820134
:100040000C9482010C9482010C9482010C94820124
:100050000C9482010C9482010C9482010C94820114
:100060000C9482010C9482017F3E1C1C08081C1C0D
:100070003E7F14227F221408047E040810207E2074
:100080001008082A1C08081C2A08080000000000A4
:1000900000005F00000007000700147F147F1400B9
:1000A00000000000231308646236495620500008FF
:1000B000070300001C2241000041221C002A1C7F73
:1000C0001C2A08083E08080080703000080808084C
:1000D00008000060600020100804023E5149453EBF
:1000E00000427F400072494949462141494D331839
:1000F00014127F1027454545393C4A494931412171
:100100001109073649494936464949291E00001454
:10011000000000403400000008142241141414149C
:1001200014004122140802015909063E415D594E4E
:100130007C1211127C7F494949363E414141227F60
:100140004141413E7F494949417F090909013E41F9
:100150004151737F0808087F00417F4100204041E2
:100160003F017F081422417F404040407F021C0233
:100170007F7F0408107F3E4141413E7F0909090607
:100180003E4151215E7F09192946264949493203DA
:10019000017F01033F4040403F1F2040201F3F4060
:1001A00038403F6314081463030478040361594919
:1001B0004D43007F4141410204081020004141416C
:1001C0007F04020102044040404040000307080051
:1001D00020545478407F28444438384444442838D4
:1001E0004444287F385454541800087E090218A447
:1001F000A49C787F0804047800447D40002040409F
:100200003D007F1028440000417F40007C047804BA
:10021000787C080404783844444438FC18242418B2
:1002200018242418FC7C080404084854545424045A
:10023000043F44243C4040207C1C2040201C3C4087
:1002400030403C44281028444C9090907C446454A6
:100250004C44000836410000007700000041360899
:100260000002010204023A4040207A2254547842AB
:100270007D1211127D3A4444443A3D4242423D3D92
:100280004040403D3844443844FC4A4A4A347E02A7
:10029000020606027E027E026355494163384444E9
:1002A0003C04407E201E204C7201724CBC625A46B7
:1002B0003D44445F444440514A444040444A5140D4
:1002C0003612362436060F090F0611241FBECFEF53
:1002D000D8E0DEBFCDBF11E0A0E0B1E0ECECFAE089
:1002E00002C005900D92A630B107D9F721E0A6E033
:1002F000B1E001C01D92A139B207E1F70E9484016B
:100300000C9464050C9400000E9464030E94B903DD
:1003100060E080E00E94F603519A59982FEF84E440
:1003200091E0215080409040E1F700C00000599AD0
:100330002FEF84E491E0215080409040E1F700C02D
:1003400000000E94E80480E091E00E94FE042FEF8C
:1003500084E694E0215080409040E1F700C0000026
:10036000C0E0D0E00E940A05C13041F018F0C23070
:1003700051F0F8CFC1E08F34D1F4F4CF809306016F
:10038000C2E0D1E0EFCFED2FF0E0EA5FFE4F8083D7
:10039000DF5F809106018D1728F740E167E871E083
:1003A00090E00E942F0587E891E00E943A04C0E0A7
:1003B000D9CF8EBD0DB407FEFDCF8EB50895CF9376
:1003C000DF93D82FC62F2A9882E00E94D9018D2F63
:1003D0000E94D9018C2F0E94D9012A9ADF91CF91D6
:1003E0000895CF93C82F2A9883E00E94D9018C2FBB
:1003F0000E94D9018FEF0E94D9012A9ACF910895C6
:100400001F93CF93DF93182FD62FC42F2A9885E000
:100410000E94D901812F0E94D9018D2F0E94D901FC
:100420008C2F0E94D9012A9ADF91CF911F910895B4
:100430002A980E94D9018FEF0E94D9012A9A089523
:100440002A9A229A2D982B982C98259A239A2498A8
:1004500052985A9A83E58CBD1DBC2A9880EC0E9464
:10046000D9012A9A8FE891E00197F1F700C00000C6
:100470002A9882E00E94D90188E20E94D90181E095
:100480000E94D90188EA0E94D90183E10E94D90122
:1004900083E00E94D9012A9A8AE20E94F101833105
:1004A000B1F460E08CE00E94DF0160E08DE00E942A
:1004B000DF0160E680E60E94DF0160E680E70E94DF
:1004C000DF0160E08FE00E94DF0181E0089580E0BD
:1004D000089589B182FB882780F991E089270895E2
:1004E00080EA0E941802982F947581E0943509F4EF
:1004F00080E00895EF92FF920F931F93CF93DF93C5
:100500001F92CDB7DEB78C0180EB0E941802982FA6
:100510008983807496FD04C097FF51C084E901C0AF
:1005200080E92A980E94D9018FEF0E94D90128E022
:10053000829FC0011124F801918380838FEF0E9474
:10054000D901282F229526952770F8018081918165
:10055000822B918380838FEF0E94D9018FEF0E94BD
:10056000D9018FEF0E94D9018F70E82E982F990F33
:10057000F8018281817E892B8283998193FB99275F
:1005800090F990FB80F982830D5F1F4FF12CFE14D0
:1005900041F08FEF0E94D901F80181938F01F3940C
:1005A000F6CF2A9A898140E086FF02C061E001C04F
:1005B00062E08CE20E940002898187708F5F0F9059
:1005C000DF91CF911F910F91FF90EF900895DF92EF
:1005D000EF92FF920F931F93CF93DF931F92CDB7AC
:1005E000DEB77C0180EA0E9418028983898182FF3C
:1005F00008C0898184FF07C0898186FD4DC014E051
:1006000003C010E001C012E02A98812F80640E948C
:10061000D901F7018081918123E0969587952A95EC
:10062000E1F70E94D901F70180818295880F807ED1
:100630000E94D90180E00E94D90180E00E94D90186
:10064000F7018281082F06950F7080FF05C0802F6B
:1006500080640E94D90110C0802F0E94D901F3E06C
:10066000EF0EF11CD12CD01639F0F70181917F01EA
:100670000E94D901D394F7CF2A9AF5E0FA95F1F7C1
:1006800000002A98111101C011E0812F80680E949A
:10069000D9012A9A812F01C080E00F90DF91CF917C
:1006A0001F910F91FF90EF90DF900895CF93C82F87
:1006B00088E70E94740480E00E94C3048C2F0E948B
:1006C000C304CF910C94BF040E946E0488E70E947B
:1006D00074048EEA0E94560385ED0E94560380E85A
:1006E0000E94560388EA0E9456038FE10E94560337
:1006F00083ED0E94560380E00E94560380E40E942E
:1007000056038DE80E94560384E10E94560380E25E
:100710000E94560380E00E94560381EA0E9456031D
:1007200088EC0E9456038AED0E94560382E00E94E4
:10073000560381E80E9456038FE80E94560389ED14
:100740000E94560381EF0E9456038BED0E945603D0
:1007500080E40E94560384EA0E94560386EA0E94BF
:1007600056038EE20E9456038FEA0E9456030C94B1
:10077000BF040F931F93CF93DF9381E20E94560330
:1007800080E00E9456038FE70E94560382E20E9497
:10079000560380E00E94560383E00E9456030091B6
:1007A000B8008CE08093B800C0E0D0E088E70E94F9
:1007B0007404882319F00E94BF040EC080E40E94D4
:1007C000C30410E180E00E94C3041150D9F72F96B2
:1007D0000E94BF040093B8002196C11582E0D8079B
:1007E00028F3DF91CF911F910F910895CF93DF935D
:1007F000C82FD62F81E20E9456038D2F0E945603E8
:100800008FE70E94560382E20E9456038C2F0E94BB
:10081000560383E0DF91CF910C945603FF920F9320
:100820001F93CF93DF93062F88E70E94740480E420
:100830000E94C30410E0C0E0D0E085E0F82E8C2FC9
:10084000C017D10781F06F2D0E942305911103C0BD
:1008500080E00E94C304FE01E95AFD4F84910E948A
:10086000C3042196ECCFDF91CF911F910F91FF90A0
:100870000C94BF04FF920F931F93CF93DF93EC016F
:1008800085E0F82E8881882319F188E70E94740496
:1008900080E40E94C30400E010E0888190E0499762
:1008A000F89EF001F99EF00D1124E00FF11FE859B8
:1008B000FF4F84910E94C3040F5F1F4F0530110545
:1008C00061F780E00E94C30421960E94BF04DACF42
:1008D000DF91CF911F910F91FF9008951092B90071
:1008E00088E48093B800089594EA9093BC009091B6
:1008F000BC0097FFFCCF9091B900987F983021F011
:10090000903111F081E008958093BB0084E88093DA
:10091000BC008091BC0087FFFCCF8091B900887F2C
:10092000883111F0803471F780E0089524EA34E8CA
:1009300044E92093BC009091BC0097FFFCCF9091BC
:10094000B900987F983011F0903199F78093BB00EF
:100950003093BC009091BC0097FFFCCF9091B90000
:10096000987F903211F0983539F44093BC00909103
:10097000BC0094FDFCCFDDCF08950C94740484E991
:100980008093BC0008958093BB0084E88093BC00F2
:100990008091BC0087FFFCCF9091B900987F81E0E7
:1009A000983209F480E0089584EC8093BC00809133
:1009B000BC0087FFFCCF8091BB00089584E8809342
:1009C000BC008091BC0087FFFCCF8091BB000895E4
:1009D00081E08093C50080EA8093C400E1ECF0E000
:1009E00080818861808386E28093C200089590911F
:1009F000C00095FFFCCF8093C6000895CF93DF938E
:100A0000EC018991882319F00E94F704FACFDF9155
:100A1000CF9108958091C00087FFFCCF8091C600E0
:100A20000895CF93DF931F92CDB7DEB719828091DF
:100A3000C00087FF04C08091C6008983F8CF0F9063
:100A4000DF91CF910895991B79E004C0991F961703
:100A500008F0961B881F7A95C9F780950895BB27E3
:100A60004A3031F4992322F4BDE2909581959F4F4D
:100A70000C943B05BB27FB015527AA27880F991F1C
:100A8000AA1FA41710F0A41B83955051B9F7A05DBD
:100A9000AA3308F0A95DA193009779F7B111B1933A
:100AA0001192CB010C945405DC01FC01672F71916C
:100AB0007723E1F7329704C07C916D937083629144
:0C0AC000AE17BF07C8F30895F894FFCFED
:060ACC00F403510AAC0026
:00000001FF
