
AtmosProto.elf:     file format elf32-avr

Sections:
Idx Name          Size      VMA       LMA       File off  Algn
  0 .text         00000e8a  00000000  00000000  00000094  2**1
                  CONTENTS, ALLOC, LOAD, READONLY, CODE
  1 .data         0000005c  00800060  00000e8a  00000f1e  2**0
                  CONTENTS, ALLOC, LOAD, DATA
  2 .bss          0000003f  008000bc  008000bc  00000f7a  2**0
                  ALLOC
  3 .comment      00000041  00000000  00000000  00000f7a  2**0
                  CONTENTS, READONLY
  4 .note.gnu.avr.deviceinfo 0000003c  00000000  00000000  00000fbc  2**2
                  CONTENTS, READONLY
  5 .debug_info   0000048c  00000000  00000000  00000ff8  2**0
                  CONTENTS, READONLY, DEBUGGING
  6 .debug_abbrev 0000044e  00000000  00000000  00001484  2**0
                  CONTENTS, READONLY, DEBUGGING
  7 .debug_line   0000001a  00000000  00000000  000018d2  2**0
                  CONTENTS, READONLY, DEBUGGING
  8 .debug_str    0000017a  00000000  00000000  000018ec  2**0
                  CONTENTS, READONLY, DEBUGGING

Disassembly of section .text:

00000000 <__vectors>:
   0:	4d c1       	rjmp	.+666    	; 0x29c <__ctors_end>
   2:	67 c1       	rjmp	.+718    	; 0x2d2 <__bad_interrupt>
   4:	66 c1       	rjmp	.+716    	; 0x2d2 <__bad_interrupt>
   6:	65 c1       	rjmp	.+714    	; 0x2d2 <__bad_interrupt>
   8:	64 c1       	rjmp	.+712    	; 0x2d2 <__bad_interrupt>
   a:	63 c1       	rjmp	.+710    	; 0x2d2 <__bad_interrupt>
   c:	62 c1       	rjmp	.+708    	; 0x2d2 <__bad_interrupt>
   e:	61 c1       	rjmp	.+706    	; 0x2d2 <__bad_interrupt>
  10:	60 c1       	rjmp	.+704    	; 0x2d2 <__bad_interrupt>
  12:	5f c1       	rjmp	.+702    	; 0x2d2 <__bad_interrupt>
  14:	78 c1       	rjmp	.+752    	; 0x306 <__vector_10>
  16:	5d c1       	rjmp	.+698    	; 0x2d2 <__bad_interrupt>
  18:	5c c1       	rjmp	.+696    	; 0x2d2 <__bad_interrupt>
  1a:	ad c1       	rjmp	.+858    	; 0x376 <__vector_13>
  1c:	f9 c5       	rjmp	.+3058   	; 0xc10 <__vector_14>
  1e:	59 c1       	rjmp	.+690    	; 0x2d2 <__bad_interrupt>
  20:	58 c1       	rjmp	.+688    	; 0x2d2 <__bad_interrupt>
  22:	57 c1       	rjmp	.+686    	; 0x2d2 <__bad_interrupt>
  24:	56 c1       	rjmp	.+684    	; 0x2d2 <__bad_interrupt>
  26:	5f 02       	muls	r21, r31
  28:	6e 02       	muls	r22, r30
  2a:	7b 02       	muls	r23, r27
  2c:	88 02       	muls	r24, r24
  2e:	b0 02       	muls	r27, r16
  30:	95 02       	muls	r25, r21
  32:	a4 02       	muls	r26, r20
  34:	b0 02       	muls	r27, r16
  36:	b0 02       	muls	r27, r16
  38:	ad 02       	muls	r26, r29

0000003a <__trampolines_end>:
  3a:	7f 3e       	cpi	r23, 0xEF	; 239
  3c:	1c 1c       	adc	r1, r12
  3e:	08 08       	sbc	r0, r8
  40:	1c 1c       	adc	r1, r12
  42:	3e 7f       	andi	r19, 0xFE	; 254
  44:	14 22       	and	r1, r20
  46:	7f 22       	and	r7, r31
  48:	14 08       	sbc	r1, r4
  4a:	04 7e       	andi	r16, 0xE4	; 228
  4c:	04 08       	sbc	r0, r4
  4e:	10 20       	and	r1, r0
  50:	7e 20       	and	r7, r14
  52:	10 08       	sbc	r1, r0
  54:	08 2a       	or	r0, r24
  56:	1c 08       	sbc	r1, r12
  58:	08 1c       	adc	r0, r8
  5a:	2a 08       	sbc	r2, r10
  5c:	08 00       	.word	0x0008	; ????
  5e:	00 00       	nop
  60:	00 00       	nop
  62:	00 00       	nop
  64:	5f 00       	.word	0x005f	; ????
  66:	00 00       	nop
  68:	07 00       	.word	0x0007	; ????
  6a:	07 00       	.word	0x0007	; ????
  6c:	14 7f       	andi	r17, 0xF4	; 244
  6e:	14 7f       	andi	r17, 0xF4	; 244
  70:	14 00       	.word	0x0014	; ????
  72:	00 00       	nop
  74:	00 00       	nop
  76:	23 13       	cpse	r18, r19
  78:	08 64       	ori	r16, 0x48	; 72
  7a:	62 36       	cpi	r22, 0x62	; 98
  7c:	49 56       	subi	r20, 0x69	; 105
  7e:	20 50       	subi	r18, 0x00	; 0
  80:	00 08       	sbc	r0, r0
  82:	07 03       	mulsu	r16, r23
  84:	00 00       	nop
  86:	1c 22       	and	r1, r28
  88:	41 00       	.word	0x0041	; ????
  8a:	00 41       	sbci	r16, 0x10	; 16
  8c:	22 1c       	adc	r2, r2
  8e:	00 2a       	or	r0, r16
  90:	1c 7f       	andi	r17, 0xFC	; 252
  92:	1c 2a       	or	r1, r28
  94:	08 08       	sbc	r0, r8
  96:	3e 08       	sbc	r3, r14
  98:	08 00       	.word	0x0008	; ????
  9a:	80 70       	andi	r24, 0x00	; 0
  9c:	30 00       	.word	0x0030	; ????
  9e:	08 08       	sbc	r0, r8
  a0:	08 08       	sbc	r0, r8
  a2:	08 00       	.word	0x0008	; ????
  a4:	00 60       	ori	r16, 0x00	; 0
  a6:	60 00       	.word	0x0060	; ????
  a8:	20 10       	cpse	r2, r0
  aa:	08 04       	cpc	r0, r8
  ac:	02 3e       	cpi	r16, 0xE2	; 226
  ae:	51 49       	sbci	r21, 0x91	; 145
  b0:	45 3e       	cpi	r20, 0xE5	; 229
  b2:	00 42       	sbci	r16, 0x20	; 32
  b4:	7f 40       	sbci	r23, 0x0F	; 15
  b6:	00 72       	andi	r16, 0x20	; 32
  b8:	49 49       	sbci	r20, 0x99	; 153
  ba:	49 46       	sbci	r20, 0x69	; 105
  bc:	21 41       	sbci	r18, 0x11	; 17
  be:	49 4d       	sbci	r20, 0xD9	; 217
  c0:	33 18       	sub	r3, r3
  c2:	14 12       	cpse	r1, r20
  c4:	7f 10       	cpse	r7, r15
  c6:	27 45       	sbci	r18, 0x57	; 87
  c8:	45 45       	sbci	r20, 0x55	; 85
  ca:	39 3c       	cpi	r19, 0xC9	; 201
  cc:	4a 49       	sbci	r20, 0x9A	; 154
  ce:	49 31       	cpi	r20, 0x19	; 25
  d0:	41 21       	and	r20, r1
  d2:	11 09       	sbc	r17, r1
  d4:	07 36       	cpi	r16, 0x67	; 103
  d6:	49 49       	sbci	r20, 0x99	; 153
  d8:	49 36       	cpi	r20, 0x69	; 105
  da:	46 49       	sbci	r20, 0x96	; 150
  dc:	49 29       	or	r20, r9
  de:	1e 00       	.word	0x001e	; ????
  e0:	00 14       	cp	r0, r0
  e2:	00 00       	nop
  e4:	00 40       	sbci	r16, 0x00	; 0
  e6:	34 00       	.word	0x0034	; ????
  e8:	00 00       	nop
  ea:	08 14       	cp	r0, r8
  ec:	22 41       	sbci	r18, 0x12	; 18
  ee:	14 14       	cp	r1, r4
  f0:	14 14       	cp	r1, r4
  f2:	14 00       	.word	0x0014	; ????
  f4:	41 22       	and	r4, r17
  f6:	14 08       	sbc	r1, r4
  f8:	02 01       	movw	r0, r4
  fa:	59 09       	sbc	r21, r9
  fc:	06 3e       	cpi	r16, 0xE6	; 230
  fe:	41 5d       	subi	r20, 0xD1	; 209
 100:	59 4e       	sbci	r21, 0xE9	; 233
 102:	7c 12       	cpse	r7, r28
 104:	11 12       	cpse	r1, r17
 106:	7c 7f       	andi	r23, 0xFC	; 252
 108:	49 49       	sbci	r20, 0x99	; 153
 10a:	49 36       	cpi	r20, 0x69	; 105
 10c:	3e 41       	sbci	r19, 0x1E	; 30
 10e:	41 41       	sbci	r20, 0x11	; 17
 110:	22 7f       	andi	r18, 0xF2	; 242
 112:	41 41       	sbci	r20, 0x11	; 17
 114:	41 3e       	cpi	r20, 0xE1	; 225
 116:	7f 49       	sbci	r23, 0x9F	; 159
 118:	49 49       	sbci	r20, 0x99	; 153
 11a:	41 7f       	andi	r20, 0xF1	; 241
 11c:	09 09       	sbc	r16, r9
 11e:	09 01       	movw	r0, r18
 120:	3e 41       	sbci	r19, 0x1E	; 30
 122:	41 51       	subi	r20, 0x11	; 17
 124:	73 7f       	andi	r23, 0xF3	; 243
 126:	08 08       	sbc	r0, r8
 128:	08 7f       	andi	r16, 0xF8	; 248
 12a:	00 41       	sbci	r16, 0x10	; 16
 12c:	7f 41       	sbci	r23, 0x1F	; 31
 12e:	00 20       	and	r0, r0
 130:	40 41       	sbci	r20, 0x10	; 16
 132:	3f 01       	movw	r6, r30
 134:	7f 08       	sbc	r7, r15
 136:	14 22       	and	r1, r20
 138:	41 7f       	andi	r20, 0xF1	; 241
 13a:	40 40       	sbci	r20, 0x00	; 0
 13c:	40 40       	sbci	r20, 0x00	; 0
 13e:	7f 02       	muls	r23, r31
 140:	1c 02       	muls	r17, r28
 142:	7f 7f       	andi	r23, 0xFF	; 255
 144:	04 08       	sbc	r0, r4
 146:	10 7f       	andi	r17, 0xF0	; 240
 148:	3e 41       	sbci	r19, 0x1E	; 30
 14a:	41 41       	sbci	r20, 0x11	; 17
 14c:	3e 7f       	andi	r19, 0xFE	; 254
 14e:	09 09       	sbc	r16, r9
 150:	09 06       	cpc	r0, r25
 152:	3e 41       	sbci	r19, 0x1E	; 30
 154:	51 21       	and	r21, r1
 156:	5e 7f       	andi	r21, 0xFE	; 254
 158:	09 19       	sub	r16, r9
 15a:	29 46       	sbci	r18, 0x69	; 105
 15c:	26 49       	sbci	r18, 0x96	; 150
 15e:	49 49       	sbci	r20, 0x99	; 153
 160:	32 03       	mulsu	r19, r18
 162:	01 7f       	andi	r16, 0xF1	; 241
 164:	01 03       	mulsu	r16, r17
 166:	3f 40       	sbci	r19, 0x0F	; 15
 168:	40 40       	sbci	r20, 0x00	; 0
 16a:	3f 1f       	adc	r19, r31
 16c:	20 40       	sbci	r18, 0x00	; 0
 16e:	20 1f       	adc	r18, r16
 170:	3f 40       	sbci	r19, 0x0F	; 15
 172:	38 40       	sbci	r19, 0x08	; 8
 174:	3f 63       	ori	r19, 0x3F	; 63
 176:	14 08       	sbc	r1, r4
 178:	14 63       	ori	r17, 0x34	; 52
 17a:	03 04       	cpc	r0, r3
 17c:	78 04       	cpc	r7, r8
 17e:	03 61       	ori	r16, 0x13	; 19
 180:	59 49       	sbci	r21, 0x99	; 153
 182:	4d 43       	sbci	r20, 0x3D	; 61
 184:	00 7f       	andi	r16, 0xF0	; 240
 186:	41 41       	sbci	r20, 0x11	; 17
 188:	41 02       	muls	r20, r17
 18a:	04 08       	sbc	r0, r4
 18c:	10 20       	and	r1, r0
 18e:	00 41       	sbci	r16, 0x10	; 16
 190:	41 41       	sbci	r20, 0x11	; 17
 192:	7f 04       	cpc	r7, r15
 194:	02 01       	movw	r0, r4
 196:	02 04       	cpc	r0, r2
 198:	40 40       	sbci	r20, 0x00	; 0
 19a:	40 40       	sbci	r20, 0x00	; 0
 19c:	40 00       	.word	0x0040	; ????
 19e:	03 07       	cpc	r16, r19
 1a0:	08 00       	.word	0x0008	; ????
 1a2:	20 54       	subi	r18, 0x40	; 64
 1a4:	54 78       	andi	r21, 0x84	; 132
 1a6:	40 7f       	andi	r20, 0xF0	; 240
 1a8:	28 44       	sbci	r18, 0x48	; 72
 1aa:	44 38       	cpi	r20, 0x84	; 132
 1ac:	38 44       	sbci	r19, 0x48	; 72
 1ae:	44 44       	sbci	r20, 0x44	; 68
 1b0:	28 38       	cpi	r18, 0x88	; 136
 1b2:	44 44       	sbci	r20, 0x44	; 68
 1b4:	28 7f       	andi	r18, 0xF8	; 248
 1b6:	38 54       	subi	r19, 0x48	; 72
 1b8:	54 54       	subi	r21, 0x44	; 68
 1ba:	18 00       	.word	0x0018	; ????
 1bc:	08 7e       	andi	r16, 0xE8	; 232
 1be:	09 02       	muls	r16, r25
 1c0:	18 a4       	ldd	r1, Y+40	; 0x28
 1c2:	a4 9c       	mul	r10, r4
 1c4:	78 7f       	andi	r23, 0xF8	; 248
 1c6:	08 04       	cpc	r0, r8
 1c8:	04 78       	andi	r16, 0x84	; 132
 1ca:	00 44       	sbci	r16, 0x40	; 64
 1cc:	7d 40       	sbci	r23, 0x0D	; 13
 1ce:	00 20       	and	r0, r0
 1d0:	40 40       	sbci	r20, 0x00	; 0
 1d2:	3d 00       	.word	0x003d	; ????
 1d4:	7f 10       	cpse	r7, r15
 1d6:	28 44       	sbci	r18, 0x48	; 72
 1d8:	00 00       	nop
 1da:	41 7f       	andi	r20, 0xF1	; 241
 1dc:	40 00       	.word	0x0040	; ????
 1de:	7c 04       	cpc	r7, r12
 1e0:	78 04       	cpc	r7, r8
 1e2:	78 7c       	andi	r23, 0xC8	; 200
 1e4:	08 04       	cpc	r0, r8
 1e6:	04 78       	andi	r16, 0x84	; 132
 1e8:	38 44       	sbci	r19, 0x48	; 72
 1ea:	44 44       	sbci	r20, 0x44	; 68
 1ec:	38 fc       	.word	0xfc38	; ????
 1ee:	18 24       	eor	r1, r8
 1f0:	24 18       	sub	r2, r4
 1f2:	18 24       	eor	r1, r8
 1f4:	24 18       	sub	r2, r4
 1f6:	fc 7c       	andi	r31, 0xCC	; 204
 1f8:	08 04       	cpc	r0, r8
 1fa:	04 08       	sbc	r0, r4
 1fc:	48 54       	subi	r20, 0x48	; 72
 1fe:	54 54       	subi	r21, 0x44	; 68
 200:	24 04       	cpc	r2, r4
 202:	04 3f       	cpi	r16, 0xF4	; 244
 204:	44 24       	eor	r4, r4
 206:	3c 40       	sbci	r19, 0x0C	; 12
 208:	40 20       	and	r4, r0
 20a:	7c 1c       	adc	r7, r12
 20c:	20 40       	sbci	r18, 0x00	; 0
 20e:	20 1c       	adc	r2, r0
 210:	3c 40       	sbci	r19, 0x0C	; 12
 212:	30 40       	sbci	r19, 0x00	; 0
 214:	3c 44       	sbci	r19, 0x4C	; 76
 216:	28 10       	cpse	r2, r8
 218:	28 44       	sbci	r18, 0x48	; 72
 21a:	4c 90       	ld	r4, X
 21c:	90 90 7c 44 	lds	r9, 0x447C	; 0x80447c <__bss_end+0x4381>
 220:	64 54       	subi	r22, 0x44	; 68
 222:	4c 44       	sbci	r20, 0x4C	; 76
 224:	00 08       	sbc	r0, r0
 226:	36 41       	sbci	r19, 0x16	; 22
 228:	00 00       	nop
 22a:	00 77       	andi	r16, 0x70	; 112
 22c:	00 00       	nop
 22e:	00 41       	sbci	r16, 0x10	; 16
 230:	36 08       	sbc	r3, r6
 232:	00 02       	muls	r16, r16
 234:	01 02       	muls	r16, r17
 236:	04 02       	muls	r16, r20
 238:	3a 40       	sbci	r19, 0x0A	; 10
 23a:	40 20       	and	r4, r0
 23c:	7a 22       	and	r7, r26
 23e:	54 54       	subi	r21, 0x44	; 68
 240:	78 42       	sbci	r23, 0x28	; 40
 242:	7d 12       	cpse	r7, r29
 244:	11 12       	cpse	r1, r17
 246:	7d 3a       	cpi	r23, 0xAD	; 173
 248:	44 44       	sbci	r20, 0x44	; 68
 24a:	44 3a       	cpi	r20, 0xA4	; 164
 24c:	3d 42       	sbci	r19, 0x2D	; 45
 24e:	42 42       	sbci	r20, 0x22	; 34
 250:	3d 3d       	cpi	r19, 0xDD	; 221
 252:	40 40       	sbci	r20, 0x00	; 0
 254:	40 3d       	cpi	r20, 0xD0	; 208
 256:	38 44       	sbci	r19, 0x48	; 72
 258:	44 38       	cpi	r20, 0x84	; 132
 25a:	44 fc       	sbrc	r4, 4
 25c:	4a 4a       	sbci	r20, 0xAA	; 170
 25e:	4a 34       	cpi	r20, 0x4A	; 74
 260:	7e 02       	muls	r23, r30
 262:	02 06       	cpc	r0, r18
 264:	06 02       	muls	r16, r22
 266:	7e 02       	muls	r23, r30
 268:	7e 02       	muls	r23, r30
 26a:	63 55       	subi	r22, 0x53	; 83
 26c:	49 41       	sbci	r20, 0x19	; 25
 26e:	63 38       	cpi	r22, 0x83	; 131
 270:	44 44       	sbci	r20, 0x44	; 68
 272:	3c 04       	cpc	r3, r12
 274:	40 7e       	andi	r20, 0xE0	; 224
 276:	20 1e       	adc	r2, r16
 278:	20 4c       	sbci	r18, 0xC0	; 192
 27a:	72 01       	movw	r14, r4
 27c:	72 4c       	sbci	r23, 0xC2	; 194
 27e:	bc 62       	ori	r27, 0x2C	; 44
 280:	5a 46       	sbci	r21, 0x6A	; 106
 282:	3d 44       	sbci	r19, 0x4D	; 77
 284:	44 5f       	subi	r20, 0xF4	; 244
 286:	44 44       	sbci	r20, 0x44	; 68
 288:	40 51       	subi	r20, 0x10	; 16
 28a:	4a 44       	sbci	r20, 0x4A	; 74
 28c:	40 40       	sbci	r20, 0x00	; 0
 28e:	44 4a       	sbci	r20, 0xA4	; 164
 290:	51 40       	sbci	r21, 0x01	; 1
 292:	36 12       	cpse	r3, r22
 294:	36 24       	eor	r3, r6
 296:	36 06       	cpc	r3, r22
 298:	0f 09       	sbc	r16, r15
 29a:	0f 06       	cpc	r0, r31

0000029c <__ctors_end>:
 29c:	11 24       	eor	r1, r1
 29e:	1f be       	out	0x3f, r1	; 63
 2a0:	cf e5       	ldi	r28, 0x5F	; 95
 2a2:	d4 e0       	ldi	r29, 0x04	; 4
 2a4:	de bf       	out	0x3e, r29	; 62
 2a6:	cd bf       	out	0x3d, r28	; 61

000002a8 <__do_copy_data>:
 2a8:	10 e0       	ldi	r17, 0x00	; 0
 2aa:	a0 e6       	ldi	r26, 0x60	; 96
 2ac:	b0 e0       	ldi	r27, 0x00	; 0
 2ae:	ea e8       	ldi	r30, 0x8A	; 138
 2b0:	fe e0       	ldi	r31, 0x0E	; 14
 2b2:	02 c0       	rjmp	.+4      	; 0x2b8 <__do_copy_data+0x10>
 2b4:	05 90       	lpm	r0, Z+
 2b6:	0d 92       	st	X+, r0
 2b8:	ac 3b       	cpi	r26, 0xBC	; 188
 2ba:	b1 07       	cpc	r27, r17
 2bc:	d9 f7       	brne	.-10     	; 0x2b4 <__do_copy_data+0xc>

000002be <__do_clear_bss>:
 2be:	20 e0       	ldi	r18, 0x00	; 0
 2c0:	ac eb       	ldi	r26, 0xBC	; 188
 2c2:	b0 e0       	ldi	r27, 0x00	; 0
 2c4:	01 c0       	rjmp	.+2      	; 0x2c8 <.do_clear_bss_start>

000002c6 <.do_clear_bss_loop>:
 2c6:	1d 92       	st	X+, r1

000002c8 <.do_clear_bss_start>:
 2c8:	ab 3f       	cpi	r26, 0xFB	; 251
 2ca:	b2 07       	cpc	r27, r18
 2cc:	e1 f7       	brne	.-8      	; 0x2c6 <.do_clear_bss_loop>
 2ce:	2d d2       	rcall	.+1114   	; 0x72a <main>
 2d0:	da c5       	rjmp	.+2996   	; 0xe86 <_exit>

000002d2 <__bad_interrupt>:
 2d2:	96 ce       	rjmp	.-724    	; 0x0 <__vectors>

000002d4 <icp_init>:
 2d4:	10 92 be 00 	sts	0x00BE, r1	; 0x8000be <mval+0x1>
 2d8:	10 92 bd 00 	sts	0x00BD, r1	; 0x8000bd <mval>
 2dc:	e1 e8       	ldi	r30, 0x81	; 129
 2de:	f0 e0       	ldi	r31, 0x00	; 0
 2e0:	10 82       	st	Z, r1
 2e2:	10 92 84 00 	sts	0x0084, r1	; 0x800084 <lut+0x21>
 2e6:	10 92 85 00 	sts	0x0085, r1	; 0x800085 <lut+0x22>
 2ea:	81 e2       	ldi	r24, 0x21	; 33
 2ec:	86 bb       	out	0x16, r24	; 22
 2ee:	af e6       	ldi	r26, 0x6F	; 111
 2f0:	b0 e0       	ldi	r27, 0x00	; 0
 2f2:	8c 91       	ld	r24, X
 2f4:	81 62       	ori	r24, 0x21	; 33
 2f6:	8c 93       	st	X, r24
 2f8:	10 92 80 00 	sts	0x0080, r1	; 0x800080 <lut+0x1d>
 2fc:	10 92 82 00 	sts	0x0082, r1	; 0x800082 <lut+0x1f>
 300:	83 e8       	ldi	r24, 0x83	; 131
 302:	80 83       	st	Z, r24
 304:	08 95       	ret

00000306 <__vector_10>:
 306:	1f 92       	push	r1
 308:	0f 92       	push	r0
 30a:	0f b6       	in	r0, 0x3f	; 63
 30c:	0f 92       	push	r0
 30e:	11 24       	eor	r1, r1
 310:	2f 93       	push	r18
 312:	8f 93       	push	r24
 314:	9f 93       	push	r25
 316:	af 93       	push	r26
 318:	bf 93       	push	r27
 31a:	ef 93       	push	r30
 31c:	ff 93       	push	r31
 31e:	10 92 81 00 	sts	0x0081, r1	; 0x800081 <lut+0x1e>
 322:	ef e6       	ldi	r30, 0x6F	; 111
 324:	f0 e0       	ldi	r31, 0x00	; 0
 326:	80 81       	ld	r24, Z
 328:	8f 7d       	andi	r24, 0xDF	; 223
 32a:	80 83       	st	Z, r24
 32c:	a6 e8       	ldi	r26, 0x86	; 134
 32e:	b0 e0       	ldi	r27, 0x00	; 0
 330:	8c 91       	ld	r24, X
 332:	90 e0       	ldi	r25, 0x00	; 0
 334:	90 93 be 00 	sts	0x00BE, r25	; 0x8000be <mval+0x1>
 338:	80 93 bd 00 	sts	0x00BD, r24	; 0x8000bd <mval>
 33c:	e7 e8       	ldi	r30, 0x87	; 135
 33e:	f0 e0       	ldi	r31, 0x00	; 0
 340:	20 81       	ld	r18, Z
 342:	80 91 bd 00 	lds	r24, 0x00BD	; 0x8000bd <mval>
 346:	90 91 be 00 	lds	r25, 0x00BE	; 0x8000be <mval+0x1>
 34a:	92 2b       	or	r25, r18
 34c:	90 93 be 00 	sts	0x00BE, r25	; 0x8000be <mval+0x1>
 350:	80 93 bd 00 	sts	0x00BD, r24	; 0x8000bd <mval>
 354:	1c 92       	st	X, r1
 356:	10 82       	st	Z, r1
 358:	8f ef       	ldi	r24, 0xFF	; 255
 35a:	80 93 bc 00 	sts	0x00BC, r24	; 0x8000bc <__data_end>
 35e:	ff 91       	pop	r31
 360:	ef 91       	pop	r30
 362:	bf 91       	pop	r27
 364:	af 91       	pop	r26
 366:	9f 91       	pop	r25
 368:	8f 91       	pop	r24
 36a:	2f 91       	pop	r18
 36c:	0f 90       	pop	r0
 36e:	0f be       	out	0x3f, r0	; 63
 370:	0f 90       	pop	r0
 372:	1f 90       	pop	r1
 374:	18 95       	reti

00000376 <__vector_13>:
 376:	1f 92       	push	r1
 378:	0f 92       	push	r0
 37a:	0f b6       	in	r0, 0x3f	; 63
 37c:	0f 92       	push	r0
 37e:	11 24       	eor	r1, r1
 380:	8f 93       	push	r24
 382:	10 92 81 00 	sts	0x0081, r1	; 0x800081 <lut+0x1e>
 386:	8f e0       	ldi	r24, 0x0F	; 15
 388:	80 93 bc 00 	sts	0x00BC, r24	; 0x8000bc <__data_end>
 38c:	8f 91       	pop	r24
 38e:	0f 90       	pop	r0
 390:	0f be       	out	0x3f, r0	; 63
 392:	0f 90       	pop	r0
 394:	1f 90       	pop	r1
 396:	18 95       	reti

00000398 <messung_done>:
 398:	90 91 bc 00 	lds	r25, 0x00BC	; 0x8000bc <__data_end>
 39c:	81 e0       	ldi	r24, 0x01	; 1
 39e:	91 11       	cpse	r25, r1
 3a0:	01 c0       	rjmp	.+2      	; 0x3a4 <messung_done+0xc>
 3a2:	80 e0       	ldi	r24, 0x00	; 0
 3a4:	81 95       	neg	r24
 3a6:	08 95       	ret

000003a8 <messung_t_erg>:
 3a8:	cf 93       	push	r28
 3aa:	df 93       	push	r29
 3ac:	e0 91 bd 00 	lds	r30, 0x00BD	; 0x8000bd <mval>
 3b0:	f0 91 be 00 	lds	r31, 0x00BE	; 0x8000be <mval+0x1>
 3b4:	c0 91 bd 00 	lds	r28, 0x00BD	; 0x8000bd <mval>
 3b8:	d0 91 be 00 	lds	r29, 0x00BE	; 0x8000be <mval+0x1>
 3bc:	a0 91 bd 00 	lds	r26, 0x00BD	; 0x8000bd <mval>
 3c0:	b0 91 be 00 	lds	r27, 0x00BE	; 0x8000be <mval+0x1>
 3c4:	20 91 bd 00 	lds	r18, 0x00BD	; 0x8000bd <mval>
 3c8:	30 91 be 00 	lds	r19, 0x00BE	; 0x8000be <mval+0x1>
 3cc:	40 91 bd 00 	lds	r20, 0x00BD	; 0x8000bd <mval>
 3d0:	50 91 be 00 	lds	r21, 0x00BE	; 0x8000be <mval+0x1>
 3d4:	cd 2f       	mov	r28, r29
 3d6:	dd 27       	eor	r29, r29
 3d8:	c6 95       	lsr	r28
 3da:	ce 59       	subi	r28, 0x9E	; 158
 3dc:	df 4f       	sbci	r29, 0xFF	; 255
 3de:	88 81       	ld	r24, Y
 3e0:	90 e0       	ldi	r25, 0x00	; 0
 3e2:	ab 2f       	mov	r26, r27
 3e4:	bb 27       	eor	r27, r27
 3e6:	a6 95       	lsr	r26
 3e8:	ad 59       	subi	r26, 0x9D	; 157
 3ea:	bf 4f       	sbci	r27, 0xFF	; 255
 3ec:	6c 91       	ld	r22, X
 3ee:	86 1b       	sub	r24, r22
 3f0:	91 09       	sbc	r25, r1
 3f2:	44 27       	eor	r20, r20
 3f4:	5e 7f       	andi	r21, 0xFE	; 254
 3f6:	24 1b       	sub	r18, r20
 3f8:	35 0b       	sbc	r19, r21
 3fa:	82 9f       	mul	r24, r18
 3fc:	a0 01       	movw	r20, r0
 3fe:	83 9f       	mul	r24, r19
 400:	50 0d       	add	r21, r0
 402:	92 9f       	mul	r25, r18
 404:	50 0d       	add	r21, r0
 406:	11 24       	eor	r1, r1
 408:	85 2f       	mov	r24, r21
 40a:	86 95       	lsr	r24
 40c:	ef 2f       	mov	r30, r31
 40e:	ff 27       	eor	r31, r31
 410:	e6 95       	lsr	r30
 412:	ed 59       	subi	r30, 0x9D	; 157
 414:	ff 4f       	sbci	r31, 0xFF	; 255
 416:	90 81       	ld	r25, Z
 418:	89 0f       	add	r24, r25
 41a:	df 91       	pop	r29
 41c:	cf 91       	pop	r28
 41e:	08 95       	ret

00000420 <messung_init>:
 420:	20 98       	cbi	0x04, 0	; 4
 422:	28 9a       	sbi	0x05, 0	; 5
 424:	97 b1       	in	r25, 0x07	; 7
 426:	9f 60       	ori	r25, 0x0F	; 15
 428:	97 b9       	out	0x07, r25	; 7
 42a:	98 b1       	in	r25, 0x08	; 8
 42c:	98 7f       	andi	r25, 0xF8	; 248
 42e:	98 b9       	out	0x08, r25	; 8
 430:	98 b1       	in	r25, 0x08	; 8
 432:	87 70       	andi	r24, 0x07	; 7
 434:	98 2b       	or	r25, r24
 436:	98 b9       	out	0x08, r25	; 8
 438:	10 92 60 00 	sts	0x0060, r1	; 0x800060 <__data_start>
 43c:	10 92 bc 00 	sts	0x00BC, r1	; 0x8000bc <__data_end>
 440:	08 95       	ret

00000442 <messung_compute>:
 442:	80 91 60 00 	lds	r24, 0x0060	; 0x800060 <__data_start>
 446:	81 30       	cpi	r24, 0x01	; 1
 448:	79 f0       	breq	.+30     	; 0x468 <__stack+0x9>
 44a:	38 f0       	brcs	.+14     	; 0x45a <messung_compute+0x18>
 44c:	82 30       	cpi	r24, 0x02	; 2
 44e:	d9 f0       	breq	.+54     	; 0x486 <__stack+0x27>
 450:	83 30       	cpi	r24, 0x03	; 3
 452:	39 f1       	breq	.+78     	; 0x4a2 <__stack+0x43>
 454:	10 92 60 00 	sts	0x0060, r1	; 0x800060 <__data_start>
 458:	24 c0       	rjmp	.+72     	; 0x4a2 <__stack+0x43>
 45a:	43 9a       	sbi	0x08, 3	; 8
 45c:	8f eb       	ldi	r24, 0xBF	; 191
 45e:	90 e0       	ldi	r25, 0x00	; 0
 460:	0e 94 2d 06 	call	0xc5a	; 0xc5a <stoptimer_init>
 464:	81 e0       	ldi	r24, 0x01	; 1
 466:	0c c0       	rjmp	.+24     	; 0x480 <__stack+0x21>
 468:	68 ec       	ldi	r22, 0xC8	; 200
 46a:	70 e0       	ldi	r23, 0x00	; 0
 46c:	8f eb       	ldi	r24, 0xBF	; 191
 46e:	90 e0       	ldi	r25, 0x00	; 0
 470:	0e 94 3d 06 	call	0xc7a	; 0xc7a <stoptimer_expired>
 474:	88 23       	and	r24, r24
 476:	a9 f0       	breq	.+42     	; 0x4a2 <__stack+0x43>
 478:	0e 94 6a 01 	call	0x2d4	; 0x2d4 <icp_init>
 47c:	43 98       	cbi	0x08, 3	; 8
 47e:	82 e0       	ldi	r24, 0x02	; 2
 480:	80 93 60 00 	sts	0x0060, r24	; 0x800060 <__data_start>
 484:	08 95       	ret
 486:	80 91 bc 00 	lds	r24, 0x00BC	; 0x8000bc <__data_end>
 48a:	88 23       	and	r24, r24
 48c:	51 f0       	breq	.+20     	; 0x4a2 <__stack+0x43>
 48e:	80 91 bc 00 	lds	r24, 0x00BC	; 0x8000bc <__data_end>
 492:	8f 3f       	cpi	r24, 0xFF	; 255
 494:	11 f4       	brne	.+4      	; 0x49a <__stack+0x3b>
 496:	83 e0       	ldi	r24, 0x03	; 3
 498:	f3 cf       	rjmp	.-26     	; 0x480 <__stack+0x21>
 49a:	80 91 bc 00 	lds	r24, 0x00BC	; 0x8000bc <__data_end>
 49e:	8f 30       	cpi	r24, 0x0F	; 15
 4a0:	d1 f3       	breq	.-12     	; 0x496 <__stack+0x37>
 4a2:	08 95       	ret

000004a4 <buderus_sensoren>:
 4a4:	e0 91 61 00 	lds	r30, 0x0061	; 0x800061 <messtate>
 4a8:	8e 2f       	mov	r24, r30
 4aa:	90 e0       	ldi	r25, 0x00	; 0
 4ac:	8a 30       	cpi	r24, 0x0A	; 10
 4ae:	91 05       	cpc	r25, r1
 4b0:	08 f0       	brcs	.+2      	; 0x4b4 <buderus_sensoren+0x10>
 4b2:	56 c0       	rjmp	.+172    	; 0x560 <buderus_sensoren+0xbc>
 4b4:	fc 01       	movw	r30, r24
 4b6:	ed 5e       	subi	r30, 0xED	; 237
 4b8:	ff 4f       	sbci	r31, 0xFF	; 255
 4ba:	0c 94 0a 07 	jmp	0xe14	; 0xe14 <__tablejump2__>
 4be:	0e 94 cc 01 	call	0x398	; 0x398 <messung_done>
 4c2:	81 11       	cpse	r24, r1
 4c4:	02 c0       	rjmp	.+4      	; 0x4ca <buderus_sensoren+0x26>
 4c6:	0c 94 21 02 	jmp	0x442	; 0x442 <messung_compute>
 4ca:	0e 94 d4 01 	call	0x3a8	; 0x3a8 <messung_t_erg>
 4ce:	80 93 cb 00 	sts	0x00CB, r24	; 0x8000cb <values>
 4d2:	81 e0       	ldi	r24, 0x01	; 1
 4d4:	0e 94 10 02 	call	0x420	; 0x420 <messung_init>
 4d8:	81 e0       	ldi	r24, 0x01	; 1
 4da:	33 c0       	rjmp	.+102    	; 0x542 <buderus_sensoren+0x9e>
 4dc:	0e 94 cc 01 	call	0x398	; 0x398 <messung_done>
 4e0:	88 23       	and	r24, r24
 4e2:	89 f3       	breq	.-30     	; 0x4c6 <buderus_sensoren+0x22>
 4e4:	0e 94 d4 01 	call	0x3a8	; 0x3a8 <messung_t_erg>
 4e8:	80 93 cc 00 	sts	0x00CC, r24	; 0x8000cc <values+0x1>
 4ec:	82 e0       	ldi	r24, 0x02	; 2
 4ee:	0e 94 10 02 	call	0x420	; 0x420 <messung_init>
 4f2:	82 e0       	ldi	r24, 0x02	; 2
 4f4:	26 c0       	rjmp	.+76     	; 0x542 <buderus_sensoren+0x9e>
 4f6:	0e 94 cc 01 	call	0x398	; 0x398 <messung_done>
 4fa:	88 23       	and	r24, r24
 4fc:	21 f3       	breq	.-56     	; 0x4c6 <buderus_sensoren+0x22>
 4fe:	0e 94 d4 01 	call	0x3a8	; 0x3a8 <messung_t_erg>
 502:	80 93 cd 00 	sts	0x00CD, r24	; 0x8000cd <values+0x2>
 506:	83 e0       	ldi	r24, 0x03	; 3
 508:	0e 94 10 02 	call	0x420	; 0x420 <messung_init>
 50c:	83 e0       	ldi	r24, 0x03	; 3
 50e:	19 c0       	rjmp	.+50     	; 0x542 <buderus_sensoren+0x9e>
 510:	0e 94 cc 01 	call	0x398	; 0x398 <messung_done>
 514:	88 23       	and	r24, r24
 516:	b9 f2       	breq	.-82     	; 0x4c6 <buderus_sensoren+0x22>
 518:	0e 94 d4 01 	call	0x3a8	; 0x3a8 <messung_t_erg>
 51c:	80 93 ce 00 	sts	0x00CE, r24	; 0x8000ce <values+0x3>
 520:	85 e0       	ldi	r24, 0x05	; 5
 522:	0e 94 10 02 	call	0x420	; 0x420 <messung_init>
 526:	85 e0       	ldi	r24, 0x05	; 5
 528:	0c c0       	rjmp	.+24     	; 0x542 <buderus_sensoren+0x9e>
 52a:	0e 94 cc 01 	call	0x398	; 0x398 <messung_done>
 52e:	88 23       	and	r24, r24
 530:	51 f2       	breq	.-108    	; 0x4c6 <buderus_sensoren+0x22>
 532:	0e 94 d4 01 	call	0x3a8	; 0x3a8 <messung_t_erg>
 536:	80 93 cf 00 	sts	0x00CF, r24	; 0x8000cf <values+0x4>
 53a:	86 e0       	ldi	r24, 0x06	; 6
 53c:	0e 94 10 02 	call	0x420	; 0x420 <messung_init>
 540:	86 e0       	ldi	r24, 0x06	; 6
 542:	80 93 61 00 	sts	0x0061, r24	; 0x800061 <messtate>
 546:	08 95       	ret
 548:	0e 94 cc 01 	call	0x398	; 0x398 <messung_done>
 54c:	88 23       	and	r24, r24
 54e:	09 f4       	brne	.+2      	; 0x552 <buderus_sensoren+0xae>
 550:	ba cf       	rjmp	.-140    	; 0x4c6 <buderus_sensoren+0x22>
 552:	0e 94 d4 01 	call	0x3a8	; 0x3a8 <messung_t_erg>
 556:	80 93 d0 00 	sts	0x00D0, r24	; 0x8000d0 <values+0x5>
 55a:	80 e0       	ldi	r24, 0x00	; 0
 55c:	0e 94 10 02 	call	0x420	; 0x420 <messung_init>
 560:	10 92 61 00 	sts	0x0061, r1	; 0x800061 <messtate>
 564:	08 95       	ret

00000566 <hk2_state_machine>:
 566:	80 91 d0 00 	lds	r24, 0x00D0	; 0x8000d0 <values+0x5>
 56a:	81 11       	cpse	r24, r1
 56c:	80 93 eb 00 	sts	0x00EB, r24	; 0x8000eb <hkopt+0x4>
 570:	2f e9       	ldi	r18, 0x9F	; 159
 572:	86 e8       	ldi	r24, 0x86	; 134
 574:	91 e0       	ldi	r25, 0x01	; 1
 576:	21 50       	subi	r18, 0x01	; 1
 578:	80 40       	sbci	r24, 0x00	; 0
 57a:	90 40       	sbci	r25, 0x00	; 0
 57c:	e1 f7       	brne	.-8      	; 0x576 <hk2_state_machine+0x10>
 57e:	00 c0       	rjmp	.+0      	; 0x580 <hk2_state_machine+0x1a>
 580:	00 00       	nop
 582:	81 e7       	ldi	r24, 0x71	; 113
 584:	90 e0       	ldi	r25, 0x00	; 0
 586:	26 d4       	rcall	.+2124   	; 0xdd4 <uart_puts>
 588:	80 91 eb 00 	lds	r24, 0x00EB	; 0x8000eb <hkopt+0x4>
 58c:	4a e0       	ldi	r20, 0x0A	; 10
 58e:	61 ef       	ldi	r22, 0xF1	; 241
 590:	70 e0       	ldi	r23, 0x00	; 0
 592:	90 e0       	ldi	r25, 0x00	; 0
 594:	45 d4       	rcall	.+2186   	; 0xe20 <__itoa_ncheck>
 596:	1e d4       	rcall	.+2108   	; 0xdd4 <uart_puts>
 598:	87 e7       	ldi	r24, 0x77	; 119
 59a:	90 e0       	ldi	r25, 0x00	; 0
 59c:	1b d4       	rcall	.+2102   	; 0xdd4 <uart_puts>
 59e:	80 91 e7 00 	lds	r24, 0x00E7	; 0x8000e7 <hkopt>
 5a2:	4a e0       	ldi	r20, 0x0A	; 10
 5a4:	61 ef       	ldi	r22, 0xF1	; 241
 5a6:	70 e0       	ldi	r23, 0x00	; 0
 5a8:	90 e0       	ldi	r25, 0x00	; 0
 5aa:	3a d4       	rcall	.+2164   	; 0xe20 <__itoa_ncheck>
 5ac:	13 d4       	rcall	.+2086   	; 0xdd4 <uart_puts>
 5ae:	84 e8       	ldi	r24, 0x84	; 132
 5b0:	90 e0       	ldi	r25, 0x00	; 0
 5b2:	10 d4       	rcall	.+2080   	; 0xdd4 <uart_puts>
 5b4:	4a e0       	ldi	r20, 0x0A	; 10
 5b6:	61 ef       	ldi	r22, 0xF1	; 241
 5b8:	70 e0       	ldi	r23, 0x00	; 0
 5ba:	80 91 ee 00 	lds	r24, 0x00EE	; 0x8000ee <hkopt+0x7>
 5be:	90 91 ef 00 	lds	r25, 0x00EF	; 0x8000ef <hkopt+0x8>
 5c2:	2e d4       	rcall	.+2140   	; 0xe20 <__itoa_ncheck>
 5c4:	07 d4       	rcall	.+2062   	; 0xdd4 <uart_puts>
 5c6:	84 e9       	ldi	r24, 0x94	; 148
 5c8:	90 e0       	ldi	r25, 0x00	; 0
 5ca:	04 d4       	rcall	.+2056   	; 0xdd4 <uart_puts>
 5cc:	80 91 e7 00 	lds	r24, 0x00E7	; 0x8000e7 <hkopt>
 5d0:	82 30       	cpi	r24, 0x02	; 2
 5d2:	49 f1       	breq	.+82     	; 0x626 <hk2_state_machine+0xc0>
 5d4:	28 f4       	brcc	.+10     	; 0x5e0 <hk2_state_machine+0x7a>
 5d6:	88 23       	and	r24, r24
 5d8:	51 f0       	breq	.+20     	; 0x5ee <hk2_state_machine+0x88>
 5da:	81 30       	cpi	r24, 0x01	; 1
 5dc:	71 f0       	breq	.+28     	; 0x5fa <hk2_state_machine+0x94>
 5de:	a1 c0       	rjmp	.+322    	; 0x722 <hk2_state_machine+0x1bc>
 5e0:	83 30       	cpi	r24, 0x03	; 3
 5e2:	09 f4       	brne	.+2      	; 0x5e6 <hk2_state_machine+0x80>
 5e4:	79 c0       	rjmp	.+242    	; 0x6d8 <hk2_state_machine+0x172>
 5e6:	84 30       	cpi	r24, 0x04	; 4
 5e8:	09 f4       	brne	.+2      	; 0x5ec <hk2_state_machine+0x86>
 5ea:	8b c0       	rjmp	.+278    	; 0x702 <hk2_state_machine+0x19c>
 5ec:	9a c0       	rjmp	.+308    	; 0x722 <hk2_state_machine+0x1bc>
 5ee:	80 91 e8 00 	lds	r24, 0x00E8	; 0x8000e8 <hkopt+0x1>
 5f2:	80 ff       	sbrs	r24, 0
 5f4:	99 c0       	rjmp	.+306    	; 0x728 <hk2_state_machine+0x1c2>
 5f6:	c1 9a       	sbi	0x18, 1	; 24
 5f8:	8e c0       	rjmp	.+284    	; 0x716 <hk2_state_machine+0x1b0>
 5fa:	80 91 e8 00 	lds	r24, 0x00E8	; 0x8000e8 <hkopt+0x1>
 5fe:	80 fd       	sbrc	r24, 0
 600:	04 c0       	rjmp	.+8      	; 0x60a <hk2_state_machine+0xa4>
 602:	c1 98       	cbi	0x18, 1	; 24
 604:	10 92 e7 00 	sts	0x00E7, r1	; 0x8000e7 <hkopt>
 608:	08 95       	ret
 60a:	81 ff       	sbrs	r24, 1
 60c:	8a c0       	rjmp	.+276    	; 0x722 <hk2_state_machine+0x1bc>
 60e:	60 91 e9 00 	lds	r22, 0x00E9	; 0x8000e9 <hkopt+0x2>
 612:	70 91 ea 00 	lds	r23, 0x00EA	; 0x8000ea <hkopt+0x3>
 616:	83 ec       	ldi	r24, 0xC3	; 195
 618:	90 e0       	ldi	r25, 0x00	; 0
 61a:	2f d3       	rcall	.+1630   	; 0xc7a <stoptimer_expired>
 61c:	88 23       	and	r24, r24
 61e:	09 f4       	brne	.+2      	; 0x622 <hk2_state_machine+0xbc>
 620:	83 c0       	rjmp	.+262    	; 0x728 <hk2_state_machine+0x1c2>
 622:	82 e0       	ldi	r24, 0x02	; 2
 624:	7f c0       	rjmp	.+254    	; 0x724 <hk2_state_machine+0x1be>
 626:	80 91 eb 00 	lds	r24, 0x00EB	; 0x8000eb <hkopt+0x4>
 62a:	90 e0       	ldi	r25, 0x00	; 0
 62c:	20 91 ec 00 	lds	r18, 0x00EC	; 0x8000ec <hkopt+0x5>
 630:	30 e0       	ldi	r19, 0x00	; 0
 632:	40 91 ed 00 	lds	r20, 0x00ED	; 0x8000ed <hkopt+0x6>
 636:	50 e0       	ldi	r21, 0x00	; 0
 638:	b9 01       	movw	r22, r18
 63a:	64 1b       	sub	r22, r20
 63c:	75 0b       	sbc	r23, r21
 63e:	86 17       	cp	r24, r22
 640:	97 07       	cpc	r25, r23
 642:	74 f0       	brlt	.+28     	; 0x660 <hk2_state_machine+0xfa>
 644:	42 0f       	add	r20, r18
 646:	53 1f       	adc	r21, r19
 648:	48 17       	cp	r20, r24
 64a:	59 07       	cpc	r21, r25
 64c:	4c f1       	brlt	.+82     	; 0x6a0 <hk2_state_machine+0x13a>
 64e:	81 e0       	ldi	r24, 0x01	; 1
 650:	80 93 e7 00 	sts	0x00E7, r24	; 0x8000e7 <hkopt>
 654:	83 ec       	ldi	r24, 0xC3	; 195
 656:	90 e0       	ldi	r25, 0x00	; 0
 658:	00 d3       	rcall	.+1536   	; 0xc5a <stoptimer_init>
 65a:	82 e9       	ldi	r24, 0x92	; 146
 65c:	90 e0       	ldi	r25, 0x00	; 0
 65e:	1f c0       	rjmp	.+62     	; 0x69e <hk2_state_machine+0x138>
 660:	28 1b       	sub	r18, r24
 662:	39 0b       	sbc	r19, r25
 664:	80 91 f0 00 	lds	r24, 0x00F0	; 0x8000f0 <hkopt+0x9>
 668:	82 9f       	mul	r24, r18
 66a:	a0 01       	movw	r20, r0
 66c:	83 9f       	mul	r24, r19
 66e:	50 0d       	add	r21, r0
 670:	11 24       	eor	r1, r1
 672:	28 ee       	ldi	r18, 0xE8	; 232
 674:	33 e0       	ldi	r19, 0x03	; 3
 676:	42 9f       	mul	r20, r18
 678:	c0 01       	movw	r24, r0
 67a:	43 9f       	mul	r20, r19
 67c:	90 0d       	add	r25, r0
 67e:	52 9f       	mul	r21, r18
 680:	90 0d       	add	r25, r0
 682:	11 24       	eor	r1, r1
 684:	90 93 ef 00 	sts	0x00EF, r25	; 0x8000ef <hkopt+0x8>
 688:	80 93 ee 00 	sts	0x00EE, r24	; 0x8000ee <hkopt+0x7>
 68c:	96 9a       	sbi	0x12, 6	; 18
 68e:	83 e0       	ldi	r24, 0x03	; 3
 690:	80 93 e7 00 	sts	0x00E7, r24	; 0x8000e7 <hkopt>
 694:	83 ec       	ldi	r24, 0xC3	; 195
 696:	90 e0       	ldi	r25, 0x00	; 0
 698:	e0 d2       	rcall	.+1472   	; 0xc5a <stoptimer_init>
 69a:	87 e9       	ldi	r24, 0x97	; 151
 69c:	90 e0       	ldi	r25, 0x00	; 0
 69e:	9a c3       	rjmp	.+1844   	; 0xdd4 <uart_puts>
 6a0:	82 1b       	sub	r24, r18
 6a2:	93 0b       	sbc	r25, r19
 6a4:	20 91 f0 00 	lds	r18, 0x00F0	; 0x8000f0 <hkopt+0x9>
 6a8:	28 9f       	mul	r18, r24
 6aa:	a0 01       	movw	r20, r0
 6ac:	29 9f       	mul	r18, r25
 6ae:	50 0d       	add	r21, r0
 6b0:	11 24       	eor	r1, r1
 6b2:	28 ee       	ldi	r18, 0xE8	; 232
 6b4:	33 e0       	ldi	r19, 0x03	; 3
 6b6:	42 9f       	mul	r20, r18
 6b8:	c0 01       	movw	r24, r0
 6ba:	43 9f       	mul	r20, r19
 6bc:	90 0d       	add	r25, r0
 6be:	52 9f       	mul	r21, r18
 6c0:	90 0d       	add	r25, r0
 6c2:	11 24       	eor	r1, r1
 6c4:	90 93 ef 00 	sts	0x00EF, r25	; 0x8000ef <hkopt+0x8>
 6c8:	80 93 ee 00 	sts	0x00EE, r24	; 0x8000ee <hkopt+0x7>
 6cc:	97 9a       	sbi	0x12, 7	; 18
 6ce:	80 ea       	ldi	r24, 0xA0	; 160
 6d0:	90 e0       	ldi	r25, 0x00	; 0
 6d2:	80 d3       	rcall	.+1792   	; 0xdd4 <uart_puts>
 6d4:	83 e0       	ldi	r24, 0x03	; 3
 6d6:	20 c0       	rjmp	.+64     	; 0x718 <hk2_state_machine+0x1b2>
 6d8:	60 91 ee 00 	lds	r22, 0x00EE	; 0x8000ee <hkopt+0x7>
 6dc:	70 91 ef 00 	lds	r23, 0x00EF	; 0x8000ef <hkopt+0x8>
 6e0:	83 ec       	ldi	r24, 0xC3	; 195
 6e2:	90 e0       	ldi	r25, 0x00	; 0
 6e4:	ca d2       	rcall	.+1428   	; 0xc7a <stoptimer_expired>
 6e6:	88 23       	and	r24, r24
 6e8:	f9 f0       	breq	.+62     	; 0x728 <hk2_state_machine+0x1c2>
 6ea:	81 e0       	ldi	r24, 0x01	; 1
 6ec:	80 93 e7 00 	sts	0x00E7, r24	; 0x8000e7 <hkopt>
 6f0:	83 ec       	ldi	r24, 0xC3	; 195
 6f2:	90 e0       	ldi	r25, 0x00	; 0
 6f4:	b2 d2       	rcall	.+1380   	; 0xc5a <stoptimer_init>
 6f6:	82 b3       	in	r24, 0x12	; 18
 6f8:	8f 73       	andi	r24, 0x3F	; 63
 6fa:	82 bb       	out	0x12, r24	; 18
 6fc:	89 ea       	ldi	r24, 0xA9	; 169
 6fe:	90 e0       	ldi	r25, 0x00	; 0
 700:	ce cf       	rjmp	.-100    	; 0x69e <hk2_state_machine+0x138>
 702:	80 91 e8 00 	lds	r24, 0x00E8	; 0x8000e8 <hkopt+0x1>
 706:	80 fd       	sbrc	r24, 0
 708:	04 c0       	rjmp	.+8      	; 0x712 <hk2_state_machine+0x1ac>
 70a:	10 92 e7 00 	sts	0x00E7, r1	; 0x8000e7 <hkopt>
 70e:	91 98       	cbi	0x12, 1	; 18
 710:	08 95       	ret
 712:	81 ff       	sbrs	r24, 1
 714:	09 c0       	rjmp	.+18     	; 0x728 <hk2_state_machine+0x1c2>
 716:	81 e0       	ldi	r24, 0x01	; 1
 718:	80 93 e7 00 	sts	0x00E7, r24	; 0x8000e7 <hkopt>
 71c:	83 ec       	ldi	r24, 0xC3	; 195
 71e:	90 e0       	ldi	r25, 0x00	; 0
 720:	9c c2       	rjmp	.+1336   	; 0xc5a <stoptimer_init>
 722:	84 e0       	ldi	r24, 0x04	; 4
 724:	80 93 e7 00 	sts	0x00E7, r24	; 0x8000e7 <hkopt>
 728:	08 95       	ret

0000072a <main>:
 72a:	49 d3       	rcall	.+1682   	; 0xdbe <uart_init>
 72c:	85 eb       	ldi	r24, 0xB5	; 181
 72e:	90 e0       	ldi	r25, 0x00	; 0
 730:	51 d3       	rcall	.+1698   	; 0xdd4 <uart_puts>
 732:	fc cf       	rjmp	.-8      	; 0x72c <main+0x2>

00000734 <spi_putc>:
 734:	8f b9       	out	0x0f, r24	; 15
 736:	77 9b       	sbis	0x0e, 7	; 14
 738:	fe cf       	rjmp	.-4      	; 0x736 <spi_putc+0x2>
 73a:	8f b1       	in	r24, 0x0f	; 15
 73c:	08 95       	ret

0000073e <mcp2515_write_register>:
 73e:	cf 93       	push	r28
 740:	df 93       	push	r29
 742:	d8 2f       	mov	r29, r24
 744:	c6 2f       	mov	r28, r22
 746:	c2 98       	cbi	0x18, 2	; 24
 748:	82 e0       	ldi	r24, 0x02	; 2
 74a:	f4 df       	rcall	.-24     	; 0x734 <spi_putc>
 74c:	8d 2f       	mov	r24, r29
 74e:	f2 df       	rcall	.-28     	; 0x734 <spi_putc>
 750:	8c 2f       	mov	r24, r28
 752:	f0 df       	rcall	.-32     	; 0x734 <spi_putc>
 754:	c2 9a       	sbi	0x18, 2	; 24
 756:	df 91       	pop	r29
 758:	cf 91       	pop	r28
 75a:	08 95       	ret

0000075c <mcp2515_read_register>:
 75c:	cf 93       	push	r28
 75e:	c8 2f       	mov	r28, r24
 760:	c2 98       	cbi	0x18, 2	; 24
 762:	83 e0       	ldi	r24, 0x03	; 3
 764:	e7 df       	rcall	.-50     	; 0x734 <spi_putc>
 766:	8c 2f       	mov	r24, r28
 768:	e5 df       	rcall	.-54     	; 0x734 <spi_putc>
 76a:	8f ef       	ldi	r24, 0xFF	; 255
 76c:	e3 df       	rcall	.-58     	; 0x734 <spi_putc>
 76e:	c2 9a       	sbi	0x18, 2	; 24
 770:	cf 91       	pop	r28
 772:	08 95       	ret

00000774 <mcp2515_bit_modify>:
 774:	1f 93       	push	r17
 776:	cf 93       	push	r28
 778:	df 93       	push	r29
 77a:	18 2f       	mov	r17, r24
 77c:	d6 2f       	mov	r29, r22
 77e:	c4 2f       	mov	r28, r20
 780:	c2 98       	cbi	0x18, 2	; 24
 782:	85 e0       	ldi	r24, 0x05	; 5
 784:	d7 df       	rcall	.-82     	; 0x734 <spi_putc>
 786:	81 2f       	mov	r24, r17
 788:	d5 df       	rcall	.-86     	; 0x734 <spi_putc>
 78a:	8d 2f       	mov	r24, r29
 78c:	d3 df       	rcall	.-90     	; 0x734 <spi_putc>
 78e:	8c 2f       	mov	r24, r28
 790:	d1 df       	rcall	.-94     	; 0x734 <spi_putc>
 792:	c2 9a       	sbi	0x18, 2	; 24
 794:	df 91       	pop	r29
 796:	cf 91       	pop	r28
 798:	1f 91       	pop	r17
 79a:	08 95       	ret

0000079c <mcp2515_read_status>:
 79c:	c2 98       	cbi	0x18, 2	; 24
 79e:	ca df       	rcall	.-108    	; 0x734 <spi_putc>
 7a0:	8f ef       	ldi	r24, 0xFF	; 255
 7a2:	c8 df       	rcall	.-112    	; 0x734 <spi_putc>
 7a4:	c2 9a       	sbi	0x18, 2	; 24
 7a6:	08 95       	ret

000007a8 <mcp2515_init>:
 7a8:	c2 9a       	sbi	0x18, 2	; 24
 7aa:	ba 9a       	sbi	0x17, 2	; 23
 7ac:	c5 98       	cbi	0x18, 5	; 24
 7ae:	c3 98       	cbi	0x18, 3	; 24
 7b0:	c4 98       	cbi	0x18, 4	; 24
 7b2:	bd 9a       	sbi	0x17, 5	; 23
 7b4:	bb 9a       	sbi	0x17, 3	; 23
 7b6:	bc 98       	cbi	0x17, 4	; 23
 7b8:	8a 98       	cbi	0x11, 2	; 17
 7ba:	92 9a       	sbi	0x12, 2	; 18
 7bc:	83 e5       	ldi	r24, 0x53	; 83
 7be:	8d b9       	out	0x0d, r24	; 13
 7c0:	1e b8       	out	0x0e, r1	; 14
 7c2:	c2 98       	cbi	0x18, 2	; 24
 7c4:	80 ec       	ldi	r24, 0xC0	; 192
 7c6:	b6 df       	rcall	.-148    	; 0x734 <spi_putc>
 7c8:	c2 9a       	sbi	0x18, 2	; 24
 7ca:	81 e2       	ldi	r24, 0x21	; 33
 7cc:	8a 95       	dec	r24
 7ce:	f1 f7       	brne	.-4      	; 0x7cc <mcp2515_init+0x24>
 7d0:	00 00       	nop
 7d2:	c2 98       	cbi	0x18, 2	; 24
 7d4:	82 e0       	ldi	r24, 0x02	; 2
 7d6:	ae df       	rcall	.-164    	; 0x734 <spi_putc>
 7d8:	88 e2       	ldi	r24, 0x28	; 40
 7da:	ac df       	rcall	.-168    	; 0x734 <spi_putc>
 7dc:	85 e0       	ldi	r24, 0x05	; 5
 7de:	aa df       	rcall	.-172    	; 0x734 <spi_putc>
 7e0:	81 eb       	ldi	r24, 0xB1	; 177
 7e2:	a8 df       	rcall	.-176    	; 0x734 <spi_putc>
 7e4:	81 e0       	ldi	r24, 0x01	; 1
 7e6:	a6 df       	rcall	.-180    	; 0x734 <spi_putc>
 7e8:	83 e0       	ldi	r24, 0x03	; 3
 7ea:	a4 df       	rcall	.-184    	; 0x734 <spi_putc>
 7ec:	c2 9a       	sbi	0x18, 2	; 24
 7ee:	8a e2       	ldi	r24, 0x2A	; 42
 7f0:	b5 df       	rcall	.-150    	; 0x75c <mcp2515_read_register>
 7f2:	81 30       	cpi	r24, 0x01	; 1
 7f4:	89 f4       	brne	.+34     	; 0x818 <mcp2515_init+0x70>
 7f6:	60 e0       	ldi	r22, 0x00	; 0
 7f8:	8c e0       	ldi	r24, 0x0C	; 12
 7fa:	a1 df       	rcall	.-190    	; 0x73e <mcp2515_write_register>
 7fc:	60 e0       	ldi	r22, 0x00	; 0
 7fe:	8d e0       	ldi	r24, 0x0D	; 13
 800:	9e df       	rcall	.-196    	; 0x73e <mcp2515_write_register>
 802:	60 e6       	ldi	r22, 0x60	; 96
 804:	80 e6       	ldi	r24, 0x60	; 96
 806:	9b df       	rcall	.-202    	; 0x73e <mcp2515_write_register>
 808:	60 e6       	ldi	r22, 0x60	; 96
 80a:	80 e7       	ldi	r24, 0x70	; 112
 80c:	98 df       	rcall	.-208    	; 0x73e <mcp2515_write_register>
 80e:	60 e0       	ldi	r22, 0x00	; 0
 810:	8f e0       	ldi	r24, 0x0F	; 15
 812:	95 df       	rcall	.-214    	; 0x73e <mcp2515_write_register>
 814:	81 e0       	ldi	r24, 0x01	; 1
 816:	08 95       	ret
 818:	80 e0       	ldi	r24, 0x00	; 0
 81a:	08 95       	ret

0000081c <mcp2515_check_message>:
 81c:	80 b3       	in	r24, 0x10	; 16
 81e:	82 fb       	bst	r24, 2
 820:	88 27       	eor	r24, r24
 822:	80 f9       	bld	r24, 0
 824:	91 e0       	ldi	r25, 0x01	; 1
 826:	89 27       	eor	r24, r25
 828:	08 95       	ret

0000082a <mcp2515_check_free_buffer>:
 82a:	80 ea       	ldi	r24, 0xA0	; 160
 82c:	b7 df       	rcall	.-146    	; 0x79c <mcp2515_read_status>
 82e:	98 2f       	mov	r25, r24
 830:	94 75       	andi	r25, 0x54	; 84
 832:	81 e0       	ldi	r24, 0x01	; 1
 834:	94 35       	cpi	r25, 0x54	; 84
 836:	09 f4       	brne	.+2      	; 0x83a <mcp2515_check_free_buffer+0x10>
 838:	80 e0       	ldi	r24, 0x00	; 0
 83a:	08 95       	ret

0000083c <mcp2515_get_message>:
 83c:	ef 92       	push	r14
 83e:	ff 92       	push	r15
 840:	0f 93       	push	r16
 842:	1f 93       	push	r17
 844:	cf 93       	push	r28
 846:	df 93       	push	r29
 848:	1f 92       	push	r1
 84a:	cd b7       	in	r28, 0x3d	; 61
 84c:	de b7       	in	r29, 0x3e	; 62
 84e:	8c 01       	movw	r16, r24
 850:	80 eb       	ldi	r24, 0xB0	; 176
 852:	a4 df       	rcall	.-184    	; 0x79c <mcp2515_read_status>
 854:	98 2f       	mov	r25, r24
 856:	89 83       	std	Y+1, r24	; 0x01
 858:	80 74       	andi	r24, 0x40	; 64
 85a:	96 fd       	sbrc	r25, 6
 85c:	04 c0       	rjmp	.+8      	; 0x866 <mcp2515_get_message+0x2a>
 85e:	97 ff       	sbrs	r25, 7
 860:	49 c0       	rjmp	.+146    	; 0x8f4 <mcp2515_get_message+0xb8>
 862:	84 e9       	ldi	r24, 0x94	; 148
 864:	01 c0       	rjmp	.+2      	; 0x868 <mcp2515_get_message+0x2c>
 866:	80 e9       	ldi	r24, 0x90	; 144
 868:	c2 98       	cbi	0x18, 2	; 24
 86a:	64 df       	rcall	.-312    	; 0x734 <spi_putc>
 86c:	8f ef       	ldi	r24, 0xFF	; 255
 86e:	62 df       	rcall	.-316    	; 0x734 <spi_putc>
 870:	28 e0       	ldi	r18, 0x08	; 8
 872:	82 9f       	mul	r24, r18
 874:	c0 01       	movw	r24, r0
 876:	11 24       	eor	r1, r1
 878:	f8 01       	movw	r30, r16
 87a:	91 83       	std	Z+1, r25	; 0x01
 87c:	80 83       	st	Z, r24
 87e:	8f ef       	ldi	r24, 0xFF	; 255
 880:	59 df       	rcall	.-334    	; 0x734 <spi_putc>
 882:	28 2f       	mov	r18, r24
 884:	22 95       	swap	r18
 886:	26 95       	lsr	r18
 888:	27 70       	andi	r18, 0x07	; 7
 88a:	f8 01       	movw	r30, r16
 88c:	80 81       	ld	r24, Z
 88e:	91 81       	ldd	r25, Z+1	; 0x01
 890:	82 2b       	or	r24, r18
 892:	91 83       	std	Z+1, r25	; 0x01
 894:	80 83       	st	Z, r24
 896:	8f ef       	ldi	r24, 0xFF	; 255
 898:	4d df       	rcall	.-358    	; 0x734 <spi_putc>
 89a:	8f ef       	ldi	r24, 0xFF	; 255
 89c:	4b df       	rcall	.-362    	; 0x734 <spi_putc>
 89e:	8f ef       	ldi	r24, 0xFF	; 255
 8a0:	49 df       	rcall	.-366    	; 0x734 <spi_putc>
 8a2:	8f 70       	andi	r24, 0x0F	; 15
 8a4:	e8 2e       	mov	r14, r24
 8a6:	98 2f       	mov	r25, r24
 8a8:	99 0f       	add	r25, r25
 8aa:	f8 01       	movw	r30, r16
 8ac:	82 81       	ldd	r24, Z+2	; 0x02
 8ae:	81 7e       	andi	r24, 0xE1	; 225
 8b0:	89 2b       	or	r24, r25
 8b2:	82 83       	std	Z+2, r24	; 0x02
 8b4:	99 81       	ldd	r25, Y+1	; 0x01
 8b6:	93 fb       	bst	r25, 3
 8b8:	99 27       	eor	r25, r25
 8ba:	90 f9       	bld	r25, 0
 8bc:	90 fb       	bst	r25, 0
 8be:	80 f9       	bld	r24, 0
 8c0:	82 83       	std	Z+2, r24	; 0x02
 8c2:	0d 5f       	subi	r16, 0xFD	; 253
 8c4:	1f 4f       	sbci	r17, 0xFF	; 255
 8c6:	f1 2c       	mov	r15, r1
 8c8:	fe 14       	cp	r15, r14
 8ca:	39 f0       	breq	.+14     	; 0x8da <mcp2515_get_message+0x9e>
 8cc:	8f ef       	ldi	r24, 0xFF	; 255
 8ce:	32 df       	rcall	.-412    	; 0x734 <spi_putc>
 8d0:	f8 01       	movw	r30, r16
 8d2:	81 93       	st	Z+, r24
 8d4:	8f 01       	movw	r16, r30
 8d6:	f3 94       	inc	r15
 8d8:	f7 cf       	rjmp	.-18     	; 0x8c8 <mcp2515_get_message+0x8c>
 8da:	c2 9a       	sbi	0x18, 2	; 24
 8dc:	89 81       	ldd	r24, Y+1	; 0x01
 8de:	40 e0       	ldi	r20, 0x00	; 0
 8e0:	86 ff       	sbrs	r24, 6
 8e2:	02 c0       	rjmp	.+4      	; 0x8e8 <mcp2515_get_message+0xac>
 8e4:	61 e0       	ldi	r22, 0x01	; 1
 8e6:	01 c0       	rjmp	.+2      	; 0x8ea <mcp2515_get_message+0xae>
 8e8:	62 e0       	ldi	r22, 0x02	; 2
 8ea:	8c e2       	ldi	r24, 0x2C	; 44
 8ec:	43 df       	rcall	.-378    	; 0x774 <mcp2515_bit_modify>
 8ee:	89 81       	ldd	r24, Y+1	; 0x01
 8f0:	87 70       	andi	r24, 0x07	; 7
 8f2:	8f 5f       	subi	r24, 0xFF	; 255
 8f4:	0f 90       	pop	r0
 8f6:	df 91       	pop	r29
 8f8:	cf 91       	pop	r28
 8fa:	1f 91       	pop	r17
 8fc:	0f 91       	pop	r16
 8fe:	ff 90       	pop	r15
 900:	ef 90       	pop	r14
 902:	08 95       	ret

00000904 <mcp2515_send_message>:
 904:	df 92       	push	r13
 906:	ef 92       	push	r14
 908:	ff 92       	push	r15
 90a:	0f 93       	push	r16
 90c:	1f 93       	push	r17
 90e:	cf 93       	push	r28
 910:	df 93       	push	r29
 912:	1f 92       	push	r1
 914:	cd b7       	in	r28, 0x3d	; 61
 916:	de b7       	in	r29, 0x3e	; 62
 918:	7c 01       	movw	r14, r24
 91a:	80 ea       	ldi	r24, 0xA0	; 160
 91c:	3f df       	rcall	.-386    	; 0x79c <mcp2515_read_status>
 91e:	89 83       	std	Y+1, r24	; 0x01
 920:	89 81       	ldd	r24, Y+1	; 0x01
 922:	82 ff       	sbrs	r24, 2
 924:	08 c0       	rjmp	.+16     	; 0x936 <mcp2515_send_message+0x32>
 926:	89 81       	ldd	r24, Y+1	; 0x01
 928:	84 ff       	sbrs	r24, 4
 92a:	07 c0       	rjmp	.+14     	; 0x93a <mcp2515_send_message+0x36>
 92c:	89 81       	ldd	r24, Y+1	; 0x01
 92e:	86 fd       	sbrc	r24, 6
 930:	41 c0       	rjmp	.+130    	; 0x9b4 <mcp2515_send_message+0xb0>
 932:	14 e0       	ldi	r17, 0x04	; 4
 934:	03 c0       	rjmp	.+6      	; 0x93c <mcp2515_send_message+0x38>
 936:	10 e0       	ldi	r17, 0x00	; 0
 938:	01 c0       	rjmp	.+2      	; 0x93c <mcp2515_send_message+0x38>
 93a:	12 e0       	ldi	r17, 0x02	; 2
 93c:	c2 98       	cbi	0x18, 2	; 24
 93e:	81 2f       	mov	r24, r17
 940:	80 64       	ori	r24, 0x40	; 64
 942:	f8 de       	rcall	.-528    	; 0x734 <spi_putc>
 944:	f7 01       	movw	r30, r14
 946:	80 81       	ld	r24, Z
 948:	91 81       	ldd	r25, Z+1	; 0x01
 94a:	23 e0       	ldi	r18, 0x03	; 3
 94c:	96 95       	lsr	r25
 94e:	87 95       	ror	r24
 950:	2a 95       	dec	r18
 952:	e1 f7       	brne	.-8      	; 0x94c <mcp2515_send_message+0x48>
 954:	ef de       	rcall	.-546    	; 0x734 <spi_putc>
 956:	f7 01       	movw	r30, r14
 958:	80 81       	ld	r24, Z
 95a:	82 95       	swap	r24
 95c:	88 0f       	add	r24, r24
 95e:	80 7e       	andi	r24, 0xE0	; 224
 960:	e9 de       	rcall	.-558    	; 0x734 <spi_putc>
 962:	80 e0       	ldi	r24, 0x00	; 0
 964:	e7 de       	rcall	.-562    	; 0x734 <spi_putc>
 966:	80 e0       	ldi	r24, 0x00	; 0
 968:	e5 de       	rcall	.-566    	; 0x734 <spi_putc>
 96a:	f7 01       	movw	r30, r14
 96c:	82 81       	ldd	r24, Z+2	; 0x02
 96e:	08 2f       	mov	r16, r24
 970:	06 95       	lsr	r16
 972:	0f 70       	andi	r16, 0x0F	; 15
 974:	80 ff       	sbrs	r24, 0
 976:	04 c0       	rjmp	.+8      	; 0x980 <mcp2515_send_message+0x7c>
 978:	80 2f       	mov	r24, r16
 97a:	80 64       	ori	r24, 0x40	; 64
 97c:	db de       	rcall	.-586    	; 0x734 <spi_putc>
 97e:	0e c0       	rjmp	.+28     	; 0x99c <mcp2515_send_message+0x98>
 980:	80 2f       	mov	r24, r16
 982:	d8 de       	rcall	.-592    	; 0x734 <spi_putc>
 984:	f3 e0       	ldi	r31, 0x03	; 3
 986:	ef 0e       	add	r14, r31
 988:	f1 1c       	adc	r15, r1
 98a:	d1 2c       	mov	r13, r1
 98c:	d0 16       	cp	r13, r16
 98e:	31 f0       	breq	.+12     	; 0x99c <mcp2515_send_message+0x98>
 990:	f7 01       	movw	r30, r14
 992:	81 91       	ld	r24, Z+
 994:	7f 01       	movw	r14, r30
 996:	ce de       	rcall	.-612    	; 0x734 <spi_putc>
 998:	d3 94       	inc	r13
 99a:	f8 cf       	rjmp	.-16     	; 0x98c <mcp2515_send_message+0x88>
 99c:	c2 9a       	sbi	0x18, 2	; 24
 99e:	00 00       	nop
 9a0:	c2 98       	cbi	0x18, 2	; 24
 9a2:	11 11       	cpse	r17, r1
 9a4:	01 c0       	rjmp	.+2      	; 0x9a8 <mcp2515_send_message+0xa4>
 9a6:	11 e0       	ldi	r17, 0x01	; 1
 9a8:	81 2f       	mov	r24, r17
 9aa:	80 68       	ori	r24, 0x80	; 128
 9ac:	c3 de       	rcall	.-634    	; 0x734 <spi_putc>
 9ae:	c2 9a       	sbi	0x18, 2	; 24
 9b0:	81 2f       	mov	r24, r17
 9b2:	01 c0       	rjmp	.+2      	; 0x9b6 <mcp2515_send_message+0xb2>
 9b4:	80 e0       	ldi	r24, 0x00	; 0
 9b6:	0f 90       	pop	r0
 9b8:	df 91       	pop	r29
 9ba:	cf 91       	pop	r28
 9bc:	1f 91       	pop	r17
 9be:	0f 91       	pop	r16
 9c0:	ff 90       	pop	r15
 9c2:	ef 90       	pop	r14
 9c4:	df 90       	pop	r13
 9c6:	08 95       	ret

000009c8 <sendCommand>:
 9c8:	cf 93       	push	r28
 9ca:	c8 2f       	mov	r28, r24
 9cc:	88 e7       	ldi	r24, 0x78	; 120
 9ce:	0e 94 6b 06 	call	0xcd6	; 0xcd6 <i2c_start>
 9d2:	80 e0       	ldi	r24, 0x00	; 0
 9d4:	0e 94 ba 06 	call	0xd74	; 0xd74 <i2c_write>
 9d8:	8c 2f       	mov	r24, r28
 9da:	0e 94 ba 06 	call	0xd74	; 0xd74 <i2c_write>
 9de:	cf 91       	pop	r28
 9e0:	0c 94 b6 06 	jmp	0xd6c	; 0xd6c <i2c_stop>

000009e4 <init_ssd1306>:
 9e4:	0e 94 65 06 	call	0xcca	; 0xcca <i2c_init>
 9e8:	88 e7       	ldi	r24, 0x78	; 120
 9ea:	0e 94 6b 06 	call	0xcd6	; 0xcd6 <i2c_start>
 9ee:	8e ea       	ldi	r24, 0xAE	; 174
 9f0:	0e 94 e4 04 	call	0x9c8	; 0x9c8 <sendCommand>
 9f4:	85 ed       	ldi	r24, 0xD5	; 213
 9f6:	0e 94 e4 04 	call	0x9c8	; 0x9c8 <sendCommand>
 9fa:	80 e8       	ldi	r24, 0x80	; 128
 9fc:	0e 94 e4 04 	call	0x9c8	; 0x9c8 <sendCommand>
 a00:	88 ea       	ldi	r24, 0xA8	; 168
 a02:	0e 94 e4 04 	call	0x9c8	; 0x9c8 <sendCommand>
 a06:	8f e1       	ldi	r24, 0x1F	; 31
 a08:	0e 94 e4 04 	call	0x9c8	; 0x9c8 <sendCommand>
 a0c:	83 ed       	ldi	r24, 0xD3	; 211
 a0e:	0e 94 e4 04 	call	0x9c8	; 0x9c8 <sendCommand>
 a12:	80 e0       	ldi	r24, 0x00	; 0
 a14:	0e 94 e4 04 	call	0x9c8	; 0x9c8 <sendCommand>
 a18:	80 e4       	ldi	r24, 0x40	; 64
 a1a:	0e 94 e4 04 	call	0x9c8	; 0x9c8 <sendCommand>
 a1e:	8d e8       	ldi	r24, 0x8D	; 141
 a20:	0e 94 e4 04 	call	0x9c8	; 0x9c8 <sendCommand>
 a24:	84 e1       	ldi	r24, 0x14	; 20
 a26:	0e 94 e4 04 	call	0x9c8	; 0x9c8 <sendCommand>
 a2a:	80 e2       	ldi	r24, 0x20	; 32
 a2c:	0e 94 e4 04 	call	0x9c8	; 0x9c8 <sendCommand>
 a30:	80 e0       	ldi	r24, 0x00	; 0
 a32:	0e 94 e4 04 	call	0x9c8	; 0x9c8 <sendCommand>
 a36:	81 ea       	ldi	r24, 0xA1	; 161
 a38:	0e 94 e4 04 	call	0x9c8	; 0x9c8 <sendCommand>
 a3c:	88 ec       	ldi	r24, 0xC8	; 200
 a3e:	0e 94 e4 04 	call	0x9c8	; 0x9c8 <sendCommand>
 a42:	8a ed       	ldi	r24, 0xDA	; 218
 a44:	0e 94 e4 04 	call	0x9c8	; 0x9c8 <sendCommand>
 a48:	82 e0       	ldi	r24, 0x02	; 2
 a4a:	0e 94 e4 04 	call	0x9c8	; 0x9c8 <sendCommand>
 a4e:	81 e8       	ldi	r24, 0x81	; 129
 a50:	0e 94 e4 04 	call	0x9c8	; 0x9c8 <sendCommand>
 a54:	8f e8       	ldi	r24, 0x8F	; 143
 a56:	0e 94 e4 04 	call	0x9c8	; 0x9c8 <sendCommand>
 a5a:	89 ed       	ldi	r24, 0xD9	; 217
 a5c:	0e 94 e4 04 	call	0x9c8	; 0x9c8 <sendCommand>
 a60:	81 ef       	ldi	r24, 0xF1	; 241
 a62:	0e 94 e4 04 	call	0x9c8	; 0x9c8 <sendCommand>
 a66:	8b ed       	ldi	r24, 0xDB	; 219
 a68:	0e 94 e4 04 	call	0x9c8	; 0x9c8 <sendCommand>
 a6c:	80 e4       	ldi	r24, 0x40	; 64
 a6e:	0e 94 e4 04 	call	0x9c8	; 0x9c8 <sendCommand>
 a72:	84 ea       	ldi	r24, 0xA4	; 164
 a74:	0e 94 e4 04 	call	0x9c8	; 0x9c8 <sendCommand>
 a78:	86 ea       	ldi	r24, 0xA6	; 166
 a7a:	0e 94 e4 04 	call	0x9c8	; 0x9c8 <sendCommand>
 a7e:	8e e2       	ldi	r24, 0x2E	; 46
 a80:	0e 94 e4 04 	call	0x9c8	; 0x9c8 <sendCommand>
 a84:	8f ea       	ldi	r24, 0xAF	; 175
 a86:	0e 94 e4 04 	call	0x9c8	; 0x9c8 <sendCommand>
 a8a:	0c 94 b6 06 	jmp	0xd6c	; 0xd6c <i2c_stop>

00000a8e <clear>:
 a8e:	0f 93       	push	r16
 a90:	1f 93       	push	r17
 a92:	cf 93       	push	r28
 a94:	df 93       	push	r29
 a96:	81 e2       	ldi	r24, 0x21	; 33
 a98:	0e 94 e4 04 	call	0x9c8	; 0x9c8 <sendCommand>
 a9c:	80 e0       	ldi	r24, 0x00	; 0
 a9e:	0e 94 e4 04 	call	0x9c8	; 0x9c8 <sendCommand>
 aa2:	8f e7       	ldi	r24, 0x7F	; 127
 aa4:	0e 94 e4 04 	call	0x9c8	; 0x9c8 <sendCommand>
 aa8:	82 e2       	ldi	r24, 0x22	; 34
 aaa:	0e 94 e4 04 	call	0x9c8	; 0x9c8 <sendCommand>
 aae:	80 e0       	ldi	r24, 0x00	; 0
 ab0:	0e 94 e4 04 	call	0x9c8	; 0x9c8 <sendCommand>
 ab4:	83 e0       	ldi	r24, 0x03	; 3
 ab6:	0e 94 e4 04 	call	0x9c8	; 0x9c8 <sendCommand>
 aba:	00 91 b8 00 	lds	r16, 0x00B8	; 0x8000b8 <lut+0x55>
 abe:	8c e0       	ldi	r24, 0x0C	; 12
 ac0:	80 93 b8 00 	sts	0x00B8, r24	; 0x8000b8 <lut+0x55>
 ac4:	c0 e0       	ldi	r28, 0x00	; 0
 ac6:	d0 e0       	ldi	r29, 0x00	; 0
 ac8:	88 e7       	ldi	r24, 0x78	; 120
 aca:	0e 94 6b 06 	call	0xcd6	; 0xcd6 <i2c_start>
 ace:	88 23       	and	r24, r24
 ad0:	19 f0       	breq	.+6      	; 0xad8 <clear+0x4a>
 ad2:	0e 94 b6 06 	call	0xd6c	; 0xd6c <i2c_stop>
 ad6:	0e c0       	rjmp	.+28     	; 0xaf4 <clear+0x66>
 ad8:	80 e4       	ldi	r24, 0x40	; 64
 ada:	0e 94 ba 06 	call	0xd74	; 0xd74 <i2c_write>
 ade:	10 e1       	ldi	r17, 0x10	; 16
 ae0:	80 e0       	ldi	r24, 0x00	; 0
 ae2:	0e 94 ba 06 	call	0xd74	; 0xd74 <i2c_write>
 ae6:	11 50       	subi	r17, 0x01	; 1
 ae8:	d9 f7       	brne	.-10     	; 0xae0 <clear+0x52>
 aea:	2f 96       	adiw	r28, 0x0f	; 15
 aec:	0e 94 b6 06 	call	0xd6c	; 0xd6c <i2c_stop>
 af0:	00 93 b8 00 	sts	0x00B8, r16	; 0x8000b8 <lut+0x55>
 af4:	21 96       	adiw	r28, 0x01	; 1
 af6:	c1 15       	cp	r28, r1
 af8:	82 e0       	ldi	r24, 0x02	; 2
 afa:	d8 07       	cpc	r29, r24
 afc:	28 f3       	brcs	.-54     	; 0xac8 <clear+0x3a>
 afe:	df 91       	pop	r29
 b00:	cf 91       	pop	r28
 b02:	1f 91       	pop	r17
 b04:	0f 91       	pop	r16
 b06:	08 95       	ret

00000b08 <setCursor>:
 b08:	cf 93       	push	r28
 b0a:	df 93       	push	r29
 b0c:	c8 2f       	mov	r28, r24
 b0e:	d6 2f       	mov	r29, r22
 b10:	81 e2       	ldi	r24, 0x21	; 33
 b12:	0e 94 e4 04 	call	0x9c8	; 0x9c8 <sendCommand>
 b16:	8d 2f       	mov	r24, r29
 b18:	0e 94 e4 04 	call	0x9c8	; 0x9c8 <sendCommand>
 b1c:	8f e7       	ldi	r24, 0x7F	; 127
 b1e:	0e 94 e4 04 	call	0x9c8	; 0x9c8 <sendCommand>
 b22:	82 e2       	ldi	r24, 0x22	; 34
 b24:	0e 94 e4 04 	call	0x9c8	; 0x9c8 <sendCommand>
 b28:	8c 2f       	mov	r24, r28
 b2a:	0e 94 e4 04 	call	0x9c8	; 0x9c8 <sendCommand>
 b2e:	83 e0       	ldi	r24, 0x03	; 3
 b30:	df 91       	pop	r29
 b32:	cf 91       	pop	r28
 b34:	0c 94 e4 04 	jmp	0x9c8	; 0x9c8 <sendCommand>

00000b38 <write_bytes>:
 b38:	ff 92       	push	r15
 b3a:	0f 93       	push	r16
 b3c:	1f 93       	push	r17
 b3e:	cf 93       	push	r28
 b40:	df 93       	push	r29
 b42:	06 2f       	mov	r16, r22
 b44:	88 e7       	ldi	r24, 0x78	; 120
 b46:	0e 94 6b 06 	call	0xcd6	; 0xcd6 <i2c_start>
 b4a:	80 e4       	ldi	r24, 0x40	; 64
 b4c:	0e 94 ba 06 	call	0xd74	; 0xd74 <i2c_write>
 b50:	10 e0       	ldi	r17, 0x00	; 0
 b52:	c0 e0       	ldi	r28, 0x00	; 0
 b54:	d0 e0       	ldi	r29, 0x00	; 0
 b56:	85 e0       	ldi	r24, 0x05	; 5
 b58:	f8 2e       	mov	r15, r24
 b5a:	8c 2f       	mov	r24, r28
 b5c:	c0 17       	cp	r28, r16
 b5e:	d1 07       	cpc	r29, r17
 b60:	81 f0       	breq	.+32     	; 0xb82 <write_bytes+0x4a>
 b62:	6f 2d       	mov	r22, r15
 b64:	0e 94 fe 06 	call	0xdfc	; 0xdfc <__udivmodqi4>
 b68:	91 11       	cpse	r25, r1
 b6a:	03 c0       	rjmp	.+6      	; 0xb72 <write_bytes+0x3a>
 b6c:	80 e0       	ldi	r24, 0x00	; 0
 b6e:	0e 94 ba 06 	call	0xd74	; 0xd74 <i2c_write>
 b72:	fe 01       	movw	r30, r28
 b74:	e7 5d       	subi	r30, 0xD7	; 215
 b76:	fd 4f       	sbci	r31, 0xFD	; 253
 b78:	84 91       	lpm	r24, Z
 b7a:	0e 94 ba 06 	call	0xd74	; 0xd74 <i2c_write>
 b7e:	21 96       	adiw	r28, 0x01	; 1
 b80:	ec cf       	rjmp	.-40     	; 0xb5a <write_bytes+0x22>
 b82:	df 91       	pop	r29
 b84:	cf 91       	pop	r28
 b86:	1f 91       	pop	r17
 b88:	0f 91       	pop	r16
 b8a:	ff 90       	pop	r15
 b8c:	0c 94 b6 06 	jmp	0xd6c	; 0xd6c <i2c_stop>

00000b90 <oled_print>:
 b90:	ff 92       	push	r15
 b92:	0f 93       	push	r16
 b94:	1f 93       	push	r17
 b96:	cf 93       	push	r28
 b98:	df 93       	push	r29
 b9a:	ec 01       	movw	r28, r24
 b9c:	85 e0       	ldi	r24, 0x05	; 5
 b9e:	f8 2e       	mov	r15, r24
 ba0:	88 81       	ld	r24, Y
 ba2:	88 23       	and	r24, r24
 ba4:	19 f1       	breq	.+70     	; 0xbec <oled_print+0x5c>
 ba6:	88 e7       	ldi	r24, 0x78	; 120
 ba8:	0e 94 6b 06 	call	0xcd6	; 0xcd6 <i2c_start>
 bac:	80 e4       	ldi	r24, 0x40	; 64
 bae:	0e 94 ba 06 	call	0xd74	; 0xd74 <i2c_write>
 bb2:	00 e0       	ldi	r16, 0x00	; 0
 bb4:	10 e0       	ldi	r17, 0x00	; 0
 bb6:	88 81       	ld	r24, Y
 bb8:	90 e0       	ldi	r25, 0x00	; 0
 bba:	49 97       	sbiw	r24, 0x19	; 25
 bbc:	f8 9e       	mul	r15, r24
 bbe:	f0 01       	movw	r30, r0
 bc0:	f9 9e       	mul	r15, r25
 bc2:	f0 0d       	add	r31, r0
 bc4:	11 24       	eor	r1, r1
 bc6:	e0 0f       	add	r30, r16
 bc8:	f1 1f       	adc	r31, r17
 bca:	e6 5c       	subi	r30, 0xC6	; 198
 bcc:	ff 4f       	sbci	r31, 0xFF	; 255
 bce:	84 91       	lpm	r24, Z
 bd0:	0e 94 ba 06 	call	0xd74	; 0xd74 <i2c_write>
 bd4:	0f 5f       	subi	r16, 0xFF	; 255
 bd6:	1f 4f       	sbci	r17, 0xFF	; 255
 bd8:	05 30       	cpi	r16, 0x05	; 5
 bda:	11 05       	cpc	r17, r1
 bdc:	61 f7       	brne	.-40     	; 0xbb6 <oled_print+0x26>
 bde:	80 e0       	ldi	r24, 0x00	; 0
 be0:	0e 94 ba 06 	call	0xd74	; 0xd74 <i2c_write>
 be4:	21 96       	adiw	r28, 0x01	; 1
 be6:	0e 94 b6 06 	call	0xd6c	; 0xd6c <i2c_stop>
 bea:	da cf       	rjmp	.-76     	; 0xba0 <oled_print+0x10>
 bec:	df 91       	pop	r29
 bee:	cf 91       	pop	r28
 bf0:	1f 91       	pop	r17
 bf2:	0f 91       	pop	r16
 bf4:	ff 90       	pop	r15
 bf6:	08 95       	ret

00000bf8 <timer0_init>:
 bf8:	82 e0       	ldi	r24, 0x02	; 2
 bfa:	84 bd       	out	0x24, r24	; 36
 bfc:	84 e0       	ldi	r24, 0x04	; 4
 bfe:	85 bd       	out	0x25, r24	; 37
 c00:	8d e7       	ldi	r24, 0x7D	; 125
 c02:	87 bd       	out	0x27, r24	; 39
 c04:	ee e6       	ldi	r30, 0x6E	; 110
 c06:	f0 e0       	ldi	r31, 0x00	; 0
 c08:	80 81       	ld	r24, Z
 c0a:	82 60       	ori	r24, 0x02	; 2
 c0c:	80 83       	st	Z, r24
 c0e:	08 95       	ret

00000c10 <__vector_14>:
 c10:	1f 92       	push	r1
 c12:	0f 92       	push	r0
 c14:	0f b6       	in	r0, 0x3f	; 63
 c16:	0f 92       	push	r0
 c18:	11 24       	eor	r1, r1
 c1a:	8f 93       	push	r24
 c1c:	9f 93       	push	r25
 c1e:	af 93       	push	r26
 c20:	bf 93       	push	r27
 c22:	80 91 c7 00 	lds	r24, 0x00C7	; 0x8000c7 <ticks>
 c26:	90 91 c8 00 	lds	r25, 0x00C8	; 0x8000c8 <ticks+0x1>
 c2a:	a0 91 c9 00 	lds	r26, 0x00C9	; 0x8000c9 <ticks+0x2>
 c2e:	b0 91 ca 00 	lds	r27, 0x00CA	; 0x8000ca <ticks+0x3>
 c32:	01 96       	adiw	r24, 0x01	; 1
 c34:	a1 1d       	adc	r26, r1
 c36:	b1 1d       	adc	r27, r1
 c38:	80 93 c7 00 	sts	0x00C7, r24	; 0x8000c7 <ticks>
 c3c:	90 93 c8 00 	sts	0x00C8, r25	; 0x8000c8 <ticks+0x1>
 c40:	a0 93 c9 00 	sts	0x00C9, r26	; 0x8000c9 <ticks+0x2>
 c44:	b0 93 ca 00 	sts	0x00CA, r27	; 0x8000ca <ticks+0x3>
 c48:	bf 91       	pop	r27
 c4a:	af 91       	pop	r26
 c4c:	9f 91       	pop	r25
 c4e:	8f 91       	pop	r24
 c50:	0f 90       	pop	r0
 c52:	0f be       	out	0x3f, r0	; 63
 c54:	0f 90       	pop	r0
 c56:	1f 90       	pop	r1
 c58:	18 95       	reti

00000c5a <stoptimer_init>:
 c5a:	f8 94       	cli
 c5c:	40 91 c7 00 	lds	r20, 0x00C7	; 0x8000c7 <ticks>
 c60:	50 91 c8 00 	lds	r21, 0x00C8	; 0x8000c8 <ticks+0x1>
 c64:	60 91 c9 00 	lds	r22, 0x00C9	; 0x8000c9 <ticks+0x2>
 c68:	70 91 ca 00 	lds	r23, 0x00CA	; 0x8000ca <ticks+0x3>
 c6c:	fc 01       	movw	r30, r24
 c6e:	40 83       	st	Z, r20
 c70:	51 83       	std	Z+1, r21	; 0x01
 c72:	62 83       	std	Z+2, r22	; 0x02
 c74:	73 83       	std	Z+3, r23	; 0x03
 c76:	78 94       	sei
 c78:	08 95       	ret

00000c7a <stoptimer_expired>:
 c7a:	cf 92       	push	r12
 c7c:	df 92       	push	r13
 c7e:	ef 92       	push	r14
 c80:	ff 92       	push	r15
 c82:	f8 94       	cli
 c84:	c0 90 c7 00 	lds	r12, 0x00C7	; 0x8000c7 <ticks>
 c88:	d0 90 c8 00 	lds	r13, 0x00C8	; 0x8000c8 <ticks+0x1>
 c8c:	e0 90 c9 00 	lds	r14, 0x00C9	; 0x8000c9 <ticks+0x2>
 c90:	f0 90 ca 00 	lds	r15, 0x00CA	; 0x8000ca <ticks+0x3>
 c94:	9b 01       	movw	r18, r22
 c96:	36 95       	lsr	r19
 c98:	27 95       	ror	r18
 c9a:	36 95       	lsr	r19
 c9c:	27 95       	ror	r18
 c9e:	fc 01       	movw	r30, r24
 ca0:	40 81       	ld	r20, Z
 ca2:	51 81       	ldd	r21, Z+1	; 0x01
 ca4:	62 81       	ldd	r22, Z+2	; 0x02
 ca6:	73 81       	ldd	r23, Z+3	; 0x03
 ca8:	42 0f       	add	r20, r18
 caa:	53 1f       	adc	r21, r19
 cac:	61 1d       	adc	r22, r1
 cae:	71 1d       	adc	r23, r1
 cb0:	81 e0       	ldi	r24, 0x01	; 1
 cb2:	4c 15       	cp	r20, r12
 cb4:	5d 05       	cpc	r21, r13
 cb6:	6e 05       	cpc	r22, r14
 cb8:	7f 05       	cpc	r23, r15
 cba:	08 f0       	brcs	.+2      	; 0xcbe <stoptimer_expired+0x44>
 cbc:	80 e0       	ldi	r24, 0x00	; 0
 cbe:	78 94       	sei
 cc0:	ff 90       	pop	r15
 cc2:	ef 90       	pop	r14
 cc4:	df 90       	pop	r13
 cc6:	cf 90       	pop	r12
 cc8:	08 95       	ret

00000cca <i2c_init>:
 cca:	10 92 b9 00 	sts	0x00B9, r1	; 0x8000b9 <lut+0x56>
 cce:	88 e4       	ldi	r24, 0x48	; 72
 cd0:	80 93 b8 00 	sts	0x00B8, r24	; 0x8000b8 <lut+0x55>
 cd4:	08 95       	ret

00000cd6 <i2c_start>:
 cd6:	94 ea       	ldi	r25, 0xA4	; 164
 cd8:	90 93 bc 00 	sts	0x00BC, r25	; 0x8000bc <__data_end>
 cdc:	90 91 bc 00 	lds	r25, 0x00BC	; 0x8000bc <__data_end>
 ce0:	97 ff       	sbrs	r25, 7
 ce2:	fc cf       	rjmp	.-8      	; 0xcdc <i2c_start+0x6>
 ce4:	90 91 b9 00 	lds	r25, 0x00B9	; 0x8000b9 <lut+0x56>
 ce8:	98 7f       	andi	r25, 0xF8	; 248
 cea:	98 30       	cpi	r25, 0x08	; 8
 cec:	21 f0       	breq	.+8      	; 0xcf6 <i2c_start+0x20>
 cee:	90 31       	cpi	r25, 0x10	; 16
 cf0:	11 f0       	breq	.+4      	; 0xcf6 <i2c_start+0x20>
 cf2:	81 e0       	ldi	r24, 0x01	; 1
 cf4:	08 95       	ret
 cf6:	80 93 bb 00 	sts	0x00BB, r24	; 0x8000bb <lut+0x58>
 cfa:	84 e8       	ldi	r24, 0x84	; 132
 cfc:	80 93 bc 00 	sts	0x00BC, r24	; 0x8000bc <__data_end>
 d00:	80 91 bc 00 	lds	r24, 0x00BC	; 0x8000bc <__data_end>
 d04:	87 ff       	sbrs	r24, 7
 d06:	fc cf       	rjmp	.-8      	; 0xd00 <i2c_start+0x2a>
 d08:	80 91 b9 00 	lds	r24, 0x00B9	; 0x8000b9 <lut+0x56>
 d0c:	88 7f       	andi	r24, 0xF8	; 248
 d0e:	88 31       	cpi	r24, 0x18	; 24
 d10:	11 f0       	breq	.+4      	; 0xd16 <i2c_start+0x40>
 d12:	80 34       	cpi	r24, 0x40	; 64
 d14:	71 f7       	brne	.-36     	; 0xcf2 <i2c_start+0x1c>
 d16:	80 e0       	ldi	r24, 0x00	; 0
 d18:	08 95       	ret

00000d1a <i2c_start_wait>:
 d1a:	24 ea       	ldi	r18, 0xA4	; 164
 d1c:	34 e8       	ldi	r19, 0x84	; 132
 d1e:	44 e9       	ldi	r20, 0x94	; 148
 d20:	20 93 bc 00 	sts	0x00BC, r18	; 0x8000bc <__data_end>
 d24:	90 91 bc 00 	lds	r25, 0x00BC	; 0x8000bc <__data_end>
 d28:	97 ff       	sbrs	r25, 7
 d2a:	fc cf       	rjmp	.-8      	; 0xd24 <i2c_start_wait+0xa>
 d2c:	90 91 b9 00 	lds	r25, 0x00B9	; 0x8000b9 <lut+0x56>
 d30:	98 7f       	andi	r25, 0xF8	; 248
 d32:	98 30       	cpi	r25, 0x08	; 8
 d34:	11 f0       	breq	.+4      	; 0xd3a <i2c_start_wait+0x20>
 d36:	90 31       	cpi	r25, 0x10	; 16
 d38:	99 f7       	brne	.-26     	; 0xd20 <i2c_start_wait+0x6>
 d3a:	80 93 bb 00 	sts	0x00BB, r24	; 0x8000bb <lut+0x58>
 d3e:	30 93 bc 00 	sts	0x00BC, r19	; 0x8000bc <__data_end>
 d42:	90 91 bc 00 	lds	r25, 0x00BC	; 0x8000bc <__data_end>
 d46:	97 ff       	sbrs	r25, 7
 d48:	fc cf       	rjmp	.-8      	; 0xd42 <i2c_start_wait+0x28>
 d4a:	90 91 b9 00 	lds	r25, 0x00B9	; 0x8000b9 <lut+0x56>
 d4e:	98 7f       	andi	r25, 0xF8	; 248
 d50:	90 32       	cpi	r25, 0x20	; 32
 d52:	11 f0       	breq	.+4      	; 0xd58 <i2c_start_wait+0x3e>
 d54:	98 35       	cpi	r25, 0x58	; 88
 d56:	39 f4       	brne	.+14     	; 0xd66 <i2c_start_wait+0x4c>
 d58:	40 93 bc 00 	sts	0x00BC, r20	; 0x8000bc <__data_end>
 d5c:	90 91 bc 00 	lds	r25, 0x00BC	; 0x8000bc <__data_end>
 d60:	94 fd       	sbrc	r25, 4
 d62:	fc cf       	rjmp	.-8      	; 0xd5c <i2c_start_wait+0x42>
 d64:	dd cf       	rjmp	.-70     	; 0xd20 <i2c_start_wait+0x6>
 d66:	08 95       	ret

00000d68 <i2c_rep_start>:
 d68:	0c 94 6b 06 	jmp	0xcd6	; 0xcd6 <i2c_start>

00000d6c <i2c_stop>:
 d6c:	84 e9       	ldi	r24, 0x94	; 148
 d6e:	80 93 bc 00 	sts	0x00BC, r24	; 0x8000bc <__data_end>
 d72:	08 95       	ret

00000d74 <i2c_write>:
 d74:	80 93 bb 00 	sts	0x00BB, r24	; 0x8000bb <lut+0x58>
 d78:	84 e8       	ldi	r24, 0x84	; 132
 d7a:	80 93 bc 00 	sts	0x00BC, r24	; 0x8000bc <__data_end>
 d7e:	80 91 bc 00 	lds	r24, 0x00BC	; 0x8000bc <__data_end>
 d82:	87 ff       	sbrs	r24, 7
 d84:	fc cf       	rjmp	.-8      	; 0xd7e <i2c_write+0xa>
 d86:	90 91 b9 00 	lds	r25, 0x00B9	; 0x8000b9 <lut+0x56>
 d8a:	98 7f       	andi	r25, 0xF8	; 248
 d8c:	81 e0       	ldi	r24, 0x01	; 1
 d8e:	98 32       	cpi	r25, 0x28	; 40
 d90:	09 f4       	brne	.+2      	; 0xd94 <i2c_write+0x20>
 d92:	80 e0       	ldi	r24, 0x00	; 0
 d94:	08 95       	ret

00000d96 <i2c_readAck>:
 d96:	84 ec       	ldi	r24, 0xC4	; 196
 d98:	80 93 bc 00 	sts	0x00BC, r24	; 0x8000bc <__data_end>
 d9c:	80 91 bc 00 	lds	r24, 0x00BC	; 0x8000bc <__data_end>
 da0:	87 ff       	sbrs	r24, 7
 da2:	fc cf       	rjmp	.-8      	; 0xd9c <i2c_readAck+0x6>
 da4:	80 91 bb 00 	lds	r24, 0x00BB	; 0x8000bb <lut+0x58>
 da8:	08 95       	ret

00000daa <i2c_readNak>:
 daa:	84 e8       	ldi	r24, 0x84	; 132
 dac:	80 93 bc 00 	sts	0x00BC, r24	; 0x8000bc <__data_end>
 db0:	80 91 bc 00 	lds	r24, 0x00BC	; 0x8000bc <__data_end>
 db4:	87 ff       	sbrs	r24, 7
 db6:	fc cf       	rjmp	.-8      	; 0xdb0 <i2c_readNak+0x6>
 db8:	80 91 bb 00 	lds	r24, 0x00BB	; 0x8000bb <lut+0x58>
 dbc:	08 95       	ret

00000dbe <uart_init>:
 dbe:	10 bc       	out	0x20, r1	; 32
 dc0:	89 e1       	ldi	r24, 0x19	; 25
 dc2:	89 b9       	out	0x09, r24	; 9
 dc4:	53 9a       	sbi	0x0a, 3	; 10
 dc6:	86 e0       	ldi	r24, 0x06	; 6
 dc8:	80 bd       	out	0x20, r24	; 32
 dca:	08 95       	ret

00000dcc <uart_putc>:
 dcc:	5d 9b       	sbis	0x0b, 5	; 11
 dce:	fe cf       	rjmp	.-4      	; 0xdcc <uart_putc>
 dd0:	8c b9       	out	0x0c, r24	; 12
 dd2:	08 95       	ret

00000dd4 <uart_puts>:
 dd4:	cf 93       	push	r28
 dd6:	df 93       	push	r29
 dd8:	ec 01       	movw	r28, r24
 dda:	89 91       	ld	r24, Y+
 ddc:	88 23       	and	r24, r24
 dde:	11 f0       	breq	.+4      	; 0xde4 <uart_puts+0x10>
 de0:	f5 df       	rcall	.-22     	; 0xdcc <uart_putc>
 de2:	fb cf       	rjmp	.-10     	; 0xdda <uart_puts+0x6>
 de4:	df 91       	pop	r29
 de6:	cf 91       	pop	r28
 de8:	08 95       	ret

00000dea <uart_receive>:
 dea:	5f 9b       	sbis	0x0b, 7	; 11
 dec:	fe cf       	rjmp	.-4      	; 0xdea <uart_receive>
 dee:	8c b1       	in	r24, 0x0c	; 12
 df0:	08 95       	ret

00000df2 <uart_flush>:
 df2:	5f 9b       	sbis	0x0b, 7	; 11
 df4:	02 c0       	rjmp	.+4      	; 0xdfa <uart_flush+0x8>
 df6:	8c b1       	in	r24, 0x0c	; 12
 df8:	fc cf       	rjmp	.-8      	; 0xdf2 <uart_flush>
 dfa:	08 95       	ret

00000dfc <__udivmodqi4>:
 dfc:	99 1b       	sub	r25, r25
 dfe:	79 e0       	ldi	r23, 0x09	; 9
 e00:	04 c0       	rjmp	.+8      	; 0xe0a <__udivmodqi4_ep>

00000e02 <__udivmodqi4_loop>:
 e02:	99 1f       	adc	r25, r25
 e04:	96 17       	cp	r25, r22
 e06:	08 f0       	brcs	.+2      	; 0xe0a <__udivmodqi4_ep>
 e08:	96 1b       	sub	r25, r22

00000e0a <__udivmodqi4_ep>:
 e0a:	88 1f       	adc	r24, r24
 e0c:	7a 95       	dec	r23
 e0e:	c9 f7       	brne	.-14     	; 0xe02 <__udivmodqi4_loop>
 e10:	80 95       	com	r24
 e12:	08 95       	ret

00000e14 <__tablejump2__>:
 e14:	ee 0f       	add	r30, r30
 e16:	ff 1f       	adc	r31, r31
 e18:	05 90       	lpm	r0, Z+
 e1a:	f4 91       	lpm	r31, Z
 e1c:	e0 2d       	mov	r30, r0
 e1e:	09 94       	ijmp

00000e20 <__itoa_ncheck>:
 e20:	bb 27       	eor	r27, r27
 e22:	4a 30       	cpi	r20, 0x0A	; 10
 e24:	31 f4       	brne	.+12     	; 0xe32 <__itoa_ncheck+0x12>
 e26:	99 23       	and	r25, r25
 e28:	22 f4       	brpl	.+8      	; 0xe32 <__itoa_ncheck+0x12>
 e2a:	bd e2       	ldi	r27, 0x2D	; 45
 e2c:	90 95       	com	r25
 e2e:	81 95       	neg	r24
 e30:	9f 4f       	sbci	r25, 0xFF	; 255
 e32:	01 c0       	rjmp	.+2      	; 0xe36 <__utoa_common>

00000e34 <__utoa_ncheck>:
 e34:	bb 27       	eor	r27, r27

00000e36 <__utoa_common>:
 e36:	fb 01       	movw	r30, r22
 e38:	55 27       	eor	r21, r21
 e3a:	aa 27       	eor	r26, r26
 e3c:	88 0f       	add	r24, r24
 e3e:	99 1f       	adc	r25, r25
 e40:	aa 1f       	adc	r26, r26
 e42:	a4 17       	cp	r26, r20
 e44:	10 f0       	brcs	.+4      	; 0xe4a <__utoa_common+0x14>
 e46:	a4 1b       	sub	r26, r20
 e48:	83 95       	inc	r24
 e4a:	50 51       	subi	r21, 0x10	; 16
 e4c:	b9 f7       	brne	.-18     	; 0xe3c <__utoa_common+0x6>
 e4e:	a0 5d       	subi	r26, 0xD0	; 208
 e50:	aa 33       	cpi	r26, 0x3A	; 58
 e52:	08 f0       	brcs	.+2      	; 0xe56 <__utoa_common+0x20>
 e54:	a9 5d       	subi	r26, 0xD9	; 217
 e56:	a1 93       	st	Z+, r26
 e58:	00 97       	sbiw	r24, 0x00	; 0
 e5a:	79 f7       	brne	.-34     	; 0xe3a <__utoa_common+0x4>
 e5c:	b1 11       	cpse	r27, r1
 e5e:	b1 93       	st	Z+, r27
 e60:	11 92       	st	Z+, r1
 e62:	cb 01       	movw	r24, r22
 e64:	00 c0       	rjmp	.+0      	; 0xe66 <strrev>

00000e66 <strrev>:
 e66:	dc 01       	movw	r26, r24
 e68:	fc 01       	movw	r30, r24
 e6a:	67 2f       	mov	r22, r23
 e6c:	71 91       	ld	r23, Z+
 e6e:	77 23       	and	r23, r23
 e70:	e1 f7       	brne	.-8      	; 0xe6a <strrev+0x4>
 e72:	32 97       	sbiw	r30, 0x02	; 2
 e74:	04 c0       	rjmp	.+8      	; 0xe7e <strrev+0x18>
 e76:	7c 91       	ld	r23, X
 e78:	6d 93       	st	X+, r22
 e7a:	70 83       	st	Z, r23
 e7c:	62 91       	ld	r22, -Z
 e7e:	ae 17       	cp	r26, r30
 e80:	bf 07       	cpc	r27, r31
 e82:	c8 f3       	brcs	.-14     	; 0xe76 <strrev+0x10>
 e84:	08 95       	ret

00000e86 <_exit>:
 e86:	f8 94       	cli

00000e88 <__stop_program>:
 e88:	ff cf       	rjmp	.-2      	; 0xe88 <__stop_program>
