Archive member included to satisfy reference by file (symbol)

c:/users/googy/desktop/eclipse/toolchain/bin/../lib/gcc/avr/5.4.0/avr5\libgcc.a(_udivmodqi4.o)
                              ./src/ssd1306.o (__udivmodqi4)
c:/users/googy/desktop/eclipse/toolchain/bin/../lib/gcc/avr/5.4.0/avr5\libgcc.a(_exit.o)
                              c:/users/googy/desktop/eclipse/toolchain/bin/../lib/gcc/avr/5.4.0/../../../../avr/lib/avr5/crtatmega328p.o (exit)
c:/users/googy/desktop/eclipse/toolchain/bin/../lib/gcc/avr/5.4.0/avr5\libgcc.a(_copy_data.o)
                              ./src/main.o (__do_copy_data)
c:/users/googy/desktop/eclipse/toolchain/bin/../lib/gcc/avr/5.4.0/avr5\libgcc.a(_clear_bss.o)
                              ./src/main.o (__do_clear_bss)
c:/users/googy/desktop/eclipse/toolchain/bin/../lib/gcc/avr/5.4.0/../../../../avr/lib/avr5\libc.a(itoa_ncheck.o)
                              ./src/main.o (__itoa_ncheck)
c:/users/googy/desktop/eclipse/toolchain/bin/../lib/gcc/avr/5.4.0/../../../../avr/lib/avr5\libc.a(utoa_ncheck.o)
                              c:/users/googy/desktop/eclipse/toolchain/bin/../lib/gcc/avr/5.4.0/../../../../avr/lib/avr5\libc.a(itoa_ncheck.o) (__utoa_common)
c:/users/googy/desktop/eclipse/toolchain/bin/../lib/gcc/avr/5.4.0/../../../../avr/lib/avr5\libc.a(strrev.o)
                              c:/users/googy/desktop/eclipse/toolchain/bin/../lib/gcc/avr/5.4.0/../../../../avr/lib/avr5\libc.a(utoa_ncheck.o) (strrev)

Allocating common symbols
Common symbol       size              file

message             0x81              ./src/main.o
buf                 0xa               ./src/main.o

Memory Configuration

Name             Origin             Length             Attributes
text             0x00000000         0x00020000         xr
data             0x00800060         0x0000ffa0         rw !x
eeprom           0x00810000         0x00010000         rw !x
fuse             0x00820000         0x00000003         rw !x
lock             0x00830000         0x00000400         rw !x
signature        0x00840000         0x00000400         rw !x
user_signatures  0x00850000         0x00000400         rw !x
*default*        0x00000000         0xffffffff

Linker script and memory map

Address of section .data set to 0x800100
LOAD c:/users/googy/desktop/eclipse/toolchain/bin/../lib/gcc/avr/5.4.0/../../../../avr/lib/avr5/crtatmega328p.o
LOAD ./src/main.o
LOAD ./src/mcp2515.o
LOAD ./src/ssd1306.o
LOAD ./src/twimaster.o
LOAD ./src/uart.o
START GROUP
LOAD c:/users/googy/desktop/eclipse/toolchain/bin/../lib/gcc/avr/5.4.0/avr5\libgcc.a
LOAD c:/users/googy/desktop/eclipse/toolchain/bin/../lib/gcc/avr/5.4.0/../../../../avr/lib/avr5\libm.a
LOAD c:/users/googy/desktop/eclipse/toolchain/bin/../lib/gcc/avr/5.4.0/../../../../avr/lib/avr5\libc.a
LOAD c:/users/googy/desktop/eclipse/toolchain/bin/../lib/gcc/avr/5.4.0/../../../../avr/lib/avr5\libatmega328p.a
END GROUP
                0x00020000                __TEXT_REGION_LENGTH__ = DEFINED (__TEXT_REGION_LENGTH__)?__TEXT_REGION_LENGTH__:0x20000
                0x0000ffa0                __DATA_REGION_LENGTH__ = DEFINED (__DATA_REGION_LENGTH__)?__DATA_REGION_LENGTH__:0xffa0
                0x00010000                __EEPROM_REGION_LENGTH__ = DEFINED (__EEPROM_REGION_LENGTH__)?__EEPROM_REGION_LENGTH__:0x10000
                [0x00000003]                __FUSE_REGION_LENGTH__ = DEFINED (__FUSE_REGION_LENGTH__)?__FUSE_REGION_LENGTH__:0x400
                0x00000400                __LOCK_REGION_LENGTH__ = DEFINED (__LOCK_REGION_LENGTH__)?__LOCK_REGION_LENGTH__:0x400
                0x00000400                __SIGNATURE_REGION_LENGTH__ = DEFINED (__SIGNATURE_REGION_LENGTH__)?__SIGNATURE_REGION_LENGTH__:0x400
                0x00000400                __USER_SIGNATURE_REGION_LENGTH__ = DEFINED (__USER_SIGNATURE_REGION_LENGTH__)?__USER_SIGNATURE_REGION_LENGTH__:0x400

.hash
 *(.hash)

.dynsym
 *(.dynsym)

.dynstr
 *(.dynstr)

.gnu.version
 *(.gnu.version)

.gnu.version_d
 *(.gnu.version_d)

.gnu.version_r
 *(.gnu.version_r)

.rel.init
 *(.rel.init)

.rela.init
 *(.rela.init)

.rel.text
 *(.rel.text)
 *(.rel.text.*)
 *(.rel.gnu.linkonce.t*)

.rela.text
 *(.rela.text)
 *(.rela.text.*)
 *(.rela.gnu.linkonce.t*)

.rel.fini
 *(.rel.fini)

.rela.fini
 *(.rela.fini)

.rel.rodata
 *(.rel.rodata)
 *(.rel.rodata.*)
 *(.rel.gnu.linkonce.r*)

.rela.rodata
 *(.rela.rodata)
 *(.rela.rodata.*)
 *(.rela.gnu.linkonce.r*)

.rel.data
 *(.rel.data)
 *(.rel.data.*)
 *(.rel.gnu.linkonce.d*)

.rela.data
 *(.rela.data)
 *(.rela.data.*)
 *(.rela.gnu.linkonce.d*)

.rel.ctors
 *(.rel.ctors)

.rela.ctors
 *(.rela.ctors)

.rel.dtors
 *(.rel.dtors)

.rela.dtors
 *(.rela.dtors)

.rel.got
 *(.rel.got)

.rela.got
 *(.rela.got)

.rel.bss
 *(.rel.bss)

.rela.bss
 *(.rela.bss)

.rel.plt
 *(.rel.plt)

.rela.plt
 *(.rela.plt)

.text           0x00000000      0xacc
 *(.vectors)
 .vectors       0x00000000       0x68 c:/users/googy/desktop/eclipse/toolchain/bin/../lib/gcc/avr/5.4.0/../../../../avr/lib/avr5/crtatmega328p.o
                0x00000000                __vector_default
                0x00000000                __vectors
 *(.vectors)
 *(.progmem.gcc*)
                0x00000068                . = ALIGN (0x2)
                0x00000068                __trampolines_start = .
 *(.trampolines)
 .trampolines   0x00000068        0x0 linker stubs
 *(.trampolines*)
                0x00000068                __trampolines_end = .
 *libprintf_flt.a:*(.progmem.data)
 *libc.a:*(.progmem.data)
 *(.progmem*)
 .progmem.data.font
                0x00000068      0x262 ./src/ssd1306.o
                0x000002ca                . = ALIGN (0x2)
 *(.jumptables)
 *(.jumptables*)
 *(.lowtext)
 *(.lowtext*)
                0x000002ca                __ctors_start = .
 *(.ctors)
                0x000002ca                __ctors_end = .
                0x000002ca                __dtors_start = .
 *(.dtors)
                0x000002ca                __dtors_end = .
 SORT(*)(.ctors)
 SORT(*)(.dtors)
 *(.init0)
 .init0         0x000002ca        0x0 c:/users/googy/desktop/eclipse/toolchain/bin/../lib/gcc/avr/5.4.0/../../../../avr/lib/avr5/crtatmega328p.o
                0x000002ca                __init
 *(.init0)
 *(.init1)
 *(.init1)
 *(.init2)
 .init2         0x000002ca        0xc c:/users/googy/desktop/eclipse/toolchain/bin/../lib/gcc/avr/5.4.0/../../../../avr/lib/avr5/crtatmega328p.o
 *(.init2)
 *(.init3)
 *(.init3)
 *(.init4)
 .init4         0x000002d6       0x16 c:/users/googy/desktop/eclipse/toolchain/bin/../lib/gcc/avr/5.4.0/avr5\libgcc.a(_copy_data.o)
                0x000002d6                __do_copy_data
 .init4         0x000002ec       0x10 c:/users/googy/desktop/eclipse/toolchain/bin/../lib/gcc/avr/5.4.0/avr5\libgcc.a(_clear_bss.o)
                0x000002ec                __do_clear_bss
 *(.init4)
 *(.init5)
 *(.init5)
 *(.init6)
 *(.init6)
 *(.init7)
 *(.init7)
 *(.init8)
 *(.init8)
 *(.init9)
 .init9         0x000002fc        0x8 c:/users/googy/desktop/eclipse/toolchain/bin/../lib/gcc/avr/5.4.0/../../../../avr/lib/avr5/crtatmega328p.o
 *(.init9)
 *(.text)
 .text          0x00000304        0x4 c:/users/googy/desktop/eclipse/toolchain/bin/../lib/gcc/avr/5.4.0/../../../../avr/lib/avr5/crtatmega328p.o
                0x00000304                __vector_22
                0x00000304                __vector_1
                0x00000304                __vector_24
                0x00000304                __vector_12
                0x00000304                __bad_interrupt
                0x00000304                __vector_6
                0x00000304                __vector_3
                0x00000304                __vector_23
                0x00000304                __vector_25
                0x00000304                __vector_11
                0x00000304                __vector_13
                0x00000304                __vector_17
                0x00000304                __vector_19
                0x00000304                __vector_7
                0x00000304                __vector_5
                0x00000304                __vector_4
                0x00000304                __vector_9
                0x00000304                __vector_2
                0x00000304                __vector_21
                0x00000304                __vector_15
                0x00000304                __vector_8
                0x00000304                __vector_14
                0x00000304                __vector_10
                0x00000304                __vector_16
                0x00000304                __vector_18
                0x00000304                __vector_20
 .text          0x00000308        0x0 ./src/main.o
 .text          0x00000308        0x0 ./src/mcp2515.o
 .text          0x00000308        0x0 ./src/ssd1306.o
 .text          0x00000308        0x0 ./src/twimaster.o
 .text          0x00000308        0x0 ./src/uart.o
 .text          0x00000308        0x0 c:/users/googy/desktop/eclipse/toolchain/bin/../lib/gcc/avr/5.4.0/avr5\libgcc.a(_udivmodqi4.o)
 .text          0x00000308        0x0 c:/users/googy/desktop/eclipse/toolchain/bin/../lib/gcc/avr/5.4.0/avr5\libgcc.a(_exit.o)
 .text          0x00000308        0x0 c:/users/googy/desktop/eclipse/toolchain/bin/../lib/gcc/avr/5.4.0/avr5\libgcc.a(_copy_data.o)
 .text          0x00000308        0x0 c:/users/googy/desktop/eclipse/toolchain/bin/../lib/gcc/avr/5.4.0/avr5\libgcc.a(_clear_bss.o)
 .text          0x00000308        0x0 c:/users/googy/desktop/eclipse/toolchain/bin/../lib/gcc/avr/5.4.0/../../../../avr/lib/avr5\libc.a(itoa_ncheck.o)
 .text          0x00000308        0x0 c:/users/googy/desktop/eclipse/toolchain/bin/../lib/gcc/avr/5.4.0/../../../../avr/lib/avr5\libc.a(utoa_ncheck.o)
 .text          0x00000308        0x0 c:/users/googy/desktop/eclipse/toolchain/bin/../lib/gcc/avr/5.4.0/../../../../avr/lib/avr5\libc.a(strrev.o)
                0x00000308                . = ALIGN (0x2)
 *(.text.*)
 .text.startup.main
                0x00000308       0xaa ./src/main.o
                0x00000308                main
 .text.spi_putc
                0x000003b2        0xc ./src/mcp2515.o
                0x000003b2                spi_putc
 .text.mcp2515_write_register
                0x000003be       0x24 ./src/mcp2515.o
                0x000003be                mcp2515_write_register
 .text.mcp2515_read_register
                0x000003e2       0x1e ./src/mcp2515.o
                0x000003e2                mcp2515_read_register
 .text.mcp2515_bit_modify
                0x00000400       0x30 ./src/mcp2515.o
                0x00000400                mcp2515_bit_modify
 .text.mcp2515_read_status
                0x00000430       0x10 ./src/mcp2515.o
                0x00000430                mcp2515_read_status
 .text.mcp2515_init
                0x00000440       0x92 ./src/mcp2515.o
                0x00000440                mcp2515_init
 .text.mcp2515_check_message
                0x000004d2        0xe ./src/mcp2515.o
                0x000004d2                mcp2515_check_message
 .text.mcp2515_check_free_buffer
                0x000004e0       0x14 ./src/mcp2515.o
                0x000004e0                mcp2515_check_free_buffer
 .text.mcp2515_get_message
                0x000004f4       0xda ./src/mcp2515.o
                0x000004f4                mcp2515_get_message
 .text.mcp2515_send_message
                0x000005ce       0xde ./src/mcp2515.o
                0x000005ce                mcp2515_send_message
 .text.sendCommand
                0x000006ac       0x1c ./src/ssd1306.o
                0x000006ac                sendCommand
 .text.init_ssd1306
                0x000006c8       0xaa ./src/ssd1306.o
                0x000006c8                init_ssd1306
 .text.clear    0x00000772       0x7a ./src/ssd1306.o
                0x00000772                clear
 .text.setCursor
                0x000007ec       0x30 ./src/ssd1306.o
                0x000007ec                setCursor
 .text.write_bytes
                0x0000081c       0x58 ./src/ssd1306.o
                0x0000081c                write_bytes
 .text.oled_print
                0x00000874       0x68 ./src/ssd1306.o
                0x00000874                oled_print
 .text.i2c_init
                0x000008dc        0xc ./src/twimaster.o
                0x000008dc                i2c_init
 .text.i2c_start
                0x000008e8       0x44 ./src/twimaster.o
                0x000008e8                i2c_start
 .text.i2c_start_wait
                0x0000092c       0x4e ./src/twimaster.o
                0x0000092c                i2c_start_wait
 .text.i2c_rep_start
                0x0000097a        0x4 ./src/twimaster.o
                0x0000097a                i2c_rep_start
 .text.i2c_stop
                0x0000097e        0x8 ./src/twimaster.o
                0x0000097e                i2c_stop
 .text.i2c_write
                0x00000986       0x22 ./src/twimaster.o
                0x00000986                i2c_write
 .text.i2c_readAck
                0x000009a8       0x14 ./src/twimaster.o
                0x000009a8                i2c_readAck
 .text.i2c_readNak
                0x000009bc       0x14 ./src/twimaster.o
                0x000009bc                i2c_readNak
 .text.uart_init
                0x000009d0       0x1e ./src/uart.o
                0x000009d0                uart_init
 .text.uart_putc
                0x000009ee        0xe ./src/uart.o
                0x000009ee                uart_putc
 .text.uart_puts
                0x000009fc       0x18 ./src/uart.o
                0x000009fc                uart_puts
 .text.uart_receive
                0x00000a14        0xe ./src/uart.o
                0x00000a14                uart_receive
 .text.uart_flush
                0x00000a22       0x24 ./src/uart.o
                0x00000a22                uart_flush
 .text.libgcc.mul
                0x00000a46        0x0 c:/users/googy/desktop/eclipse/toolchain/bin/../lib/gcc/avr/5.4.0/avr5\libgcc.a(_udivmodqi4.o)
 .text.libgcc.div
                0x00000a46       0x18 c:/users/googy/desktop/eclipse/toolchain/bin/../lib/gcc/avr/5.4.0/avr5\libgcc.a(_udivmodqi4.o)
                0x00000a46                __udivmodqi4
 .text.libgcc   0x00000a5e        0x0 c:/users/googy/desktop/eclipse/toolchain/bin/../lib/gcc/avr/5.4.0/avr5\libgcc.a(_udivmodqi4.o)
 .text.libgcc.prologue
                0x00000a5e        0x0 c:/users/googy/desktop/eclipse/toolchain/bin/../lib/gcc/avr/5.4.0/avr5\libgcc.a(_udivmodqi4.o)
 .text.libgcc.builtins
                0x00000a5e        0x0 c:/users/googy/desktop/eclipse/toolchain/bin/../lib/gcc/avr/5.4.0/avr5\libgcc.a(_udivmodqi4.o)
 .text.libgcc.fmul
                0x00000a5e        0x0 c:/users/googy/desktop/eclipse/toolchain/bin/../lib/gcc/avr/5.4.0/avr5\libgcc.a(_udivmodqi4.o)
 .text.libgcc.fixed
                0x00000a5e        0x0 c:/users/googy/desktop/eclipse/toolchain/bin/../lib/gcc/avr/5.4.0/avr5\libgcc.a(_udivmodqi4.o)
 .text.libgcc.mul
                0x00000a5e        0x0 c:/users/googy/desktop/eclipse/toolchain/bin/../lib/gcc/avr/5.4.0/avr5\libgcc.a(_exit.o)
 .text.libgcc.div
                0x00000a5e        0x0 c:/users/googy/desktop/eclipse/toolchain/bin/../lib/gcc/avr/5.4.0/avr5\libgcc.a(_exit.o)
 .text.libgcc   0x00000a5e        0x0 c:/users/googy/desktop/eclipse/toolchain/bin/../lib/gcc/avr/5.4.0/avr5\libgcc.a(_exit.o)
 .text.libgcc.prologue
                0x00000a5e        0x0 c:/users/googy/desktop/eclipse/toolchain/bin/../lib/gcc/avr/5.4.0/avr5\libgcc.a(_exit.o)
 .text.libgcc.builtins
                0x00000a5e        0x0 c:/users/googy/desktop/eclipse/toolchain/bin/../lib/gcc/avr/5.4.0/avr5\libgcc.a(_exit.o)
 .text.libgcc.fmul
                0x00000a5e        0x0 c:/users/googy/desktop/eclipse/toolchain/bin/../lib/gcc/avr/5.4.0/avr5\libgcc.a(_exit.o)
 .text.libgcc.fixed
                0x00000a5e        0x0 c:/users/googy/desktop/eclipse/toolchain/bin/../lib/gcc/avr/5.4.0/avr5\libgcc.a(_exit.o)
 .text.libgcc.mul
                0x00000a5e        0x0 c:/users/googy/desktop/eclipse/toolchain/bin/../lib/gcc/avr/5.4.0/avr5\libgcc.a(_copy_data.o)
 .text.libgcc.div
                0x00000a5e        0x0 c:/users/googy/desktop/eclipse/toolchain/bin/../lib/gcc/avr/5.4.0/avr5\libgcc.a(_copy_data.o)
 .text.libgcc   0x00000a5e        0x0 c:/users/googy/desktop/eclipse/toolchain/bin/../lib/gcc/avr/5.4.0/avr5\libgcc.a(_copy_data.o)
 .text.libgcc.prologue
                0x00000a5e        0x0 c:/users/googy/desktop/eclipse/toolchain/bin/../lib/gcc/avr/5.4.0/avr5\libgcc.a(_copy_data.o)
 .text.libgcc.builtins
                0x00000a5e        0x0 c:/users/googy/desktop/eclipse/toolchain/bin/../lib/gcc/avr/5.4.0/avr5\libgcc.a(_copy_data.o)
 .text.libgcc.fmul
                0x00000a5e        0x0 c:/users/googy/desktop/eclipse/toolchain/bin/../lib/gcc/avr/5.4.0/avr5\libgcc.a(_copy_data.o)
 .text.libgcc.fixed
                0x00000a5e        0x0 c:/users/googy/desktop/eclipse/toolchain/bin/../lib/gcc/avr/5.4.0/avr5\libgcc.a(_copy_data.o)
 .text.libgcc.mul
                0x00000a5e        0x0 c:/users/googy/desktop/eclipse/toolchain/bin/../lib/gcc/avr/5.4.0/avr5\libgcc.a(_clear_bss.o)
 .text.libgcc.div
                0x00000a5e        0x0 c:/users/googy/desktop/eclipse/toolchain/bin/../lib/gcc/avr/5.4.0/avr5\libgcc.a(_clear_bss.o)
 .text.libgcc   0x00000a5e        0x0 c:/users/googy/desktop/eclipse/toolchain/bin/../lib/gcc/avr/5.4.0/avr5\libgcc.a(_clear_bss.o)
 .text.libgcc.prologue
                0x00000a5e        0x0 c:/users/googy/desktop/eclipse/toolchain/bin/../lib/gcc/avr/5.4.0/avr5\libgcc.a(_clear_bss.o)
 .text.libgcc.builtins
                0x00000a5e        0x0 c:/users/googy/desktop/eclipse/toolchain/bin/../lib/gcc/avr/5.4.0/avr5\libgcc.a(_clear_bss.o)
 .text.libgcc.fmul
                0x00000a5e        0x0 c:/users/googy/desktop/eclipse/toolchain/bin/../lib/gcc/avr/5.4.0/avr5\libgcc.a(_clear_bss.o)
 .text.libgcc.fixed
                0x00000a5e        0x0 c:/users/googy/desktop/eclipse/toolchain/bin/../lib/gcc/avr/5.4.0/avr5\libgcc.a(_clear_bss.o)
 .text.avr-libc
                0x00000a5e       0x16 c:/users/googy/desktop/eclipse/toolchain/bin/../lib/gcc/avr/5.4.0/../../../../avr/lib/avr5\libc.a(itoa_ncheck.o)
                0x00000a5e                __itoa_ncheck
 .text.avr-libc
                0x00000a74       0x34 c:/users/googy/desktop/eclipse/toolchain/bin/../lib/gcc/avr/5.4.0/../../../../avr/lib/avr5\libc.a(utoa_ncheck.o)
                0x00000a74                __utoa_ncheck
                0x00000a76                __utoa_common
 .text.avr-libc
                0x00000aa8       0x20 c:/users/googy/desktop/eclipse/toolchain/bin/../lib/gcc/avr/5.4.0/../../../../avr/lib/avr5\libc.a(strrev.o)
                0x00000aa8                strrev
                0x00000ac8                . = ALIGN (0x2)
 *(.fini9)
 .fini9         0x00000ac8        0x0 c:/users/googy/desktop/eclipse/toolchain/bin/../lib/gcc/avr/5.4.0/avr5\libgcc.a(_exit.o)
                0x00000ac8                _exit
                0x00000ac8                exit
 *(.fini9)
 *(.fini8)
 *(.fini8)
 *(.fini7)
 *(.fini7)
 *(.fini6)
 *(.fini6)
 *(.fini5)
 *(.fini5)
 *(.fini4)
 *(.fini4)
 *(.fini3)
 *(.fini3)
 *(.fini2)
 *(.fini2)
 *(.fini1)
 *(.fini1)
 *(.fini0)
 .fini0         0x00000ac8        0x4 c:/users/googy/desktop/eclipse/toolchain/bin/../lib/gcc/avr/5.4.0/avr5\libgcc.a(_exit.o)
 *(.fini0)
                0x00000acc                _etext = .

.data           0x00800100        0x6 load address 0x00000acc
                0x00800100                PROVIDE (__data_start, .)
 *(.data)
 .data          0x00800100        0x0 c:/users/googy/desktop/eclipse/toolchain/bin/../lib/gcc/avr/5.4.0/../../../../avr/lib/avr5/crtatmega328p.o
 .data          0x00800100        0x0 ./src/main.o
 .data          0x00800100        0x0 ./src/mcp2515.o
 .data          0x00800100        0x0 ./src/ssd1306.o
 .data          0x00800100        0x0 ./src/twimaster.o
 .data          0x00800100        0x0 ./src/uart.o
 .data          0x00800100        0x0 c:/users/googy/desktop/eclipse/toolchain/bin/../lib/gcc/avr/5.4.0/avr5\libgcc.a(_udivmodqi4.o)
 .data          0x00800100        0x0 c:/users/googy/desktop/eclipse/toolchain/bin/../lib/gcc/avr/5.4.0/avr5\libgcc.a(_exit.o)
 .data          0x00800100        0x0 c:/users/googy/desktop/eclipse/toolchain/bin/../lib/gcc/avr/5.4.0/avr5\libgcc.a(_copy_data.o)
 .data          0x00800100        0x0 c:/users/googy/desktop/eclipse/toolchain/bin/../lib/gcc/avr/5.4.0/avr5\libgcc.a(_clear_bss.o)
 .data          0x00800100        0x0 c:/users/googy/desktop/eclipse/toolchain/bin/../lib/gcc/avr/5.4.0/../../../../avr/lib/avr5\libc.a(itoa_ncheck.o)
 .data          0x00800100        0x0 c:/users/googy/desktop/eclipse/toolchain/bin/../lib/gcc/avr/5.4.0/../../../../avr/lib/avr5\libc.a(utoa_ncheck.o)
 .data          0x00800100        0x0 c:/users/googy/desktop/eclipse/toolchain/bin/../lib/gcc/avr/5.4.0/../../../../avr/lib/avr5\libc.a(strrev.o)
 *(.data*)
 *(.gnu.linkonce.d*)
 *(.rodata)
 *(.rodata*)
 .rodata.str1.1
                0x00800100        0x6 ./src/main.o
 *(.gnu.linkonce.r*)
                0x00800106                . = ALIGN (0x2)
                0x00800106                _edata = .
                0x00800106                PROVIDE (__data_end, .)

.bss            0x00800106       0x8b
                0x00800106                PROVIDE (__bss_start, .)
 *(.bss)
 .bss           0x00800106        0x0 c:/users/googy/desktop/eclipse/toolchain/bin/../lib/gcc/avr/5.4.0/../../../../avr/lib/avr5/crtatmega328p.o
 .bss           0x00800106        0x0 ./src/main.o
 .bss           0x00800106        0x0 ./src/mcp2515.o
 .bss           0x00800106        0x0 ./src/ssd1306.o
 .bss           0x00800106        0x0 ./src/twimaster.o
 .bss           0x00800106        0x0 ./src/uart.o
 .bss           0x00800106        0x0 c:/users/googy/desktop/eclipse/toolchain/bin/../lib/gcc/avr/5.4.0/avr5\libgcc.a(_udivmodqi4.o)
 .bss           0x00800106        0x0 c:/users/googy/desktop/eclipse/toolchain/bin/../lib/gcc/avr/5.4.0/avr5\libgcc.a(_exit.o)
 .bss           0x00800106        0x0 c:/users/googy/desktop/eclipse/toolchain/bin/../lib/gcc/avr/5.4.0/avr5\libgcc.a(_copy_data.o)
 .bss           0x00800106        0x0 c:/users/googy/desktop/eclipse/toolchain/bin/../lib/gcc/avr/5.4.0/avr5\libgcc.a(_clear_bss.o)
 .bss           0x00800106        0x0 c:/users/googy/desktop/eclipse/toolchain/bin/../lib/gcc/avr/5.4.0/../../../../avr/lib/avr5\libc.a(itoa_ncheck.o)
 .bss           0x00800106        0x0 c:/users/googy/desktop/eclipse/toolchain/bin/../lib/gcc/avr/5.4.0/../../../../avr/lib/avr5\libc.a(utoa_ncheck.o)
 .bss           0x00800106        0x0 c:/users/googy/desktop/eclipse/toolchain/bin/../lib/gcc/avr/5.4.0/../../../../avr/lib/avr5\libc.a(strrev.o)
 *(.bss*)
 *(COMMON)
 COMMON         0x00800106       0x8b ./src/main.o
                0x00800106                message
                0x00800187                buf
                0x00800191                PROVIDE (__bss_end, .)
                0x00000acc                __data_load_start = LOADADDR (.data)
                0x00000ad2                __data_load_end = (__data_load_start + SIZEOF (.data))

.noinit         0x00800191        0x0
                [!provide]                PROVIDE (__noinit_start, .)
 *(.noinit*)
                [!provide]                PROVIDE (__noinit_end, .)
                0x00800191                _end = .
                [!provide]                PROVIDE (__heap_start, .)

.eeprom         0x00810000        0x0
 *(.eeprom*)
                0x00810000                __eeprom_end = .

.fuse
 *(.fuse)
 *(.lfuse)
 *(.hfuse)
 *(.efuse)

.lock
 *(.lock*)

.signature
 *(.signature*)

.user_signatures
 *(.user_signatures*)

.stab
 *(.stab)

.stabstr
 *(.stabstr)

.stab.excl
 *(.stab.excl)

.stab.exclstr
 *(.stab.exclstr)

.stab.index
 *(.stab.index)

.stab.indexstr
 *(.stab.indexstr)

.comment        0x00000000       0x30
 *(.comment)
 .comment       0x00000000       0x30 ./src/main.o
                                 0x31 (size before relaxing)
 .comment       0x00000030       0x31 ./src/mcp2515.o
 .comment       0x00000030       0x31 ./src/ssd1306.o
 .comment       0x00000030       0x31 ./src/twimaster.o
 .comment       0x00000030       0x31 ./src/uart.o

.note.gnu.avr.deviceinfo
                0x00000000       0x40
 .note.gnu.avr.deviceinfo
                0x00000000       0x40 c:/users/googy/desktop/eclipse/toolchain/bin/../lib/gcc/avr/5.4.0/../../../../avr/lib/avr5/crtatmega328p.o

.note.gnu.build-id
 *(.note.gnu.build-id)

.debug
 *(.debug)

.line
 *(.line)

.debug_srcinfo
 *(.debug_srcinfo)

.debug_sfnames
 *(.debug_sfnames)

.debug_aranges
 *(.debug_aranges)

.debug_pubnames
 *(.debug_pubnames)

.debug_info     0x00000000      0x5f4
 *(.debug_info .gnu.linkonce.wi.*)
 .debug_info    0x00000000      0x5f4 c:/users/googy/desktop/eclipse/toolchain/bin/../lib/gcc/avr/5.4.0/../../../../avr/lib/avr5/crtatmega328p.o

.debug_abbrev   0x00000000      0x5a2
 *(.debug_abbrev)
 .debug_abbrev  0x00000000      0x5a2 c:/users/googy/desktop/eclipse/toolchain/bin/../lib/gcc/avr/5.4.0/../../../../avr/lib/avr5/crtatmega328p.o

.debug_line     0x00000000       0x1a
 *(.debug_line .debug_line.* .debug_line_end)
 .debug_line    0x00000000       0x1a c:/users/googy/desktop/eclipse/toolchain/bin/../lib/gcc/avr/5.4.0/../../../../avr/lib/avr5/crtatmega328p.o

.debug_frame
 *(.debug_frame)

.debug_str      0x00000000      0x208
 *(.debug_str)
 .debug_str     0x00000000      0x208 c:/users/googy/desktop/eclipse/toolchain/bin/../lib/gcc/avr/5.4.0/../../../../avr/lib/avr5/crtatmega328p.o

.debug_loc
 *(.debug_loc)

.debug_macinfo
 *(.debug_macinfo)

.debug_weaknames
 *(.debug_weaknames)

.debug_funcnames
 *(.debug_funcnames)

.debug_typenames
 *(.debug_typenames)

.debug_varnames
 *(.debug_varnames)

.debug_pubtypes
 *(.debug_pubtypes)

.debug_ranges
 *(.debug_ranges)

.debug_macro
 *(.debug_macro)
OUTPUT(OLED_i2c.elf elf32-avr)
LOAD linker stubs
