
OLEDhardI2C.elf:     file format elf32-avr

Sections:
Idx Name          Size      VMA       LMA       File off  Algn
  0 .data         00000000  00800100  00000750  000007e4  2**0
                  CONTENTS, ALLOC, LOAD, DATA
  1 .text         00000750  00000000  00000000  00000094  2**1
                  CONTENTS, ALLOC, LOAD, READONLY, CODE
  2 .bss          0000000a  00800100  00800100  000007e4  2**0
                  ALLOC
  3 .comment      00000030  00000000  00000000  000007e4  2**0
                  CONTENTS, READONLY
  4 .note.gnu.avr.deviceinfo 00000040  00000000  00000000  00000814  2**2
                  CONTENTS, READONLY
  5 .debug_info   000005f4  00000000  00000000  00000854  2**0
                  CONTENTS, READONLY, DEBUGGING
  6 .debug_abbrev 000005a2  00000000  00000000  00000e48  2**0
                  CONTENTS, READONLY, DEBUGGING
  7 .debug_line   0000001a  00000000  00000000  000013ea  2**0
                  CONTENTS, READONLY, DEBUGGING
  8 .debug_str    00000208  00000000  00000000  00001404  2**0
                  CONTENTS, READONLY, DEBUGGING

Disassembly of section .text:

00000000 <__vectors>:
   0:	0c 94 65 01 	jmp	0x2ca	; 0x2ca <__ctors_end>
   4:	0c 94 77 01 	jmp	0x2ee	; 0x2ee <__bad_interrupt>
   8:	0c 94 77 01 	jmp	0x2ee	; 0x2ee <__bad_interrupt>
   c:	0c 94 77 01 	jmp	0x2ee	; 0x2ee <__bad_interrupt>
  10:	0c 94 77 01 	jmp	0x2ee	; 0x2ee <__bad_interrupt>
  14:	0c 94 77 01 	jmp	0x2ee	; 0x2ee <__bad_interrupt>
  18:	0c 94 77 01 	jmp	0x2ee	; 0x2ee <__bad_interrupt>
  1c:	0c 94 77 01 	jmp	0x2ee	; 0x2ee <__bad_interrupt>
  20:	0c 94 77 01 	jmp	0x2ee	; 0x2ee <__bad_interrupt>
  24:	0c 94 77 01 	jmp	0x2ee	; 0x2ee <__bad_interrupt>
  28:	0c 94 77 01 	jmp	0x2ee	; 0x2ee <__bad_interrupt>
  2c:	0c 94 77 01 	jmp	0x2ee	; 0x2ee <__bad_interrupt>
  30:	0c 94 77 01 	jmp	0x2ee	; 0x2ee <__bad_interrupt>
  34:	0c 94 77 01 	jmp	0x2ee	; 0x2ee <__bad_interrupt>
  38:	0c 94 77 01 	jmp	0x2ee	; 0x2ee <__bad_interrupt>
  3c:	0c 94 77 01 	jmp	0x2ee	; 0x2ee <__bad_interrupt>
  40:	0c 94 77 01 	jmp	0x2ee	; 0x2ee <__bad_interrupt>
  44:	0c 94 77 01 	jmp	0x2ee	; 0x2ee <__bad_interrupt>
  48:	0c 94 77 01 	jmp	0x2ee	; 0x2ee <__bad_interrupt>
  4c:	0c 94 77 01 	jmp	0x2ee	; 0x2ee <__bad_interrupt>
  50:	0c 94 77 01 	jmp	0x2ee	; 0x2ee <__bad_interrupt>
  54:	0c 94 77 01 	jmp	0x2ee	; 0x2ee <__bad_interrupt>
  58:	0c 94 77 01 	jmp	0x2ee	; 0x2ee <__bad_interrupt>
  5c:	0c 94 77 01 	jmp	0x2ee	; 0x2ee <__bad_interrupt>
  60:	0c 94 77 01 	jmp	0x2ee	; 0x2ee <__bad_interrupt>
  64:	0c 94 77 01 	jmp	0x2ee	; 0x2ee <__bad_interrupt>

00000068 <__trampolines_end>:
  68:	7f 3e       	cpi	r23, 0xEF	; 239
  6a:	1c 1c       	adc	r1, r12
  6c:	08 08       	sbc	r0, r8
  6e:	1c 1c       	adc	r1, r12
  70:	3e 7f       	andi	r19, 0xFE	; 254
  72:	14 22       	and	r1, r20
  74:	7f 22       	and	r7, r31
  76:	14 08       	sbc	r1, r4
  78:	04 7e       	andi	r16, 0xE4	; 228
  7a:	04 08       	sbc	r0, r4
  7c:	10 20       	and	r1, r0
  7e:	7e 20       	and	r7, r14
  80:	10 08       	sbc	r1, r0
  82:	08 2a       	or	r0, r24
  84:	1c 08       	sbc	r1, r12
  86:	08 1c       	adc	r0, r8
  88:	2a 08       	sbc	r2, r10
  8a:	08 00       	.word	0x0008	; ????
  8c:	00 00       	nop
  8e:	00 00       	nop
  90:	00 00       	nop
  92:	5f 00       	.word	0x005f	; ????
  94:	00 00       	nop
  96:	07 00       	.word	0x0007	; ????
  98:	07 00       	.word	0x0007	; ????
  9a:	14 7f       	andi	r17, 0xF4	; 244
  9c:	14 7f       	andi	r17, 0xF4	; 244
  9e:	14 00       	.word	0x0014	; ????
  a0:	00 00       	nop
  a2:	00 00       	nop
  a4:	23 13       	cpse	r18, r19
  a6:	08 64       	ori	r16, 0x48	; 72
  a8:	62 36       	cpi	r22, 0x62	; 98
  aa:	49 56       	subi	r20, 0x69	; 105
  ac:	20 50       	subi	r18, 0x00	; 0
  ae:	00 08       	sbc	r0, r0
  b0:	07 03       	mulsu	r16, r23
  b2:	00 00       	nop
  b4:	1c 22       	and	r1, r28
  b6:	41 00       	.word	0x0041	; ????
  b8:	00 41       	sbci	r16, 0x10	; 16
  ba:	22 1c       	adc	r2, r2
  bc:	00 2a       	or	r0, r16
  be:	1c 7f       	andi	r17, 0xFC	; 252
  c0:	1c 2a       	or	r1, r28
  c2:	08 08       	sbc	r0, r8
  c4:	3e 08       	sbc	r3, r14
  c6:	08 00       	.word	0x0008	; ????
  c8:	80 70       	andi	r24, 0x00	; 0
  ca:	30 00       	.word	0x0030	; ????
  cc:	08 08       	sbc	r0, r8
  ce:	08 08       	sbc	r0, r8
  d0:	08 00       	.word	0x0008	; ????
  d2:	00 60       	ori	r16, 0x00	; 0
  d4:	60 00       	.word	0x0060	; ????
  d6:	20 10       	cpse	r2, r0
  d8:	08 04       	cpc	r0, r8
  da:	02 3e       	cpi	r16, 0xE2	; 226
  dc:	51 49       	sbci	r21, 0x91	; 145
  de:	45 3e       	cpi	r20, 0xE5	; 229
  e0:	00 42       	sbci	r16, 0x20	; 32
  e2:	7f 40       	sbci	r23, 0x0F	; 15
  e4:	00 72       	andi	r16, 0x20	; 32
  e6:	49 49       	sbci	r20, 0x99	; 153
  e8:	49 46       	sbci	r20, 0x69	; 105
  ea:	21 41       	sbci	r18, 0x11	; 17
  ec:	49 4d       	sbci	r20, 0xD9	; 217
  ee:	33 18       	sub	r3, r3
  f0:	14 12       	cpse	r1, r20
  f2:	7f 10       	cpse	r7, r15
  f4:	27 45       	sbci	r18, 0x57	; 87
  f6:	45 45       	sbci	r20, 0x55	; 85
  f8:	39 3c       	cpi	r19, 0xC9	; 201
  fa:	4a 49       	sbci	r20, 0x9A	; 154
  fc:	49 31       	cpi	r20, 0x19	; 25
  fe:	41 21       	and	r20, r1
 100:	11 09       	sbc	r17, r1
 102:	07 36       	cpi	r16, 0x67	; 103
 104:	49 49       	sbci	r20, 0x99	; 153
 106:	49 36       	cpi	r20, 0x69	; 105
 108:	46 49       	sbci	r20, 0x96	; 150
 10a:	49 29       	or	r20, r9
 10c:	1e 00       	.word	0x001e	; ????
 10e:	00 14       	cp	r0, r0
 110:	00 00       	nop
 112:	00 40       	sbci	r16, 0x00	; 0
 114:	34 00       	.word	0x0034	; ????
 116:	00 00       	nop
 118:	08 14       	cp	r0, r8
 11a:	22 41       	sbci	r18, 0x12	; 18
 11c:	14 14       	cp	r1, r4
 11e:	14 14       	cp	r1, r4
 120:	14 00       	.word	0x0014	; ????
 122:	41 22       	and	r4, r17
 124:	14 08       	sbc	r1, r4
 126:	02 01       	movw	r0, r4
 128:	59 09       	sbc	r21, r9
 12a:	06 3e       	cpi	r16, 0xE6	; 230
 12c:	41 5d       	subi	r20, 0xD1	; 209
 12e:	59 4e       	sbci	r21, 0xE9	; 233
 130:	7c 12       	cpse	r7, r28
 132:	11 12       	cpse	r1, r17
 134:	7c 7f       	andi	r23, 0xFC	; 252
 136:	49 49       	sbci	r20, 0x99	; 153
 138:	49 36       	cpi	r20, 0x69	; 105
 13a:	3e 41       	sbci	r19, 0x1E	; 30
 13c:	41 41       	sbci	r20, 0x11	; 17
 13e:	22 7f       	andi	r18, 0xF2	; 242
 140:	41 41       	sbci	r20, 0x11	; 17
 142:	41 3e       	cpi	r20, 0xE1	; 225
 144:	7f 49       	sbci	r23, 0x9F	; 159
 146:	49 49       	sbci	r20, 0x99	; 153
 148:	41 7f       	andi	r20, 0xF1	; 241
 14a:	09 09       	sbc	r16, r9
 14c:	09 01       	movw	r0, r18
 14e:	3e 41       	sbci	r19, 0x1E	; 30
 150:	41 51       	subi	r20, 0x11	; 17
 152:	73 7f       	andi	r23, 0xF3	; 243
 154:	08 08       	sbc	r0, r8
 156:	08 7f       	andi	r16, 0xF8	; 248
 158:	00 41       	sbci	r16, 0x10	; 16
 15a:	7f 41       	sbci	r23, 0x1F	; 31
 15c:	00 20       	and	r0, r0
 15e:	40 41       	sbci	r20, 0x10	; 16
 160:	3f 01       	movw	r6, r30
 162:	7f 08       	sbc	r7, r15
 164:	14 22       	and	r1, r20
 166:	41 7f       	andi	r20, 0xF1	; 241
 168:	40 40       	sbci	r20, 0x00	; 0
 16a:	40 40       	sbci	r20, 0x00	; 0
 16c:	7f 02       	muls	r23, r31
 16e:	1c 02       	muls	r17, r28
 170:	7f 7f       	andi	r23, 0xFF	; 255
 172:	04 08       	sbc	r0, r4
 174:	10 7f       	andi	r17, 0xF0	; 240
 176:	3e 41       	sbci	r19, 0x1E	; 30
 178:	41 41       	sbci	r20, 0x11	; 17
 17a:	3e 7f       	andi	r19, 0xFE	; 254
 17c:	09 09       	sbc	r16, r9
 17e:	09 06       	cpc	r0, r25
 180:	3e 41       	sbci	r19, 0x1E	; 30
 182:	51 21       	and	r21, r1
 184:	5e 7f       	andi	r21, 0xFE	; 254
 186:	09 19       	sub	r16, r9
 188:	29 46       	sbci	r18, 0x69	; 105
 18a:	26 49       	sbci	r18, 0x96	; 150
 18c:	49 49       	sbci	r20, 0x99	; 153
 18e:	32 03       	mulsu	r19, r18
 190:	01 7f       	andi	r16, 0xF1	; 241
 192:	01 03       	mulsu	r16, r17
 194:	3f 40       	sbci	r19, 0x0F	; 15
 196:	40 40       	sbci	r20, 0x00	; 0
 198:	3f 1f       	adc	r19, r31
 19a:	20 40       	sbci	r18, 0x00	; 0
 19c:	20 1f       	adc	r18, r16
 19e:	3f 40       	sbci	r19, 0x0F	; 15
 1a0:	38 40       	sbci	r19, 0x08	; 8
 1a2:	3f 63       	ori	r19, 0x3F	; 63
 1a4:	14 08       	sbc	r1, r4
 1a6:	14 63       	ori	r17, 0x34	; 52
 1a8:	03 04       	cpc	r0, r3
 1aa:	78 04       	cpc	r7, r8
 1ac:	03 61       	ori	r16, 0x13	; 19
 1ae:	59 49       	sbci	r21, 0x99	; 153
 1b0:	4d 43       	sbci	r20, 0x3D	; 61
 1b2:	00 7f       	andi	r16, 0xF0	; 240
 1b4:	41 41       	sbci	r20, 0x11	; 17
 1b6:	41 02       	muls	r20, r17
 1b8:	04 08       	sbc	r0, r4
 1ba:	10 20       	and	r1, r0
 1bc:	00 41       	sbci	r16, 0x10	; 16
 1be:	41 41       	sbci	r20, 0x11	; 17
 1c0:	7f 04       	cpc	r7, r15
 1c2:	02 01       	movw	r0, r4
 1c4:	02 04       	cpc	r0, r2
 1c6:	40 40       	sbci	r20, 0x00	; 0
 1c8:	40 40       	sbci	r20, 0x00	; 0
 1ca:	40 00       	.word	0x0040	; ????
 1cc:	03 07       	cpc	r16, r19
 1ce:	08 00       	.word	0x0008	; ????
 1d0:	20 54       	subi	r18, 0x40	; 64
 1d2:	54 78       	andi	r21, 0x84	; 132
 1d4:	40 7f       	andi	r20, 0xF0	; 240
 1d6:	28 44       	sbci	r18, 0x48	; 72
 1d8:	44 38       	cpi	r20, 0x84	; 132
 1da:	38 44       	sbci	r19, 0x48	; 72
 1dc:	44 44       	sbci	r20, 0x44	; 68
 1de:	28 38       	cpi	r18, 0x88	; 136
 1e0:	44 44       	sbci	r20, 0x44	; 68
 1e2:	28 7f       	andi	r18, 0xF8	; 248
 1e4:	38 54       	subi	r19, 0x48	; 72
 1e6:	54 54       	subi	r21, 0x44	; 68
 1e8:	18 00       	.word	0x0018	; ????
 1ea:	08 7e       	andi	r16, 0xE8	; 232
 1ec:	09 02       	muls	r16, r25
 1ee:	18 a4       	ldd	r1, Y+40	; 0x28
 1f0:	a4 9c       	mul	r10, r4
 1f2:	78 7f       	andi	r23, 0xF8	; 248
 1f4:	08 04       	cpc	r0, r8
 1f6:	04 78       	andi	r16, 0x84	; 132
 1f8:	00 44       	sbci	r16, 0x40	; 64
 1fa:	7d 40       	sbci	r23, 0x0D	; 13
 1fc:	00 20       	and	r0, r0
 1fe:	40 40       	sbci	r20, 0x00	; 0
 200:	3d 00       	.word	0x003d	; ????
 202:	7f 10       	cpse	r7, r15
 204:	28 44       	sbci	r18, 0x48	; 72
 206:	00 00       	nop
 208:	41 7f       	andi	r20, 0xF1	; 241
 20a:	40 00       	.word	0x0040	; ????
 20c:	7c 04       	cpc	r7, r12
 20e:	78 04       	cpc	r7, r8
 210:	78 7c       	andi	r23, 0xC8	; 200
 212:	08 04       	cpc	r0, r8
 214:	04 78       	andi	r16, 0x84	; 132
 216:	38 44       	sbci	r19, 0x48	; 72
 218:	44 44       	sbci	r20, 0x44	; 68
 21a:	38 fc       	.word	0xfc38	; ????
 21c:	18 24       	eor	r1, r8
 21e:	24 18       	sub	r2, r4
 220:	18 24       	eor	r1, r8
 222:	24 18       	sub	r2, r4
 224:	fc 7c       	andi	r31, 0xCC	; 204
 226:	08 04       	cpc	r0, r8
 228:	04 08       	sbc	r0, r4
 22a:	48 54       	subi	r20, 0x48	; 72
 22c:	54 54       	subi	r21, 0x44	; 68
 22e:	24 04       	cpc	r2, r4
 230:	04 3f       	cpi	r16, 0xF4	; 244
 232:	44 24       	eor	r4, r4
 234:	3c 40       	sbci	r19, 0x0C	; 12
 236:	40 20       	and	r4, r0
 238:	7c 1c       	adc	r7, r12
 23a:	20 40       	sbci	r18, 0x00	; 0
 23c:	20 1c       	adc	r2, r0
 23e:	3c 40       	sbci	r19, 0x0C	; 12
 240:	30 40       	sbci	r19, 0x00	; 0
 242:	3c 44       	sbci	r19, 0x4C	; 76
 244:	28 10       	cpse	r2, r8
 246:	28 44       	sbci	r18, 0x48	; 72
 248:	4c 90       	ld	r4, X
 24a:	90 90 7c 44 	lds	r9, 0x447C	; 0x80447c <__bss_end+0x4372>
 24e:	64 54       	subi	r22, 0x44	; 68
 250:	4c 44       	sbci	r20, 0x4C	; 76
 252:	00 08       	sbc	r0, r0
 254:	36 41       	sbci	r19, 0x16	; 22
 256:	00 00       	nop
 258:	00 77       	andi	r16, 0x70	; 112
 25a:	00 00       	nop
 25c:	00 41       	sbci	r16, 0x10	; 16
 25e:	36 08       	sbc	r3, r6
 260:	00 02       	muls	r16, r16
 262:	01 02       	muls	r16, r17
 264:	04 02       	muls	r16, r20
 266:	3a 40       	sbci	r19, 0x0A	; 10
 268:	40 20       	and	r4, r0
 26a:	7a 22       	and	r7, r26
 26c:	54 54       	subi	r21, 0x44	; 68
 26e:	78 42       	sbci	r23, 0x28	; 40
 270:	7d 12       	cpse	r7, r29
 272:	11 12       	cpse	r1, r17
 274:	7d 3a       	cpi	r23, 0xAD	; 173
 276:	44 44       	sbci	r20, 0x44	; 68
 278:	44 3a       	cpi	r20, 0xA4	; 164
 27a:	3d 42       	sbci	r19, 0x2D	; 45
 27c:	42 42       	sbci	r20, 0x22	; 34
 27e:	3d 3d       	cpi	r19, 0xDD	; 221
 280:	40 40       	sbci	r20, 0x00	; 0
 282:	40 3d       	cpi	r20, 0xD0	; 208
 284:	38 44       	sbci	r19, 0x48	; 72
 286:	44 38       	cpi	r20, 0x84	; 132
 288:	44 fc       	sbrc	r4, 4
 28a:	4a 4a       	sbci	r20, 0xAA	; 170
 28c:	4a 34       	cpi	r20, 0x4A	; 74
 28e:	7e 02       	muls	r23, r30
 290:	02 06       	cpc	r0, r18
 292:	06 02       	muls	r16, r22
 294:	7e 02       	muls	r23, r30
 296:	7e 02       	muls	r23, r30
 298:	63 55       	subi	r22, 0x53	; 83
 29a:	49 41       	sbci	r20, 0x19	; 25
 29c:	63 38       	cpi	r22, 0x83	; 131
 29e:	44 44       	sbci	r20, 0x44	; 68
 2a0:	3c 04       	cpc	r3, r12
 2a2:	40 7e       	andi	r20, 0xE0	; 224
 2a4:	20 1e       	adc	r2, r16
 2a6:	20 4c       	sbci	r18, 0xC0	; 192
 2a8:	72 01       	movw	r14, r4
 2aa:	72 4c       	sbci	r23, 0xC2	; 194
 2ac:	bc 62       	ori	r27, 0x2C	; 44
 2ae:	5a 46       	sbci	r21, 0x6A	; 106
 2b0:	3d 44       	sbci	r19, 0x4D	; 77
 2b2:	44 5f       	subi	r20, 0xF4	; 244
 2b4:	44 44       	sbci	r20, 0x44	; 68
 2b6:	40 51       	subi	r20, 0x10	; 16
 2b8:	4a 44       	sbci	r20, 0x4A	; 74
 2ba:	40 40       	sbci	r20, 0x00	; 0
 2bc:	44 4a       	sbci	r20, 0xA4	; 164
 2be:	51 40       	sbci	r21, 0x01	; 1
 2c0:	36 12       	cpse	r3, r22
 2c2:	36 24       	eor	r3, r6
 2c4:	36 06       	cpc	r3, r22
 2c6:	0f 09       	sbc	r16, r15
 2c8:	0f 06       	cpc	r0, r31

000002ca <__ctors_end>:
 2ca:	11 24       	eor	r1, r1
 2cc:	1f be       	out	0x3f, r1	; 63
 2ce:	cf ef       	ldi	r28, 0xFF	; 255
 2d0:	d8 e0       	ldi	r29, 0x08	; 8
 2d2:	de bf       	out	0x3e, r29	; 62
 2d4:	cd bf       	out	0x3d, r28	; 61

000002d6 <__do_clear_bss>:
 2d6:	21 e0       	ldi	r18, 0x01	; 1
 2d8:	a0 e0       	ldi	r26, 0x00	; 0
 2da:	b1 e0       	ldi	r27, 0x01	; 1
 2dc:	01 c0       	rjmp	.+2      	; 0x2e0 <.do_clear_bss_start>

000002de <.do_clear_bss_loop>:
 2de:	1d 92       	st	X+, r1

000002e0 <.do_clear_bss_start>:
 2e0:	aa 30       	cpi	r26, 0x0A	; 10
 2e2:	b2 07       	cpc	r27, r18
 2e4:	e1 f7       	brne	.-8      	; 0x2de <.do_clear_bss_loop>
 2e6:	0e 94 79 01 	call	0x2f2	; 0x2f2 <main>
 2ea:	0c 94 a6 03 	jmp	0x74c	; 0x74c <_exit>

000002ee <__bad_interrupt>:
 2ee:	0c 94 00 00 	jmp	0	; 0x0 <__vectors>

000002f2 <main>:
 2f2:	0e 94 9d 01 	call	0x33a	; 0x33a <init_ssd1306>
 2f6:	0e 94 f2 01 	call	0x3e4	; 0x3e4 <clear>
 2fa:	c0 e0       	ldi	r28, 0x00	; 0
 2fc:	d0 e0       	ldi	r29, 0x00	; 0
 2fe:	60 e0       	ldi	r22, 0x00	; 0
 300:	80 e0       	ldi	r24, 0x00	; 0
 302:	0e 94 2f 02 	call	0x45e	; 0x45e <setCursor>
 306:	4a e0       	ldi	r20, 0x0A	; 10
 308:	60 e0       	ldi	r22, 0x00	; 0
 30a:	71 e0       	ldi	r23, 0x01	; 1
 30c:	ce 01       	movw	r24, r28
 30e:	0e 94 71 03 	call	0x6e2	; 0x6e2 <__itoa_ncheck>
 312:	80 e0       	ldi	r24, 0x00	; 0
 314:	91 e0       	ldi	r25, 0x01	; 1
 316:	0e 94 73 02 	call	0x4e6	; 0x4e6 <oled_print>
 31a:	21 96       	adiw	r28, 0x01	; 1
 31c:	f0 cf       	rjmp	.-32     	; 0x2fe <main+0xc>

0000031e <sendCommand>:
 31e:	cf 93       	push	r28
 320:	c8 2f       	mov	r28, r24
 322:	88 e7       	ldi	r24, 0x78	; 120
 324:	0e 94 ad 02 	call	0x55a	; 0x55a <i2c_start>
 328:	80 e0       	ldi	r24, 0x00	; 0
 32a:	0e 94 fc 02 	call	0x5f8	; 0x5f8 <i2c_write>
 32e:	8c 2f       	mov	r24, r28
 330:	0e 94 fc 02 	call	0x5f8	; 0x5f8 <i2c_write>
 334:	cf 91       	pop	r28
 336:	0c 94 f8 02 	jmp	0x5f0	; 0x5f0 <i2c_stop>

0000033a <init_ssd1306>:
 33a:	0e 94 a7 02 	call	0x54e	; 0x54e <i2c_init>
 33e:	88 e7       	ldi	r24, 0x78	; 120
 340:	0e 94 ad 02 	call	0x55a	; 0x55a <i2c_start>
 344:	8e ea       	ldi	r24, 0xAE	; 174
 346:	0e 94 8f 01 	call	0x31e	; 0x31e <sendCommand>
 34a:	85 ed       	ldi	r24, 0xD5	; 213
 34c:	0e 94 8f 01 	call	0x31e	; 0x31e <sendCommand>
 350:	80 e8       	ldi	r24, 0x80	; 128
 352:	0e 94 8f 01 	call	0x31e	; 0x31e <sendCommand>
 356:	88 ea       	ldi	r24, 0xA8	; 168
 358:	0e 94 8f 01 	call	0x31e	; 0x31e <sendCommand>
 35c:	8f e1       	ldi	r24, 0x1F	; 31
 35e:	0e 94 8f 01 	call	0x31e	; 0x31e <sendCommand>
 362:	83 ed       	ldi	r24, 0xD3	; 211
 364:	0e 94 8f 01 	call	0x31e	; 0x31e <sendCommand>
 368:	80 e0       	ldi	r24, 0x00	; 0
 36a:	0e 94 8f 01 	call	0x31e	; 0x31e <sendCommand>
 36e:	80 e4       	ldi	r24, 0x40	; 64
 370:	0e 94 8f 01 	call	0x31e	; 0x31e <sendCommand>
 374:	8d e8       	ldi	r24, 0x8D	; 141
 376:	0e 94 8f 01 	call	0x31e	; 0x31e <sendCommand>
 37a:	84 e1       	ldi	r24, 0x14	; 20
 37c:	0e 94 8f 01 	call	0x31e	; 0x31e <sendCommand>
 380:	80 e2       	ldi	r24, 0x20	; 32
 382:	0e 94 8f 01 	call	0x31e	; 0x31e <sendCommand>
 386:	80 e0       	ldi	r24, 0x00	; 0
 388:	0e 94 8f 01 	call	0x31e	; 0x31e <sendCommand>
 38c:	81 ea       	ldi	r24, 0xA1	; 161
 38e:	0e 94 8f 01 	call	0x31e	; 0x31e <sendCommand>
 392:	88 ec       	ldi	r24, 0xC8	; 200
 394:	0e 94 8f 01 	call	0x31e	; 0x31e <sendCommand>
 398:	8a ed       	ldi	r24, 0xDA	; 218
 39a:	0e 94 8f 01 	call	0x31e	; 0x31e <sendCommand>
 39e:	82 e0       	ldi	r24, 0x02	; 2
 3a0:	0e 94 8f 01 	call	0x31e	; 0x31e <sendCommand>
 3a4:	81 e8       	ldi	r24, 0x81	; 129
 3a6:	0e 94 8f 01 	call	0x31e	; 0x31e <sendCommand>
 3aa:	8f e8       	ldi	r24, 0x8F	; 143
 3ac:	0e 94 8f 01 	call	0x31e	; 0x31e <sendCommand>
 3b0:	89 ed       	ldi	r24, 0xD9	; 217
 3b2:	0e 94 8f 01 	call	0x31e	; 0x31e <sendCommand>
 3b6:	81 ef       	ldi	r24, 0xF1	; 241
 3b8:	0e 94 8f 01 	call	0x31e	; 0x31e <sendCommand>
 3bc:	8b ed       	ldi	r24, 0xDB	; 219
 3be:	0e 94 8f 01 	call	0x31e	; 0x31e <sendCommand>
 3c2:	80 e4       	ldi	r24, 0x40	; 64
 3c4:	0e 94 8f 01 	call	0x31e	; 0x31e <sendCommand>
 3c8:	84 ea       	ldi	r24, 0xA4	; 164
 3ca:	0e 94 8f 01 	call	0x31e	; 0x31e <sendCommand>
 3ce:	86 ea       	ldi	r24, 0xA6	; 166
 3d0:	0e 94 8f 01 	call	0x31e	; 0x31e <sendCommand>
 3d4:	8e e2       	ldi	r24, 0x2E	; 46
 3d6:	0e 94 8f 01 	call	0x31e	; 0x31e <sendCommand>
 3da:	8f ea       	ldi	r24, 0xAF	; 175
 3dc:	0e 94 8f 01 	call	0x31e	; 0x31e <sendCommand>
 3e0:	0c 94 f8 02 	jmp	0x5f0	; 0x5f0 <i2c_stop>

000003e4 <clear>:
 3e4:	0f 93       	push	r16
 3e6:	1f 93       	push	r17
 3e8:	cf 93       	push	r28
 3ea:	df 93       	push	r29
 3ec:	81 e2       	ldi	r24, 0x21	; 33
 3ee:	0e 94 8f 01 	call	0x31e	; 0x31e <sendCommand>
 3f2:	80 e0       	ldi	r24, 0x00	; 0
 3f4:	0e 94 8f 01 	call	0x31e	; 0x31e <sendCommand>
 3f8:	8f e7       	ldi	r24, 0x7F	; 127
 3fa:	0e 94 8f 01 	call	0x31e	; 0x31e <sendCommand>
 3fe:	82 e2       	ldi	r24, 0x22	; 34
 400:	0e 94 8f 01 	call	0x31e	; 0x31e <sendCommand>
 404:	80 e0       	ldi	r24, 0x00	; 0
 406:	0e 94 8f 01 	call	0x31e	; 0x31e <sendCommand>
 40a:	83 e0       	ldi	r24, 0x03	; 3
 40c:	0e 94 8f 01 	call	0x31e	; 0x31e <sendCommand>
 410:	00 91 b8 00 	lds	r16, 0x00B8	; 0x8000b8 <__TEXT_REGION_LENGTH__+0x7e00b8>
 414:	8c e0       	ldi	r24, 0x0C	; 12
 416:	80 93 b8 00 	sts	0x00B8, r24	; 0x8000b8 <__TEXT_REGION_LENGTH__+0x7e00b8>
 41a:	c0 e0       	ldi	r28, 0x00	; 0
 41c:	d0 e0       	ldi	r29, 0x00	; 0
 41e:	88 e7       	ldi	r24, 0x78	; 120
 420:	0e 94 ad 02 	call	0x55a	; 0x55a <i2c_start>
 424:	88 23       	and	r24, r24
 426:	19 f0       	breq	.+6      	; 0x42e <__LOCK_REGION_LENGTH__+0x2e>
 428:	0e 94 f8 02 	call	0x5f0	; 0x5f0 <i2c_stop>
 42c:	0e c0       	rjmp	.+28     	; 0x44a <__LOCK_REGION_LENGTH__+0x4a>
 42e:	80 e4       	ldi	r24, 0x40	; 64
 430:	0e 94 fc 02 	call	0x5f8	; 0x5f8 <i2c_write>
 434:	10 e1       	ldi	r17, 0x10	; 16
 436:	80 e0       	ldi	r24, 0x00	; 0
 438:	0e 94 fc 02 	call	0x5f8	; 0x5f8 <i2c_write>
 43c:	11 50       	subi	r17, 0x01	; 1
 43e:	d9 f7       	brne	.-10     	; 0x436 <__LOCK_REGION_LENGTH__+0x36>
 440:	2f 96       	adiw	r28, 0x0f	; 15
 442:	0e 94 f8 02 	call	0x5f0	; 0x5f0 <i2c_stop>
 446:	00 93 b8 00 	sts	0x00B8, r16	; 0x8000b8 <__TEXT_REGION_LENGTH__+0x7e00b8>
 44a:	21 96       	adiw	r28, 0x01	; 1
 44c:	c1 15       	cp	r28, r1
 44e:	82 e0       	ldi	r24, 0x02	; 2
 450:	d8 07       	cpc	r29, r24
 452:	28 f3       	brcs	.-54     	; 0x41e <__LOCK_REGION_LENGTH__+0x1e>
 454:	df 91       	pop	r29
 456:	cf 91       	pop	r28
 458:	1f 91       	pop	r17
 45a:	0f 91       	pop	r16
 45c:	08 95       	ret

0000045e <setCursor>:
 45e:	cf 93       	push	r28
 460:	df 93       	push	r29
 462:	c8 2f       	mov	r28, r24
 464:	d6 2f       	mov	r29, r22
 466:	81 e2       	ldi	r24, 0x21	; 33
 468:	0e 94 8f 01 	call	0x31e	; 0x31e <sendCommand>
 46c:	8d 2f       	mov	r24, r29
 46e:	0e 94 8f 01 	call	0x31e	; 0x31e <sendCommand>
 472:	8f e7       	ldi	r24, 0x7F	; 127
 474:	0e 94 8f 01 	call	0x31e	; 0x31e <sendCommand>
 478:	82 e2       	ldi	r24, 0x22	; 34
 47a:	0e 94 8f 01 	call	0x31e	; 0x31e <sendCommand>
 47e:	8c 2f       	mov	r24, r28
 480:	0e 94 8f 01 	call	0x31e	; 0x31e <sendCommand>
 484:	83 e0       	ldi	r24, 0x03	; 3
 486:	df 91       	pop	r29
 488:	cf 91       	pop	r28
 48a:	0c 94 8f 01 	jmp	0x31e	; 0x31e <sendCommand>

0000048e <write_bytes>:
 48e:	ff 92       	push	r15
 490:	0f 93       	push	r16
 492:	1f 93       	push	r17
 494:	cf 93       	push	r28
 496:	df 93       	push	r29
 498:	06 2f       	mov	r16, r22
 49a:	88 e7       	ldi	r24, 0x78	; 120
 49c:	0e 94 ad 02 	call	0x55a	; 0x55a <i2c_start>
 4a0:	80 e4       	ldi	r24, 0x40	; 64
 4a2:	0e 94 fc 02 	call	0x5f8	; 0x5f8 <i2c_write>
 4a6:	10 e0       	ldi	r17, 0x00	; 0
 4a8:	c0 e0       	ldi	r28, 0x00	; 0
 4aa:	d0 e0       	ldi	r29, 0x00	; 0
 4ac:	85 e0       	ldi	r24, 0x05	; 5
 4ae:	f8 2e       	mov	r15, r24
 4b0:	8c 2f       	mov	r24, r28
 4b2:	c0 17       	cp	r28, r16
 4b4:	d1 07       	cpc	r29, r17
 4b6:	81 f0       	breq	.+32     	; 0x4d8 <write_bytes+0x4a>
 4b8:	6f 2d       	mov	r22, r15
 4ba:	0e 94 65 03 	call	0x6ca	; 0x6ca <__udivmodqi4>
 4be:	91 11       	cpse	r25, r1
 4c0:	03 c0       	rjmp	.+6      	; 0x4c8 <write_bytes+0x3a>
 4c2:	80 e0       	ldi	r24, 0x00	; 0
 4c4:	0e 94 fc 02 	call	0x5f8	; 0x5f8 <i2c_write>
 4c8:	fe 01       	movw	r30, r28
 4ca:	e9 5a       	subi	r30, 0xA9	; 169
 4cc:	fd 4f       	sbci	r31, 0xFD	; 253
 4ce:	84 91       	lpm	r24, Z
 4d0:	0e 94 fc 02 	call	0x5f8	; 0x5f8 <i2c_write>
 4d4:	21 96       	adiw	r28, 0x01	; 1
 4d6:	ec cf       	rjmp	.-40     	; 0x4b0 <write_bytes+0x22>
 4d8:	df 91       	pop	r29
 4da:	cf 91       	pop	r28
 4dc:	1f 91       	pop	r17
 4de:	0f 91       	pop	r16
 4e0:	ff 90       	pop	r15
 4e2:	0c 94 f8 02 	jmp	0x5f0	; 0x5f0 <i2c_stop>

000004e6 <oled_print>:
 4e6:	ff 92       	push	r15
 4e8:	0f 93       	push	r16
 4ea:	1f 93       	push	r17
 4ec:	cf 93       	push	r28
 4ee:	df 93       	push	r29
 4f0:	ec 01       	movw	r28, r24
 4f2:	85 e0       	ldi	r24, 0x05	; 5
 4f4:	f8 2e       	mov	r15, r24
 4f6:	88 81       	ld	r24, Y
 4f8:	88 23       	and	r24, r24
 4fa:	19 f1       	breq	.+70     	; 0x542 <oled_print+0x5c>
 4fc:	88 e7       	ldi	r24, 0x78	; 120
 4fe:	0e 94 ad 02 	call	0x55a	; 0x55a <i2c_start>
 502:	80 e4       	ldi	r24, 0x40	; 64
 504:	0e 94 fc 02 	call	0x5f8	; 0x5f8 <i2c_write>
 508:	00 e0       	ldi	r16, 0x00	; 0
 50a:	10 e0       	ldi	r17, 0x00	; 0
 50c:	88 81       	ld	r24, Y
 50e:	90 e0       	ldi	r25, 0x00	; 0
 510:	49 97       	sbiw	r24, 0x19	; 25
 512:	f8 9e       	mul	r15, r24
 514:	f0 01       	movw	r30, r0
 516:	f9 9e       	mul	r15, r25
 518:	f0 0d       	add	r31, r0
 51a:	11 24       	eor	r1, r1
 51c:	e0 0f       	add	r30, r16
 51e:	f1 1f       	adc	r31, r17
 520:	e8 59       	subi	r30, 0x98	; 152
 522:	ff 4f       	sbci	r31, 0xFF	; 255
 524:	84 91       	lpm	r24, Z
 526:	0e 94 fc 02 	call	0x5f8	; 0x5f8 <i2c_write>
 52a:	0f 5f       	subi	r16, 0xFF	; 255
 52c:	1f 4f       	sbci	r17, 0xFF	; 255
 52e:	05 30       	cpi	r16, 0x05	; 5
 530:	11 05       	cpc	r17, r1
 532:	61 f7       	brne	.-40     	; 0x50c <oled_print+0x26>
 534:	80 e0       	ldi	r24, 0x00	; 0
 536:	0e 94 fc 02 	call	0x5f8	; 0x5f8 <i2c_write>
 53a:	21 96       	adiw	r28, 0x01	; 1
 53c:	0e 94 f8 02 	call	0x5f0	; 0x5f0 <i2c_stop>
 540:	da cf       	rjmp	.-76     	; 0x4f6 <oled_print+0x10>
 542:	df 91       	pop	r29
 544:	cf 91       	pop	r28
 546:	1f 91       	pop	r17
 548:	0f 91       	pop	r16
 54a:	ff 90       	pop	r15
 54c:	08 95       	ret

0000054e <i2c_init>:
 54e:	10 92 b9 00 	sts	0x00B9, r1	; 0x8000b9 <__TEXT_REGION_LENGTH__+0x7e00b9>
 552:	88 e4       	ldi	r24, 0x48	; 72
 554:	80 93 b8 00 	sts	0x00B8, r24	; 0x8000b8 <__TEXT_REGION_LENGTH__+0x7e00b8>
 558:	08 95       	ret

0000055a <i2c_start>:
 55a:	94 ea       	ldi	r25, 0xA4	; 164
 55c:	90 93 bc 00 	sts	0x00BC, r25	; 0x8000bc <__TEXT_REGION_LENGTH__+0x7e00bc>
 560:	90 91 bc 00 	lds	r25, 0x00BC	; 0x8000bc <__TEXT_REGION_LENGTH__+0x7e00bc>
 564:	97 ff       	sbrs	r25, 7
 566:	fc cf       	rjmp	.-8      	; 0x560 <i2c_start+0x6>
 568:	90 91 b9 00 	lds	r25, 0x00B9	; 0x8000b9 <__TEXT_REGION_LENGTH__+0x7e00b9>
 56c:	98 7f       	andi	r25, 0xF8	; 248
 56e:	98 30       	cpi	r25, 0x08	; 8
 570:	21 f0       	breq	.+8      	; 0x57a <i2c_start+0x20>
 572:	90 31       	cpi	r25, 0x10	; 16
 574:	11 f0       	breq	.+4      	; 0x57a <i2c_start+0x20>
 576:	81 e0       	ldi	r24, 0x01	; 1
 578:	08 95       	ret
 57a:	80 93 bb 00 	sts	0x00BB, r24	; 0x8000bb <__TEXT_REGION_LENGTH__+0x7e00bb>
 57e:	84 e8       	ldi	r24, 0x84	; 132
 580:	80 93 bc 00 	sts	0x00BC, r24	; 0x8000bc <__TEXT_REGION_LENGTH__+0x7e00bc>
 584:	80 91 bc 00 	lds	r24, 0x00BC	; 0x8000bc <__TEXT_REGION_LENGTH__+0x7e00bc>
 588:	87 ff       	sbrs	r24, 7
 58a:	fc cf       	rjmp	.-8      	; 0x584 <i2c_start+0x2a>
 58c:	80 91 b9 00 	lds	r24, 0x00B9	; 0x8000b9 <__TEXT_REGION_LENGTH__+0x7e00b9>
 590:	88 7f       	andi	r24, 0xF8	; 248
 592:	88 31       	cpi	r24, 0x18	; 24
 594:	11 f0       	breq	.+4      	; 0x59a <i2c_start+0x40>
 596:	80 34       	cpi	r24, 0x40	; 64
 598:	71 f7       	brne	.-36     	; 0x576 <i2c_start+0x1c>
 59a:	80 e0       	ldi	r24, 0x00	; 0
 59c:	08 95       	ret

0000059e <i2c_start_wait>:
 59e:	24 ea       	ldi	r18, 0xA4	; 164
 5a0:	34 e8       	ldi	r19, 0x84	; 132
 5a2:	44 e9       	ldi	r20, 0x94	; 148
 5a4:	20 93 bc 00 	sts	0x00BC, r18	; 0x8000bc <__TEXT_REGION_LENGTH__+0x7e00bc>
 5a8:	90 91 bc 00 	lds	r25, 0x00BC	; 0x8000bc <__TEXT_REGION_LENGTH__+0x7e00bc>
 5ac:	97 ff       	sbrs	r25, 7
 5ae:	fc cf       	rjmp	.-8      	; 0x5a8 <i2c_start_wait+0xa>
 5b0:	90 91 b9 00 	lds	r25, 0x00B9	; 0x8000b9 <__TEXT_REGION_LENGTH__+0x7e00b9>
 5b4:	98 7f       	andi	r25, 0xF8	; 248
 5b6:	98 30       	cpi	r25, 0x08	; 8
 5b8:	11 f0       	breq	.+4      	; 0x5be <i2c_start_wait+0x20>
 5ba:	90 31       	cpi	r25, 0x10	; 16
 5bc:	99 f7       	brne	.-26     	; 0x5a4 <i2c_start_wait+0x6>
 5be:	80 93 bb 00 	sts	0x00BB, r24	; 0x8000bb <__TEXT_REGION_LENGTH__+0x7e00bb>
 5c2:	30 93 bc 00 	sts	0x00BC, r19	; 0x8000bc <__TEXT_REGION_LENGTH__+0x7e00bc>
 5c6:	90 91 bc 00 	lds	r25, 0x00BC	; 0x8000bc <__TEXT_REGION_LENGTH__+0x7e00bc>
 5ca:	97 ff       	sbrs	r25, 7
 5cc:	fc cf       	rjmp	.-8      	; 0x5c6 <i2c_start_wait+0x28>
 5ce:	90 91 b9 00 	lds	r25, 0x00B9	; 0x8000b9 <__TEXT_REGION_LENGTH__+0x7e00b9>
 5d2:	98 7f       	andi	r25, 0xF8	; 248
 5d4:	90 32       	cpi	r25, 0x20	; 32
 5d6:	11 f0       	breq	.+4      	; 0x5dc <i2c_start_wait+0x3e>
 5d8:	98 35       	cpi	r25, 0x58	; 88
 5da:	39 f4       	brne	.+14     	; 0x5ea <i2c_start_wait+0x4c>
 5dc:	40 93 bc 00 	sts	0x00BC, r20	; 0x8000bc <__TEXT_REGION_LENGTH__+0x7e00bc>
 5e0:	90 91 bc 00 	lds	r25, 0x00BC	; 0x8000bc <__TEXT_REGION_LENGTH__+0x7e00bc>
 5e4:	94 fd       	sbrc	r25, 4
 5e6:	fc cf       	rjmp	.-8      	; 0x5e0 <i2c_start_wait+0x42>
 5e8:	dd cf       	rjmp	.-70     	; 0x5a4 <i2c_start_wait+0x6>
 5ea:	08 95       	ret

000005ec <i2c_rep_start>:
 5ec:	0c 94 ad 02 	jmp	0x55a	; 0x55a <i2c_start>

000005f0 <i2c_stop>:
 5f0:	84 e9       	ldi	r24, 0x94	; 148
 5f2:	80 93 bc 00 	sts	0x00BC, r24	; 0x8000bc <__TEXT_REGION_LENGTH__+0x7e00bc>
 5f6:	08 95       	ret

000005f8 <i2c_write>:
 5f8:	80 93 bb 00 	sts	0x00BB, r24	; 0x8000bb <__TEXT_REGION_LENGTH__+0x7e00bb>
 5fc:	84 e8       	ldi	r24, 0x84	; 132
 5fe:	80 93 bc 00 	sts	0x00BC, r24	; 0x8000bc <__TEXT_REGION_LENGTH__+0x7e00bc>
 602:	80 91 bc 00 	lds	r24, 0x00BC	; 0x8000bc <__TEXT_REGION_LENGTH__+0x7e00bc>
 606:	87 ff       	sbrs	r24, 7
 608:	fc cf       	rjmp	.-8      	; 0x602 <i2c_write+0xa>
 60a:	90 91 b9 00 	lds	r25, 0x00B9	; 0x8000b9 <__TEXT_REGION_LENGTH__+0x7e00b9>
 60e:	98 7f       	andi	r25, 0xF8	; 248
 610:	81 e0       	ldi	r24, 0x01	; 1
 612:	98 32       	cpi	r25, 0x28	; 40
 614:	09 f4       	brne	.+2      	; 0x618 <i2c_write+0x20>
 616:	80 e0       	ldi	r24, 0x00	; 0
 618:	08 95       	ret

0000061a <i2c_readAck>:
 61a:	84 ec       	ldi	r24, 0xC4	; 196
 61c:	80 93 bc 00 	sts	0x00BC, r24	; 0x8000bc <__TEXT_REGION_LENGTH__+0x7e00bc>
 620:	80 91 bc 00 	lds	r24, 0x00BC	; 0x8000bc <__TEXT_REGION_LENGTH__+0x7e00bc>
 624:	87 ff       	sbrs	r24, 7
 626:	fc cf       	rjmp	.-8      	; 0x620 <i2c_readAck+0x6>
 628:	80 91 bb 00 	lds	r24, 0x00BB	; 0x8000bb <__TEXT_REGION_LENGTH__+0x7e00bb>
 62c:	08 95       	ret

0000062e <i2c_readNak>:
 62e:	84 e8       	ldi	r24, 0x84	; 132
 630:	80 93 bc 00 	sts	0x00BC, r24	; 0x8000bc <__TEXT_REGION_LENGTH__+0x7e00bc>
 634:	80 91 bc 00 	lds	r24, 0x00BC	; 0x8000bc <__TEXT_REGION_LENGTH__+0x7e00bc>
 638:	87 ff       	sbrs	r24, 7
 63a:	fc cf       	rjmp	.-8      	; 0x634 <i2c_readNak+0x6>
 63c:	80 91 bb 00 	lds	r24, 0x00BB	; 0x8000bb <__TEXT_REGION_LENGTH__+0x7e00bb>
 640:	08 95       	ret

00000642 <uart_init>:
 642:	10 92 c5 00 	sts	0x00C5, r1	; 0x8000c5 <__TEXT_REGION_LENGTH__+0x7e00c5>
 646:	83 e3       	ldi	r24, 0x33	; 51
 648:	80 93 c4 00 	sts	0x00C4, r24	; 0x8000c4 <__TEXT_REGION_LENGTH__+0x7e00c4>
 64c:	e1 ec       	ldi	r30, 0xC1	; 193
 64e:	f0 e0       	ldi	r31, 0x00	; 0
 650:	80 81       	ld	r24, Z
 652:	88 61       	ori	r24, 0x18	; 24
 654:	80 83       	st	Z, r24
 656:	86 e0       	ldi	r24, 0x06	; 6
 658:	80 93 c2 00 	sts	0x00C2, r24	; 0x8000c2 <__TEXT_REGION_LENGTH__+0x7e00c2>
 65c:	08 95       	ret

0000065e <uart_putc>:
 65e:	90 91 c0 00 	lds	r25, 0x00C0	; 0x8000c0 <__TEXT_REGION_LENGTH__+0x7e00c0>
 662:	95 ff       	sbrs	r25, 5
 664:	fc cf       	rjmp	.-8      	; 0x65e <uart_putc>
 666:	80 93 c6 00 	sts	0x00C6, r24	; 0x8000c6 <__TEXT_REGION_LENGTH__+0x7e00c6>
 66a:	08 95       	ret

0000066c <uart_puts>:
 66c:	cf 93       	push	r28
 66e:	df 93       	push	r29
 670:	ec 01       	movw	r28, r24
 672:	89 91       	ld	r24, Y+
 674:	88 23       	and	r24, r24
 676:	19 f0       	breq	.+6      	; 0x67e <uart_puts+0x12>
 678:	0e 94 2f 03 	call	0x65e	; 0x65e <uart_putc>
 67c:	fa cf       	rjmp	.-12     	; 0x672 <uart_puts+0x6>
 67e:	df 91       	pop	r29
 680:	cf 91       	pop	r28
 682:	08 95       	ret

00000684 <uart_putb>:
 684:	0f 93       	push	r16
 686:	1f 93       	push	r17
 688:	cf 93       	push	r28
 68a:	df 93       	push	r29
 68c:	ec 01       	movw	r28, r24
 68e:	8c 01       	movw	r16, r24
 690:	06 0f       	add	r16, r22
 692:	11 1d       	adc	r17, r1
 694:	c0 17       	cp	r28, r16
 696:	d1 07       	cpc	r29, r17
 698:	21 f0       	breq	.+8      	; 0x6a2 <uart_putb+0x1e>
 69a:	89 91       	ld	r24, Y+
 69c:	0e 94 2f 03 	call	0x65e	; 0x65e <uart_putc>
 6a0:	f9 cf       	rjmp	.-14     	; 0x694 <uart_putb+0x10>
 6a2:	df 91       	pop	r29
 6a4:	cf 91       	pop	r28
 6a6:	1f 91       	pop	r17
 6a8:	0f 91       	pop	r16
 6aa:	08 95       	ret

000006ac <uart_receive>:
 6ac:	80 91 c0 00 	lds	r24, 0x00C0	; 0x8000c0 <__TEXT_REGION_LENGTH__+0x7e00c0>
 6b0:	87 ff       	sbrs	r24, 7
 6b2:	fc cf       	rjmp	.-8      	; 0x6ac <uart_receive>
 6b4:	80 91 c6 00 	lds	r24, 0x00C6	; 0x8000c6 <__TEXT_REGION_LENGTH__+0x7e00c6>
 6b8:	08 95       	ret

000006ba <uart_flush>:
 6ba:	80 91 c0 00 	lds	r24, 0x00C0	; 0x8000c0 <__TEXT_REGION_LENGTH__+0x7e00c0>
 6be:	87 ff       	sbrs	r24, 7
 6c0:	03 c0       	rjmp	.+6      	; 0x6c8 <uart_flush+0xe>
 6c2:	80 91 c6 00 	lds	r24, 0x00C6	; 0x8000c6 <__TEXT_REGION_LENGTH__+0x7e00c6>
 6c6:	f9 cf       	rjmp	.-14     	; 0x6ba <uart_flush>
 6c8:	08 95       	ret

000006ca <__udivmodqi4>:
 6ca:	99 1b       	sub	r25, r25
 6cc:	79 e0       	ldi	r23, 0x09	; 9
 6ce:	04 c0       	rjmp	.+8      	; 0x6d8 <__udivmodqi4_ep>

000006d0 <__udivmodqi4_loop>:
 6d0:	99 1f       	adc	r25, r25
 6d2:	96 17       	cp	r25, r22
 6d4:	08 f0       	brcs	.+2      	; 0x6d8 <__udivmodqi4_ep>
 6d6:	96 1b       	sub	r25, r22

000006d8 <__udivmodqi4_ep>:
 6d8:	88 1f       	adc	r24, r24
 6da:	7a 95       	dec	r23
 6dc:	c9 f7       	brne	.-14     	; 0x6d0 <__udivmodqi4_loop>
 6de:	80 95       	com	r24
 6e0:	08 95       	ret

000006e2 <__itoa_ncheck>:
 6e2:	bb 27       	eor	r27, r27
 6e4:	4a 30       	cpi	r20, 0x0A	; 10
 6e6:	31 f4       	brne	.+12     	; 0x6f4 <__itoa_ncheck+0x12>
 6e8:	99 23       	and	r25, r25
 6ea:	22 f4       	brpl	.+8      	; 0x6f4 <__itoa_ncheck+0x12>
 6ec:	bd e2       	ldi	r27, 0x2D	; 45
 6ee:	90 95       	com	r25
 6f0:	81 95       	neg	r24
 6f2:	9f 4f       	sbci	r25, 0xFF	; 255
 6f4:	0c 94 7d 03 	jmp	0x6fa	; 0x6fa <__utoa_common>

000006f8 <__utoa_ncheck>:
 6f8:	bb 27       	eor	r27, r27

000006fa <__utoa_common>:
 6fa:	fb 01       	movw	r30, r22
 6fc:	55 27       	eor	r21, r21
 6fe:	aa 27       	eor	r26, r26
 700:	88 0f       	add	r24, r24
 702:	99 1f       	adc	r25, r25
 704:	aa 1f       	adc	r26, r26
 706:	a4 17       	cp	r26, r20
 708:	10 f0       	brcs	.+4      	; 0x70e <__utoa_common+0x14>
 70a:	a4 1b       	sub	r26, r20
 70c:	83 95       	inc	r24
 70e:	50 51       	subi	r21, 0x10	; 16
 710:	b9 f7       	brne	.-18     	; 0x700 <__utoa_common+0x6>
 712:	a0 5d       	subi	r26, 0xD0	; 208
 714:	aa 33       	cpi	r26, 0x3A	; 58
 716:	08 f0       	brcs	.+2      	; 0x71a <__utoa_common+0x20>
 718:	a9 5d       	subi	r26, 0xD9	; 217
 71a:	a1 93       	st	Z+, r26
 71c:	00 97       	sbiw	r24, 0x00	; 0
 71e:	79 f7       	brne	.-34     	; 0x6fe <__utoa_common+0x4>
 720:	b1 11       	cpse	r27, r1
 722:	b1 93       	st	Z+, r27
 724:	11 92       	st	Z+, r1
 726:	cb 01       	movw	r24, r22
 728:	0c 94 96 03 	jmp	0x72c	; 0x72c <strrev>

0000072c <strrev>:
 72c:	dc 01       	movw	r26, r24
 72e:	fc 01       	movw	r30, r24
 730:	67 2f       	mov	r22, r23
 732:	71 91       	ld	r23, Z+
 734:	77 23       	and	r23, r23
 736:	e1 f7       	brne	.-8      	; 0x730 <strrev+0x4>
 738:	32 97       	sbiw	r30, 0x02	; 2
 73a:	04 c0       	rjmp	.+8      	; 0x744 <strrev+0x18>
 73c:	7c 91       	ld	r23, X
 73e:	6d 93       	st	X+, r22
 740:	70 83       	st	Z, r23
 742:	62 91       	ld	r22, -Z
 744:	ae 17       	cp	r26, r30
 746:	bf 07       	cpc	r27, r31
 748:	c8 f3       	brcs	.-14     	; 0x73c <strrev+0x10>
 74a:	08 95       	ret

0000074c <_exit>:
 74c:	f8 94       	cli

0000074e <__stop_program>:
 74e:	ff cf       	rjmp	.-2      	; 0x74e <__stop_program>
